:020000040000fa
:080000003e290400000000008d
:020000040000fa
:10020000000178001001e200030035001061a80031
:10021000000028001021b70030088000410880004d
:100220000200e000010032000089be00000006006c
:10023000889fbe008a1f7800f04b80000000e0001d
:100240000100320000000100204c80000000e000ae
:100250000100320000000100a04280000000e00028
:100260000100320000000100b04280000000e00008
:1002700001003200000001007c49e20028003a0041
:100280000005eb00d260260093012000004c8000a6
:10029000114c8000f7030700f2352f00e3c623005e
:1002a0000000410081804900004c8800114c88000a
:1002b0000a05e800e70f5500f2ff34000005eb00e7
:1002c0006454b8008085200000044400d2602600f9
:1002d00093012000004c8000114c8000e5030700d2
:1002e000f2352f00e3c62300000041008180490061
:1002f000004c8800114c8800008cbe000a05e80004
:10030000ff0f5500eeff3400a4468000b546800084
:10031000844288009542880010c0b3007ce9b70091
:10032000d260260093012000004c8000114c800018
:10033000d0030700f2352f00e3c623000000410080
:1003400081804900004c8800114c88008242800066
:100350007f0561006451b8008585200005014100da
:100360001202be0084428800954288000089be00c7
:1003700080428000914280000100780000f0a100de
:100380004f0578004f04be0000000600881f78006b
:1003900000047800f04b80000000e0000100320013
:1003a000000001007c69ef00204c80000000e000ac
:1003b00001003200000001006140b800004c8800dc
:1003c000114c88004f0478000000060010417800ae
:1003d000914f510006003a008001eb000204e0005a
:1003e0000a00320050417800d14f5100faff32002c
:1003f00010407800914f5000020031000080eb0067
:100400000100370010002000800178000300780010
:1004100000000600800078001004e00002003200b6
:100420005104e000feff3a0000805000000006008a
:10043000800278000200e0000e0032009541780052
:100440001142780084cf5100030032000080eb009d
:1004500009003900100005000000eb000304e00073
:10046000050032008502e8008100e8000201e90091
:10047000f2ff3a000000eb00000006000200fa0064
:10048000889fbe008a9fbe008c1f78000005780000
:1004900081047800020678000100e00001003a00c3
:1004a000ec8457000a047800010037000804e800d3
:1004b0001800fb00cd0007000000e000fbff3a0041
:1004c00098407800d0c2b30080cf500003003200c3
:1004d000bbc2b3008bcf500002003a0081457800c8
:1004e0000804e8000c0178000800be002c0007009a
:1004f0000001be00990f540001003a008a0c7800f8
:10050000990f550003003a00e00f5100e08f5900a9
:100510000e003a00b0c2b30080cf550003003a008d
:10052000e00f5100e08f590008003500d0c2b30041
:1005300080cf55000f003a00000020000100280085
:10054000800f5100818f59000a00360020022000e0
:10055000504c880002002000030028006b4040003f
:1005600080cf550008003200f2ff2f00f3ff270074
:1005700005003700d0c2b30080cf550002003a001a
:1005800060011100e08119000200be004f067800f2
:100590004f05be004f04be000080fa0000000600b8
:1005a000ea874700889fbe008a9fbe008c9fbe00de
:1005b0008e1f78008006780001067800820478009b
:1005c00000047800010037000804e8001800fb0070
:1005d000860007000000e000fbff3a00984078002a
:1005e000d0c2b30080cf50000400320000c0e90048
:1005f000d0ef9f0080cf500002003a00d1ef9f0063
:100600000804e8000900e00046003500e18f5400ce
:100610004400320040022000808f540041003c0022
:100620000900e0000d003400f08f54001a003a0079
:1006300000c3b300984f100017003a009840900094
:1006400080c7b30080cf50001200320080c5b300d5
:1006500080cf500010003a000e00370000c3b300f6
:10066000984f100002003200a90020000a00370055
:100670009840900080c7b30080cf50000400320043
:100680008900200080c5b30080cf500002003a00ee
:10069000090120000884e800d8b79f0000c3b30018
:1006a000984f100002003a00d84f1000feff3200b1
:1006b0006055b800080778000e003700fab79f00b1
:1006c0008bbf9f00808d200000425200c4ef9f002e
:1006d0006149b9000a00be00e60207004fea970030
:1006e0000401fb00cf91de00000541008185490037
:1006f0000804e8001800fb004400070080007800b0
:1007000009017800808d2000470007000002780072
:100710000000e000e9ff3a005fb09700880f50004a
:1007200005003a000c00e000010032000d0e7800d8
:100730006000b800270037008e005400d08f2000e2
:10074000694078000000fb00008050001700330073
:100750004240a9000f003c004fe997000200fb0057
:10076000cf80de000000550081805d00800f5500c5
:10077000818f5d00070039006149b90092020700ce
:100780007fb197008fb99700820f5000838f580078
:100790000600320020022000504c88000085eb004b
:1007a0008085eb00b3c2b300d3ef9f00d0c2b3008b
:1007b0005fea9700804f520002003a006005150082
:1007c000e0851d000c00e00001003200080e7800fa
:1007d0000a00be004f0778004f06be004f05be005e
:1007e0004f04be00af00b100000006006900e10048
:1007f000040035006d00e100030034000002b10088
:1008000001003200000005001000050080007800a3
:100810001104b100030035009101b10001003c005a
:100820000050a000000006000200e00005003200b9
:1008300090cf1000040032000000e8000201e9003f
:10084000fbff3a000000eb000000060003f0a200ee
:10085000889fbe008a9fbe008c1f7800c8010700d9
:10086000cf0133006450e1004f0032006420e1000a
:100870005200320003826c0007003b000905d000e3
:100880000306d000820f54000c065d000200390000
:100890000200320089017800030678008582550045
:1008a00004003d000003fd008103fd008502ea0015
:1008b0008b854200840f720002003b006000100034
:1008c000e08018006011b8000005eb007a28e10014
:1008d0000a00390006007800c75ddd00f707b200a6
:1008e000878075002d003700828171000a01780031
:1008f000610560008180d1000080d3008502e9009d
:10090000f9ff3b00060440008784480002003b00da
:1009100060041400e0841c000988a3000700320072
:100920008a81710082817100610164008904d100b3
:100930000884d3008b05e800170037000978a3006e
:1009400013003a000b00e000130034008b05e900af
:100950000804440089844c000a4474000978a30008
:100960000d003a000b00e000070034008b05e900a1
:100970000804440089844c0001003a000b00200068
:100980000978a300f7ff32000001eb0002003700f6
:10099000828171000a0178003e0107000cf0a70077
:1009a00001f0a000870137006420e10002003a0056
:1009b000838f6c00870133000801be000200be0077
:1009c00080013700889fbe008a9fbe008c1f780080
:1009d0006b0107007201330003866c006450e10074
:1009e000240032006420e100270032006150e10061
:1009f000220032006120e100210032008b8542009c
:100a0000eb07b1000134b800003ab8000804420016
:100a100089844a00013ab8000030b800888040005c
:100a200009014a00040033000000400081804800b2
:100a3000020149008b05e900c909dd00830170004e
:100a40000100320013002000c814de004814dd004d
:100a50004709de001200b200c808de0008847000fa
:100a60000c01070001f0a1000cf0a70001f0a000ac
:100a7000540137006120e100560132000801be0038
:100a80000200be00f7ff37006150e100fcff3a00b2
:100a900050013700889fbe008a9fbe008c1f7800df
:100aa000370107003e01330003866c006450e1000b
:100ab0002e0032006420e100330032006150e1007a
:100ac0002f0032006120e1003100320085855500a1
:100ad000eb07b000090020000804200005003700e3
:100ae0000804440089844c000a00310006034300d6
:100af00087834b000001530081815b00f8ff3300c6
:100b00000203be000800a0000804440089844c00d1
:100b1000f6ff3900c639dd008301730001003200a1
:100b2000130020008904d1000884d3000998a30091
:100b3000050032000800a7000300a0008904d100ce
:100b40000884d3008b05e8008904d1000884d30011
:100b50000001eb000281d200ce00070001f0a100ed
:100b60000cf0a70001f0a000160137006420e1009e
:100b7000180132000801be000200be00f7ff370076
:100b80006120e100130132006000b800f3ff37007c
:100b90000000200001f82700f0ff370004002000cb
:100ba00000003700889fbe008a9fbe008c1f78001f
:100bb0004f26dd00f2000700f90033006120e1005c
:100bc000430032006250e10041003e003e00390027
:100bd0006420e1003c003200058255000f003b001c
:100be0000402e80038003a00800f5300818f5b0058
:100bf000350034000800be0003f0a10001f0a6009b
:100c000003f0a0000cf0a70011ff0700ed00370073
:100c10000603430087834b000c4646000005530043
:100c200081855b00020033000a03be000c00a000b7
:100c30000402e900f6ff3b00850578000602430048
:100c400087824b0004003a006000b80009f0a7005a
:100c500001f0a000db0037000002520081825a0040
:100c60000704e000040033000603430087834b00c1
:100c70008b05e900faff3700090578000604be007d
:100c80000203be006011b80082000700e00f5200ae
:100c9000e08f5a000700350002003c000c08a3005a
:100ca000040032000601be0003f0a0000cf0a70013
:100cb000e7fe07000a85680001f0a1000af0a7001e
:100cc00001f0a000bf0037000800be00bd003700e3
:100cd000100220000cf0a600504c8800bd00370028
:100ce0000001eb00020037000081eb00000037003c
:100cf000889fbe008a9fbe008c9fbe008205780040
:100d00000004be00890007000800be006420e10066
:100d10000700390002003a00f1ff2700f0ff2f0022
:100d20000160a00012022000524c880055003700dc
:100d30006120e10003003a000b00a70001f8230046
:100d40005000370001f0a10002002100936424004c
:100d5000a30007000800be0004003500b2fd20001b
:100d6000930c24008dff07000004be000005eb007b
:100d70000b00a6004f0dde0001f0a1000004be0034
:100d800032982f0023ea23000eff07000001eb003a
:100d900003f023000b00a70003f82300acfe0700bc
:100da000be0007000000a7000a00a2009000070094
:100db0000b00e000030032000200200003f02300db
:100dc000a2fe070001f0a2000006be000200200003
:100dd00093042400fbfe07000801be009cfe0700f0
:100de000809fbe000c00be0022a22a00d3a72300d1
:100df000f4fe07004f01be0095fe07000004be0090
:100e000001f0a100020020000398230074000700f5
:100e10000800be00190035000001be00e9fe070011
:100e20000006be00b2c52900e3622300e5fe07000c
:100e300022222b00f3942b0085fe07000c01be003c
:100e4000e0fe0700e273280083c0230080fe070055
:100e50000c01be00dbfe070042aa2a00a3e22b0021
:100e60007bfe07000c01be00d6fe07000801be0095
:100e7000d4fe07000801be0075fe07000a00a700a7
:100e800001f0a2004f06be004f05be004f04be0099
:100e90000000060081002000618055000b003d002d
:100ea0000b00200061fe2f000100e1001d00340056
:100eb00082817100610164008904d1000884d3003b
:100ec0000000e800faff3a007100200061006400b1
:100ed0000300700002006000090032006104440059
:100ee000e0844c000988a500050032008b05e8006d
:100ef0006808e10002003a008904d1000884d300a8
:100f0000f20f20000258e10005003d00c75ddd0042
:100f1000f907b2008980750008007800000006001b
:100f20000bf827008b00780000000500c70ade00e0
:100f3000f107b200f50fb20008003200e1cf420025
:100f4000020032000170a00024000500810f700033
:100f5000010032000408050044000500810f700004
:100f600002003a00140005008502e900000040007c
:100f700081c04800fcff3b000170a0002400050078
:100f80000004be00e9ff07000003be000405be0028
:100f90000200be00e5ff0700844f75000000060058
:100fa0000200be006450e100050036006420e1004c
:100fb000020036000968a30001003a000800be00e4
:100fc0000160a0004f0678004f05be004f04be0030
:100fd00000000600f0ff2f00f1ff2700f9ff3700a7
:100fe0001400200088003700f4ff2f00860037002f
:100ff000889fbe008a9fbe00010578000100e000c6
:101000000400350008003c000000e0002000320031
:101010000500370060001000e080180002003b006f
:1010200001f02c001a0037000004be006011b80067
:101030006b0920000982cf00020039000882cf002e
:101040000441b000694252000e00320008003b002b
:1010500082817100610164008904d1000884d30099
:101060008b05e8000442e800f9ff3a00050037006c
:101070000804440089844c008b05e9000442e9001f
:10108000fbff3a0083ff07000af0a70001f0a00071
:101090004f05be004f04be00000006000001be0068
:1010a000a2ff07000470a70003f0a1006509b100ca
:1010b000160032000d0035006828e10006003500fa
:1010c000f0ff2f00f1ff27000300e00013003b00ba
:1010d0000100280000000500000040008180480059
:1010e0008502e900fcff3a0008003700f88f420053
:1010f00002003c008000eb00000005008100d100f0
:101100000080d3008502e800fcff3a000300e00005
:1011100002003b0060001000e080180000000600a4
:101120000001be0081ff07000470a70003f0a100ca
:1011300003f8a30013003a006509b1001000320063
:10114000090035006928e10002003500010028008f
:101150000000050000004000818048008502e90091
:10116000fcff3a0000000600f88f42000500350041
:101170008100d1000080d3008502e800fcff3a0026
:10118000000006008000eb0000000500839f68005f
:101190000100e00002003d0060001000e080180047
:1011a0000300e00002003d0060011100e081190031
:1011b000050007004f00e00002003b006000100047
:1011c000e0801800000006006022b800060220003f
:1011d0000000d0008180d2000482d2008582d2003b
:1011e0000000a0000202520083825a0003003b006c
:1011f0000202420083824a000000a1000603e900c7
:10120000f3ff3a0000000600889fbe008a9fbe00e0
:10121000841f78005aff07004f0078001100330048
:10122000f0ff2f00838f6c0006003b000405650073
:101230000a00a7000800370009f0a60010002000ef
:1012400008003700820f5400838f5c0003003900d0
:101250001000200001003e000000200009f0a7005f
:101260000000ea004f05be004f04be000000e00091
:1012700000000600020ab900001bb9000200b80015
:1012800081004200810043000000060000000500cc
:101290000000fa0068815700cfb89700e20107000c
:1012a0000080fa0000000600060007005e0007004c
:1012b0000f01070037010700900007003202070006
:1012c000dd013700ec874700889fbe008a9fbe0083
:1012d0008c9fbe008e1f7800000678000104780005
:1012e000180790002805900098067800cdb79f0059
:1012f000b80590003202be002203be000400be000a
:101300000601be004f18de006011b8008000eb003f
:10131000d0b79f00e1b79f00f2b79f0083bf9f0047
:10132000800478000900e000060032006000b80088
:101330006011b8000402500085825800060359006d
:10134000878359000e00e000020035000d10a10057
:10135000cdb79f000900e00005003a004fb09700ac
:101360000028a30002003a000038a3000200320067
:101370008a00e900010037008a007800f8815700f0
:10138000a200200008007800860007000900e000a5
:1013900003003a00cfb097000128a30008003200f4
:1013a0000000e90000814500b1c2b3000900e0007f
:1013b00001003200d1c2b3000149780005003700b6
:1013c0000138a300030032000000e90001c2b300ad
:1013d00081757800480190000201e9000001510088
:1013e000808045004fb297008a0178000c00780099
:1013f000300207009c0090000188a3000400320026
:1014000098009000810f500001003d00010078001d
:101410004f0778004f06be004f05be004f04be00c8
:10142000cf00b100000006000200fa00889fbe0055
:101430008a9fbe00800578000104780002007800d1
:10144000180190002805900098007800b1bf9f0017
:10145000b80490000200e000020035000110a10075
:10146000b1bf9f00ea815700820020008a00780007
:101470003002be002003be000800780049000700cb
:101480003fb99700f0006100030032000000e9005e
:1014900001c3b300817478003fb99700e800610090
:1014a000030032000000e90001c2b300817478003b
:1014b000480190000201e9000001510080804400d1
:1014c0003fba97008a0178000b007800f901070005
:1014d0009b0090000188a300040032009800900057
:1014e000810f500001003d00010078004f05be0053
:1014f0004f04be000080fa0000000600ea874700a3
:10150000889fbe008a9fbe008e1f7800000478006e
:10151000030078007287570084e2260055c7260032
:10152000049fbe00c3962200030f78006c8757000b
:10153000004feb0011059000a10490009105780088
:101540000200e000020032000207780001003700cc
:10155000728757000000e00002003a000e00780099
:10156000acfb07000a00e000030035008a0f5000c2
:10157000010036000a0078000b027800890178002b
:10158000000178008e00780008007800c90107008b
:101590004f0778004f05be004f04be00af00b100fa
:1015a00000000600f4874700889fbe008a9fbe00a7
:1015b0008c9fbe008e1f78000605be000404be008e
:1015c00081bf9f0082b79f00f3b79f00b0009000db
:1015d000e1b79f001301780092b79f00900690003a
:1015e000400090000000e900000678000d00e000d7
:1015f00001003d001d0020008040eb00efb197008e
:10160000817178001e0020001f0037000c06e900e1
:101610000fb09700cf80de006109b900a0b79f002e
:10162000b1b79f00c2b79f00d3b79f000203be00af
:101630000002be000800be000a01be002f05070020
:10164000000778000e4078000043b000efb097002c
:1016500080707e008d06e9000fb997000201e90055
:1016600082bf9f002fb29700bfb297004fb3970081
:10167000dfb397000800be000a01be00180507008e
:101680000205be000004be000c00e0000d003400a6
:10169000e00f5400e08f5c00e00f5d00e08f5d0024
:1016a000daff3a000d00e000d8ff3c008fb9970048
:1016b0000300e000030034001fb097000018a300ef
:1016c000d2ff3a000e00e00002003a00ffb097009f
:1016d0001140a1000c0078004f0778004f06be00b3
:1016e0004f05be004f04be004f01b10000000600d0
:1016f0000200fa00889fbe008a9fbe0000057800a5
:10170000010478000200780018019000a8049000fd
:1017100098007800b1bf9f00b80590000200e0007b
:10172000020035000110a100b1bf9f00ea815700ff
:10173000a2002000890078003002be002003be0015
:101740000800780097ff0700480190000201e900b7
:1017500000015100808045003fba97008901780060
:101760000a007800530107009a0090000188a30046
:101770000400320098009000810f500001003d00ed
:10178000010078004f05be004f04be000080fa0043
:1017900000000600fa874700889fbe008a9fbe00af
:1017a0008c9fbe008e1f78008004780001047800b2
:1017b000820578001801900028059000180778002d
:1017c000b80090000200e000020035000e10a100f9
:1017d000010037001200200070006700e0b79f0092
:1017e000090032003b02be002b03be00e00f520096
:1017f000e08f5a00e00f5b00e08f5b0002003200d8
:101800008a86e900010037008a067800e80267004e
:10181000f5b79f00010032008d06e9003b02be00d3
:101820002b03be00e4af9f00f5af9f0086b79f007b
:1018300097b79f00480690000c06e9000040eb00b7
:1018400080707e00efb297007fb297008903780026
:1018500081047800d8af9f00020478008bbf9f00fe
:101860008a057800034578002a0037000c06e90055
:101870006fab97006f006300e90f500002003c005f
:101880000003b000010037007005b0000a03fb0040
:101890001604b100f90f53000c003e00000378005d
:1018a0000650a0001606b100f90f530007003e00d5
:1018b000b4b79f00a5b79f00c7b79f007703070085
:1018c000cfb39700afb297003fb2970080747e000d
:1018d0000804e9008d06e9006fa89700ffa89700ab
:1018e0000fb197009fb19700460020008301d100ff
:1018f0000281d3008180d3000080d3000603e90079
:10190000faff3a00e0af9f00f1af9f0082b79f005f
:1019100093b79f00e10f56000f0034006fa89700a7
:10192000ffa897000fb197009fb19700e00f5000fc
:10193000e08f5800e00f5900e08f5900cbff3a00cc
:101940000800e000c9ff3c000d00e0000200340088
:101950000e18a300c5ff3a0089007800f4b79f0075
:10196000870478005fac97008a4178000b05780007
:101970008fbd97000500e000100032003b02be0062
:101980002b03be00e4af9f00f5af9f0086b79f001a
:1019900097b79f00e00f5200e08f5a00e00f5b0006
:1019a000e08f5b00050032000c06e90083707e00ca
:1019b0000c06e90000c3b30080707e00ffb2970000
:1019c0000500e000030032000c06e90000c2b3008d
:1019d00080707e00480190000201e9000c01510076
:1019e0008c8040000e0278008a017800090078009f
:1019f000b0000700990090000188a30004003200a5
:101a000098009000810f500001003d000100780017
:101a10004f0778004f06be004f05be004f04be00c2
:101a2000af01b100000006008201780001017800da
:101a3000f1ff27002003370084082000848f500026
:101a40001d0032000d003c0014082000848f50005f
:101a50002700320002003c00040820000400370088
:101a600024082000848f50003400320044082000f5
:101a7000848f500043003a0036003700040a2000eb
:101a8000848f50002700320004003c00040920002d
:101a9000848f50003b003a0028003700020c2000e1
:101aa000828f50002f003200020f2000828f5000e2
:101ab00034003a002b0037009380e9000200e00078
:101ac00005003200810978001102fb00cfa2de0080
:101ad000612bb90028003700810978001142780095
:101ae0000482fb008002eb006033b8002200370064
:101af00013027800e40052000200e000050032000a
:101b0000810978001102be004fabde008603780029
:101b100019003700810978001102be006033b80057
:101b2000150037009380e9008109780011027800e0
:101b3000cfa2de00612bb9000f00370093027800be
:101b4000e8805200810978003102be002103be0006
:101b5000090037009380e9000200e0000200320033
:101b6000f1ff37009380e9008109780011027800c5
:101b70008002eb006033b8000498be000690be00ff
:101b8000100005000000050044082000848f50006c
:101b90002500320008003c0014082000848f50000b
:101ba0001400320024082000848f500024003200ea
:101bb000040820000c00370004092000848f500026
:101bc0001f00320004003c0084082000848f500075
:101bd00024003a000e003700040a2000848f5000d1
:101be00011003200040c2000848f50001d003a00c8
:101bf0000d0037009380e90081097800910078009a
:101c000001087800cf91de008288be001400370002
:101c10009380e9008109780091007800010878003c
:101c2000824878000e0037009380e900810978002f
:101c300091007800010878008208780008003700d9
:101c40009380e9008109780091007800010878000c
:101c50006112b900612bb9008498be008690be0065
:101c60001000050000000500889fbe0000047800f9
:101c70004800900082047800808f540001003600f4
:101c800080047800090178005800900018020700cd
:101c9000580090000900400050049800c8009000cf
:101ca00089845000490498000048eb004f04be00ae
:101cb00000000600f2874700889fbe008a9fbe0092
:101cc0008c9fbe008e1f780080047800010578008c
:101cd00002047800830578006107620002003a0080
:101ce0008b0f540008003900080178008a00780042
:101cf00009007800dcff07008b0f54000200390058
:101d0000880578001e003700088655000c01780011
:101d1000f00f5600010036000201200001022000f1
:101d20007e805700f90107008c0678000500370017
:101d300002012000fe80570009007800caff07005a
:101d4000f0865600ef8f5600f9ff3e004461de003a
:101d500000ff2f000091b90002014600fe805700ed
:101d600009007800c0ff07000e00e00004003a0000
:101d7000080178008a00780009007800baff07009f
:101d80000b0078004f0778004f06be004f05be00dd
:101d90004f04be002f01b100000006000000050046
:101da0000000050000000500000178000040eb0085
:101db0008080fb008180400043ec200063c27800fb
:101dc0000404e00003003a0050ec200060c07800fa
:101dd0000000060092017800934f520004003a0080
:101de00050ec200060c078000309e80001003700d3
:101df0000040e800ea4f5000edff3600000006000a
:101e0000f6874700889fbe008a9fbe008c9fbe0059
:101e10008e1f7800000578000104780083057800a3
:101e2000040678000000eb00c0b79f008080eb0044
:101e3000d1b79f00e0b79f00f2b79f0000082000d5
:101e400080bf9f0098007800010078008004eb00bc
:101e5000010037008904e800304178000204e00006
:101e60000300320053c2b300834f5100f9ff3a0020
:101e70000900e00004003200090178000a0078003f
:101e800079ff0700188c44001807780050c2b3008f
:101e90009e4f10003f013a000e07e8000e0c78003c
:101ea00010003700cfb097000100a0000b003700f2
:101eb000cfb097000110a00008003700cfb0970006
:101ec0000120a00005003700cfb097000130a0002e
:101ed00002003700cfb097000140a000c1b79f00bb
:101ee000000ce8001800780090407800b2c2b300ff
:101ef00082cf5000f1ff320007003c0002c2b30065
:101f000082cf5000f0ff320032c2b30082cf5000c7
:101f100007003a00efff3700d2c2b30082cf500073
:101f2000e0ff320002c3b30082cf5000e0ff320076
:101f3000a2c2b30082cf50000d003a00000ce800ae
:101f40001c80e900000e780010007800e0b79f00c8
:101f50000000e0000f003d00cfb097000100a2009c
:101f6000c1b79f000000ea00e0b79f0009003700fa
:101f700039010700e0b79f0001003700000ce800be
:101f8000180078009000fb000103b100e98f5000b9
:101f9000faff36004fb097000008a300020032009d
:101fa0000010a100c0b79f0018007800e1c2b30084
:101fb00090cf100016003a008000eb00d1b79f00d0
:101fc0000000e800000c7800a1c2b30090cf100020
:101fd00006003a00000ce8001c80e900000e7800c2
:101fe00010007800d0b79f00090037001a010700e1
:101ff000d0b79f0001003700000ce80018007800ff
:102000009000fb000103b100e98f5000faff360099
:102010000800780064ff0700804678001800780008
:102020001000fb00f9f9070091062000810f500015
:102030003800320012003c0041062000810f5000a1
:10204000340032000a003c0011062000810f5000cd
:102050002000320031062000810f5000a000320025
:1020600051022000810f5000bc003a00b40037003c
:1020700071062000810f5000b8003c008800370036
:1020800001072000810f50005c00320007003c0077
:10209000e1062000810f50007a003200f106200096
:1020a000810f5000ad003a00390037005107200081
:1020b000810f50002700320081072000810f50005f
:1020c0004200320031072000810f5000a3003a0087
:1020d0008f0037008d80fb000c01780000fe2f0080
:1020e0000f004000990107000000e000a800320046
:1020f00018007800000ce8009041780002fe2f00e4
:102100000f014100f88057000a00780024ff070003
:102110000e0037008d80fb008c017800120020003b
:1021200000fe2f000f00400043fe07000000e0000b
:1021300097003200180ce80002fe2f000f0141004a
:10214000f88057000a0078005efc07008084440095
:10215000900037008d80fb008c0178000001eb00bf
:1021600000fe2f000f00400033fe07000000e000db
:1021700087003200180ce80002fe2f000f0141001a
:10218000f88057000a00780059fd0700efff37007c
:102190008d80fb008c0178000001eb0000fe2f0019
:1021a0000f00400024fe07000000e000780032002d
:1021b000180ce80002fe2f000f014100f8805700c4
:1021c0000a00780098fc0700e0ff37008d80fb00d4
:1021d0008c0178000001eb0000fe2f000f00400092
:1021e00015fe07000000e0006900320018007800ca
:1021f000000ce800904178001c0037008c0178004a
:102200000001eb00010f200000fe2f000f00400036
:1022100009fe07000000e0005d003200180ce80035
:102220000fb097009fb097002fb19700bfb19700f4
:10223000e00f5000e08f5800e00f5900e08f590088
:1022400009003a00cfb597006fb49700c0eb2000ab
:1022500070f807000b027800880178000001780010
:10226000c1eb20004700370083c7b30002fe2f00f8
:102270000f014100f88057000a00780045fd070073
:10228000b2ff37000b8144008d80fb008c01780089
:1022900000fe2f000f0040003bfe07003c0037000f
:1022a0008d80fb000c01780000fe2f000f00400025
:1022b000260107000000e000350032001800780019
:1022c000000ce8009041780002fe2f000f01410051
:1022d000f88057000a007800b1fe07009bff370026
:1022e00000c8b30080cf560029003a00180ce8005f
:1022f0001c80e900000e780010407800e0df9f00ad
:1023000013002000e2fd2f000f01410008003700fc
:1023100000c8b30080cf56001d003a00180ce8003a
:102320001c80e900000e78008001eb0010017800ad
:10233000f88057000a00780070fc070083ff370020
:1023400000c8b30080cf560011003a00180ce80016
:102350004fb29700efb19700080037000e0c7800dd
:102360000000eb00c0b79f00e0b79f000080eb00cb
:10237000d0b79f000002eb0084017800120020001b
:1023800021ec20000a0078004afe07006fff3700aa
:10239000180ce800090078004f0778004f06be00cf
:1023a0004f05be004f04be006f01b10000000600e3
:1023b0008200fa00889fbe008a1f7800000578001e
:1023c00082047800c13f9f000004eb00100037003a
:1023d0000902780088017800a2f72f000f01410060
:1023e00081f72f008f8040000a00780084fe0700ec
:1023f00008004000880f500004003d00b004200099
:10240000d07688000084eb000400370000047800d8
:102410004f3897001004e000edff3a000800780004
:102420004f0578004f04be000080fa00000006004f
:10243000800078001000200002022000828f5000ef
:1024400004003200e9805000e48f500001003600a3
:102450000000eb0000000600889fbe008a1f780085
:10246000000578000a047800984478000805e80020
:102470000900fb00eeff07000000e000f9ff3a0052
:10248000b0c2b30080cf540005003200d0c2b30008
:102490008000eb0080cf540005003a0002003700b6
:1024a0008000eb0001003700110020000804e80064
:1024b0000000eb00030037006a02b900020052007e
:1024c0000003b0003801fb0003fd2f0082814100b2
:1024d000e98f5100f8ff36000100e00001003a00ea
:1024e0000000ea004f0578004f04be00000006001f
:1024f0008001780002003700b15978000201e9003c
:102500000200e000fcff3a0000000600889fbe00c9
:102510008a9fbe00800478000200e0005b00320069
:1025200001407800814c780082814400f1f99f00dd
:10253000e20f51005500360091449800a1449800e4
:10254000e1f99f00d1f99f00e60f51004f003600de
:10255000b1449800c1f99f00e80f51004b003600cc
:102560000905ea00630565000a8444000a05510074
:10257000c1ff2f00010565000080fb008000eb001b
:1025800012102000131020003afb0700008cbe0040
:102590000a01440060b99f0071b99f00e80f55001f
:1025a0003a00360020049800310498004004980056
:1025b0005104980020b99f0031b99f0040b99f0095
:1025c00051b99f00f80f55003000360060049800a4
:1025d00071049800000c9800110c9800200c9800d1
:1025e000310c9800400c9800510c980020b19f00cd
:1025f00031b19f0040b19f0051b19f0060b19f0079
:1026000071b19f0000b99f0011b99f00640164007f
:102610007801410002044400020555006011b80031
:102620000203be000002be000403be006022b80028
:1026300000007200818072000201730083817300c8
:1026400010003700009cbe000294be0040049800b9
:10265000510498006204980073049800000c9800dc
:10266000110c9800220c9800330c9800400c980034
:10267000510c9800620c9800730c98000a02b1008b
:102680000802b000ff0f5500eeff3e000900780081
:102690004f05be004f04be0000000600f1f92f00f8
:1026a00080804000f98f500001003e00f005b2002c
:1026b00000000600f9ff3700f28747008e1f780000
:1026c00002027800030178000000e00002003200fe
:1026d0000007780001003700728757008002eb0086
:1026e0000100e000010032008102e9007080570023
:1026f000060009000018eb000080eb0080bf9f007f
:102700002310200093bf9f00aebf9f00b1bf9f006a
:10271000c5bf9f000100e00003003d00b1042000a0
:10272000d176880006003700004feb00eebf9f0017
:10273000debf9f00840078007080570022000700f1
:102740004f0778002f01b10000000600881f7800b5
:102750000004780000082000808f5000170035002a
:1027600010082000808f50000b003400300820003b
:10277000808f500011003a0092007800688050006d
:10278000000978003002be002003be00049cbe0099
:102790000694be0007003700920278006480520061
:1027a000000978001000be0015000700009cbe0064
:1027b0000294be0010002000010037000000eb0072
:1027c0004f047800000006000200fa00881f78001d
:1027d00000047800e2bf9f00648157000800780081
:1027e000f3fe0700980090000148a30001003200aa
:1027f0000080eb004f0478000080fa000000060023
:1028000081037800c9f907000001be006000b8002c
:102810000478a30013003a006220e10015003e0096
:102820000d0039008301d1000281d3008180d300e3
:102830008301d1000281d3008180d3008301d100c4
:102840000281d3008180d3000538b000c42add00a6
:10285000f300b2008381720007f0a70003f0a0002c
:102860000000060083ff2700020020006110b9006d
:10287000f9ff370003ff2700f7ff3700889fbe00ee
:102880008a9fbe0030044200b0844a0030054b00ed
:1028900090854b006000b1000898be000a90be0011
:1028a0000440e10005c8e10006d0e10007d8e100de
:1028b00002003100680040001008e8004f05be002b
:1028c0004f04be0000000600889fbe008a9fbe0025
:1028d0003004be002005be000418540005985c00ba
:1028e00006185d0007985d00110020000440e1001b
:1028f00005c8e10006d0e10007d8e1000100390079
:102900008000eb00108810004f05be004f04be0091
:10291000000006001200fa00889fbe008a9fbe00d9
:102920008c9fbe00e0b79f00f1b79f0082bf9f0061
:1029300093bf9f000605be000404be000000eb002c
:10294000d0b79f00c0b79f00b0b79f00a0b79f004f
:1029500090b79f00000678005fb19700cfb0970056
:10296000820141003fb097000200e00004003d00fa
:10297000370007007e805700c0ff070003003700c4
:10298000330007007e805700cfff0700dfb69700b7
:102990000d00e0000c0035006fb29700ffb2970009
:1029a0000fbb97009fbb9700100020000100200084
:1029b0006011b8000002720081827200020373008d
:1029c000838373001b0007000c06e800010420004d
:1029d000810f5600e0ff3a000d00e00004003d00ca
:1029e0000802be000a03be007e805700a3ff070056
:1029f0005fa897000000e00005003a001fb29700b2
:102a0000afb297003fb39700cfb39700090007001c
:102a10006fb09700ffb097000fb997009fb997006c
:102a20004f06be004f05be004f04be000080fa00f6
:102a3000000006000100070000000600a4b79f0088
:102a4000b5b79f00c6b79f00d7b79f00000006002c
:102a50004f09de0082817100b3b79f004f01de0095
:102a60008180400082807000a1b79f008fb09700e6
:102a70004f09de00000040000200700090b79f0088
:102a80007fa897004f01de008180400082807000a7
:102a900081b79f000d0007004f3ade0000004000a4
:102aa00004007000f0af9f0008000700040242001d
:102ab00085824a0006034b0087834b00dfff070037
:102ac0000802be000a03be00000006002fb29700f5
:102ad000bfb297004fb39700dfb397000000060026
:102ae000881f780018002000881f780089ff0700e1
:102af0008f87e9004f04780000000600801feb007c
:102b000084ff07008f87e90000000600889fbe0051
:102b10008a9fbe00e00f5000e08f5800e00f590080
:102b2000e08f59000c003d006044b8006055b800cb
:102b30000000540081805c0002015d0083815d0023
:102b4000180020001500070008003d0018000700cd
:102b50000004eb00050037000004eb000f00070045
:102b600002003d001200070018002000dcff0700f3
:102b70000800e000060032006022b8006033b800b0
:102b80000000520081805a0002015b0083815b00db
:102b90004f05be004f04be0000000600e00f5200cb
:102ba000e08f5a00e00f5b00e08f5b000000060042
:102bb0006044b8006055b8000402540085825c008f
:102bc00006035d0087835d0000000600889fbe004d
:102bd0008a9fbe008c1f7800e00f5000e08f5800e5
:102be000e00f5900e08f59000d003d006044b8002f
:102bf0006055b8000000540081805c0002015d0057
:102c000083815d001c0020000820e10009a8e1008c
:102c10000ab0e1000bb8e1000d003d0008003700ec
:102c20000006eb00e00f5200e08f5a00e00f5b005f
:102c3000e08f5b0006003d006044b8006055b800be
:102c40000402540085825c0006035d0087835d00fa
:102c5000aaff07000c00e000060032006022b80066
:102c60006033b8000000520081805a0002015b000e
:102c700083815b004f0678004f05be004f04be0005
:102c800000000600de42a800de62a900de82a80085
:102c9000dea2a9001622ef00b010800060108800ac
:102ca0001822ef00c0108000701088007000200013
:102cb000f0108800f0108000a01088008d40a9005e
:102cc0008c00d5000020b200610480000190a100ba
:102cd00081007000610488008f20a90080ff2f0010
:102ce000a000b6005000b300000588008700a900ce
:102cf0008f00a80017e2a800000028001602b60006
:102d00006110800001f0a100810070006110880056
:102d10001942a800004020001802b600711080007f
:102d200001a0a10081007000711088000421ef0053
:102d3000f0fc2f000401b6000040a000200888002d
:102d40000021ef002073200010088800f1ff280008
:102d5000a004800080806000000026000100700058
:102d6000a00488008460a9008c60a80005e1a80088
:102d700000000600a04b8000c34b8000830f500072
:102d8000100032000f22ab000e003a00514b8000c1
:102d9000c5a82000f41f200006202000654178000f
:102da0000201fb00821088000000e80004006000bf
:102db0008100e800830f500009003a00a04b880012
:102dc000514b8800b04b8000d34b8000830f5000e4
:102dd000210032001922ab00070032001e0037002c
:102de0007710800007016300ecff3200a04b8800e1
:102df000514b8800f3ff3700614b800000017800e1
:102e0000c5a82000f41f2000062020000100370084
:102e1000000178000220b000654179000201fb004a
:102e2000d21088000000e800040060008100e80083
:102e3000808f510006003200c71080000701630038
:102e4000f3ff3200b04b8800614b8800020037006e
:102e5000b04b8800614b8800000006000000eb00ca
:102e6000e80307000000eb00040407005629ef0008
:102e700000000600889fbe000004be000900780024
:102e800064f507000801440081972000e100790003
:102e900043972000028141001201e9000101510025
:102ea000f21fb200820f500004003e000000e0005c
:102eb00008003a0010002000160037000804440003
:102ec0006096200008044000180ce8000000eb00a9
:102ed000100037000001eb00c6a82000c942dd0049
:102ee000f41f200081814200b943780007f3790084
:102ef0008100e800848060000201e800820f500039
:102f0000f8ff3e00080444008097200001307c0058
:102f1000100020004f04be00000006008f10b0001b
:102f2000889fbe008a9fbe008c9fbe008e1f7800c7
:102f300000077800680480004644de0061446400b5
:102f40008cc0a90050002000c905070080bf9f0069
:102f500060002000c6050700f0b79f007000200049
:102f6000c3050700e0b79f00610464004644dd002c
:102f7000600480000060a10000007400600488000c
:102f80007c0480004566de00614666007d048000aa
:102f9000c66ede00e1c666008ec0a9008e00d500b8
:102fa0000002b200710480000150a1008100700095
:102fb00071048800cf0307000005be00d503070099
:102fc0000004be00610666004566dd0070048000f6
:102fd0000050a1000000760070048800e1866600c1
:102fe000c66edd00700480000060a10000807600e5
:102ff000700488008e1f780040392a00801f7800f6
:1030000080ee2f000f004000a1f8070000067800b6
:10301000e48757008006eb00ce392a000d007800c7
:10302000ae05070080007800c2ee2f000f014100be
:103030000c004100811f78008e1f780094f8070073
:10304000000646008d06e800e4875700e88f56002a
:10305000f2ff3a008006eb00ce392a000d0078001e
:10306000a605070080007800c2ee2f000f01410086
:103070000c004100811f78008e1f780084f8070043
:10308000000646008d06e800e4875700e88f5600ea
:10309000f2ff3a00c1ee2f008f8040000c8040000c
:1030a000889fbe008a9fbe002fb19700821f7800c4
:1030b000afb09700811f78002fb19700821f780072
:1030c000013a2a00811f780071f80700c1ed2f0036
:1030d0008f8040001000200066ff0700f087570037
:1030e0004f0778004f06be004f05be004f04be00dc
:1030f0008f10b10000000600a000fa00881f7800c1
:1031000000047800734b8000824b8000904b80005d
:103110006009f8005609f8006809f8006c09f80021
:103120006409f800831f7800821f7800801f7800f0
:10313000811f7800403b2a00801f7800a0f42f00f8
:103140000f00400052f80700a1f42f008f804000cc
:103150000800780047ff0700f48757004f04780005
:103160000080fa00000006001000fa00881f7800b6
:103170000104780080007800728057001301070076
:103180007fb097008fb897001fb99700afb997002d
:10319000b0bf9f00c1bf9f00d2bf9f00e3bf9f0091
:1031a0003fb897000000e00004003a00f13f2a0019
:1031b000100020002fff0700450037006429ec00b5
:1031c000e40f50002900320006003e00e20f5000dc
:1031d0001000320016003e00e10f50003c003a00a3
:1031e00008003700e60f50002800320024003900a4
:1031f000e70f50002c003200e80f500034003a0076
:1032000030003700d1402a001000200019ff0700cd
:103210002f00370011ff070010002000b04a88007f
:10322000c84a880041412a0012ff070028003700e1
:103230005609e20004003a00d1412a0010002000a3
:103240000cff0700220037004fb89700ed0207007f
:103250005fb8970009030700c84a8800d1422a00d6
:103260001000200003ff070019003700fbfe0700d5
:1032700041432a0010002000fefe07001400370022
:103280000800780025ff070011003700efb897000d
:10329000014b8800184b8800e1432a0010002000f1
:1032a000f4fe07000a0037005609e2000100320070
:1032b000c84a8800a1442a0010002000edfe070043
:1032c0000300370088007800100020008aff070004
:1032d0004f0478000080fa00000006004200fa0067
:1032e000889fbe008a9fbe008c9fbe00c30207005d
:1032f000dafe0700c30407000805070061fe0700a7
:1033000021452a000000eb00dafe0700e1472a0011
:1033100010002000d7fe07008006eb000d27980064
:103320008d0578000d067800ca982000a04a80001c
:103330005609e20009003200c14a80000100500035
:10334000910f2000810f500004003600c3fe0700db
:1033500091492a0010002000c6fe07005a09e20029
:103360000b0032008f00a900e24a8000f24a880078
:103370005a29ef008f00a800b8fe0700f14a2a0082
:1033800010002000bbfe07001b0020000006eb0021
:1033900008042000f90f20002f003700f04a8000b9
:1033a0006a407800f14a80008100e80009816000ed
:1033b000f24a8800ed4f500025003200ea4f5000dd
:1033c00011003a000b00e00006003200d14b2a0049
:1033d00010002000a7fe07008005eb000b06780018
:1033e0001b0037000c00e000190032000040eb0029
:1033f00000777e00a14a80000e0078005aff070087
:103400000006eb00120037000b00e00010003a004d
:1034100002ceb30002414000e1c5b300814f51002c
:1034200006003e00e1032000810f560006003e002a
:1034300000777e000c06e800050037001b00200026
:103440000006eb00020037001b0020000006eb0026
:103450000804e90005003200f04a80005c09e3003e
:10346000020032005a09e200ccff3200a84a800074
:10347000004b80000000e00007003200114b80008c
:1034800081005400810f500003003e00184b88005b
:1034900008007800a1fe07000e2090008000540074
:1034a000703e2000808f50000700360088007800b2
:1034b0000000eb0010ff0700814c2a0010002000e4
:1034c0006cfe0700082798008d005400301f200074
:1034d000808f500004003600210020000000eb0027
:1034e000390107008806780022fe07008fff3700a9
:1034f00002c2b300b040780082cf5000fdff32001e
:10350000e9cf5000fbff32000180fb000000e90022
:103510004f00de00000006000200fa00889fbe0097
:103520008a1f78008004780001057800190078006f
:1035300002c2b30000047800b040780082cf50008f
:10354000fcff3200e9cf5000faff32000000eb0030
:103550000104e000190032008a29ef00a2002000d7
:10356000e880570008007800c4f30700008dbe0013
:10357000cfb897000000eb00810f54000f0032001d
:1035800022022000534c8000828f51000b00320039
:10359000114178000204e0000600320000c2b300ce
:1035a000804f5100030032000000eb00e94f510052
:1035b00002003a00810c7800100020004f057800ce
:1035c0004f04be000080fa00000006000a00fa0066
:1035d000889fbe000004be006000b8006011b80003
:1035e000009cbe000294be00614e2a0009007800d3
:1035f00076f307000000e00003003a00100020000e
:10360000000c780078003700b14e2a0009007800dd
:103610006ef307000000e00003003a0020002000e5
:10362000000c780070003700f14e2a000900780085
:1036300066f307000000e00003003a0040002000ad
:10364000000c780068003700414f2a00090078001c
:103650005ef307000000e00003003a005000200085
:10366000000c780060003700614f2a0009007800e4
:1036700056f307000000e00003003a00700020004d
:10368000000c780058003700914f2a00090078009c
:103690004ef307000000e00003003a008000200025
:1036a000000c780050003700d0c4b300994f1000d0
:1036b0002e003a009940900000c2b30080cf500025
:1036c0002a003a00ee8057008998e8006e80570083
:1036d00091ff07000000e00043003200e88057003f
:1036e0006e8057008cff07000000e0003e003200b3
:1036f0001fb897007eff07000000e0003a0032008c
:103700002fb99700bfb9970080c12f00f1ff2f009c
:10371000800f5100818f590033003500803e20001a
:10372000800f5100e08f59002f003c004fb89700e8
:10373000dfb8970084c12f00f5ff2f00840f5000e1
:10374000858f580028003500843e2000840f5000eb
:10375000e08f580024003c0034002000040c780066
:1037600012049800200498001f0037007200200007
:1037700001502a00090078002df307000000e00046
:1037800019003a00ee805700e79844006e80570019
:1037900061ff07000000e000130032001fb897002f
:1037a00053ff07000000e0000f0032002fb8970021
:1037b000bfb89700e00f5000e08f580007003200bc
:1037c0000001be002203b1000380b100e46d2200bd
:1037d000840f5100e08f590003003e00620020007a
:1037e000020c780030049800080078004f04be00f6
:1037f0000080fa0000000600c4c2a900c4e2a900cb
:10380000c522a900c582a900c542a900c5a2a90078
:10381000c5c2a900c5e2a900c0c2a900c0e2a900b2
:10382000c122a900c182a900c142a900c1a2a90068
:10383000c1c2a900c1e2a900d022a900cc22a900de
:10384000d042a900cc42a900e2e2a900e302a9000b
:10385000e802a900e822a900dee2a900df02a9002f
:10386000e402a900e422a900e202a900de02a90004
:10387000d602a900d622a900d642a900d662a90084
:10388000d682a900d6a2a900d6c2a900d6e2a90074
:10389000d202a900d222a900d242a900d262a90074
:1038a000d282a900d2a2a900d2c2a900d2e2a90064
:1038b000d1a2a900cda2a900e842a900e862a9000e
:1038c000e442a900e462a900de22a800dec2a8004a
:1038d000e4c2a800e4e2a800e502a800e522a800ee
:1038e000de22a800d302a800d322a800d342a80059
:1038f000d362a800d382a800d3a2a800d3c2a80094
:10390000d3e2a80000000600e30f500019003200c7
:1039100004003e00e10f50000e00320011003e0096
:1039200008003700e50f50001a003200150039007a
:10393000e60f50001b003200e70f500020003a0055
:103940001c003700201680004600de006100600089
:103950001c003700201680004700de006100600078
:1039600018003700201680004900de00610060006a
:1039700014003700201680004c00de00610060005b
:1039800010003700201680004a00de006100600051
:103990000c003700201680004d00de006100600042
:1039a00008003700201680004e00de006100600035
:1039b00004003700201680004f00de0001003700b1
:1039c0000000eb0000000600e30f5000460032004c
:1039d00004003e00e10f50001d0032002f003e00a9
:1039e00008003700e50f5000650032005100390033
:1039f000e60f500075003200e70f500098003a00c3
:103a000085003700e18f50000a0036002016800044
:103a10004600de000080ea00610060004600dd0034
:103a2000211680000160a10081007000211688002d
:103a3000c3003700618060004600dd002116800071
:103a40000160a1008100700021168800bc003700d1
:103a5000e18f50000a003600201680004700de008b
:103a60000080ea00610060004700dd002116800050
:103a70000170a1008100700021168800b00037009d
:103a8000618060004700dd00211680000170a10008
:103a90008100700021168800a9003700e18f5000d6
:103aa0000a003600201680004900de000080ea008f
:103ab000610060004900dd00211680000190a10036
:103ac00081007000211688009d0037006180600031
:103ad0004900dd00211680000190a10081007000e6
:103ae0002116880096003700e18f50000a0036004a
:103af000201680004c00de000080ea0061006000bb
:103b00004c00dd002116800001c0a1008100700082
:103b1000211688008a003700618060004c00dd00bb
:103b20002116800001c0a1008100700021168800cc
:103b300083003700e18f50000a0036002016800015
:103b40004a00de000080ea00610060004a00dd00fb
:103b50002116800001a0a1008100700021168800bc
:103b600077003700618060004a00dd002116800088
:103b700001a0a100810070002116880070003700ac
:103b8000e18f50000a003600201680004d00de0054
:103b90000080ea00610060004d00dd002116800019
:103ba00001d0a10081007000211688006400370058
:103bb000618060004d00dd002116800001d0a10071
:103bc00081007000211688005d003700e18f5000f1
:103bd0000a003600201680004e00de000080ea0059
:103be000610060004e00dd002116800001e0a100b0
:103bf000810070002116880051003700618060004c
:103c00004e00dd002116800001e0a100810070005f
:103c1000211688004a003700e18f50000a00360064
:103c2000201680004f00de000004a2000080fb0090
:103c30004f00dd002116800001f0a100810070001e
:103c4000211688003e003700cf08dd0020168000d6
:103c500000f0a100008070002016880038003700b6
:103c6000cf08dd002016800000f0a1000080700069
:103c700020168800201680004f00de004e00dd0078
:103c80002116800001e0a10081007000211688004b
:103c9000201680004e00de00610060004d00dd0057
:103ca0002116800001d0a10081007000211688003b
:103cb000201680004d00de00610060004a00dd003b
:103cc0002116800001a0a10081007000211688004b
:103cd000201680004a00de00610060004c00dd001c
:103ce0002116800001c0a10081007000211688000b
:103cf000201680004300de000020b2002116800064
:103d00000190a1008100700021168800201680001b
:103d10004200de000008b200211680000170a10000
:103d20008100700021168800c402d5000004b20092
:103d3000211680000160a10081007000211688001a
:103d400000000600e10f50000a00360080168000d7
:103d50004200de000080ea00610060004200dd00f9
:103d6000811680000120a10081007000811688006a
:103d700006003700610060004200dd00811680000f
:103d80000120a1008100700081168800000006005b
:103d9000e10f500009003600d002d5000080ea0093
:103da0006100600000004000811680000110a10049
:103db00081007000811688000600370061006000f5
:103dc00000004000811680000110a10081007000f9
:103dd0008116880000000600c4c2a900c4e2a90040
:103de000c522a900c582a900c542a900c5a2a90093
:103df000c5c2a900c5e2a900000006007efe0700ba
:103e000000000600800078000100e00006003a0093
:103e100021e1a900d602a900d622a900d642a90014
:103e2000d662a9001400370021e1a900714a880078
:103e30002021ef00000320002021b7001821ef000f
:103e40000100780000f0a7000000ea00cf80de004b
:103e500067f407000001be00000020001176240076
:103e60000cf30700aef40700e008880086c0a90044
:103e70008ec0a80021e1a8000000060080007800a4
:103e80000100e00006003a001fe1a900d682a90067
:103e9000d6a2a900d6c2a900d6e2a9001400370014
:103ea0001fe1a900614a88001e21ef0000032000e5
:103eb0001e21b7001421ef000100780000f0a700d8
:103ec0000000ea00cf80de0049f407000001be00d8
:103ed0000000200011762400eef2070090f40700a5
:103ee000d008880086a0a9008ea0a8001fe1a80025
:103ef0000000060070498000814980000000060033
:103f00001027fc0070498800814988000200fc00ed
:103f100000000600b0498000c14980000000060092
:103f20001027fc00b0498800c14988000200fc004d
:103f300000000600f049800000000600889fbe00d7
:103f40008a1f78000004be00020578001027fc00dc
:103f50002e29ef003029ef003629ef003829ef0035
:103f600010002000f0498800b015210000c9b900f8
:103f70000040b80081004100823e20000300200084
:103f800082f40700204a8800314a8800404a8800ad
:103f9000514a8800e00f5400e08f5c0003003d00b0
:103fa0000af0a7000a05ea000a05ea00e00f54003b
:103fb000e08f5c00020034000af0a7000a05ea0066
:103fc000e00f5400e08f5c0003003a004000200046
:103fd000f04988000005eb000a00780089ff07001f
:103fe0000a007800a5ff07000200fc004f057800da
:103ff0004f04be0000000600889fbe008a9fbe00de
:104000008c1f78000004be00020678001027fc0018
:104010002e29ef003029ef003629ef003829ef0074
:1040200010002000f04988000800be0001f0a10047
:1040300052a32f00e3c8230062f20700f2282c00ed
:1040400053d723005ff207000200200003f0230093
:104050005cf2070002802d00a358240059f20700eb
:104060000ef407000005be00004a8800114a8800cf
:104070000cf0a7000c06ea006011b8000800be00b2
:10408000d7f307000000e0000a003d002a4a88003c
:104090003b4a880060001500e0801d00404a88000f
:1040a000514a88000c00780056ff07000c00ea0017
:1040b00072ff07006011b8000800be00caf30700d5
:1040c0000000e0000a00340060001500e0801d00e0
:1040d000204a8800314a88004a4a88005b4a8800a2
:1040e0000c00ea0047ff07000c00780063ff0700a0
:1040f0006011b8000800be00b9f307000000e0003e
:1041000006003a0040002000f04988000000eb0063
:104110003cff07000000eb0058ff07000200fc0016
:104120004f0678004f05be004f04be000000060099
:104130000400fa00889fbe008a9fbe008c9fbe00cc
:104140007049800081498000a9f307000004be0087
:1041500090498000a1498000a5f307000001be003e
:104160000800be00b9f107003299270063e623007a
:1041700014f207000005be00b0498000c14980006c
:104180009bf307000004be00d0498000e149800095
:1041900097f307000001be000800be00abf1070066
:1041a0003299270063e6230006f207000004be00f0
:1041b0000001be000a00be00a5f1070002002000b9
:1041c00003f02300fff107000006be000a01be0055
:1041d0000800be009df10700020020000327240014
:1041e0002cf2070080bf9f0091bf9f0010f00700d6
:1041f000820c2000110009000200d8008000fd00a0
:10420000cf80de007af307000004be006011b80022
:104210000c00be00ebf107000005be00020020000c
:10422000832c24000800be0088f107000001be00b6
:104230000a00be00e3f107000c01be0084f1070094
:104240000004be006011b800def107000801be00e6
:104250007ff107000006be006011b8000fb897009c
:104260009fb89700d7f107000fb997009fb9970043
:1042700077f107000005be000200200003f02300d4
:10428000d0f10700524980006349800070f10700b7
:104290000004be0094f207000c01be00c9f1070043
:1042a0000001be00104980002149800068f107002c
:1042b00010498800214988000800be0088f20700e4
:1042c0000c01be00bff107000001be0030498000b4
:1042d000414980005ef1070030498800414988006b
:1042e00052498000634980000a00be0058f107006f
:1042f0000004be0050498800614988000005be00e6
:104300000bf0a100b2fd2000930c24000a00be00b7
:1043100035f307000000e000140034006011b8001d
:104320000800be0030f307000000e0000700340082
:10433000b2fd2000930c24000a00be0017f2070013
:10434000504988006149880008003700b2fd20000c
:10435000930c24000a00be0010f207000001be000a
:1043600003f0a20052498800634988005849800040
:10437000694980000800be0001f0a100b2fd2000e4
:104380009304240018f307000000e000120034003a
:104390006011b8000800be0013f307000000e00041
:1043a00007003400b2fd2000930c24000800be007a
:1043b00026f107005049880061498800060037004f
:1043c000b2fd2000930c24000800be0020f107007d
:1043d0005049880061498800724980008349800003
:1043e00092498800a3498800b0498000c1498000f3
:1043f000d0498800e14988004f06be004f05be0045
:104400004f04be000080fa0000000600889fbe0036
:104410000004be000200200073382400f2f20700fe
:104420000000e00007003c0002002000432b2400b5
:104430000800be00eaf207000000e00007003500b7
:104440001900370002002000432b24000800be00a2
:10445000e3f207000000e00008003d000801be0094
:1044600000002000412b2400f8f0070052a32f0089
:10447000e3c8230053f10700130037000801be0012
:1044800000002000413b2400f0f0070052a32f0061
:10449000e3c823004bf1070002002000432b240057
:1044a000ebf007000800370002002000432b240037
:1044b0000800be00e5f0070001f0a20052a32f00a3
:1044c000e3c823003ff107004f04be0000000600d0
:1044d00010498800214988003249880043498800f2
:1044e0000400be00c9ff07005049880061498800e8
:1044f000704980008149800090498800a149880066
:10450000b0498000c1498000d0498800e149880055
:104510000000eb003aef07009cef070000000600e8
:10452000889fbe000004be006011b800aef2070014
:104530000000e0001b003400b2fd200093fc2300cb
:104540000800be00a6f207000000e00009003d00e0
:1045500002ee2200532624000800be0019f10700d5
:104560000001be0000002000412b2400b7f007002e
:104570001400370002ee2200532624000800be007b
:1045800010f1070002002000432b2400aff00700c9
:104590000001be0000002000413b2400abf00700fa
:1045a0000800370002ee2200532624000800be0057
:1045b00004f107000001be0000002000412b240090
:1045c000a2f007004f04be0000000600881f78001c
:1045d0000204780012498000234980000288be004e
:1045e00032498000434980008288be0050498000e3
:1045f00061498000caff0700008cbe004f047800ac
:1046000000000600a422ef0020158000101588008d
:104610001015800000158800a802a800a822a80094
:10462000a842a900a862a900a882a900a8a2a9007e
:10463000a8c2a900a8e2a900a902a900a922a9006c
:10464000a942a900a962a900a982a900a9a2a9005a
:10465000a9c2a900a9e2a900200120002015880014
:104660007000200030158800a1e2a80000000600bc
:10467000800078000000eb00ef8f50000a003e0041
:1046800031158800a022a800800220000000e90067
:10469000feff3a008560a900a022a900a002ab009d
:1046a000feff320000148000000006001021ef0021
:1046b000f0fc2f001001b6000040a0008008880028
:1046c0000621ef00502820006008880084c0a9005f
:1046d0008cc0a80011e1a800000006008000eb00db
:1046e000e70f500003003e0000004000c1e9200039
:1046f000e100780001007800000006008000eb0077
:10470000e70f500003003e0000004000c1e8200019
:10471000e10078000100780000000600b9ff070002
:08472000e2ff070000000600a3
:020000040000fa
:0200000401f009
:04000000e6ff000017
:020000040000fa
:0200000401f009
:04000400ff7f00007a
:020000040000fa
:0200000401f009
:040008007fff000076
:020000040000fa
:0200000401f009
:04001400ffffff00eb
:020000040000fa
:100008008a2900008a2900008a2900008a2900001c
:100018008a2900008a2900008a2900008a2900000c
:100028008a2900008a2900008a290000ca280000bd
:100038008a2900008a290000702600008a29000009
:100048008a2900008a2900008a2900008a290000dc
:100058008a2900008a2900008a2900008a290000cc
:100068008a2900008a2900008a2900008a290000bc
:100078008a290000bc250000082500008a29000004
:10008800dc2800008a2900008a2900008a2900004b
:100098008a2900008a2900008a2900008a2900008c
:1000a8008a2900008a2900008a2900008a2900007c
:1000b8008a2900008a2900008a2900008a2900006c
:1000c8008a2900008a2900008a2900008a2900005c
:1000d8008a2900008a2900008a2900008a2900004c
:1000e8008a2900008a2900008a2900008a2900003c
:0800f8008a2900008a2900009a
:020000040000fa
:100108008a2900008a2900008a2900008a2900001b
:100118008a2900008a2900008a2900008a2900000b
:100128008a2900008a2900008a290000ca280000bc
:100138008a2900008a290000702600008a29000008
:100148008a2900008a2900008a2900008a290000db
:100158008a2900008a2900008a2900008a290000cb
:100168008a2900008a2900008a2900008a290000bb
:100178008a290000bc250000082500008a29000003
:10018800dc2800008a2900008a2900008a2900004a
:100198008a2900008a2900008a2900008a2900008b
:1001a8008a2900008a2900008a2900008a2900007b
:1001b8008a2900008a2900008a2900008a2900006b
:1001c8008a2900008a2900008a2900008a2900005b
:1001d8008a2900008a2900008a2900008a2900004b
:1001e8008a2900008a2900008a2900008a2900003b
:0801f8008a2900008a29000099
:020000040000fa
:1047280044410000544100002025000075000000ad
:1047380020250000640000002025000064200000ff
:10474800256400002025000064200000256c00007e
:1047580064200000256c0000640d00000a000000c1
:1047680053540000415400005553000020740000c9
:104778003d25000075200000727800003d250000ee
:104788007520000065720000723d0000257500006c
:1047980020640000726f0000703d00002575000065
:1047a800206300006d6400003d25000075200000b6
:1047b800747800003d250000752000007478000022
:1047c800647200006f7000003d2500007520000035
:1047d800617200006d3d0000257500002073000027
:1047e80074720000656100006d3d000025750000d1
:1047f8000d0a00000045000052520000204300004e
:104808004f4d00004d4100004e4400000d0a0000cd
:10481800005000004f4e0000470d00000a00000045
:104828004f4b000020410000524d00000d0a0000cf
:104838000045000052520000204e00004f54000076
:104848005f410000524d0000454400000d0a000081
:10485800004f00004b2000004d0d00000a00000032
:104868004f4b000020530000544f0000500d000033
:104878000a0000004f4b0000205300005452000073
:10488800454100004d0d00000a0000004f4b00009c
:1048980020480000420d00000a000000424f0000be
:1048a8004f5400002045000050550000434b0000c5
:1048b8005f55000041520000545f00004252000062
:1048c8004944000047450000203100002055000001
:1048d80041520000543200003d31000031350000e3
:1048e80032300000302c0000384e0000310d00003e
:1048f8000a000000424f00004f540000204500000d
:1049080050550000434b00005f5500004152000025
:10491800545f00004252000049440000474500002f
:10492800203100000d0a0000004500005645000037
:104938004e540000204d00004f5400004f5200001c
:104948005f540000494d0000454f000055540000d9
:104958000d0a0000004500005252000020520000dd
:10496800585f00004c4f0000535300000d0a000030
:104978000045000052520000204c0000494e000043
:10498800450d00000a0000004245000041430000b8
:104998004f4e00002045000050550000434b0000da
:1049a8005f55000041520000545f00004252000071
:1049b8004944000047450000203100000d0a00006e
:1049c80000000000504900004e4700000041000070
:1049d800524d000000530000544f000050000000ea
:1049e80052000000484200000053000054410000fb
:1049f8005455000053000000535400005245000075
:084a0800414d000020000000f8
:020000040000fa
:104a100000a0fe00849fbe003400f80004002000c7
:104a2000a401880086c0a9004e09e2000c003400f1
:104a3000704980008149800061004000e0804800aa
:104a400070498800814988005209ed00904a880029
:104a50000e003b0030002000904a88000b00370019
:104a6000704980008149800061005000e08058005a
:104a700070498800814988005209ec00904a8800fa
:104a8000e30f5000010034005229ef00f04980008c
:104a90000000e00015003200e40f50001300320067
:104aa0007249800083498000244a8000354a800092
:104ab000820f5200838f5a000c003a0021e1a900b6
:104ac000d602a900d622a900d642a900d662a90022
:104ad000e30f500003003a0040002000f049880036
:104ae0000200370020002000f0498800904a800032
:104af000e10f50000e00320003003c000000e00017
:104b00000600320018003700e20f50000d0032009e
:104b1000e30f500014003a000f003700d602a9003e
:104b2000d622a800d642a900d662a8000e003700ff
:104b3000d602a900d622a800d642a800d662a900b3
:104b400009003700d602a800d622a900d642a80044
:104b5000d662a90004003700d602a800d622a90018
:104b6000d642a900d662a8003400f9004f02be0068
:104b70000080fe000040060000a0fe00849fbe00f2
:104b80003400f80004002000a401880086a0a900d9
:104b90004c09e2000c003d00b0498000c149800092
:104ba00061005000e0805800b0498800c149880089
:104bb0005009ed00804a88000e003b0030002000c4
:104bc000804a88000b003700b0498000c14980004e
:104bd00061004000e0804800b0498800c149880079
:104be0005009ec00804a8800e30f500001003400b7
:104bf0005029ef00f04980000000e000150032006d
:104c0000e40f500013003200b2498000c349800015
:104c1000444a8000554a8000820f5200838f5a0018
:104c20000c003a001fe1a900d602a900d622a90073
:104c3000d642a900d662a900e20f500003003a0054
:104c400040002000f04988000200370030002000ba
:104c5000f0498800804a8000e10f50000e003200c9
:104c600003003c000000e00006003200180037009e
:104c7000e20f50000d003200e30f500014003a0024
:104c80000f003700d682a900d6a2a800d6c2a9007c
:104c9000d6e2a8000e003700d682a900d6a2a8004e
:104ca000d6c2a800d6e2a90009003700d682a80023
:104cb000d6a2a900d6c2a800d6e2a90004003700f7
:104cc000d682a800d6a2a900d6c2a900d6e2a80022
:104cd0003400f9004f02be000080fe0000400600d4
:104ce00000a0fe003600f800849fbe00869fbe0034
:104cf000881f78003400f80004002000a401880018
:104d000084c0a900304c8000e10f50002c0032001c
:104d100003003c000000e000060032008f00370076
:104d2000e20f500049003200e30f50008b003a00c0
:104d3000690037008809e2000c003a005028200082
:104d4000600888008000200049fe07006074880029
:104d5000c000200046fe0700a0748800e2e2a80020
:104d600010002000404c88007c003700e0f120005b
:104d700060088800800020003dfe0700c8ea20008f
:104d8000000c7800c000200039fe0700a0758800e4
:104d9000c2e82000c1e92000120178009808510003
:104da00042e9200041ea200092081000e2e2a90056
:104db0008829ef0010002000304c88006700370081
:104dc0008809e2000c003a005028200060088800a2
:104dd0009000200026fe070070748800d00020009c
:104de00023fe0700b0748800e302a8001000200032
:104df000404c880059003700e0f12000600888002e
:104e0000900020001afe0700e8ea2000000c78005d
:104e1000d000200016fe0700b0758800e2e82000f0
:104e2000e1e92000120178009808510062e92000b1
:104e300061ea200092081000e302a9008829ef002f
:104e400020002000304c8800440037008809e20030
:104e50000c003a005028200060088800a0002000c4
:104e600003fe070080748800e000200000fe0700b9
:104e7000c0748800e802a80010002000404c8800a0
:104e800036003700e0f1200060088800a000200014
:104e9000f7fd070008eb2000000c7800e000200080
:104ea000f3fd0700c075880002e9200001ea200038
:104eb000120178009808510082e9200081ea200060
:104ec00092081000e802a9008829ef0030002000b5
:104ed000304c8800210037008809e2000c003a00bd
:104ee0005028200060088800b0002000e0fd070086
:104ef00090748800f0002000ddfd0700d074880069
:104f0000e822a80010002000404c88001300370061
:104f1000e0f1200060088800b0002000d4fd070008
:104f200028eb2000000c7800f0002000d0fd0700e6
:104f3000d075880022e9200021ea200012017800c3
:104f400098085100a2e92000a1ea20009208100070
:104f5000e822a9008829ef008629ef003400f90033
:104f60004f0478004f03be004f02be003600f90028
:084f70000080fe000040060075
:020000040000fa
:104f78008c09000000050000000000005409000032
:104f88002800000000000000220900003200000094
:104f9800000000008c0e000030000000000000003f
:104fa8008609000004000000000000008a090000d3
:104fb80002000000000000007c0900000a00000058
:104fc80002000000000000000001000000000000d6
:104fd80000000000500800008800000000000000e9
:104fe800d80800004a0000000200000030313200fa
:104ff8003334350036373800396162006364650040
:1050080066676800696a6b006c6d6e006f7071008e
:10501800727374007576770078797a000000000062
:10502800211511000e0d0c000b0b0a000a090900ce
:105038000909090008080800080808000807070007
:10504800070707000707070007070700070700000b
:10505800bc0e00001e00000002000000286e69005f
:105068006c29000025006800076c09004c836a0061
:105078009074a0007ac000008068880000846c00ea
:1050880082008100da0e000002000000000000002b
:045098000000000014
:020000040000fa
:10509c008a1f78008b1f78000000060091018800a1
:1050ac00800478000000eb001a003700e284440012
:1050bc0032a0b4009905ba00e284440032a0b400d6
:1050cc009906ba00e284440032a0b4000006eb005a
:1050dc00476fde00fd07b200636ce10003003a008d
:1050ec00ebff07000000eb000a003700606ce100ea
:1050fc0004003a00005deb008b05e900fdff3e006b
:10510c00040037006168e100010032000086eb000a
:10511c000b00070019c7ba001905ba000e04e0000d
:10512c0003003a000a00e000e0ff3a00000006002d
:10513c00fe07b2009e0188008a047800f5ff370054
:10514c00395dba008b05e9000c003200295dba000c
:10515c008b05e900080032000c00e00003003a0067
:10516c00e284440032a0b400f5ff370019ddba0028
:10517c008b05e900faff3a008904e800e184440059
:08518c0032a0b400000006008f
:020000040000fa
:105194003400f800881f780008002000a801880067
:1051a4004f0478008460a9005429ec003400f9000d
:1051b40000400600809fbe00829fbe00849fbe0008
:1051c4003400f80000002000a00188008700a90036
:1051d4001822ab001a0032001822a9007029ec0032
:1051e40010002000d04a8800150037001842ab0098
:1051f40019003a00c0108000e11080007229ec0010
:105204000038a300030032007029ec00d24a880061
:105214000e0037005c09ec00040060005e09e30046
:1052240003003a006e29ec00d24a880007003700d8
:10523400e34a800081f27900e04a880003003700e5
:1052440012002000f40f2000c59820001802ab00c3
:10525400e6ff3a0003003700e01080007229ec00fa
:10526400e9ff37003400f9004f02be004f01be00d1
:085274004f00be0000400600df
:020000040000fa
:10527c00cfed20000e7922000e0188000000000006
:10528c00000020000000e0000200320000012000bd
:10529c002002880014000700f9ef07000000e0006e
:1052ac0003003a00c07b22000100200002003700fe
:1052bc000000200001002000810f7000010032006e
:1052cc0076ff0700000020000000e0000200320022
:1052dc0000000200000000006e1902000000000037
:1052ec000040da000000fe004440a90040172000f6
:1052fc000000e0000300320000002000a001880044
:08530c004440a8000000060067
:020000040000fa
:085314000040da000000fe0079
:00000001FF
