:020000040000fa
:08000000483504000000000077
:020000040000fa
:10020000000178001001e200030035001061a80031
:10021000000028001021b70030088000410880004d
:100220000200e000010032000089be00000006006c
:10023000800178000200e00003003200b15978002c
:100240000201e900fdff3a0000000600889fbe00a1
:100250008a1f7800f04880000000e00001003200b2
:1002600000000100204980000000e0000100320091
:1002700000000100a04280000000e0000100320008
:1002800000000100b04280000000e00001003200e8
:10029000000001001c49e20028003a000005eb00c4
:1002a000d26026009301200000498000114980009f
:1002b000de020700f2352f00e3c6230000004100f4
:1002c0008180490000498800114988000a05e8003a
:1002d000e70f5500f2ff34000005eb006454b8004e
:1002e0008085200000044400d26026009301200095
:1002f0000049800011498000cc020700f2352f0030
:10030000e3c62300000041008180490000498800c5
:1003100011498800008cbe000a05e800ff0f550057
:10032000eeff3400a4468000b54680008442880079
:100330009542880010c0b3001ce9b700d2602600c7
:10034000930120000049800011498000b702070096
:10035000f2352f00e3c623000000410081804900f0
:100360000049880011498800824280007f056100b1
:100370006451b80085852000050141001202be00cd
:1003800084428800954288000089be008042800037
:10039000914280000100780000f0a1004f05780034
:1003a0004f04be0000000600881f7800000478009b
:1003b000f04880000000e000010032000000010071
:1003c0001c69ef00204980000000e00001003200bd
:1003d000000001006140b800004988001149880010
:1003e0004f04780000000600800078001004e00050
:1003f000020032005104e000feff3a00008050008d
:100400000000060003f0a200889fbe008a9fbe0085
:100410008c1f7800c8010700cf0133006450e10051
:100420004f0032006420e1005200320003826c0071
:1004300007003b000905d0000306d000820f5400de
:100440000c065d00020039000200320089017800cc
:10045000030678008582550004003d000003fd007e
:100460008103fd008502ea008b854200840f720043
:1004700002003b0060001000e08018006011b8002e
:100480000005eb007a28e1000a0039000600780038
:10049000c75ddd00f707b200878075002d003700cb
:1004a000828171000a017800610560008180d100bd
:1004b0000080d3008502e900f9ff3b0006044000fc
:1004c0008784480002003b0060041400e0841c00a4
:1004d0000988a300070032008a81710082817100bf
:1004e000610164008904d1000884d3008b05e80011
:1004f000170037000978a30013003a000b00e00052
:10050000130034008b05e9000804440089844c0082
:100510000a4474000978a3000d003a000b00e000c3
:10052000070034008b05e9000804440089844c006e
:1005300001003a000b0020000978a300f7ff320009
:100540000001eb0002003700828171000a0178008f
:100550003e0107000cf0a70001f0a0008701370062
:100560006420e10002003a00838f6c0087013300b1
:100570000801be000200be0080013700889fbe0057
:100580008a9fbe008c1f78006b0107007201330048
:1005900003866c006450e100240032006420e10016
:1005a000270032006150e100220032006120e100aa
:1005b000210032008b854200eb07b1000134b80006
:1005c000003ab8000804420089844a00013ab800a1
:1005d0000030b8008880400009014a000400330060
:1005e0000000400081804800020149008b05e900bd
:1005f000c909dd00830170000100320013002000f2
:10060000c814de004814dd004709de001200b20005
:10061000c808de00088470000c01070001f0a1008a
:100620000cf0a70001f0a000540137006120e100a8
:10063000560132000801be000200be00f7ff37007d
:100640006150e100fcff3a0050013700889fbe0076
:100650008a9fbe008c1f7800370107003e013300df
:1006600003866c006450e1002e0032006420e1003b
:10067000330032006150e1002f0032006120e100c0
:100680003100320085855500eb07b00009002000dd
:1006900008042000050037000804440089844c0049
:1006a0000a0031000603430087834b00000153001a
:1006b00081815b00f8ff33000203be000800a00048
:1006c0000804440089844c00f6ff3900c639dd0077
:1006d0008301730001003200130020008904d1005f
:1006e0000884d3000998a300050032000800a70081
:1006f0000300a0008904d1000884d3008b05e80022
:100700008904d1000884d3000001eb000281d200eb
:10071000ce00070001f0a1000cf0a70001f0a0003e
:10072000160137006420e100180132000801be0004
:100730000200be00f7ff37006120e1001301320024
:100740006000b800f3ff37000000200001f8270028
:10075000f0ff37000400200000003700889fbe0033
:100760008a9fbe008c1f78004f26dd00f200070034
:10077000f90033006120e100430032006250e100e3
:1007800041003e003e0039006420e1003c003200a0
:10079000058255000f003b000402e80038003a00d3
:1007a000800f5300818f5b00350034000800be00cd
:1007b00003f0a10001f0a60003f0a0000cf0a700d8
:1007c00011ff0700ed0037000603430087834b004d
:1007d0000c4646000005530081855b000200330093
:1007e0000a03be000c00a0000402e900f6ff3b0073
:1007f000850578000602430087824b0004003a001a
:100800006000b80009f0a70001f0a000db0037008d
:100810000002520081825a000704e0000400330005
:100820000603430087834b008b05e900faff37007e
:10083000090578000604be000203be006011b8007e
:1008400082000700e00f5200e08f5a0007003500d9
:1008500002003c000c08a300040032000601be00a8
:1008600003f0a0000cf0a700e7fe07000a8568006f
:1008700001f0a1000af0a70001f0a000bf003700be
:100880000800be00bd003700100220000cf0a600da
:10089000004a8800bd0037000001eb00020037006d
:1008a0000081eb0000003700889fbe008a9fbe00d9
:1008b0008c9fbe00820578000004be0089000700fe
:1008c0000800be006420e1000700390002003a0081
:1008d000f1ff2700f0ff2f000160a00012022000ae
:1008e000024a8800550037006120e10003003a0009
:1008f0000b00a70001f823005000370001f0a10011
:100900000200210093642400a30007000800be0039
:1009100004003500b2fd2000930c24008dff070079
:100920000004be000005eb000b00a6004f0dde002a
:1009300001f0a1000004be0032982f0023ea23003a
:100940000eff07000001eb0003f023000b00a700df
:1009500003f82300acfe0700be0007000000a7005c
:100960000a00a200900007000b00e0000300320024
:100970000200200003f02300a2fe070001f0a20005
:100980000006be000200200093042400fbfe0700c6
:100990000801be009cfe0700809fbe000c00be0048
:1009a00022a22a00d3a72300f4fe07004f01be00b5
:1009b00095fe07000004be0001f0a1000200200027
:1009c00003982300740007000800be0019003500da
:1009d0000001be00e9fe07000006be00b2c5290006
:1009e000e3622300e5fe070022222b00f3942b0094
:1009f00085fe07000c01be00e0fe0700e273280040
:100a000083c0230080fe07000c01be00dbfe070050
:100a100042aa2a00a3e22b007bfe07000c01be00c5
:100a2000d6fe07000801be00d4fe07000801be0084
:100a300075fe07000a00a70001f0a2004f06be00e5
:100a40004f05be004f04be000000060081002000dc
:100a5000618055000b003d000b00200061fe2f005f
:100a60000100e1001d003400828171006101640019
:100a70008904d1000884d3000000e800faff3a009e
:100a8000710020006100640003007000020060003b
:100a90000900320061044400e0844c000988a5008c
:100aa000050032008b05e8006808e10002003a000a
:100ab0008904d1000884d300f20f20000258e1001d
:100ac00005003d00c75ddd00f907b20089807500b3
:100ad00008007800000006000bf827008b00780063
:100ae00000000500c70ade00f107b200f50fb200f2
:100af00008003200e1cf4200020032000170a00085
:100b000024000500810f7000010032000408050078
:100b100044000500810f700002003a001400050037
:100b20008502e9000000400081c04800fcff3b0056
:100b30000170a000240005000004be00e9ff0700ca
:100b40000003be000405be000200be00e5ff070072
:100b5000844f7500000006000200be006450e100f2
:100b6000050036006420e100020036000968a30099
:100b700001003a000800be000160a0004f067800a6
:100b80004f05be004f04be0000000600f0ff2f001e
:100b9000f1ff2700f9ff370014002000880037001c
:100ba000f4ff2f0086003700889fbe008a9fbe009a
:100bb000010578000100e0000400350008003c0059
:100bc0000000e00020003200050037006000100047
:100bd000e080180002003b0001f02c001a003700f2
:100be0000004be006011b8006b0920000982cf002c
:100bf000020039000882cf000441b000694252006f
:100c00000e00320008003b00828171006101640027
:100c10008904d1000884d3008b05e8000442e80071
:100c2000f9ff3a00050037000804440089844c00ad
:100c30008b05e9000442e900fbff3a0083ff07004f
:100c40000af0a70001f0a0004f05be004f04be004f
:100c5000000006000001be00a2ff07000470a7000c
:100c600003f0a1006509b100160032000d00350047
:100c70006828e10006003500f0ff2f00f1ff270093
:100c80000300e00013003b00010028000000050005
:100c900000004000818048008502e900fcff3a0026
:100ca00008003700f88f420002003c008000eb0093
:100cb000000005008100d1000080d3008502e8001b
:100cc000fcff3a000300e00002003b00600010005f
:100cd000e0801800000006000001be0081ff070050
:100ce0000470a70003f0a10003f8a30013003a006a
:100cf0006509b10010003200090035006928e100e3
:100d0000020035000100280000000500000040003e
:100d1000818048008502e900fcff3a0000000600df
:100d2000f88f4200050035008100d1000080d3001b
:100d30008502e800fcff3a00000006008000eb009e
:100d400000000500839f68000100e00002003d00f4
:100d500060001000e08018000300e00002003d0089
:100d600060011100e0811900050007004f00e0005c
:100d700002003b0060001000e08018000000060048
:100d80006022b800060220000000d0008180d2005e
:100d90000482d2008582d2000000a000020252002c
:100da00083825a0003003b000202420083824a0011
:100db0000000a1000603e900f3ff3a00000006006e
:100dc000889fbe008a9fbe00841f78005aff0700dc
:100dd0004f00780011003300f0ff2f00838f6c006c
:100de00006003b00040565000a00a7000800370064
:100df00009f0a6001000200008003700820f540000
:100e0000838f5c00030039001000200001003e00c9
:100e10000000200009f0a7000000ea004f05be0016
:100e20004f04be000000e00000000600020ab90006
:100e3000001bb9000200b80081004200810043009d
:100e400000000600000005000000fa00688157005d
:100e5000cfb89700e20107000080fa00000006000a
:100e6000060007005e000700920007000e01070061
:100e70003601070032020700dd013700ec8747002a
:100e8000889fbe008a9fbe008c9fbe008e1f780088
:100e900000067800010478001807900028059000eb
:100ea00098067800cdb79f00b80590003202be00ca
:100eb0002203be000400be000601be004f18de0083
:100ec0006011b8008000eb00d0b79f00e1b79f0031
:100ed000f2b79f0083bf9f00800478000900e00004
:100ee000060032006000b8006011b8000402500033
:100ef0008582580006035900878359000e00e000e0
:100f0000020035000d10a100cdb79f000900e000e0
:100f100005003a004fb097000028a30002003a00f5
:100f20000038a300020032008a00e9000100370007
:100f30008a007800f8815700a2002000080078009d
:100f4000860007000900e00003003a00cfb09700d8
:100f50000128a300080032000000e90000814500dc
:100f6000b1c2b3000900e00001003200d1c2b300f9
:100f700001497800050037000138a3000300320062
:100f80000000e90001c2b3008175780048019000bb
:100f90000201e90000015100808045004fb2970036
:100fa0008a0178000c007800300207009c00900055
:100fb0000188a3000400320098009000810f5000c7
:100fc00001003d00010078004f0778004f06be0089
:100fd0004f05be004f04be00cf00b1000000060068
:100fe0000200fa00889fbe008a9fbe00800578003c
:100ff0000104780002007800180190002805900094
:1010000098007800b1bf9f00b80490000200e00093
:10101000020035000110a100b1bf9f00ea81570016
:10102000820020008a0078003002be002003be004b
:1010300008007800490007003fb99700f000610000
:10104000030032000000e90001c3b300817478009e
:101050003fb99700e8006100030032000000e9009a
:1010600001c2b30081747800480190000201e900d8
:1010700000015100808044003fba97008a01780047
:101080000b007800f90107009b0090000188a30085
:101090000400320098009000810f500001003d00d4
:1010a000010078004f05be004f04be000080fa002a
:1010b00000000600ea874700889fbe008a9fbe00a6
:1010c0008e1f7800000478000300780072875700b4
:1010d00084e2260055c72600049fbe00c396220066
:1010e000030f78006c875700004feb00110590004c
:1010f000a1049000910578000200e0000200320097
:101100000207780001003700728757000000e000f6
:1011100002003a000e007800b3fc07000a00e0006d
:10112000030035008a0f5000010036000a007800e5
:101130000b02780089017800000178008e007800a9
:1011400008007800c90107004f0778004f05be006e
:101150004f04be00af00b10000000600f487470056
:10116000889fbe008a9fbe008c9fbe008e1f7800a5
:101170000605be000404be0081bf9f0082b79f0029
:10118000f3b79f00b0009000e1b79f001301780013
:1011900092b79f0090069000400090000000e90088
:1011a000000678000d00e00001003d001d00200059
:1011b0008040eb00efb19700817178001e002000a5
:1011c0001f0037000c06e9000fb09700cf80de004b
:1011d0006109b900a0b79f00b1b79f00c2b79f00d7
:1011e000d3b79f000203be000002be000800be008d
:1011f0000a01be002f050700000778000e407800a6
:101200000043b000efb0970080707e008d06e900cb
:101210000fb997000201e90082bf9f002fb297002b
:10122000bfb297004fb39700dfb397000800be002e
:101230000a01be00180507000205be000004be003a
:101240000c00e0000d003400e00f5400e08f5c0063
:10125000e00f5d00e08f5d00daff3a000d00e00076
:10126000d8ff3c008fb997000300e0000300340072
:101270001fb097000018a300d2ff3a000e00e00054
:1012800002003a00ffb097001140a1000c00780066
:101290004f0778004f06be004f05be004f04be004a
:1012a0004f01b100000006000200fa00889fbe0056
:1012b0008a9fbe00000578000104780002007800d3
:1012c00018019000a804900098007800b1bf9f001a
:1012d000b80590000200e000020035000110a100f6
:1012e000b1bf9f00ea815700a2002000890078006a
:1012f0003002be002003be000800780097ff070000
:10130000480190000201e900000151008080450081
:101310003fba9700890178000a007800530107005e
:101320009a0090000188a300040032009800900009
:10133000810f500001003d00010078004f05be0004
:101340004f04be000080fa0000000600fa87470044
:10135000889fbe008a9fbe008c9fbe008e1f7800b3
:10136000800478000104780082057800180190005c
:101370002805900018077800b80090000200e000ef
:10138000020035000e10a1000100370012002000fd
:1013900070006700e0b79f00090032003b02be000a
:1013a0002b03be00e00f5200e08f5a00e00f5b00fd
:1013b000e08f5b00020032008a86e90001003700fe
:1013c0008a067800e8026700f5b79f000100320046
:1013d0008d06e9003b02be002b03be00e4af9f0078
:1013e000f5af9f0086b79f0097b79f004806900013
:1013f0000c06e9000040eb0080707e00efb2970021
:101400007fb297008903780081047800d8af9f00ed
:10141000020478008bbf9f008a057800034578009e
:101420002a0037000c06e9006fab97006f006300dd
:10143000e90f500002003c000003b000010037003b
:101440007005b0000a03fb001604b100f90f530049
:101450000c003e00000378000650a0001606b10004
:10146000f90f530007003e00b4b79f00a5b79f00d7
:10147000c7b79f0077030700cfb39700afb29700bd
:101480003fb2970080747e000804e9008d06e900f1
:101490006fa89700ffa897000fb197009fb1970022
:1014a000460020008301d1000281d3008180d30057
:1014b0000080d3000603e900faff3a00e0af9f0086
:1014c000f1af9f0082b79f0093b79f00e10f5600d6
:1014d0000f0034006fa89700ffa897000fb1970086
:1014e0009fb19700e00f5000e08f5800e00f5900c7
:1014f000e08f5900cbff3a000800e000c9ff3c0034
:101500000d00e000020034000e18a300c5ff3a00f1
:1015100089007800f4b79f00870478005fac9700db
:101520008a4178000b0578008fbd97000500e00028
:10153000100032003b02be002b03be00e4af9f0050
:10154000f5af9f0086b79f0097b79f00e00f52004e
:10155000e08f5a00e00f5b00e08f5b000500320077
:101560000c06e90083707e000c06e90000c3b3009e
:1015700080707e00ffb297000500e000030032009b
:101580000c06e90000c2b30080707e0048019000a4
:101590000201e9000c0151008c8040000e0278002d
:1015a0008a01780009007800b000070099009000d7
:1015b0000188a3000400320098009000810f5000c1
:1015c00001003d00010078004f0778004f06be0083
:1015d0004f05be004f04be00af01b1000000060081
:1015e0008201780001017800f1ff27002003370015
:1015f00084082000848f50001d0032000d003c0044
:1016000014082000848f50002700320002003c00a4
:10161000040820000400370024082000848f5000b4
:101620003400320044082000848f500043003a0008
:1016300036003700040a2000848f50002700320053
:1016400004003c0004092000848f50003b003a0055
:1016500028003700020c2000828f50002f0032003b
:10166000020f2000828f500034003a002b00370018
:101670009380e9000200e000050032008109780053
:101680001102fb00cfa2de00612bb9002800370059
:1016900081097800114278000482fb008002eb008f
:1016a0006033b8002200370013027800e4005200d3
:1016b0000200e00005003200810978001102be003e
:1016c0004fabde00860378001900370081097800ef
:1016d0001102be006033b800150037009380e900a6
:1016e0008109780011027800cfa2de00612bb900d9
:1016f0000f00370093027800e880520081097800db
:101700003102be002103be00090037009380e900ca
:101710000200e00002003200f1ff37009380e90090
:1017200081097800110278008002eb006033b80074
:101730000498be000690be001000050000000500e1
:1017400044082000848f50002500320008003c002f
:1017500014082000848f5000140032002408200058
:10176000848f500024003200040820000c00370051
:1017700004092000848f50001f00320004003c0048
:1017800084082000848f500024003a000e003700a7
:10179000040a2000848f500011003200040c200045
:1017a000848f50001d003a000d0037009380e9003f
:1017b000810978009100780001087800cf91de005f
:1017c0008288be00140037009380e9008109780008
:1017d0009100780001087800824878000e003700f8
:1017e0009380e90081097800910078000108780071
:1017f00082087800080037009380e90081097800aa
:1018000091007800010878006112b900612bb900dd
:101810008498be008690be00100005000000050000
:10182000889fbe0000047800480090008204780081
:10183000808f540001003600800478000901780090
:10184000580090007afa0700580090000900400004
:1018500050049800c8009000898450004904980002
:101860000048eb004f04be0000000600f28747006e
:10187000889fbe008a9fbe008c9fbe008e1f78008e
:101880008004780001057800020478008305780060
:101890006107620002003a008b0f54000800390013
:1018a000080178008a00780009007800dcff070052
:1018b0008b0f540002003900880578001e003700a5
:1018c000088655000c017800f00f56000100360024
:1018d00002012000010220007e805700f201070073
:1018e0008c0678000500370002012000fe805700ba
:1018f00009007800caff0700f0865600ef8f5600f7
:10190000f9ff3e004461de0000ff2f000091b900a6
:1019100002014600fe80570009007800c0ff070062
:101920000e00e00004003a00080178008a00780008
:1019300009007800baff07000b0078004f07780015
:101940004f06be004f05be004f04be002f01b10080
:101950000000060000000500000005000000050072
:10196000000178000040eb008080fb008180400097
:10197000a3a7200063c278000404e00003003a003b
:10198000b0a7200060c07800000006009201780037
:10199000934f520004003a00b0a7200060c07800c6
:1019a0000309e800010037000040e800ea4f50005a
:1019b000edff360000000600f6874700889fbe0056
:1019c0008a9fbe008c9fbe008e1f780000057800a5
:1019d0000104780083057800040678000000eb001d
:1019e000c0b79f008080eb00d1b79f00e0b79f0099
:1019f000f2b79f000008200080bf9f009800780089
:101a0000010078008004eb00010037008904e80041
:101a1000304178000204e0000300320053c2b300fa
:101a2000834f5100f9ff3a000900e0000400320042
:101a3000090178000a00780079ff0700188c44003b
:101a40001807780050c2b3009e4f10003f013a00c3
:101a50000e07e8000e0c780010003700cfb097009a
:101a60000100a0000b003700cfb097000110a000cc
:101a700008003700cfb097000120a0000500370014
:101a8000cfb097000130a00002003700cfb0970020
:101a90000140a000c1b79f00000ce80018007800ca
:101aa00090407800b2c2b30082cf5000f1ff320004
:101ab00007003c0002c2b30082cf5000f0ff3200aa
:101ac00032c2b30082cf500007003a00efff370068
:101ad000d2c2b30082cf5000e0ff320002c3b30095
:101ae00082cf5000e0ff3200a2c2b30082cf50008c
:101af0000d003a00000ce8001c80e900000e7800a0
:101b000010007800e0b79f000000e0000f003d00eb
:101b1000cfb097000100a200c1b79f000000ea000b
:101b2000e0b79f000900370039010700e0b79f00c8
:101b300001003700000ce800180078009000fb005e
:101b40000103b100e98f5000faff36004fb0970053
:101b50000008a300020032000010a100c0b79f00df
:101b600018007800e1c2b30090cf100016003a00d0
:101b70008000eb00d1b79f000000e800000c780067
:101b8000a1c2b30090cf100006003a00000ce8009c
:101b90001c80e900000e780010007800d0b79f008c
:101ba000090037001a010700d0b79f000100370075
:101bb000000ce800180078009000fb000103b10061
:101bc000e98f5000faff36000800780064ff070034
:101bd00080467800180078001000fb00960107008e
:101be00091062000810f50003800320012003c00a6
:101bf00041062000810f5000340032000a003c00f2
:101c000011062000810f5000200032003106200014
:101c1000810f5000a000320051022000810f5000bf
:101c2000bc003a00b400370071062000810f50005c
:101c3000b8003c008800370001072000810f5000e9
:101c40005c00320007003c00e1062000810f5000dc
:101c50007a003200f1062000810f5000ad003a00fa
:101c60003900370051072000810f50002700320053
:101c700081072000810f5000420032003107200010
:101c8000810f5000a3003a008f0037008d80fb00c9
:101c90000c01780000fe2f000f00400099010700a2
:101ca0000000e000a800320018007800000ce800f6
:101cb0009041780002fe2f000f014100f88057008c
:101cc0000a00780024ff07000e0037008d80fb001b
:101cd0008c0178001200200000fe2f000f00400051
:101ce00043fe07000000e00097003200180ce800f7
:101cf00002fe2f000f014100f88057000a00780013
:101d00005efc070080844400900037008d80fb005b
:101d10008c0178000001eb0000fe2f000f00400056
:101d200033fe07000000e00087003200180ce800d6
:101d300002fe2f000f014100f88057000a007800d2
:101d400059fd0700efff37008d80fb008c01780004
:101d50000001eb0000fe2f000f00400024fe0700f2
:101d60000000e00078003200180ce80002fe2f00ae
:101d70000f014100f88057000a00780098fc070026
:101d8000e0ff37008d80fb008c0178000001eb0044
:101d900000fe2f000f00400015fe07000000e000cd
:101da0006900320018007800000ce80090417800cb
:101db0001c0037008c0178000001eb00010f2000af
:101dc00000fe2f000f00400009fe07000000e000a9
:101dd0005d003200180ce8000fb097009fb097002c
:101de0002fb19700bfb19700e00f5000e08f58006f
:101df000e00f5900e08f590009003a00cfb5970075
:101e00006fb4970020a7200077f907000b02780035
:101e1000880178000001780021a7200047003700e2
:101e200083c7b30002fe2f000f014100f880570066
:101e30000a00780045fd0700b2ff37000b8144001f
:101e40008d80fb008c01780000fe2f000f00400009
:101e50003bfe07003c0037008d80fb000c01780042
:101e600000fe2f000f004000260107000000e000e8
:101e70003500320018007800000ce800904178002e
:101e800002fe2f000f014100f88057000a00780081
:101e9000b1fe07009bff370000c8b30080cf56009b
:101ea00029003a00180ce8001c80e900000e7800b8
:101eb00010407800e0df9f0013002000e2fd2f00bb
:101ec0000f0141000800370000c8b30080cf560062
:101ed0001d003a00180ce8001c80e900000e780094
:101ee0008001eb0010017800f88057000a007800ac
:101ef00070fc070083ff370000c8b30080cf560096
:101f000011003a00180ce8004fb29700efb19700ab
:101f1000080037000e0c78000000eb00c0b79f00ef
:101f2000e0b79f000080eb00d0b79f000002eb00fd
:101f3000840178001200200081a720000a007800a8
:101f40004afe07006fff3700180ce8000900780010
:101f50004f0778004f06be004f05be004f04be007d
:101f60006f01b100000006008200fa00889fbe00e9
:101f70008a1f78000005780082047800c13f9f0026
:101f80000004eb0010003700090278008801780097
:101f9000a2f72f000f01410081f72f008f80400032
:101fa0000a00780084fe070008004000880f5000f7
:101fb00004003d00b0042000805588000084eb0040
:101fc00004003700000478004f3897001004e00048
:101fd000edff3a00080078004f0578004f04be007e
:101fe0000080fa0000000600800078001000200049
:101ff00002022000828f500004003200e98050006d
:10200000e48f5000010036000000eb0000000600e5
:10201000889fbe008a1f7800000578000a047800b7
:10202000984478000805e8000900fb00eeff07006f
:102030000000e000f9ff3a00b0c2b30080cf5400c6
:1020400005003200d0c2b3008000eb0080cf540006
:1020500005003a00020037008000eb000100370065
:10206000110020000804e8000000eb000300370026
:102070006a02b900020052000003b0003801fb0000
:1020800003fd2f0082814100e98f5100f8ff3600e7
:102090000100e00001003a000000ea004f0578006e
:1020a0004f04be0000000600889fbe008a9fbe004d
:1020b000800478000200e0005b00320001407800fc
:1020c000814c780082814400f1f99f00e20f5100b9
:1020d0005500360091449800a1449800e1f99f0012
:1020e000d1f99f00e60f51004f003600b14498002f
:1020f000c1f99f00e80f51004b0036000905ea00c6
:10210000630565000a8444000a055100c1ff2f00e1
:10211000010565000080fb008000eb00121020002c
:102120001310200041fb0700008cbe000a01440090
:1021300060b99f0071b99f00e80f55003a00360062
:10214000200498003104980040049800510498003d
:1021500020b99f0031b99f0040b99f0051b99f003d
:10216000f80f5500300036006004980071049800a4
:10217000000c9800110c9800200c9800310c98006d
:10218000400c9800510c980020b19f0031b19f0085
:1021900040b19f0051b19f0060b19f0071b19f009d
:1021a00000b99f0011b99f006401640078014100eb
:1021b00002044400020555006011b8000203be008d
:1021c0000002be000403be006022b80000007200de
:1021d0008180720002017300838173001000370058
:1021e000009cbe000294be00400498005104980078
:1021f0006204980073049800000c9800110c980079
:10220000220c9800330c9800400c9800510c980058
:10221000620c9800730c98000a02b1000802b0002a
:10222000ff0f5500eeff3e00090078004f05be008d
:102230004f04be0000000600f1fb2f00808040002c
:10224000f98f500001003e000050a0000000060081
:10225000f9ff3700f1f92f0080804000f98f50001e
:1022600001003e00f005b20000000600f9ff370053
:10227000f28747008e1f7800020278000301780081
:102280000000e00002003200000778000100370083
:10229000728757008002eb000100e000010032006d
:1022a0008102e90070805700060009000018eb0069
:1022b0000080eb0080bf9f002310200093bf9f0091
:1022c000aebf9f00b1bf9f00c5bf9f000100e000ef
:1022d00003003d00b104200081558800060037004e
:1022e000004feb00eebf9f00debf9f008400780030
:1022f00070805700220007004f0778002f01b100bf
:1023000000000600881f7800000478000008200004
:10231000808f50001700350010082000808f50007b
:102320000b00340030082000808f500011003a006c
:102330009200780068805000000978003002be00ea
:102340002003be00049cbe000694be0007003700b8
:102350009202780064805200000978001000be00ec
:1023600015000700009cbe000294be001000200073
:10237000010037000000eb004f0478000000060069
:102380000200fa00881f780000047800e2bf9f0076
:102390006481570008007800f3fe07009800900061
:1023a0000148a300010032000080eb004f047800d8
:1023b0000080fa000000060081037800c9f90700d8
:1023c0000001be006000b8000478a30013003a00ca
:1023d0006220e10015003e000d0039008301d100ac
:1023e0000281d3008180d3008301d1000281d30018
:1023f0008180d3008301d1000281d3008180d3008a
:102400000538b000c42add00f300b20083817200f9
:1024100007f0a70003f0a0000000060083ff2700dc
:10242000020020006110b900f9ff370003ff270008
:10243000f7ff3700889fbe008a9fbe00300442002d
:10244000b0844a0030054b0090854b006000b1001d
:102450000898be000a90be000440e10005c8e100f3
:1024600006d0e10007d8e10002003100680040001a
:102470001008e8004f05be004f04be000000060033
:10248000889fbe008a9fbe003004be002005be00ab
:102490000418540005985c0006185d0007985d005c
:1024a000110020000440e10005c8e10006d0e10071
:1024b00007d8e100010039008000eb00108810000f
:1024c0004f05be004f04be00000006001200fa00d7
:1024d000889fbe008a9fbe008c9fbe00e0b79f0011
:1024e000f1b79f0082bf9f0093bf9f000605be000b
:1024f0000404be000000eb00d0b79f00c0b79f00ef
:10250000b0b79f00a0b79f0090b79f00000678006b
:102510005fb19700cfb09700820141003fb09700b4
:102520000200e00004003d00370007007e805700f5
:10253000c0ff070003003700330007007e8057000c
:10254000cfff0700dfb697000d00e0000c0035005c
:102550006fb29700ffb297000fbb97009fbb970029
:1025600010002000010020006011b800000272007d
:102570008182720002037300838373001b000700d3
:102580000c06e80001042000810f5600e0ff3a002d
:102590000d00e00004003d000802be000a03be007a
:1025a0007e805700a3ff07005fa897000000e000af
:1025b00005003a001fb29700afb297003fb39700f3
:1025c000cfb39700090007006fb09700ffb09700e6
:1025d0000fb997009fb997004f06be004f05be0088
:1025e0004f04be000080fa00000006000100070052
:1025f00000000600a4b79f00b5b79f00c6b79f00b4
:10260000d7b79f00000006004f09de0082817100ed
:10261000b3b79f004f01de008180400082807000d0
:10262000a1b79f008fb097004f09de000000400067
:102630000200700090b79f007fa897004f01de0056
:10264000818040008280700081b79f000d000700ec
:102650004f3ade000000400004007000f0af9f0021
:10266000080007000402420085824a0006034b006e
:1026700087834b00dfff07000802be000a03be008d
:10268000000006002fb29700bfb297004fb397002b
:10269000dfb3970000000600881f780018002000b4
:1026a000881f780089ff07008f87e9004f047800b2
:1026b00000000600801feb0084ff07008f87e90001
:1026c00000000600889fbe008a9fbe00e00f5000f9
:1026d000e08f5800e00f5900e08f59000c003d00da
:1026e0006044b8006055b8000000540081805c0070
:1026f00002015d0083815d001800200015000700c5
:1027000008003d00180007000004eb00050037003a
:102710000004eb000f00070002003d00120007005c
:1027200018002000dcff07000800e000060032006f
:102730006022b8006033b8000000520081805a0067
:1027400002015b0083815b004f05be004f04be00a9
:1027500000000600e00f5200e08f5a00e00f5b001f
:10276000e08f5b00000006006044b8006055b800d0
:102770000402540085825c0006035d0087835d00cf
:1027800000000600889fbe008a9fbe008c1f780054
:10279000e00f5000e08f5800e00f5900e08f590023
:1027a0000d003d006044b8006055b80000005400c2
:1027b00081805c0002015d0083815d001c002000bf
:1027c0000820e10009a8e1000ab0e1000bb8e1002f
:1027d0000d003d00080037000006eb00e00f52003e
:1027e000e08f5a00e00f5b00e08f5b0006003d00c9
:1027f0006044b8006055b8000402540085825c0053
:1028000006035d0087835d00aaff07000c00e0005f
:10281000060032006022b8006033b80000005200a9
:1028200081805a0002015b0083815b004f067800c3
:102830004f05be004f04be00000006000400fa0071
:10284000008fbe00040037000081eb008081eb00a8
:102850001e0f41005e9749001e00be00e00f5000b1
:10286000e08f5800f8ff3a000080fa0000000600f0
:102870000200fa00000f78001e007800daf6070068
:10288000800078001e007800740707000000000038
:102890007e0707000000e000fdff3a000080fa001c
:1028a000000006000200fa00000f78000421ef008b
:1028b000210880000003200001007000200888002b
:1028c0000021ef001e007800cf80de00b6f8070080
:1028d000626626006366240028f7070002002000d5
:1028e0000338240059f70700fbf8070000007800c0
:1028f000100888008460a9008c60a80005e1a80089
:102900000080fa00000006000600fa00000f7800c0
:1029100011079800220798001e0090001e0040003a
:10292000ae00900081407800014878001e009000c1
:102930000000e8001e004000ae009000c808de0065
:1029400081407800014878000080fa00000006000d
:102950000400fa00000f7800110798001e00900094
:102960001e004000104078008080fb001e00900098
:102970000000e8001e004000104078000080fb00ce
:102980004800dd00010070000080fa000000060031
:102990000400fa00100798001e0090000000e000fc
:1029a00002003d000000eb000b0037001e0090000d
:1029b000cf00de00008040000080d100000f7800d2
:1029c0001e007800e70f5000020034007000200065
:1029d000010037001e0078000080fa0000000600a9
:1029e0000200fa00b20d070090488800904880006d
:1029f000e7ff0700000f78001e007800800040000d
:102a000060092b000080400010007800b04888006a
:102a10001e00780080004000600a2b00008040000b
:102a200010007800a04888000080fa00000006002e
:102a30000800fa009e0d0700000f78001e007800c5
:102a4000d3ff0700100798001e0090008000400090
:102a500060092b000080400090007800210798005a
:102a60001e00900080004000600a2b0000804000a3
:102a70009000780031079800904880009e00780010
:102a8000808f500008003a00b0488000ae009000ef
:102a9000808f500004003a00a0488000be009000e3
:102aa000808f5000090032009e0078009148880015
:102ab000ae009000b1488800be009000a148880098
:102ac000b0488000ec09070001003700000000005a
:102ad0000080fa00000006000200fa00000f7800f3
:102ae0001e0078000000e00006003200f00f200019
:102af0009e007800808f500002003e0010002000f1
:102b0000010037000000eb000080fa000000060022
:102b10000000fa000000eb00efff07000000e000fb
:102b2000020032000000eb000d003700604880001a
:102b3000e9ff07000000e00002003200604880006a
:102b40000700370070488000e3ff07000000e00046
:102b500002003200704880000100370060488000a9
:102b60000080fa00000006005400fa00002f9800d0
:102b7000112f98000e289000d7ff07000000e000fa
:102b80000c003a009e289000811f78008e2890004b
:102b9000811f7800600b2b00801f78000e007800ea
:102ba000a9f80700e68757000e00780030ff0700fd
:102bb0000f0037008e289000514888005048800050
:102bc000c3090700504880009e289000811f7800ac
:102bd000801f7800100d2b00801f78000e007800f9
:102be00099f80700e68757000e00780020ff0700dd
:102bf0000080fa00000006000800fa002007980094
:102c0000310798000000eb00000f78000000eb0097
:102c100010079800090037002e009000104078003f
:102c20000004e00002003a000000eb002900370039
:102c30002e0090000000e800200798002e00900071
:102c400090407800f0c2b30080cf5000f2ff340013
:102c50002e0090009040780090c3b30080cf5000c9
:102c6000edff3c000e0037001e0078006a00b9003e
:102c7000800078002e009000104078000000fb00db
:102c80000080400001fd2f00010f400010002000d7
:102c9000100798002e0090000000e8002007980020
:102ca0002e00900090407800f0c2b30080cf50001a
:102cb000050034002e0090009040780090c3b300cf
:102cc00080cf5000e8ff34003e0090001e087800de
:102cd0001e0090000080fa00000006000200fa00ca
:102ce000d048800021a620000041eb0082707800cf
:102cf0008e00780020a62000bfff07000000e00043
:102d0000030032001e007800710e2b0096ff0700b2
:102d10001a29ef000080fa00000006000200fa0005
:102d2000160037001e407800ed4f500003003200bf
:102d30001e407800ea4f500005003a00d04880005d
:102d40000000e0000d003400e4ff07000b00370036
:102d5000d0488000ee0f500007003e00d0488000b1
:102d60001e41780021a62000827078000000e80053
:102d7000d0488800010037001a29ef000e007800c3
:102d8000070607000000e000e6ff3a000080fa00b6
:102d9000000006005200fa00504880000001780050
:102da0008000eb000e007800d7fe07002300200013
:102db0000e0178008080eb000040eb008e090700d8
:102dc000514880000e80e800811f7800e10e2b0042
:102dd000811f78001cf80700e48757000e80e80088
:102de000a3fe07000080fa00000006000400fa00bd
:102df000100798000000eb00000f78000b00370070
:102e00001e0078008000400020a4200000804000c8
:102e1000900078001e009000808f500002003a0061
:102e200010002000060037001e0fe800c048800098
:102e30009e007800808f5000f1ff35000000eb000d
:102e40000080fa00000006000200fa00000f78007f
:102e50001e007800e5ff07000000e0000b003a00cc
:102e6000c0488000ef0f500009003c00c0488000bf
:102e70000001400021a42000810041009e0878004c
:102e80000000e800c0488800010037000000000092
:102e90000080fa00000006000600fa001700370064
:102ea0001e009000e20f50000f003a00640047003f
:102eb0008000eb00a6fe0700000f7800504880005d
:102ec0009e007800808f5000090032001e007800bc
:102ed00001ff07000000e000070032001e0078003c
:102ee000d9ff07000500370000000000030037008d
:102ef0000000000001003700000000008e80e800a4
:102f0000640047006f0907000000e000e4ff3a009a
:102f10000080fa00000006000600fa002007980072
:102f2000ae009000110798001e009000e80f5000be
:102f30000200340080002000100798000000eb0021
:102f4000000f78000b003700100020009e0090005a
:102f50001e017800810f5100010035000000eb00d8
:102f60001e01780080007800020078000f01070041
:102f70001e0fe8001e007800e70f5000f2ff34003b
:102f80000080fa00000006008400fa00c1488000ba
:102f900064004700811f7800910f2b00811f78008b
:102fa000a9f70700e4875700100798000000eb001e
:102fb000000f7800110037001e00780080004000ec
:102fc00020a4200000804000900078001e009000a7
:102fd0006401470000004100811f7800a1102b0010
:102fe000811f780098f70700e48757009e00900043
:102ff00000804000100798001e0fe800c0488000c5
:103000009e007800808f5000ebff35001e0090007e
:10301000e40047000080400032002000e1102b0057
:1030200083f407006400470011fe07000080fa00e7
:10303000000006005000fa00b2488000a14880005d
:1030400090488000821f7800811f7800801f7800e0
:1030500010112b00801f78000e0078007af707000f
:10306000e88757000e00780001fe07000080fa0094
:10307000000006000000fa00c3ff0700edff070094
:10308000c0488000a4ff07001829ef000080fa0064
:10309000000006005200fa003e000700210507006c
:1030a000fa0b07004efe0700b04880008001780050
:1030b000120020008000eb000000eb00d1070700a9
:1030c000004f78000040eb007908070020c0b300f3
:1030d00005080700af08070060488800f00b0700ec
:1030e000704888008afe07005048880050488000d9
:1030f00079fe07000000e000020032005048800026
:10310000730807001e82fb0073488000624880003d
:10311000514880000e00e800841f78000002eb0098
:10312000841f7800831f7800821f7800811f780039
:1031300001142b00811f780043f70700ec8757002c
:103140000e00e800cafd070010002000804888003b
:103150001829ef001a29ef00803e2000d1fd07005a
:10316000eefe070032fe07004bff0700804880009c
:103170000000e000030032001029ef00bdff07004f
:1031800004ff07000071220001002000abfd0700d2
:10319000f3ff37000000fa00c4c2a900c4e2a9008e
:1031a000c522a900c582a900c542a900c5a2a900df
:1031b000c5c2a900c5e2a900c0c2a900c0e2a90019
:1031c000c122a900c182a900c142a900c1a2a900cf
:1031d000c1c2a900c1e2a900d022a900cc22a90045
:1031e000d042a900cc42a900e2e2a900e302a90072
:1031f000e802a900e822a900dee2a900df02a90096
:10320000e402a900e422a900e202a900de02a9006a
:10321000d602a900d622a900d642a900d662a900ea
:10322000d682a900d6a2a900d6c2a900d6e2a900da
:10323000d202a900d222a900d242a900d262a900da
:10324000d282a900d2a2a900d2c2a900d2e2a900ca
:10325000d1a2a900cda2a900e842a900e862a90074
:10326000e442a900e462a900de22a800dec2a800b0
:10327000e4c2a800e4e2a800e502a800e522a80054
:10328000de22a800d302a800d322a800d342a800bf
:10329000d362a800d382a800d3a2a800d3c2a800fa
:1032a000d3e2a8000080fa00000006000200fa0045
:1032b000000f78001e007800e30f50001f0032005e
:1032c000e30f500005003e00e10f500011003200f6
:1032d000e10f500014003e0009003700e50f5000d8
:1032e00020003200e50f500019003900e60f5000b1
:1032f00021003200e70f5000240032002800370080
:10330000201680004600de00614060000080fb0067
:1033100024003700201680004700de006140600076
:103320000080fb001f003700201680004900de00ef
:10333000614060000080fb001a003700201680000a
:103340004c00de00614060000080fb00150037008b
:10335000201680004a00de00614060000080fb0013
:1033600010003700201680004d00de006140600034
:103370000080fb000b003700201680004e00de00ae
:10338000614060000080fb000600370020168000ce
:103390004f00de00004078000080fb000100370095
:1033a0000000eb000080fa00000006000400fa00b4
:1033b000000f7800110798001e007800e30f5000fe
:1033c00061003200e30f500005003e00e10f5000a5
:1033d00027003200e10f500040003e000900370096
:1033e000e50f50008e003200e50f500071003900eb
:1033f000e60f5000a5003200e70f5000be0032007b
:10340000d60037001e009000e10f50000d0036007e
:10341000201680004600de00614060000004a2002b
:10342000614060000080fb00610060004600dd003c
:10343000211680000160a1000100700020168800a4
:10344000150137001e0090000040780061406000c8
:103450000080fb00610060004600dd002116800056
:103460000160a10001007000201688000a013700e9
:103470001e009000e10f50000d0036002016800065
:103480004700de00614060000004a200614060006f
:103490000080fb00610060004700dd002116800015
:1034a0000170a1000100700020168800fa003700aa
:1034b0001e00900000407800614060000080fb002a
:1034c000610060004700dd00211680000170a1004e
:1034d0000100700020168800ef0037001e009000e9
:1034e000e10f50000d003600201680004900de007c
:1034f000614060000004a200614060000080fb00a9
:10350000610060004900dd00211680000190a100eb
:103510000100700020168800df0037001e009000b8
:1035200000407800614060000080fb0061006000a6
:103530004900dd00211680000190a100010070000b
:1035400020168800d40037001e009000e10f5000c4
:103550000d003600201680004c00de006140600047
:103560000004a200614060000080fb006100600078
:103570004c00dd002116800001c0a1000100700098
:1035800020168800c40037001e009000004078001c
:10359000614060000080fb00610060004c00dd00c5
:1035a0002116800001c0a1000100700020168800d3
:1035b000b90037001e009000e10f50000d003600ea
:1035c000201680004a00de00614060000004a20076
:1035d000614060000080fb00610060004a00dd0087
:1035e0002116800001a0a1000100700020168800b3
:1035f000a90037001e009000004078006140600084
:103600000080fb00610060004a00dd0021168000a0
:1036100001a0a10001007000201688009e00370064
:103620001e009000e10f50000d00360020168000b3
:103630004d00de00614060000004a20061406000b7
:103640000080fb00610060004d00dd00211680005d
:1036500001d0a10001007000201688008e00370004
:103660001e00900000407800614060000080fb0078
:10367000610060004d00dd002116800001d0a10036
:103680000100700020168800830037001e009000a3
:10369000e10f50000d003600201680004e00de00c5
:1036a000614060000004a200614060000080fb00f7
:1036b000610060004e00dd002116800001e0a100e5
:1036c0000100700020168800730037001e00900073
:1036d00000407800614060000080fb0061006000f5
:1036e0004e00dd002116800001e0a1000100700005
:1036f00020168800680037001e009000e10f50007f
:103700000c003600201680004f00de0000407800dc
:103710000004a200614060000080fb004f00dd005b
:103720002116800001f0a100010070002016880021
:10373000590037001e009000004078006140600092
:103740000080fb004f00dd002116800001f0a10089
:1037500001007000201688004f0037001e00900006
:1037600000407800614060000080fb004f00dd00f9
:103770002116800001f0a1000100700020168800d1
:10378000201680004f00de00004078000080fb0023
:10379000610060004e00dd002116800001e0a10004
:1037a0000100700020168800201680004e00de0008
:1037b000614060000080fb00610060004d00dd00a2
:1037c0002116800001d0a1000100700020168800a1
:1037d000201680004d00de00614060000080fb008c
:1037e000610060004a00dd002116800001a0a100f8
:1037f0000100700020168800201680004a00de00bc
:10380000614060000080fb00610060004c00dd0052
:103810002116800001c0a100010070002016880060
:10382000201680004c00de00614060000080fb003c
:10383000610060004900dd00211680000190a100b8
:103840000100700020168800201680004900de006c
:10385000614060000080fb00610060004700dd0007
:10386000211680000170a100010070002016880060
:10387000201680004700de00614060000080fb00f1
:10388000610060004600dd00211680000160a1009b
:1038900001007000201688000080fa000000060079
:1038a0000200fa00000f78001e007800e10f5000bf
:1038b0000d003600801680004200de00614060008e
:1038c0000004a200614060000080fb006100600015
:1038d0004200dd00811680000120a100010070007f
:1038e000801688000a0037001e007800004078002b
:1038f000614060000080fb00610060004200dd006c
:10390000811680000120a10001007000801688004f
:103910000080fa00000006000200fa00000f7800a4
:103920001e007800e10f50000d0036008016800068
:103930000000d100614060000004a200614060000e
:103940000080fb00610060000000400081168000e4
:103950000110a10001007000801688000a003700e5
:103960001e00780000407800614060000080fb008d
:103970006100600000004000811680000110a1007d
:1039800001007000801688000080fa000000060028
:103990000000fa00c4c2a900c4e2a900c522a9001f
:1039a000c582a900c542a900c5a2a900c5c2a90037
:1039b000c5e2a9000080fa00000006000000fa003d
:1039c000f4fd07000080fa00000006000200fa0083
:1039d000000f78001e0078000000e00006003a00aa
:1039e00021e1a900d602a900d622a900d642a90049
:1039f000d662a9001800370021e1a9009e007800d6
:103a0000c14688002021ef0001098000000320004a
:103a100001007000000988001821ef001e007800e6
:103a200000f0a7000000ea00cf80de005ef407008f
:103a30000001be00000020001176240003f30700ff
:103a4000a5f4070000007800e008880086c0a900ff
:103a50008ec0a80021e1a8000080fa000000060046
:103a60000200fa00000f78001e0078000000e0005d
:103a700006003a001fe1a900d682a900d6a2a9003b
:103a8000d6c2a900d6e2a900180037001fe1a9009c
:103a90009e007800d14688001e21ef00f1088000ca
:103aa0000003200001007000f00888001421ef00de
:103ab0001e00780000f0a7000000ea00cf80de00c2
:103ac00039f407000001be00000020001176240038
:103ad000def2070080f4070000007800d0088800bc
:103ae00086a0a9008ea0a8001fe1a8000080fa000f
:103af000000006000000fa00e0468000f146800069
:103b00000080fa00000006000400fa00008fbe00ea
:103b10001027fc001e01be00e2468800f346880024
:103b20000200fc000080fa00000006000000fa001d
:103b300000478000114780000080fa000000060066
:103b40000400fa00008fbe001027fc001e01be001a
:103b500002478800134788000200fc000080fa003a
:103b6000000006000000fa00204780000080fa00f4
:103b7000000006000600fa00008fbe002207980031
:103b80001027fc00dc28ef00de28ef00e028ef0023
:103b9000e228ef0010002000204788009e009000df
:103ba000b01521000088b900000178001e007800df
:103bb0006000b90000007800000141009e0078001c
:103bc000b01521000008b800010141008200780012
:103bd000823e2000030020005af40700504788006e
:103be000614788009e009000b01521000088b90050
:103bf000000178001e0078006000b9000000780025
:103c0000000141009e007800b01521000008b800b6
:103c10000101410082007800823e20000300200064
:103c200048f4070070478800814788001e00be00e6
:103c3000e00f5000e08f580005003d002e0090007e
:103c400000f0a7000000ea000000ea00200798004a
:103c50001e00be00e00f5000e08f5800040034004a
:103c60002e00900000f0a7000000ea002007980056
:103c70001e00be00e00f5000e08f580004003a0024
:103c800040002000204788000000eb00200798003b
:103c90002e0090004dff07002e00900070ff0700df
:103ca0000200fc000080fa00000006000a00fa0092
:103cb000881f780020079800310798004207980075
:103cc0001027fc00dc28ef00de28ef00e028ef00e2
:103cd000e228ef0010002000204788002e0090000e
:103ce000be00900001f0a10052a32f00e3c8230002
:103cf00022f20700f2282c0053d723001ff20700fe
:103d0000020020000300240050f20700008fbe00d4
:103d100002802d00a35824001e00be0017f20700e9
:103d2000ccf3070030478800414788004e009000e0
:103d300000f0a7000000ea004007980018c0b30098
:103d40006011b8002e009000be00900092f30700b2
:103d50000000e000010035000044eb000804e00032
:103d60000f003200304780004147800050478800f4
:103d700061478800304780004147800060001000a4
:103d8000e080180070478800814788004e0090004e
:103d90000eff07004e0090000000ea0030ff070011
:103da00018c0b3006011b8002e009000be00900053
:103db0007bf307000000e00001003c000044eb0042
:103dc0000804e0000f0032003047800041478000c7
:103dd00060001000e08018005047880061478800ac
:103de0003047800041478000704788008147880045
:103df0004e0090000000ea00f4fe07004e00900024
:103e000017ff07006011b8002e009000be00900060
:103e100061f307000000e00006003a0040002000c7
:103e2000204788000000eb00e8fe07000000eb00e0
:103e30000bff07000200fc004f0478000080fa002e
:103e4000000006001400fa00889fbe006000b80061
:103e5000008fbe006000b80020079800310798006e
:103e60006000b80040079800510798006000b80053
:103e70006007980071079800e0468000f1468000d6
:103e800049f307000004be00f047800001488000ad
:103e900045f307000001be000800be0059f107000d
:103ea0003299270063e62300b4f10700008fbe00bb
:103eb00000478000114780003bf307000004be006c
:103ec000104880002148800037f307000001be0041
:103ed0000800be004bf107003299270063e623007b
:103ee000a6f1070020079800310798002e019000e6
:103ef000be0190001e00be0043f10700020020003a
:103f000003002400d1f107004007980051079800f2
:103f10001e01be002e009000be00900039f1070087
:103f20000200200003272400c8f107006007980062
:103f300071079800c5f00700810c2000010178008e
:103f4000110009000200d8008000fd00cf80de00d3
:103f500015f30700000f9800110f980002002000d1
:103f6000832c24000e0890009e08900025f1070085
:103f7000000f9800110f98006011b8004e009000db
:103f8000de0090007df107000e0990009e09900070
:103f90007af107000001be004e009000de009000a4
:103fa00019f1070040079800510798006011b80008
:103fb0004e009000de00900070f107000001be008e
:103fc0004e009000de0090000ff1070040079800bf
:103fd000510798006011b8006e009000fe0090003c
:103fe00066f107000001be006e009000fe00900028
:103ff00005f1070060079800710798000200200093
:10400000030024006e009000fe0090008ff1070076
:104010000002be00d0478000e14780000001be00e2
:104020000400be00f8f007001df207004e019000ea
:10403000de01900051f107000002be0090478000b1
:10404000a14780000001be000400be00eef00700a2
:1040500090478800a1478800020020000300240048
:104060006e009000fe00900078f107000002be0094
:10407000d0478000e14780000001be000400be0080
:10408000e1f0070004f207004e019000de0190000d
:104090003af107000002be00b0478000c14780002f
:1040a0000001be000400be00d7f00700b047880042
:1040b000c1478800d0478000e14780006e01900032
:1040c000fe019000d0f00700d0478800e14788004b
:1040d000d0478000e147800001f0a10018c0b30084
:1040e000b2fd2000930c2400adf207000000e000b8
:1040f00001003c000044eb000804e0001c0032001a
:10410000d0478000e147800018c0b3006011b800bc
:10411000a3f207000000e00001003c000044eb00b7
:104120000804e00009003200d0478000e147800029
:1041300001f0a100b2fd2000930c240085f10700de
:10414000d0478800e147880009003700d047800049
:10415000e147800001f0a100b2fd2000930c240093
:104160007cf1070001f0a200d0478800e1478800f9
:10417000d0478000e147800001f0a10018c0b300e3
:10418000b2fd20009304240085f207000000e00047
:1041900001003c000044eb000804e000190032007c
:1041a000d0478000e147800018c0b3006011b8001c
:1041b0007bf207000000e00001003c000044eb003f
:1041c0000804e00008003200d0478000e14780008a
:1041d000b2fd2000930c24008af00700d04788002d
:1041e000e147880007003700d0478000e1478000a2
:1041f000b2fd2000930c240083f00700d047880014
:10420000e1478800e0468000f1468000f0478800e2
:10421000014888000047800011478000104888004e
:10422000214888004f04be000080fa00000006000c
:104230000c00fa00008fbe00220798003307980098
:1042400044079800550798001e01be009247880059
:10425000a34788002e019000be019000b24788005d
:10426000c34788004e009000de0090002300070046
:10427000d0478800e1478800e0468000f146800092
:10428000f0478800014888000047800011478000ff
:1042900010488800214888000000eb00d8ef070094
:1042a0000000780040f007000080fa0000000600df
:1042b0000600fa00000f7800110798002207980006
:1042c00090478000a14780001e0178000089be0051
:1042d000b0478000c14780001e0190000089be00e9
:1042e000d0478000e14780004e0007002e0190007b
:1042f0000089be000080fa00000006000800fa00f5
:10430000881f7800200798003107980018c0b30074
:1043100002002000733824002e009000be009000a0
:104320001ff207000000e00001003c000044eb0029
:104330000804e0000b003a0018c0b300020020009f
:10434000432b24002e009000be00900012f20700c4
:104350000000e000010035000044eb000804e0002c
:104360002200320018c0b30002002000432b2400ba
:104370002e009000be00900007f207000000e00051
:10438000010035000044eb000804e0000a003200a0
:104390002e019000be01900000002000412b24005f
:1043a00018f0070052a32f00e3c8230073f00700a2
:1043b000008fbe00170037002e019000be01900054
:1043c00000002000413b24000ef0070052a32f0004
:1043d000e3c8230069f0070002002000432b2400fb
:1043e00009f00700008fbe000a003700020020001d
:1043f000432b24002e009000be00900001f0070027
:1044000001f0a20052a32f00e3c823005bf00700d5
:10441000008fbe001e00be004f0478000080fa002e
:10442000000006000800fa00881f780020079800a6
:104430003107980018c0b3006011b8002e0090003a
:10444000be009000d6f107000000e00001003c0033
:104450000044eb000804e0002400320018c0b30060
:10446000b2fd200093fc23002e009000be009000bf
:10447000c9f107000000e000010035000044eb0036
:104480000804e0000b00320002ee22005326240054
:104490002e009000be00900038f007000001be0022
:1044a00000002000412b2400d6ef0700008fbe0043
:1044b0001800370002ee2200532624002e00900040
:1044c000be0090002df0070002002000432b2400c6
:1044d000ccef07000001be0000002000413b24009b
:1044e000c8ef0700008fbe000a00370002ee22006e
:1044f000532624002e009000be0090001ff00700fd
:104500000001be0000002000412b2400bdef070089
:10451000008fbe001e00be004f0478000080fa002d
:10452000000006000c22ef000e22ef000ee2a900b0
:104530000ec2a9008520a9008d20a8000de2a800c8
:1045400070002000a01088008540a9008d40a800c0
:1045500081e0a900c0048000f1002f00008060000d
:104560000155200000804000c00488000fe2a80030
:104570000f42a80000000600809fbe008520a90011
:104580000000eb0012c2bf00c1aa200080487800e2
:1045900010002000705588004f00be00004006004b
:1045a000ae0ae200090032008d20a9008000eb0075
:1045b00071558800c2aa2000924078000148780016
:1045c000100020008d20a800000006000000eb0075
:1045d000000006008540a900809fbe00821f780071
:1045e000a40ae20015003200a00ae2001600320020
:1045f000a20ae200140032000155800042002000af
:104600000f22af00feff3700105580000000e000d1
:10461000070032000000e900a2aab700314078008c
:1046200010e2b7000201e900f5ff3a00020037008e
:10463000a02aef0001003700015588004f017800e3
:104640004f00be00004006000000200020558800fa
:104650004f0178004f00be0000400600a40ae200af
:10466000feff3a008d40a9008100e9001155880045
:10467000b0407800811088000055880011002000ab
:10468000215588008d40a8000000060020558000bc
:10469000000006000000fa00e20007000080fa00b7
:1046a000000006000000fa001f0107000080fa0069
:1046b000000006000000fa00210107000080fa0057
:1046c000000006000400fa002047980031479800d7
:1046d0000040eb00004f78001900370010c0b30015
:1046e000004f78001c0107001e4f60002e40900014
:1046f000160207001e4f60003e40900013020700a4
:104700001e4f6000320107001e4f60002e409000d7
:104710000040e8000d0207001e4f60000e00e80098
:10472000bf0107001e4f60008e0107004601070011
:104730001e4078000004e00005003a00d6000700a3
:104740001e4078000004e000e4ff32000100370062
:10475000000000001e4090000080fa0000000600eb
:104760000800fa0020479800210798006247980047
:10477000734798000040eb00004f78000040eb00ca
:10478000104798003100370010c0b300004f780088
:10479000f10007001e4f60002e409000eb01070063
:1047a0001e4f60006e409000e80107001e4f600041
:1047b000070107001e4f60002e4090000040e800f7
:1047c000e20107001e4f60000040eb001047980018
:1047d000150037001e4090000000fb00ae00900066
:1047e000008040008e0107001e4f60001e409000b8
:1047f0008000fb007e4090000000fb000000e9000c
:10480000808f500003003a00560107001e4f6000e1
:1048100002003700240107001e4f60001e40900078
:104820000040e800104798009e4090007e409000b5
:1048300080cf5000e7ff3500030107001e407800dd
:10484000e14f500005003200930007001e40780041
:104850000004e000ccff320001003700000000003f
:104860001e4078000080fa00000006000600fa00f2
:104870002047980031479800424798000040eb00dd
:10488000004f78001300370010c0b300004f7800cd
:10489000b10007001e4f60002e409000ab010700e2
:1048a0001e4f60003e409000a80107001e4f6000b0
:1048b0004e409000a50107001e4f6000e200070077
:1048c0001e4f60001e4078000004e00005003a0022
:1048d000710007001e4078000004e000eaff32008b
:1048e00001003700000000001e4078000080fa0040
:1048f000000006000a00fa004047980031079800bf
:10490000024f9800134f98000040eb00004f7800d2
:104910000000eb00100798002100370010c0b30022
:10492000004f78008c0007001e4f60004e40900042
:10493000860107001e4f60000e48900083010700ab
:104940001e4f60000000eb001007980009003700c0
:104950001e009000be0090000080400010407800d3
:104960007a0107001e4f60001e0090000000e80062
:10497000100798001e4890008000fb001e00900069
:10498000808f5000f2ff3c00af0007001e4f600018
:104990001e407800e14f5000050032003e00070045
:1049a0001e4078000004e000dcff32000100370008
:1049b000000000001e4078000080fa0000000600a1
:1049c0000000fa000000000030108000610060006c
:1049d0000000e000fcff3a0030108000640060003e
:1049e0000000e000f8ff3a0030108000680060002e
:1049f0000000e000f4ff3a0030108000700060001a
:104a00000000e000f0ff3a004110800000002400a8
:104a1000008060000000e000ebff3a000080fa0038
:104a2000000006000400fa00600920002010880041
:104a300007e2a90007e2a80085c0a90085a0a90097
:104a4000d1048000f08f2f00808060000050200093
:104a500001007000d00488008da0a9000071220020
:104a600001002000008fbe00040037000081eb0031
:104a70008081eb001e0f41005e9749001e00be00c2
:104a8000e00f5000e08f5800f8ff3a0010c0b3006c
:104a90000080fa00000006000400fa006000b80080
:104aa000008fbe0007e2a90085c0a90085a0a9006b
:104ab0008da0a9000071220001002000008fbe001f
:104ac000040037000081eb008081eb001e0f4100e5
:104ad0005e9749001e00be00e00f5000e08f5800b6
:104ae000f8ff3a00cfff07000f0007000071220017
:104af00001002000008fbe00040037000081eb00a1
:104b00008081eb001e0f41005e9749001e00be0031
:104b1000e00f5000e08f5800f8ff3a0010c0b300db
:104b20000080fa00000006000000fa0085c0a9001d
:104b30008dc0a80010c0b3000080fa00000006007d
:104b40000000fa0085c0a9008dc0a90010c0b30004
:104b50000080fa00000006000400fa0010c0b30054
:104b60003ce9b70040108000700060000000e000e9
:104b7000140032000602a80000712200010020008b
:104b8000008fbe00090037003cc9bf000004e000f0
:104b900002003a0010c0b3000b0037000081eb00a8
:104ba0008081eb001e0f41005e9749001e00be0091
:104bb000e00f5000e08f5800f3ff3a000040eb0098
:104bc000010037000040eb000080fa000000060002
:104bd0000400fa0060c0b3003ce9b7004010800058
:104be000680060000000e000140032000622a80007
:104bf0000071220001002000008fbe000900370074
:104c00003cc9bf000004e00002003a0010c0b3003d
:104c10000b0037000081eb008081eb001e0f41008c
:104c20005e9749001e00be00e00f5000e08f580064
:104c3000f3ff3a000040eb00010037000040eb00ba
:104c40000080fa00000006000400fa0050c0b30023
:104c50003ce9b7000642a8000071220001002000d4
:104c6000008fbe00090037003cc9bf000004e0000f
:104c700002003a0010c0b300090037000081eb00c9
:104c80008081eb001e0f41005e9749001e00be00b0
:104c9000e00f5000e08f5800f3ff3a000040eb00b7
:104ca0000080fa00000006000400fa0030c0b300e3
:104cb0003ce9b70030108000610060000000e000b7
:104cc00010003a0030108000640060000000e00036
:104cd0000c003a0030108000680060000000e00026
:104ce00008003a0030108000700060000000e00012
:104cf00004003a0030108000620060000000e00014
:104d0000020032000040eb001400370006a2a900a8
:104d10000682a8000071220001002000008fbe0062
:104d2000090037003cc9bf000004e00002003a005f
:104d300010c0b300090037000081eb008081eb0058
:104d40001e0f41005e9749001e00be00e00f50009c
:104d5000e08f5800f3ff3a000040eb000080fa00bb
:104d6000000006000400fa0030c0b3003ce9b700c0
:104d700030108000610060000000e00010003a0088
:104d800030108000640060000000e0000c003a0079
:104d900030108000680060000000e00008003a0069
:104da00030108000700060000000e00004003a0055
:104db00030108000620060000000e000020032005d
:104dc0000040eb001400370006a2a8000682a800ed
:104dd0000071220001002000008fbe000900370092
:104de0003cc9bf000004e00002003a0010c0b3005c
:104df000090037000081eb008081eb001e0f4100ad
:104e00005e9749001e00be00e00f5000e08f580082
:104e1000f3ff3a000040eb000080fa0000000600bb
:104e20000800fa00300798000071220001002000fd
:104e3000008fbe000040eb004047980040c0b30028
:104e40003ce9b7000071220001002000008fbe0085
:104e50001c00370030108000610060000000e0009e
:104e600014003a0030108000640060000000e00090
:104e700010003a0030108000680060000000e00080
:104e80000c003a0030108000700060000000e0006c
:104e900008003a00411080000000240000806000fb
:104ea0000000e00003003a0010c0b3004047980043
:104eb000080037000081eb008081eb001e0f4100ed
:104ec0005e9749001e00be00e00f5000e08f5800c2
:104ed000e0ff3a004e4090000004e00002003a007b
:104ee0000040eb00170037000662a800006a2800a7
:104ef00011002000008fbe000d0037003cc9bf002c
:104f00000004e00006003a0000c2bf0080407800c4
:104f10003e0090000148780010c0b300090037003f
:104f20000081eb008081eb001e0f41005e9749007d
:104f30001e00be00e00f5000e08f5800efff3a0067
:104f40000040eb000080fa00000006000600fa00b6
:104f50004047980020c0b3003ce9b7004e409000a5
:104f600002e2b7000071220001002000008fbe00a5
:104f7000090037003cc9bf000004e00002003a000d
:104f800010c0b300090037000081eb008081eb0006
:104f90001e0f41005e9749001e00be00e00f50004a
:104fa000e08f5800f3ff3a000040eb000080fa0069
:104fb000000006000e00fa00100798002107980074
:104fc00062479800430798005407980065079800c7
:104fd000ee0190005e019000ae0090001e00900077
:104fe00008000700004f78006e409000b0000700f6
:104ff0004e009000b60007001e4078000080fa00c6
:10500000000006000800fa00000f78001107980061
:1050100022079800330798009e00780031498800e5
:105020001e0078000000e00003003a000000eb00e2
:10503000ea0107000a0037001e007800e10f500067
:1050400006003a001e009000e40107009e00900058
:1050500000c1b3007f01070001003700000000001d
:10506000160007000000e000fdff32006b010700a2
:105070007101070012c0b300a192200060c0b3000c
:105080004a010700c092200022c0b30080007800cf
:1050900070c0b300450107001e0078005c000700e7
:1050a0002e009000400007003e00900072000700b4
:1050b000c10007000080fa00000006000200fa00ac
:1050c000c5000700004f78001e407800e14f400007
:1050d00002003a000000eb00010037001000200041
:1050e0000080fa00000006000200fa00004f78007d
:1050f0009e40780029c9bf0080cf500002003600d2
:1051000029c9bf00004f780012c0b3008e0078009c
:10511000a0c0b3003301070000000000ae0007008c
:105120000080fb00700060000000e000fbff3a0020
:105130001e40780028e9b7000080fa000000060051
:105140000400fa002047980012c0b3008e007800d7
:1051500010c0b300150107002e4090000004e000cd
:10516000080032001e4078000074a000004f780054
:1051700012c0b3008e00780010c0b3001901070000
:10518000070037001e4078000074a100004f78002f
:1051900012c0b3008e00780010c0b30011010700e8
:1051a0000080fa00000006000400fa0010079800d2
:1051b00012c0b3008e00780010c0b300fb000700df
:1051c0001e0090000000e000080032001e40780041
:1051d0000004a000004f780012c0b3008e007800d9
:1051e00010c0b300ff000700070037001e40780022
:1051f0000004a100004f780012c0b3008e007800b8
:1052000010c0b300f70007000080fa00000006009d
:105210000400fa001007980012c0b3008e00780056
:1052200010c0b300e10007001e009000e10f500025
:1052300008003a001e4078000014a000004f7800db
:1052400012c0b3008e00780010c0b300e500070064
:10525000070037001e4078000014a100004f7800be
:1052600012c0b3008e00780010c0b300dd0007004c
:105270000080fa00000006000200fa00000f78002b
:105280001e007800ff0f500002003600f0012000e1
:10529000000f78000e00780012c0b3008000780084
:1052a00030c0b300cf0007000080fa000000060005
:1052b0000200fa00004f780012c0b3008e007800a0
:1052c00040c0b300c70007000080fa0000000600dd
:1052d0000200fa00000f78000e00780022c0b30030
:1052e0008000780050c0b300be0007000080fa00c4
:1052f000000006000000fa0028c9bf000080fa0084
:10530000000006000000fa0029c9bf000080fa0072
:10531000000006000200fa0012c0b3008e00780000
:1053200010c0b300a100070010c0b3000080fa0055
:10533000000006000200fa0012c0b3008e007800e0
:1053400010c0b3009900070010c0b3000080fa003d
:10535000000006000200fa0012c0b3008e007800c0
:1053600030c0b300910007001e4078000080fa00b2
:10537000000006000200fa0012c0b3008e007800a0
:1053800040c0b300890007001e4078000080fa008a
:10539000000006000200fa000e00780022c0b300f0
:1053a0008000780050c0b300800007001e00780025
:1053b0000080fa00000006000200fa0012c0b300ec
:1053c0008e007800c0c0b300780007001e4078004f
:1053d0000080fa00000006000200fa0012c0b300cc
:1053e0008e0078000040eb00700007001e4078003f
:1053f0000080fa00000006000a00fa00204798002a
:1054000021079800320798004307980010c0b300a6
:10541000004f780028c9bf008080fb004e0090003c
:10542000808f500002003d000000eb002300370099
:1054300000000000e8ff07000080fb006200600041
:105440000000e000fbff3200ae00900060498000e9
:10545000808f5000070032006400470022c0b30074
:105460008000780070c0b3005e0007002e0090003e
:10547000604988004e0090000040780000417800ac
:10548000be00900080c0b3005600070012c0b300f9
:105490008e00780020c0b30052000700ceff070046
:1054a0000080fb00680060000000e00002003200a5
:1054b0000000eb0001003700100020000080fa001f
:1054c000000006000600fa00100798002107980067
:1054d0001e0090000000e000030032002e0090004b
:1054e0000000e00002003a000000eb002600370058
:1054f00030498000e10f50000f003a00980007008b
:105500000004e0000c003200000000008e000700e4
:105510000004e000fdff3a0011c0b3000e00780067
:10552000970007009e40780050c5b30080cf500020
:105530000100320014003700a7ff07000080fb00c5
:1055400061006000004078000004e0000d003200bf
:1055500028c9bf008080fb002e0090000108780061
:105560002e00900010007800004078000041780084
:105570009e00900090c0b3000c00070010002000b7
:10558000010037000000eb000080fa000000060078
:105590000000fa0030498000e10f500001003a009d
:1055a0005a0007000080fa00000006000600fa001a
:1055b000004f780011079800424798004e41900034
:1055c0009e0090001e407800824178000101780022
:1055d0008040780000c2b300ba0007000080fa00e3
:1055e000000006000600fa00004f7800110798003e
:1055f000424798004e4190009e0090001e40780067
:1056000082417800010178008040780000c2b30038
:10561000840007000080fa00000006000000fa0085
:1056200012c0b30081922000a0c0b300dfff0700ca
:105630000080fa00000006000000fa0012c0b3006b
:1056400091922000b0c0b300d8ff07000080fa009c
:10565000000006000400fa00004f780011079800cf
:105660009e0090009149880007e2a9001e00fb00ff
:10567000501088001e40780034e9b7000782a80067
:105680000762a9000742a9000722a80006c2a800d5
:1056900006a2a90085a0a90008c2a9008da0a800a3
:1056a00007e2a8000080fa00000006000000fa00ef
:1056b0000a22ef000080fa00000006000000fa0055
:1056c00034c9bf000080fb00501088000080fa0041
:1056d000000006000200fa00004f78001e80fb0068
:1056e000501088001e4178004193200082487800c5
:1056f0000080fa00000006000000fa005010800050
:10570000004078000080fa00000006000000fa0067
:10571000130007000004e000090032000000000050
:10572000090007000004e000fdff3a0090498000f6
:105730000000e000020032009049800000000100fb
:105740000080fa00000006000000fa00401080000f
:105750004300de00614060000080fa0000000600a7
:105760000000fa0031c9bf000080fa000000060006
:105770000000fa0030c9bf000080fa0000000600f7
:105780000600fa001007980041479800ff3ffc0010
:1057900030c9bf00ce409000814f5000010036005c
:1057a00001407800004f78001e4078000004e000bf
:1057b000060032001e80fb000001780001a92000d5
:1057c0001e0090009aea07003169ef000000fc001b
:1057d0001e4078000080fa00000006000200fa0077
:1057e000000f78009e007800d149880007e2a900e8
:1057f000600920002010880085c0a9008dc0a80085
:1058000007e2a8000862a9000080fa000000060074
:105810000000fa0085c0a9008dc0a9000080fa0030
:10582000000006000800fa00204798003147980061
:10583000220798006347980010c0b300004f78001b
:105840000040eb00104798002e4090000000fb0045
:1058500000004000204798000f003700ee41900004
:105860003e419000ae0090002e409000a70007003f
:105870006e419000ae0090002e4090005b0007004b
:10588000004f78001e407800e14f500002003a00bf
:1058900010c0b300104798001e4078000004e000dc
:1058a000eeff3a001e409000e14f500003003a0026
:1058b000b04980000000e800b04988000080fa008c
:1058c000000006000800fa002047980031479800c1
:1058d000220798006347980010c0b300004f78007b
:1058e0000040eb00104798002e4090000000fb00a5
:1058f00000004000204798000f003700ee41900064
:105900003e419000ae0090002e40900051000700f4
:105910006e419000ae0090002e40900033000700d2
:10592000004f78001e407800e14f500002003a001e
:1059300010c0b300104798001e4078000004e0003b
:10594000eeff3a001e409000e14f500003003a0085
:10595000b04980000000e800b04988000080fa00eb
:10596000000006000000fa00b04980000080fa0044
:10597000000006000000fa003629ef000080fa005f
:10598000000006000000fa00c04980000080fa0014
:10599000000006000000fa003829ef000080fa003d
:1059a000000006000000fa00401080004300de0006
:1059b000614060000080fa00000006000000fa006c
:1059c0004110800000402000008060000000e000e6
:1059d000030032000942a90010c0b30001003700e3
:1059e0000040eb000080fa00000006000800fa000a
:1059f0002047980021079800624798002e409000a9
:105a000070000700004f7800ee4090002e009000dc
:105a100086010700104798001e4090009e407800c5
:105a200080cf500003003200c04980000000e80031
:105a3000c04988001e4090001e4068000080fb00a6
:105a40000000ea004f00de00004078000080fa000d
:105a5000000006000800fa0020479800210798007f
:105a6000624798007347980010c0b3001047980031
:105a70000040eb00004f78000000000001003700fc
:105a800000000000c7ff07000004e000fdff3a002f
:105a900006ff0700fe4190006e419000ae009000ae
:105aa0002e409000740007001047980003ff070085
:105ab0001e409000e24f500004003a0007e2a900a7
:105ac00007e2a80010c0b300004f78001e4090000d
:105ad000e24f5000eaff32009e00fb00d0498000f8
:105ae00000f0a7000000ea000000ea004f00de001e
:105af000008060000000e00002003200d049800019
:105b0000000001000080fa00000006000800fa0012
:105b10002047980021079800624798007347980033
:105b200010c0b300104798000040eb00004f780011
:105b300000000000010037000000000099ff07008e
:105b40000004e000fdff3a00d8fe0700fe4190008f
:105b50006e419000ae0090002e409000a80007001b
:105b600010479800d5fe07001e409000e24f5000fd
:105b700004003a0007e2a90007e2a80010c0b30041
:105b8000004f78001e409000e24f5000eaff3200c4
:105b90009e00fb00d049800000f0a7000000ea0052
:105ba0000000ea004f00de00008060000000e0001e
:105bb00002003200d0498000000001000080fa009d
:105bc000000006000600fa004047980010c0b3002d
:105bd000104798000040eb00204798000040eb0081
:105be000004f7800000000000100370000000000b6
:105bf0006cff07000004e000fdff3a00abfe070069
:105c00000e80e800800078004e409000c40007003d
:105c100010479800a9fe07001e409000e24f500078
:105c200004003a0007e2a90007e2a80010c0b30090
:105c3000004f78001e409000e24f5000ebff320012
:105c40009e00fb00d049800000f0a7000000ea00a1
:105c50000000ea004f00de00008060000000e0006d
:105c600002003200d0498000000001002e40900068
:105c70000080fa00000006000800fa0020479800a3
:105c80002107980062479800734798000040eb0096
:105c9000004f78000040eb0010479800500037009c
:105ca00010c0b300004f7800abfb07001e4f600030
:105cb00042ff07000004e0000200320020c0b300f1
:105cc0004d0037002e409000a0fc07001e4f6000e2
