:020000040000fa
:08000000e82b040000000000e1
:020000040000fa
:10020000000178001001e200030035001061a80031
:10021000000028001021b70030088000410880004d
:100220000200e000010032000089be00000006006c
:10023000800178000200e00003003200b15978002c
:100240000201e900fdff3a0000000600889fbe00a1
:100250008a1f7800604880000000e0000100320042
:1002600000000100904880000000e0000100320022
:1002700000000100a04280000000e0000100320008
:1002800000000100b04280000000e00001003200e8
:10029000000001000a49e20028003a000005eb00d6
:1002a000d2602600930120007048800081488000c1
:1002b00042030700f2352f00e3c62300000041008f
:1002c0008180490070488800814888000a05e8005c
:1002d000e70f5500f2ff34000005eb006454b8004e
:1002e0008085200000044400d26026009301200095
:1002f000704880008148800030030700f2352f00ed
:10030000e3c6230000004100818049007048880056
:1003100081488800008cbe000a05e800ff0f5500e8
:10032000eeff3400a4468000b54680008442880079
:100330009542880010c0b3000ae9b700d2602600d9
:100340009301200070488000814880001b03070053
:10035000f2352f00e3c623000000410081804900f0
:100360007048880081488800824280007f056100d3
:100370006451b80085852000050141001202be00cd
:1003800084428800954288000089be008042800037
:10039000914280000100780000f0a1004f05780034
:1003a0004f04be0000000600881f7800000478009b
:1003b000604880000000e000010032000000010001
:1003c0000a69ef00904880000000e0000100320060
:1003d000000001006140b800704888008148880032
:1003e0004f04780000000600800078001004e00050
:1003f000020032005104e000feff3a00008050008d
:100400000000060003f0a200889fbe008a9fbe0085
:100410008c1f78002c020700330233006450e10087
:100420004f0032006420e1005200320003826c0071
:1004300007003b000905d0000306d000820f5400de
:100440000c065d00020039000200320089017800cc
:10045000030678008582550004003d000003fd007e
:100460008103fd008502ea008b854200840f720043
:1004700002003b0060001000e08018006011b8002e
:100480000005eb007a28e1000a0039000600780038
:10049000c75ddd00f707b200878075002d003700cb
:1004a000828171000a017800610560008180d100bd
:1004b0000080d3008502e900f9ff3b0006044000fc
:1004c0008784480002003b0060041400e0841c00a4
:1004d0000988a300070032008a81710082817100bf
:1004e000610164008904d1000884d3008b05e80011
:1004f000170037000978a30013003a000b00e00052
:10050000130034008b05e9000804440089844c0082
:100510000a4474000978a3000d003a000b00e000c3
:10052000070034008b05e9000804440089844c006e
:1005300001003a000b0020000978a300f7ff320009
:100540000001eb0002003700828171000a0178008f
:10055000a20107000cf0a70001f0a000eb0137009a
:100560006420e10002003a00838f6c00eb0133004d
:100570000801be000200be00e4013700889fbe00f3
:100580008a9fbe008c1f7800cf010700d601330080
:1005900003866c006450e100240032006420e10016
:1005a000270032006150e100220032006120e100aa
:1005b000210032008b854200eb07b1000134b80006
:1005c000003ab8000804420089844a00013ab800a1
:1005d0000030b8008880400009014a000400330060
:1005e0000000400081804800020149008b05e900bd
:1005f000c909dd00830170000100320013002000f2
:10060000c814de004814dd004709de001200b20005
:10061000c808de00088470007001070001f0a10026
:100620000cf0a70001f0a000b80137006120e10044
:10063000ba0132000801be000200be00f7ff370019
:100640006150e100fcff3a00b4013700889fbe0012
:100650008a9fbe008c1f78009b010700a201330017
:1006600003866c006450e1002e0032006420e1003b
:10067000330032006150e1002f0032006120e100c0
:100680003100320085855500eb07b00009002000dd
:1006900008042000050037000804440089844c0049
:1006a0000a0031000603430087834b00000153001a
:1006b00081815b00f8ff33000203be000800a00048
:1006c0000804440089844c00f6ff3900c639dd0077
:1006d0008301730001003200130020008904d1005f
:1006e0000884d3000998a300050032000800a70081
:1006f0000300a0008904d1000884d3008b05e80022
:100700008904d1000884d3000001eb000281d200eb
:100710003201070001f0a1000cf0a70001f0a000d9
:100720007a0137006420e1007c0132000801be003c
:100730000200be00f7ff37006120e10077013200c0
:100740006000b800f3ff37000000200001f8270028
:10075000f0ff37000400200000003700889fbe0033
:100760008a9fbe008c1f78004f26dd0056010700cf
:100770005d0133006120e100430032006250e1007e
:1007800041003e003e0039006420e1003c003200a0
:10079000058255000f003b000402e80038003a00d3
:1007a000800f5300818f5b00350034000800be00cd
:1007b00003f0a10001f0a60003f0a0000cf0a700d8
:1007c00011ff0700510137000603430087834b00e8
:1007d0000c4646000005530081855b000200330093
:1007e0000a03be000c00a0000402e900f6ff3b0073
:1007f000850578000602430087824b0004003a001a
:100800006000b80009f0a70001f0a0003f01370028
:100810000002520081825a000704e0000400330005
:100820000603430087834b008b05e900faff37007e
:10083000090578000604be000203be006011b8007e
:10084000e6000700e00f5200e08f5a000700350075
:1008500002003c000c08a300040032000601be00a8
:1008600003f0a0000cf0a700e7fe07000a8568006f
:1008700001f0a1000af0a70001f0a0002301370059
:100880000800be0021013700100220000cf0a60075
:10089000d048880021013700889fbe008a9fbe0093
:1008a0008c9fbe00c0000700850478000005be00d4
:1008b0006420e10049003e006220e10003003200b4
:1008c000090035000bf8a300440032000bf8a30028
:1008d0000800320010022000d0488800f0ff2f00ee
:1008e000f1ff27003d00370001f82f000000200035
:1008f0003a0037003d000700c2fe07000006be00b8
:100900000a00be00324f200053f323000801070005
:10091000060034000c00be0034000700b9fe0700da
:100920000006be000a00be00020037008904e9008c
:100930000c00be002d00070010ff07002b00070071
:10094000b1fe07000001be000c00be003fff070023
:100950000005be000001be0008ff07000006be0043
:10096000a2f32300430d2c00a7fe0700809fbe00ca
:100970000c00be00d2e32700d3f02b00fffe0700df
:100980004f01be0031ff07000006be000a01be0095
:10099000fafe07000a01be009bfe07000006be002b
:1009a0006148b900e40007000005be0032082800d5
:1009b000e3952b00f1fe07000c01be0092fe07003c
:1009c0000006be000a00be000200280013f3230048
:1009d000eafe07000c01be008bfe07004f06be00ba
:1009e0004f05be004f04be000000060003f02300c8
:1009f000020005000001eb00020037000081eb005f
:100a000000003700889fbe008a9fbe008c9fbe00fa
:100a1000820578000004be00960007000800be00b2
:100a20006420e1000700390002003a00f1ff2700ce
:100a3000f0ff2f000160a00012022000d2488800c1
:100a4000550037006120e10003003a000b00a700c9
:100a500001f823005000370001f0a100020021003e
:100a600093642400b00007000800be0004003500b5
:100a7000b2fd2000930c240036ff07000004be00e6
:100a80000005eb000b00a6004f0dde0001f0a100f9
:100a90000004be0032982f0023ea2300b7fe0700af
:100aa0000001eb0003f023000b00a70003f8230074
:100ab00055fe0700cb0007000000a7000a00a200b7
:100ac0009d0007000b00e000030032000200200040
:100ad00003f023004bfe070001f0a2000006be0059
:100ae0000200200093042400a4fe07000801be00b9
:100af00045fe0700809fbe000c00be0022a22a0017
:100b0000d3a723009dfe07004f01be003efe070055
:100b10000004be0001f0a1000200200003982300a1
:100b2000810007000800be00190035000001be006a
:100b300092fe07000006be00b2c52900e362230052
:100b40008efe070022222b00f3942b002efe0700be
:100b50000c01be0089fe0700e273280083c0230059
:100b600029fe07000c01be0084fe070042aa2a00ed
:100b7000a3e22b0024fe07000c01be007ffe07004d
:100b80000801be007dfe07000801be001efe070032
:100b90000a00a70001f0a2004f06be004f05be00ec
:100ba0004f04be00000006000003be003100070035
:100bb0006220e100020032000600be0005000500d0
:100bc000e507b100f107b20004f023008480700053
:100bd00007f0a70001f0a00024000500810020001c
:100be000618055000b003d000b00200061fe2f00ce
:100bf0000100e1001d003400828171006101640088
:100c00008904d1000884d3000000e800faff3a000c
:100c100071002000610064000300700002006000a9
:100c20000900320061044400e0844c000988a500fa
:100c3000050032008b05e8006808e10002003a0078
:100c40008904d1000884d300f20f20000258e1008b
:100c500005003d00c75ddd00f907b2008980750021
:100c600008007800000006000bf827008b007800d1
:100c700000000500c70ade00f107b200f50fb20060
:100c800008003200e1cf4200020032000170a000f3
:100c900024000500810f70000100320004080500e7
:100ca00044000500810f700002003a0014000500a6
:100cb0008502e9000000400081c04800fcff3b00c5
:100cc0000170a000240005000004be00e9ff070039
:100cd0000003be000405be000200be00e5ff0700e1
:100ce000844f7500000006000200be006450e10061
:100cf000050036006420e100020036000968a30008
:100d000001003a000800be000160a0004f06780014
:100d10004f05be004f04be0000000600f0ff2f008c
:100d2000f1ff2700f9ff370014002000880037008a
:100d3000f4ff2f0086003700889fbe008a9fbe0008
:100d4000010578000100e0000400350008003c00c7
:100d50000000e000200032000500370060001000b5
:100d6000e080180002003b0001f02c001a00370060
:100d70000004be006011b8006b0920000982cf009a
:100d8000020039000882cf000441b00069425200dd
:100d90000e00320008003b00828171006101640096
:100da0008904d1000884d3008b05e8000442e800e0
:100db000f9ff3a00050037000804440089844c001c
:100dc0008b05e9000442e900fbff3a0083ff0700be
:100dd0000af0a70001f0a0004f05be004f04be00be
:100de000000006000001be00a2ff07000470a7007b
:100df00003f0a1006509b100160032000d003500b6
:100e00006828e10006003500f0ff2f00f1ff270001
:100e10000300e00013003b00010028000000050073
:100e200000004000818048008502e900fcff3a0094
:100e300008003700f88f420002003c008000eb0001
:100e4000000005008100d1000080d3008502e80089
:100e5000fcff3a000300e00002003b0060001000cd
:100e6000e0801800000006000001be0081ff0700be
:100e70000470a70003f0a10003f8a30013003a00d8
:100e80006509b10010003200090035006928e10051
:100e900002003500010028000000050000004000ad
:100ea000818048008502e900fcff3a00000006004e
:100eb000f88f4200050035008100d1000080d3008a
:100ec0008502e800fcff3a00000006008000eb000d
:100ed00000000500839f68000100e00002003d0063
:100ee00060001000e08018000300e00002003d00f8
:100ef00060011100e0811900050007004f00e000cb
:100f000002003b0060001000e080180000000600b6
:100f10006022b800060220000000d0008180d200cc
:100f20000482d2008582d2000000a000020252009a
:100f300083825a0003003b000202420083824a007f
:100f40000000a1000603e900f3ff3a0000000600dc
:100f5000889fbe008a9fbe00841f78005aff07004a
:100f60004f00780011003300f0ff2f00838f6c00da
:100f700006003b00040565000a00a70008003700d2
:100f800009f0a6001000200008003700820f54006e
:100f9000838f5c00030039001000200001003e0038
:100fa0000000200009f0a7000000ea004f05be0085
:100fb0004f04be000000e00000000600020ab90075
:100fc000001bb9000200b80081004200810043000c
:100fd00000000600000005000000fa0068815700cc
:100fe000cfb89700e20107000080fa000000060079
:100ff000060007005e0007000f0107003701070029
:101000009000070032020700dd013700ec8747003f
:10101000889fbe008a9fbe008c9fbe008e1f7800f6
:101020000006780001047800180790002805900059
:1010300098067800cdb79f00b80590003202be0038
:101040002203be000400be000601be004f18de00f1
:101050006011b8008000eb00d0b79f00e1b79f009f
:10106000f2b79f0083bf9f00800478000900e00072
:10107000060032006000b8006011b80004025000a1
:101080008582580006035900878359000e00e0004e
:10109000020035000d10a100cdb79f000900e0004f
:1010a00005003a004fb097000028a30002003a0064
:1010b0000038a300020032008a00e9000100370076
:1010c0008a007800f8815700a2002000080078000c
:1010d000860007000900e00003003a00cfb0970047
:1010e0000128a300080032000000e900008145004b
:1010f000b1c2b3000900e00001003200d1c2b30068
:1011000001497800050037000138a30003003200d0
:101110000000e90001c2b300817578004801900029
:101120000201e90000015100808045004fb29700a4
:101130008a0178000c007800300207009c009000c3
:101140000188a3000400320098009000810f500035
:1011500001003d00010078004f0778004f06be00f7
:101160004f05be004f04be00cf00b10000000600d6
:101170000200fa00889fbe008a9fbe0080057800aa
:101180000104780002007800180190002805900002
:1011900098007800b1bf9f00b80490000200e00002
:1011a000020035000110a100b1bf9f00ea81570085
:1011b000820020008a0078003002be002003be00ba
:1011c00008007800490007003fb99700f00061006f
:1011d000030032000000e90001c3b300817478000d
:1011e0003fb99700e8006100030032000000e90009
:1011f00001c2b30081747800480190000201e90047
:1012000000015100808044003fba97008a017800b5
:101210000b007800f90107009b0090000188a300f3
:101220000400320098009000810f500001003d0042
:10123000010078004f05be004f04be000080fa0098
:1012400000000600ea874700889fbe008a9fbe0014
:101250008e1f780000047800030078007287570022
:1012600084e2260055c72600049fbe00c3962200d4
:10127000030f78006c875700004feb0011059000ba
:10128000a1049000910578000200e0000200320005
:101290000207780001003700728757000000e00065
:1012a00002003a000e0078004ffc07000a00e00040
:1012b000030035008a0f5000010036000a00780054
:1012c0000b02780089017800000178008e00780018
:1012d00008007800c90107004f0778004f05be00dd
:1012e0004f04be00af00b10000000600f4874700c5
:1012f000889fbe008a9fbe008c9fbe008e1f780014
:101300000605be000404be0081bf9f0082b79f0097
:10131000f3b79f00b0009000e1b79f001301780081
:1013200092b79f0090069000400090000000e900f6
:10133000000678000d00e00001003d001d002000c7
:101340008040eb00efb19700817178001e00200013
:101350001f0037000c06e9000fb09700cf80de00b9
:101360006109b900a0b79f00b1b79f00c2b79f0045
:10137000d3b79f000203be000002be000800be00fb
:101380000a01be002f050700000778000e40780014
:101390000043b000efb0970080707e008d06e9003a
:1013a0000fb997000201e90082bf9f002fb297009a
:1013b000bfb297004fb39700dfb397000800be009d
:1013c0000a01be00180507000205be000004be00a9
:1013d0000c00e0000d003400e00f5400e08f5c00d2
:1013e000e00f5d00e08f5d00daff3a000d00e000e5
:1013f000d8ff3c008fb997000300e00003003400e1
:101400001fb097000018a300d2ff3a000e00e000c2
:1014100002003a00ffb097001140a1000c007800d4
:101420004f0778004f06be004f05be004f04be00b8
:101430004f01b100000006000200fa00889fbe00c4
:101440008a9fbe0000057800010478000200780041
:1014500018019000a804900098007800b1bf9f0088
:10146000b80590000200e000020035000110a10064
:10147000b1bf9f00ea815700a200200089007800d8
:101480003002be002003be000800780097ff07006e
:10149000480190000201e9000001510080804500f0
:1014a0003fba9700890178000a00780053010700cd
:1014b0009a0090000188a300040032009800900078
:1014c000810f500001003d00010078004f05be0073
:1014d0004f04be000080fa0000000600fa874700b3
:1014e000889fbe008a9fbe008c9fbe008e1f780022
:1014f00080047800010478008205780018019000cb
:101500002805900018077800b80090000200e0005d
:10151000020035000e10a10001003700120020006b
:1015200070006700e0b79f00090032003b02be0078
:101530002b03be00e00f5200e08f5a00e00f5b006b
:10154000e08f5b00020032008a86e900010037006c
:101550008a067800e8026700f5b79f0001003200b4
:101560008d06e9003b02be002b03be00e4af9f00e6
:10157000f5af9f0086b79f0097b79f004806900081
:101580000c06e9000040eb0080707e00efb297008f
:101590007fb297008903780081047800d8af9f005c
:1015a000020478008bbf9f008a057800034578000d
:1015b0002a0037000c06e9006fab97006f0063004c
:1015c000e90f500002003c000003b00001003700aa
:1015d0007005b0000a03fb001604b100f90f5300b8
:1015e0000c003e00000378000650a0001606b10073
:1015f000f90f530007003e00b4b79f00a5b79f0046
:10160000c7b79f0077030700cfb39700afb297002b
:101610003fb2970080747e000804e9008d06e9005f
:101620006fa89700ffa897000fb197009fb1970090
:10163000460020008301d1000281d3008180d300c5
:101640000080d3000603e900faff3a00e0af9f00f4
:10165000f1af9f0082b79f0093b79f00e10f560044
:101660000f0034006fa89700ffa897000fb19700f4
:101670009fb19700e00f5000e08f5800e00f590035
:10168000e08f5900cbff3a000800e000c9ff3c00a2
:101690000d00e000020034000e18a300c5ff3a0060
:1016a00089007800f4b79f00870478005fac97004a
:1016b0008a4178000b0578008fbd97000500e00097
:1016c000100032003b02be002b03be00e4af9f00bf
:1016d000f5af9f0086b79f0097b79f00e00f5200bd
:1016e000e08f5a00e00f5b00e08f5b0005003200e6
:1016f0000c06e90083707e000c06e90000c3b3000d
:1017000080707e00ffb297000500e0000300320009
:101710000c06e90000c2b30080707e004801900012
:101720000201e9000c0151008c8040000e0278009b
:101730008a01780009007800b00007009900900045
:101740000188a3000400320098009000810f50002f
:1017500001003d00010078004f0778004f06be00f1
:101760004f05be004f04be00af01b10000000600ef
:101770008201780001017800f1ff27002003370083
:1017800084082000848f50001d0032000d003c00b2
:1017900014082000848f50002700320002003c0013
:1017a000040820000400370024082000848f500023
:1017b0003400320044082000848f500043003a0077
:1017c00036003700040a2000848f500027003200c2
:1017d00004003c0004092000848f50003b003a00c4
:1017e00028003700020c2000828f50002f003200aa
:1017f000020f2000828f500034003a002b00370087
:101800009380e9000200e0000500320081097800c1
:101810001102fb00cfa2de00612bb90028003700c7
:1018200081097800114278000482fb008002eb00fd
:101830006033b8002200370013027800e400520041
:101840000200e00005003200810978001102be00ac
:101850004fabde008603780019003700810978005d
:101860001102be006033b800150037009380e90014
:101870008109780011027800cfa2de00612bb90047
:101880000f00370093027800e88052008109780049
:101890003102be002103be00090037009380e90039
:1018a0000200e00002003200f1ff37009380e900ff
:1018b00081097800110278008002eb006033b800e3
:1018c0000498be000690be00100005000000050050
:1018d00044082000848f50002500320008003c009e
:1018e00014082000848f50001400320024082000c7
:1018f000848f500024003200040820000c003700c0
:1019000004092000848f50001f00320004003c00b6
:1019100084082000848f500024003a000e00370015
:10192000040a2000848f500011003200040c2000b3
:10193000848f50001d003a000d0037009380e900ad
:10194000810978009100780001087800cf91de00cd
:101950008288be00140037009380e9008109780076
:101960009100780001087800824878000e00370066
:101970009380e900810978009100780001087800df
:1019800082087800080037009380e9008109780018
:1019900091007800010878006112b900612bb9004c
:1019a0008498be008690be0010000500000005006f
:1019b000889fbe00000478004800900082047800f0
:1019c000808f5400010036008004780009017800ff
:1019d0005800900016fa07005800900009004000d7
:1019e00050049800c8009000898450004904980071
:1019f0000048eb004f04be0000000600f2874700dd
:101a0000889fbe008a9fbe008c9fbe008e1f7800fc
:101a100080047800010578000204780083057800ce
:101a20006107620002003a008b0f54000800390081
:101a3000080178008a00780009007800dcff0700c0
:101a40008b0f540002003900880578001e00370013
:101a5000088655000c017800f00f56000100360092
:101a600002012000010220007e805700f2010700e1
:101a70008c0678000500370002012000fe80570028
:101a800009007800caff0700f0865600ef8f560065
:101a9000f9ff3e004461de0000ff2f000091b90015
:101aa00002014600fe80570009007800c0ff0700d1
:101ab0000e00e00004003a00080178008a00780077
:101ac00009007800baff07000b0078004f07780084
:101ad0004f06be004f05be004f04be002f01b100ef
:101ae00000000600000005000000050000000500e1
:101af000000178000040eb008080fb008180400006
:101b00004397200063c278000404e00003003a0019
:101b10005097200060c07800000006009201780015
:101b2000934f520004003a005097200060c07800a4
:101b30000309e800010037000040e800ea4f5000c8
:101b4000edff360000000600f6874700889fbe00c4
:101b50008a9fbe008c9fbe008e1f78000005780013
:101b60000104780083057800040678000000eb008b
:101b7000c0b79f008080eb00d1b79f00e0b79f0007
:101b8000f2b79f000008200080bf9f0098007800f7
:101b9000010078008004eb00010037008904e800b0
:101ba000304178000204e0000300320053c2b30069
:101bb000834f5100f9ff3a000900e00004003200b1
:101bc000090178000a00780079ff0700188c4400aa
:101bd0001807780050c2b3009e4f10003f013a0032
:101be0000e07e8000e0c780010003700cfb0970009
:101bf0000100a0000b003700cfb097000110a0003b
:101c000008003700cfb097000120a0000500370082
:101c1000cfb097000130a00002003700cfb097008e
:101c20000140a000c1b79f00000ce8001800780038
:101c300090407800b2c2b30082cf5000f1ff320072
:101c400007003c0002c2b30082cf5000f0ff320018
:101c500032c2b30082cf500007003a00efff3700d6
:101c6000d2c2b30082cf5000e0ff320002c3b30003
:101c700082cf5000e0ff3200a2c2b30082cf5000fa
:101c80000d003a00000ce8001c80e900000e78000e
:101c900010007800e0b79f000000e0000f003d005a
:101ca000cfb097000100a200c1b79f000000ea007a
:101cb000e0b79f000900370039010700e0b79f0037
:101cc00001003700000ce800180078009000fb00cd
:101cd0000103b100e98f5000faff36004fb09700c2
:101ce0000008a300020032000010a100c0b79f004e
:101cf00018007800e1c2b30090cf100016003a003f
:101d00008000eb00d1b79f000000e800000c7800d5
:101d1000a1c2b30090cf100006003a00000ce8000a
:101d20001c80e900000e780010007800d0b79f00fa
:101d3000090037001a010700d0b79f0001003700e3
:101d4000000ce800180078009000fb000103b100cf
:101d5000e98f5000faff36000800780064ff0700a2
:101d600080467800180078001000fb0096010700fc
:101d700091062000810f50003800320012003c0014
:101d800041062000810f5000340032000a003c0060
:101d900011062000810f5000200032003106200083
:101da000810f5000a000320051022000810f50002e
:101db000bc003a00b400370071062000810f5000cb
:101dc000b8003c008800370001072000810f500058
:101dd0005c00320007003c00e1062000810f50004b
:101de0007a003200f1062000810f5000ad003a0069
:101df0003900370051072000810f500027003200c2
:101e000081072000810f500042003200310720007e
:101e1000810f5000a3003a008f0037008d80fb0037
:101e20000c01780000fe2f000f0040009901070010
:101e30000000e000a800320018007800000ce80064
:101e40009041780002fe2f000f014100f8805700fa
:101e50000a00780024ff07000e0037008d80fb0089
:101e60008c0178001200200000fe2f000f004000bf
:101e700043fe07000000e00097003200180ce80065
:101e800002fe2f000f014100f88057000a00780081
:101e90005efc070080844400900037008d80fb00ca
:101ea0008c0178000001eb0000fe2f000f004000c5
:101eb00033fe07000000e00087003200180ce80045
:101ec00002fe2f000f014100f88057000a00780041
:101ed00059fd0700efff37008d80fb008c01780073
:101ee0000001eb0000fe2f000f00400024fe070061
:101ef0000000e00078003200180ce80002fe2f001d
:101f00000f014100f88057000a00780098fc070094
:101f1000e0ff37008d80fb008c0178000001eb00b2
:101f200000fe2f000f00400015fe07000000e0003b
:101f30006900320018007800000ce8009041780039
:101f40001c0037008c0178000001eb00010f20001d
:101f500000fe2f000f00400009fe07000000e00017
:101f60005d003200180ce8000fb097009fb097009a
:101f70002fb19700bfb19700e00f5000e08f5800dd
:101f8000e00f5900e08f590009003a00cfb59700e3
:101f90006fb49700c096200013f907000b02780079
:101fa0008801780000017800c196200047003700c2
:101fb00083c7b30002fe2f000f014100f8805700d5
:101fc0000a00780045fd0700b2ff37000b8144008e
:101fd0008d80fb008c01780000fe2f000f00400078
:101fe0003bfe07003c0037008d80fb000c017800b1
:101ff00000fe2f000f004000260107000000e00057
:102000003500320018007800000ce800904178009c
:1020100002fe2f000f014100f88057000a007800ef
:10202000b1fe07009bff370000c8b30080cf560009
:1020300029003a00180ce8001c80e900000e780026
:1020400010407800e0df9f0013002000e2fd2f0029
:102050000f0141000800370000c8b30080cf5600d0
:102060001d003a00180ce8001c80e900000e780002
:102070008001eb0010017800f88057000a0078001a
:1020800070fc070083ff370000c8b30080cf560004
:1020900011003a00180ce8004fb29700efb197001a
:1020a000080037000e0c78000000eb00c0b79f005e
:1020b000e0b79f000080eb00d0b79f000002eb006c
:1020c0008401780012002000219720000a00780087
:1020d0004afe07006fff3700180ce800090078007f
:1020e0004f0778004f06be004f05be004f04be00ec
:1020f0006f01b100000006008200fa00889fbe0058
:102100008a1f78000005780082047800c13f9f0094
:102110000004eb0010003700090278008801780005
:10212000a2f72f000f01410081f72f008f804000a0
:102130000a00780084fe070008004000880f500065
:1021400004003d00b0042000504d88000084eb00e6
:1021500004003700000478004f3897001004e000b6
:10216000edff3a00080078004f0578004f04be00ec
:102170000080fa00000006008000780010002000b7
:1021800002022000828f500004003200e9805000db
:10219000e48f5000010036000000eb000000060054
:1021a000889fbe008a1f7800000578000a04780026
:1021b000984478000805e8000900fb00eeff0700de
:1021c0000000e000f9ff3a00b0c2b30080cf540035
:1021d00005003200d0c2b3008000eb0080cf540075
:1021e00005003a00020037008000eb0001003700d4
:1021f000110020000804e8000000eb000300370095
:102200006a02b900020052000003b0003801fb006e
:1022100003fd2f0082814100e98f5100f8ff360055
:102220000100e00001003a000000ea004f057800dc
:102230004f04be0000000600889fbe008a9fbe00bb
:10224000800478000200e0005b003200014078006a
:10225000814c780082814400f1f99f00e20f510027
:102260005500360091449800a1449800e1f99f0080
:10227000d1f99f00e60f51004f003600b14498009d
:10228000c1f99f00e80f51004b0036000905ea0034
:10229000630565000a8444000a055100c1ff2f0050
:1022a000010565000080fb008000eb00121020009b
:1022b0001310200041fb0700008cbe000a014400ff
:1022c00060b99f0071b99f00e80f55003a003600d1
:1022d00020049800310498004004980051049800ac
:1022e00020b99f0031b99f0040b99f0051b99f00ac
:1022f000f80f550030003600600498007104980013
:10230000000c9800110c9800200c9800310c9800db
:10231000400c9800510c980020b19f0031b19f00f3
:1023200040b19f0051b19f0060b19f0071b19f000b
:1023300000b99f0011b99f00640164007801410059
:1023400002044400020555006011b8000203be00fb
:102350000002be000403be006022b800000072004c
:1023600081807200020173008381730010003700c6
:10237000009cbe000294be004004980051049800e6
:102380006204980073049800000c9800110c9800e7
:10239000220c9800330c9800400c9800510c9800c7
:1023a000620c9800730c98000a02b1000802b00099
:1023b000ff0f5500eeff3e00090078004f05be00fc
:1023c0004f04be0000000600f1fb2f00808040009b
:1023d000f98f500001003e000050a00000000600f0
:1023e000f9ff3700f1f92f0080804000f98f50008d
:1023f00001003e00f005b20000000600f9ff3700c2
:10240000f28747008e1f78000202780003017800ef
:102410000000e000020032000007780001003700f1
:10242000728757008002eb000100e00001003200db
:102430008102e90070805700060009000018eb00d7
:102440000080eb0080bf9f002310200093bf9f00ff
:10245000aebf9f00b1bf9f00c5bf9f000100e0005d
:1024600003003d00b1042000514d880006003700f4
:10247000004feb00eebf9f00debf9f00840078009e
:1024800070805700220007004f0778002f01b1002d
:1024900000000600881f7800000478000008200073
:1024a000808f50001700350010082000808f5000ea
:1024b0000b00340030082000808f500011003a00db
:1024c0009200780068805000000978003002be0059
:1024d0002003be00049cbe000694be000700370027
:1024e0009202780064805200000978001000be005b
:1024f00015000700009cbe000294be0010002000e2
:10250000010037000000eb004f04780000000600d7
:102510000200fa00881f780000047800e2bf9f00e4
:102520006481570008007800f3fe070098009000cf
:102530000148a300010032000080eb004f04780046
:102540000080fa000000060081037800c9f9070046
:102550000001be006000b8000478a30013003a0038
:102560006220e10015003e000d0039008301d1001a
:102570000281d3008180d3008301d1000281d30086
:102580008180d3008301d1000281d3008180d300f8
:102590000538b000c42add00f300b2008381720068
:1025a00007f0a70003f0a0000000060083ff27004b
:1025b000020020006110b900f9ff370003ff270077
:1025c000f7ff3700889fbe008a9fbe00300442009c
:1025d000b0844a0030054b0090854b006000b1008c
:1025e0000898be000a90be000440e10005c8e10062
:1025f00006d0e10007d8e100020031006800400089
:102600001008e8004f05be004f04be0000000600a1
:10261000889fbe008a9fbe003004be002005be0019
:102620000418540005985c0006185d0007985d00ca
:10263000110020000440e10005c8e10006d0e100df
:1026400007d8e100010039008000eb00108810007d
:102650004f05be004f04be00000006001200fa0045
:10266000889fbe008a9fbe008c9fbe00e0b79f007f
:10267000f1b79f0082bf9f0093bf9f000605be0079
:102680000404be000000eb00d0b79f00c0b79f005d
:10269000b0b79f00a0b79f0090b79f0000067800da
:1026a0005fb19700cfb09700820141003fb0970023
:1026b0000200e00004003d00370007007e80570064
:1026c000c0ff070003003700330007007e8057007b
:1026d000cfff0700dfb697000d00e0000c003500cb
:1026e0006fb29700ffb297000fbb97009fbb970098
:1026f00010002000010020006011b80000027200ec
:102700008182720002037300838373001b00070041
:102710000c06e80001042000810f5600e0ff3a009b
:102720000d00e00004003d000802be000a03be00e8
:102730007e805700a3ff07005fa897000000e0001d
:1027400005003a001fb29700afb297003fb3970061
:10275000cfb39700090007006fb09700ffb0970054
:102760000fb997009fb997004f06be004f05be00f6
:102770004f04be000080fa000000060001000700c0
:1027800000000600a4b79f00b5b79f00c6b79f0022
:10279000d7b79f00000006004f09de00828171005c
:1027a000b3b79f004f01de0081804000828070003f
:1027b000a1b79f008fb097004f09de0000004000d6
:1027c0000200700090b79f007fa897004f01de00c5
:1027d000818040008280700081b79f000d0007005b
:1027e0004f3ade000000400004007000f0af9f0090
:1027f000080007000402420085824a0006034b00dd
:1028000087834b00dfff07000802be000a03be00fb
:10281000000006002fb29700bfb297004fb3970099
:10282000dfb3970000000600881f78001800200022
:10283000881f780089ff07008f87e9004f04780020
:1028400000000600801feb0084ff07008f87e9006f
:1028500000000600889fbe008a9fbe00e00f500067
:10286000e08f5800e00f5900e08f59000c003d0048
:102870006044b8006055b8000000540081805c00de
:1028800002015d0083815d00180020001500070033
:1028900008003d00180007000004eb0005003700a9
:1028a0000004eb000f00070002003d0012000700cb
:1028b00018002000dcff07000800e00006003200de
:1028c0006022b8006033b8000000520081805a00d6
:1028d00002015b0083815b004f05be004f04be0018
:1028e00000000600e00f5200e08f5a00e00f5b008e
:1028f000e08f5b00000006006044b8006055b8003f
:102900000402540085825c0006035d0087835d003d
:1029100000000600889fbe008a9fbe008c1f7800c2
:10292000e00f5000e08f5800e00f5900e08f590091
:102930000d003d006044b8006055b8000000540030
:1029400081805c0002015d0083815d001c0020002d
:102950000820e10009a8e1000ab0e1000bb8e1009d
:102960000d003d00080037000006eb00e00f5200ac
:10297000e08f5a00e00f5b00e08f5b0006003d0037
:102980006044b8006055b8000402540085825c00c1
:1029900006035d0087835d00aaff07000c00e000ce
:1029a000060032006022b8006033b8000000520018
:1029b00081805a0002015b0083815b004f06780032
:1029c0004f05be004f04be00000006008a00fa005a
:1029d000889fbe008a9fbe00de010700c106070077
:1029e000e6030700d6010700c2000700003a800096
:1029f000610060000000e000020032004007a90012
:102a00000000fe006a00470072012000417d2a009c
:102a100007f607006a00470073f607008000780099
:102a20006a004700fd060700803e2000400798002e
:102a300000192000d503070000192000f803070043
:102a400000192000000f78000019200010079800de
:102a50000000eb00200798000a0037002e009000cd
:102a60004200dd0000004700a206200000014100f6
:102a70006000b8000089be002e0090000000e80051
:102a8000200798002e009000e70f5000f3ff34005d
:102a90000000eb0030079800390037000000eb0021
:102aa00020079800300037002e00900088010700b2
:102ab000800078002e00900000014000a0982000c7
:102ac0000000410010007800808050002e0090002f
:102ad0000000400000004700a005b0000108780099
:102ae0002e0090004200dd00a10620008e804000f4
:102af000008040001004be002e0090000000400046
:102b00000000470050289000cf80de008af80700c0
:102b100061f7070022c226002314240097f607005d
:102b20000005be004e009000cf80de0082f8070056
:102b30000001be000a00be00c4f607000001be008e
:102b40000800be0030f607002e0190004211dd00a3
:102b500002014700a206b0000089be002e009000ce
:102b60000000e800200798002e009000e70f5000ba
:102b7000cdff34003e0090000000e80030079800d0
:102b8000be0090004e009000808f5000c3ff3500c3
:102b90000000eb0020079800250037002e00900071
:102ba00080004000c09420000080400010047800a5
:102bb0002e0090004200dd00a10620008e80400023
:102bc000008040001000be0086f80700000078007a
:102bd00000c0b900000078001e0f40002e009000d9
:102be00080004000c0952000008040001004780064
:102bf0002e0090004200dd00a10620008e804000e3
:102c0000008040001000be0076f807000000780049
:102c100000c0b900000078009e00900000804000d5
:102c2000100798002e0090000000e8002007980090
:102c30002e009000e70f5000d8ff3400803e2000a7
:102c40009e007800808f500002003400803e2000fb
:102c5000000f78009e009000803e2000808f500082
:102c600002003400803e20001007980080c12f0031
:102c70009e007800808f500002003d0080c12f0030
:102c8000000f78009e00900080c12f00808f5000c0
:102c900002003d0080c12f00100798001e00780040
:102ca0003a0307001e0090005d0307001e0090001d
:102cb0009e007800808f5000070034001100200033
:102cc00010002000a90107008000eb007000200028
:102cd000a60107005aff37008000eb00100020001b
:102ce000a201070011002000700020009f010700d2
:102cf00053ff37007400fa00889fbe008a9fbe0011
:102d00000000eb00000f7800080037001e0078007c
:102d10004200dd00000047004205200000014100a4
:102d20006000b8000089be001e0fe8001e00780099
:102d3000e70f5000f5ff34000000eb00100798008b
:102d40001d0037000000eb00000f78001100370075
:102d50001e0078004200dd00410520008e8040000a
:102d6000008040001005be001e007800d80007005b
:102d7000cf80de000a0040008b8048001e017800f2
:102d80004211dd00020147004205b0000089be008b
:102d90001e0fe8001e007800e70f5000ecff340023
:102da00000712200010020003d0007001e0090007d
:102db0000000e800100798001e009000ff0f500070
:102dc000e0ff34000000eb00000f78002100370026
:102dd0001e0078004200dd00410520008e8040008a
:102de000008040001000be004b09dd004504de00fd
:102df00008047100c58cde00880078001e00780091
:102e000000014000a0982000000041000108780067
:102e10001e00780080004000a09820000080400044
:102e20009000780064004700811f7800a17b2a0091
:102e3000811f780068f80700e487570064004700a6
:102e400069f507008000780064004700f30507007b
:102e50001e0fe8001e007800e70f5000dcff340072
:102e60006400470042012000f17b2a00f0f40700d3
:102e7000640047005cf507008000780064004700ac
:102e8000e6050700006a2800110020000400070082
:102e90004f05be004f04be000080fa00000006008f
:102ea0000800fa0020079800310798006000b80079
:102eb000008fbe0004003700120020000300200035
:102ec0001e0f41005e9749002e009000be0090004a
:102ed0001e01be00800f5100818f5900f6ff3500a2
:102ee0000080fa00000006000000fa0030178000a1
:102ef0004600de00614060008080fb0030178000eb
:102f00004800de00614060000081fb003017800057
:102f10004900de00614060000080fb0000004000ce
:102f200000004100000040000001780030178000e0
:102f30004700de00614060000080fb0000004100af
:102f400000004000008040000080fa000000060001
:102f50000000fa00160007000080fa0000000600da
:102f60000600fa00000f7800110798002207980069
:102f700005e1a900500020002a0007009e0078000b
:102f80008008780060002000260007009e00900066
:102f9000800878007000200022000700ae0090003a
:102fa0008008780005e1a8000080fa000000060013
:102fb0000000fa00a422ef00201580001015880000
:102fc0001015800000158800a802a800a822a800fb
:102fd000a842a900a862a900a882a900a8a2a900e5
:102fe000a8c2a900a8e2a900a902a900a922a900d3
:102ff000a942a900a962a900a982a900a9a2a900c1
:10300000a9c2a900a9e2a90020012000201588007a
:103010007000200030158800a1e2a8000080fa00ae
:10302000000006000400fa00100798001e0090003f
:10303000ef0f5000020036000000eb0013003700d5
:103040009e00900031158800a022a8000000eb002f
:10305000000f7800010037001e0fe800700220000a
:103060009e007800808f5000fbff34008560a9002f
:10307000a022a9000000000000158000610060008f
:103080000000e000fcff3200001480000080fa0025
:10309000000006000000fa001021ef008108800007
:1030a000f0fc2f00008060000040a0008008880035
:1030b0000621ef00502820006008880084c0a90085
:1030c0008cc0a80011e1a8000080fa0000000600f2
:1030d0000200fa00000f78001e007800e70f500091
:1030e000020036000000eb00050037001e007800eb
:1030f00080004000c0932000008040001000780055
:103100000080fa00000006000200fa00000f7800bc
:103110001e007800e70f5000020036000000eb00b0
:10312000050037001e00780080004000c09120009c
:1031300000804000100078000080fa0000000600c7
:103140000000fa009aff0700d2ff07000080fa0093
:10315000000006000000fa00c4c2a900c4e2a900f1
:10316000c522a900c582a900c542a900c5a2a9001f
:10317000c5c2a900c5e2a900c0c2a900c0e2a90059
:10318000c122a900c182a900c142a900c1a2a9000f
:10319000c1c2a900c1e2a900d022a900cc22a90085
:1031a000d042a900cc42a900e2e2a900e302a900b2
:1031b000e802a900e822a900dee2a900df02a900d6
:1031c000e402a900e422a900e202a900de02a900ab
:1031d000d602a900d622a900d642a900d662a9002b
:1031e000d682a900d6a2a900d6c2a900d6e2a9001b
:1031f000d202a900d222a900d242a900d262a9001b
:10320000d282a900d2a2a900d2c2a900d2e2a9000a
:10321000d1a2a900cda2a900e842a900e862a900b4
:10322000e442a900e462a900de22a800dec2a800f0
:10323000e4c2a800e4e2a800e502a800e522a80094
:10324000de22a800d302a800d322a800d342a800ff
:10325000d362a800d382a800d3a2a800d3c2a8003a
:10326000d3e2a8000080fa00000006000200fa0085
:10327000000f78001e007800e30f50001f0032009e
:10328000e30f500005003e00e10f50001100320036
:10329000e10f500014003e0009003700e50f500018
:1032a00020003200e50f500019003900e60f5000f1
:1032b00021003200e70f50002400320028003700c0
:1032c000201680004600de00614060000080fb00a8
:1032d00024003700201680004700de0061406000b7
:1032e0000080fb001f003700201680004900de0030
:1032f000614060000080fb001a003700201680004b
:103300004c00de00614060000080fb0015003700cb
:10331000201680004a00de00614060000080fb0053
:1033200010003700201680004d00de006140600074
:103330000080fb000b003700201680004e00de00ee
:10334000614060000080fb0006003700201680000e
:103350004f00de00004078000080fb0001003700d5
:103360000000eb000080fa00000006000400fa00f4
:10337000000f7800110798001e007800e30f50003e
:1033800061003200e30f500005003e00e10f5000e5
:1033900027003200e10f500040003e0009003700d6
:1033a000e50f50008e003200e50f5000710039002b
:1033b000e60f5000a5003200e70f5000be003200bb
:1033c000d60037001e009000e10f50000d003600bf
:1033d000201680004600de00614060000004a2006c
:1033e000614060000080fb00610060004600dd007d
:1033f000211680000160a1000100700020168800e5
:10340000150137001e009000004078006140600008
:103410000080fb00610060004600dd002116800096
:103420000160a10001007000201688000a01370029
:103430001e009000e10f50000d00360020168000a5
:103440004700de00614060000004a20061406000af
:103450000080fb00610060004700dd002116800055
:103460000170a1000100700020168800fa003700ea
:103470001e00900000407800614060000080fb006a
:10348000610060004700dd00211680000170a1008e
:103490000100700020168800ef0037001e00900029
:1034a000e10f50000d003600201680004900de00bc
:1034b000614060000004a200614060000080fb00e9
:1034c000610060004900dd00211680000190a1002c
:1034d0000100700020168800df0037001e009000f9
:1034e00000407800614060000080fb0061006000e7
:1034f0004900dd00211680000190a100010070004c
:1035000020168800d40037001e009000e10f500004
:103510000d003600201680004c00de006140600087
:103520000004a200614060000080fb0061006000b8
:103530004c00dd002116800001c0a10001007000d8
:1035400020168800c40037001e009000004078005c
:10355000614060000080fb00610060004c00dd0005
:103560002116800001c0a100010070002016880013
:10357000b90037001e009000e10f50000d0036002a
:10358000201680004a00de00614060000004a200b6
:10359000614060000080fb00610060004a00dd00c7
:1035a0002116800001a0a1000100700020168800f3
:1035b000a90037001e0090000040780061406000c4
:1035c0000080fb00610060004a00dd0021168000e1
:1035d00001a0a10001007000201688009e003700a5
:1035e0001e009000e10f50000d00360020168000f4
:1035f0004d00de00614060000004a20061406000f8
:103600000080fb00610060004d00dd00211680009d
:1036100001d0a10001007000201688008e00370044
:103620001e00900000407800614060000080fb00b8
:10363000610060004d00dd002116800001d0a10076
:103640000100700020168800830037001e009000e3
:10365000e10f50000d003600201680004e00de0005
:10366000614060000004a200614060000080fb0037
:10367000610060004e00dd002116800001e0a10025
:103680000100700020168800730037001e009000b3
:1036900000407800614060000080fb006100600035
:1036a0004e00dd002116800001e0a1000100700045
:1036b00020168800680037001e009000e10f5000bf
:1036c0000c003600201680004f00de00004078001d
:1036d0000004a200614060000080fb004f00dd009c
:1036e0002116800001f0a100010070002016880062
:1036f000590037001e0090000040780061406000d3
:103700000080fb004f00dd002116800001f0a100c9
:1037100001007000201688004f0037001e00900046
:1037200000407800614060000080fb004f00dd0039
:103730002116800001f0a100010070002016880011
:10374000201680004f00de00004078000080fb0063
:10375000610060004e00dd002116800001e0a10044
:103760000100700020168800201680004e00de0048
:10377000614060000080fb00610060004d00dd00e2
:103780002116800001d0a1000100700020168800e1
:10379000201680004d00de00614060000080fb00cc
:1037a000610060004a00dd002116800001a0a10038
:1037b0000100700020168800201680004a00de00fc
:1037c000614060000080fb00610060004c00dd0093
:1037d0002116800001c0a1000100700020168800a1
:1037e000201680004c00de00614060000080fb007d
:1037f000610060004900dd00211680000190a100f9
:103800000100700020168800201680004900de00ac
:10381000614060000080fb00610060004700dd0047
:10382000211680000170a1000100700020168800a0
:10383000201680004700de00614060000080fb0031
:10384000610060004600dd00211680000160a100db
:1038500001007000201688000080fa0000000600b9
:103860000200fa00000f78001e007800e10f5000ff
:103870000d003600801680004200de0061406000ce
:103880000004a200614060000080fb006100600055
:103890004200dd00811680000120a10001007000bf
:1038a000801688000a0037001e007800004078006b
:1038b000614060000080fb00610060004200dd00ac
:1038c000811680000120a100010070008016880090
:1038d0000080fa00000006000200fa00000f7800e5
:1038e0001e007800e10f50000d00360080168000a9
:1038f0000000d100614060000004a200614060004f
:103900000080fb0061006000000040008116800024
:103910000110a10001007000801688000a00370025
:103920001e00780000407800614060000080fb00cd
:103930006100600000004000811680000110a100bd
:1039400001007000801688000080fa000000060068
:103950000000fa00c4c2a900c4e2a900c522a9005f
:10396000c582a900c542a900c5a2a900c5c2a90077
:10397000c5e2a9000080fa00000006000000fa007d
:10398000f4fd07000080fa00000006000200fa00c3
:10399000000f78001e0078000000e00006003a00ea
:1039a00021e1a900d602a900d622a900d642a90089
:1039b000d662a9001800370021e1a9009e00780016
:1039c000c14688002021ef0001098000000320008b
:1039d00001007000000988001821ef001e00780027
:1039e00000f0a7000000ea00cf80de00d2f407005c
:1039f0000001be00000020001176240013f3070030
:103a000019f5070000007800e008880086c0a900ca
:103a10008ec0a80021e1a8000080fa000000060086
:103a20000200fa00000f78001e0078000000e0009d
:103a300006003a001fe1a900d682a900d6a2a9007b
:103a4000d6c2a900d6e2a900180037001fe1a900dc
:103a50009e007800d14688001e21ef00f10880000a
:103a60000003200001007000f00888001421ef001e
:103a70001e00780000f0a7000000ea00cf80de0002
:103a8000adf407000001be00000020001176240004
:103a9000eef20700f4f4070000007800d008880078
:103aa00086a0a9008ea0a8001fe1a8000080fa004f
:103ab000000006000000fa00e0468000f1468000a9
:103ac0000080fa00000006000400fa00008fbe002b
:103ad0001027fc001e01be00e2468800f346880065
:103ae0000200fc000080fa00000006000000fa005e
:103af00000478000114780000080fa0000000600a7
:103b00000400fa00008fbe001027fc001e01be005a
:103b100002478800134788000200fc000080fa007a
:103b2000000006000000fa00204780000080fa0034
:103b3000000006000600fa00008fbe002207980071
:103b40001027fc00dc28ef00de28ef00e028ef0063
:103b5000e228ef0010002000204788009e0090001f
:103b6000b01521000088b900000178001e0078001f
:103b70006000b90000007800000141009e0078005c
:103b8000b01521000008b800010141008200780052
:103b9000823e200003002000cef40700504788003a
:103ba000614788009e009000b01521000088b90090
:103bb000000178001e0078006000b9000000780065
:103bc000000141009e007800b01521000008b800f7
:103bd0000101410082007800823e200003002000a5
:103be000bcf4070070478800814788001e00be00b3
:103bf000e00f5000e08f580005003d002e009000bf
:103c000000f0a7000000ea000000ea00200798008a
:103c10001e00be00e00f5000e08f5800040034008a
:103c20002e00900000f0a7000000ea002007980096
:103c30001e00be00e00f5000e08f580004003a0064
:103c400040002000204788000000eb00200798007b
:103c50002e0090004dff07002e00900070ff07001f
:103c60000200fc000080fa00000006000a00fa00d2
:103c7000881f7800200798003107980042079800b5
:103c80001027fc00dc28ef00de28ef00e028ef0022
:103c9000e228ef0010002000204788002e0090004e
:103ca000be00900001f0a10052a32f00e3c8230042
:103cb00032f20700f2282c0053d723002ff207001e
:103cc000020020000300240060f20700008fbe0005
:103cd00002802d00a35824001e00be0027f207001a
:103ce00040f4070030478800414788004e009000ac
:103cf00000f0a7000000ea004007980018c0b300d9
:103d00006011b8002e009000be00900006f407007d
:103d10000000e000010035000044eb000804e00072
:103d20000f00320030478000414780005047880034
:103d300061478800304780004147800060001000e4
:103d4000e080180070478800814788004e0090008e
:103d50000eff07004e0090000000ea0030ff070051
:103d600018c0b3006011b8002e009000be00900093
:103d7000eff307000000e00001003c000044eb000e
:103d80000804e0000f003200304780004147800007
:103d900060001000e08018005047880061478800ec
:103da0003047800041478000704788008147880085
:103db0004e0090000000ea00f4fe07004e00900064
:103dc00017ff07006011b8002e009000be009000a1
:103dd000d5f307000000e00006003a004000200094
:103de000204788000000eb00e8fe07000000eb0021
:103df0000bff07000200fc004f0478000080fa006f
:103e0000000006001400fa00889fbe006000b800a1
:103e1000008fbe006000b8002007980031079800ae
:103e20006000b80040079800510798006000b80093
:103e30006007980071079800e0468000f146800016
:103e4000bdf307000004be00f04780000148800079
:103e5000b9f307000001be000800be0069f10700c9
:103e60003299270063e62300c4f10700008fbe00eb
:103e70000047800011478000aff307000004be0038
:103e80001048800021488000abf307000001be000d
:103e90000800be005bf107003299270063e62300ab
:103ea000b6f1070020079800310798002e01900016
:103eb000be0190001e00be0053f10700020020006a
:103ec00003002400e1f10700400798005107980023
:103ed0001e01be002e009000be00900049f10700b8
:103ee0000200200003272400d8f107006007980093
:103ef00071079800d5f00700810c200001017800bf
:103f0000110009000200d8008000fd00cf80de0013
:103f100089f30700000f9800110f9800020020009d
:103f2000832c24000e0890009e08900035f10700b5
:103f3000000f9800110f98006011b8004e0090001b
:103f4000de0090008df107000e0990009e099000a0
:103f50008af107000001be004e009000de009000d4
:103f600029f1070040079800510798006011b80038
:103f70004e009000de00900080f107000001be00be
:103f80004e009000de0090001ff1070040079800ef
:103f9000510798006011b8006e009000fe0090007c
:103fa00076f107000001be006e009000fe00900058
:103fb00015f10700600798007107980002002000c3
:103fc000030024006e009000fe0090009ff10700a7
:103fd0000002be00d0478000e14780000001be0023
:103fe0000400be0008f1070084f207004e019000b3
:103ff000de01900061f107000002be0090478000e2
:10400000a14780000001be000400be00fef00700d2
:1040100090478800a1478800020020000300240088
:104020006e009000fe00900088f107000002be00c4
:10403000d0478000e14780000001be000400be00c0
:10404000f1f007006bf207004e019000de019000d6
:104050004af107000002be00b0478000c14780005f
:104060000001be000400be00e7f00700b047880072
:10407000c1478800d0478000e14780006e01900072
:10408000fe019000e0f00700d0478800e14788007b
:10409000d0478000e147800001f0a10018c0b300c4
:1040a000b2fd2000930c240021f307000000e00083
:1040b00001003c000044eb000804e0001c0032005a
:1040c000d0478000e147800018c0b3006011b800fd
:1040d00017f307000000e00001003c000044eb0083
:1040e0000804e00009003200d0478000e14780006a
:1040f00001f0a100b2fd2000930c240095f107000f
:10410000d0478800e147880009003700d047800089
:10411000e147800001f0a100b2fd2000930c2400d3
:104120008cf1070001f0a200d0478800e147880029
:10413000d0478000e147800001f0a10018c0b30023
:10414000b2fd200093042400f9f207000000e00013
:1041500001003c000044eb000804e00019003200bc
:10416000d0478000e147800018c0b3006011b8005c
:10417000eff207000000e00001003c000044eb000b
:104180000804e00008003200d0478000e1478000ca
:10419000b2fd2000930c24009af00700d04788005d
:1041a000e147880007003700d0478000e1478000e2
:1041b000b2fd2000930c240093f00700d047880044
:1041c000e1478800e0468000f1468000f047880023
:1041d000014888000047800011478000104888008f
:1041e000214888004f04be000080fa00000006004d
:1041f0000c00fa00008fbe002207980033079800d9
:1042000044079800550798001e01be009247880099
:10421000a34788002e019000be019000b24788009d
:10422000c34788004e009000de0090002300070086
:10423000d0478800e1478800e0468000f1468000d2
:10424000f04788000148880000478000114780003f
:1042500010488800214888000000eb00e8ef0700c4
:104260000000780050f007000080fa00000006000f
:104270000600fa00000f7800110798002207980046
:1042800090478000a14780001e0178000089be0091
:10429000b0478000c14780001e0190000089be0029
:1042a000d0478000e14780004e0007002e019000bb
:1042b0000089be000080fa00000006000800fa0035
:1042c000881f7800200798003107980018c0b300b5
:1042d00002002000733824002e009000be009000e1
:1042e00093f207000000e00001003c000044eb00f6
:1042f0000804e0000b003a0018c0b30002002000e0
:10430000432b24002e009000be00900086f2070090
:104310000000e000010035000044eb000804e0006c
:104320002200320018c0b30002002000432b2400fa
:104330002e009000be0090007bf207000000e0001d
:10434000010035000044eb000804e0000a003200e0
:104350002e019000be01900000002000412b24009f
:1043600028f0070052a32f00e3c8230083f00700c2
:10437000008fbe00170037002e019000be01900094
:1043800000002000413b24001ef0070052a32f0034
:10439000e3c8230079f0070002002000432b24002b
:1043a00019f00700008fbe000a003700020020004d
:1043b000432b24002e009000be00900011f0070057
:1043c00001f0a20052a32f00e3c823006bf0070006
:1043d000008fbe001e00be004f0478000080fa006f
:1043e000000006000800fa00881f780020079800e7
:1043f0003107980018c0b3006011b8002e0090007b
:10440000be0090004af207000000e00001003c00fe
:104410000044eb000804e0002400320018c0b300a0
:10442000b2fd200093fc23002e009000be009000ff
:104430003df207000000e000010035000044eb0001
:104440000804e0000b00320002ee22005326240094
:104450002e009000be00900048f007000001be0052
:1044600000002000412b2400e6ef0700008fbe0073
:104470001800370002ee2200532624002e00900080
:10448000be0090003df0070002002000432b2400f6
:10449000dcef07000001be0000002000413b2400cb
:1044a000d8ef0700008fbe000a00370002ee22009e
:1044b000532624002e009000be0090002ff007002d
:1044c0000001be0000002000412b2400cdef0700ba
:1044d000008fbe001e00be004f0478000080fa006e
:1044e000000006000c22ef000e22ef000ee2a900f1
:1044f0000ec2a9008520a9008d20a8000de2a80009
:1045000070002000a01088008540a9008d40a80000
:1045100081e0a900c0048000f1002f00008060004d
:104520000155200000804000c00488000fe2a80070
:104530000f42a80000000600809fbe008520a90051
:104540000000eb0012c2bf00619a20008048780092
:1045500010002000404d88004f00be0000400600c3
:10456000a809e200090032008d20a9008000eb00bc
:10457000414d8800629a20009240780001487800fe
:10458000100020008d20a800000006000000eb00b5
:10459000000006008540a900809fbe00821f7800b1
:1045a0009e09e200150032009a09e200160032006e
:1045b0009c09e20014003200d14c8000420020002f
:1045c0000f22af00feff3700e04c80000000e0004b
:1045d000070032000000e9009ca9b70031407800d4
:1045e00010e2b7000201e900f5ff3a0002003700cf
:1045f0009a29ef0001003700d14c88004f01780064
:104600004f00be000040060000002000f04c880073
:104610004f0178004f00be00004006009e09e200f6
:10462000feff3a008d40a9008100e900e14c8800be
:10463000b040780081108800d04c88001100200024
:10464000f14c88008d40a80000000600f04c80006e
:10465000000006000000fa00e20007000080fa00f7
:10466000000006000000fa001f0107000080fa00a9
:10467000000006000000fa00210107000080fa0097
:10468000000006000400fa00204798003147980017
:104690000040eb00004f78001900370010c0b30055
:1046a000004f78001c0107001e4f60002e40900054
:1046b000160207001e4f60003e40900013020700e4
:1046c0001e4f6000320107001e4f60002e40900018
:1046d0000040e8000d0207001e4f60000e00e800d9
:1046e000bf0107001e4f60008e0107004601070052
:1046f0001e4078000004e00005003a00d6000700e4
:104700001e4078000004e000e4ff320001003700a2
:10471000000000001e4090000080fa00000006002b
:104720000800fa0020479800210798006247980087
:10473000734798000040eb00004f78000040eb000a
:10474000104798003100370010c0b300004f7800c8
:10475000f10007001e4f60002e409000eb010700a3
:104760001e4f60006e409000e80107001e4f600081
:10477000070107001e4f60002e4090000040e80037
:10478000e20107001e4f60000040eb001047980058
:10479000150037001e4090000000fb00ae009000a6
:1047a000008040008e0107001e4f60001e409000f8
:1047b0008000fb007e4090000000fb000000e9004c
:1047c000808f500003003a00560107001e4f600022
:1047d00002003700240107001e4f60001e409000b9
:1047e0000040e800104798009e4090007e409000f6
:1047f00080cf5000e7ff3500030107001e4078001e
:10480000e14f500005003200930007001e40780081
:104810000004e000ccff320001003700000000007f
:104820001e4078000080fa00000006000600fa0032
:104830002047980031479800424798000040eb001d
:10484000004f78001300370010c0b300004f78000d
:10485000b10007001e4f60002e409000ab01070022
:104860001e4f60003e409000a80107001e4f6000f0
:104870004e409000a50107001e4f6000e2000700b7
:104880001e4f60001e4078000004e00005003a0062
:10489000710007001e4078000004e000eaff3200cb
:1048a00001003700000000001e4078000080fa0080
:1048b000000006000a00fa004047980031079800ff
:1048c000024f9800134f98000040eb00004f780013
:1048d0000000eb00100798002100370010c0b30063
:1048e000004f78008c0007001e4f60004e40900083
:1048f000860107001e4f60000e48900083010700ec
:104900001e4f60000000eb00100798000900370000
:104910001e009000be009000008040001040780013
:104920007a0107001e4f60001e0090000000e800a2
:10493000100798001e4890008000fb001e009000a9
:10494000808f5000f2ff3c00af0007001e4f600058
:104950001e407800e14f5000050032003e00070085
:104960001e4078000004e000dcff32000100370048
:10497000000000001e4078000080fa0000000600e1
:104980000000fa00000000003010800061006000ac
:104990000000e000fcff3a0030108000640060007e
:1049a0000000e000f8ff3a0030108000680060006e
:1049b0000000e000f4ff3a0030108000700060005a
:1049c0000000e000f0ff3a004110800000002400e9
:1049d000008060000000e000ebff3a000080fa0079
:1049e000000006000400fa00600920002010880082
:1049f00007e2a90007e2a80085c0a90085a0a900d8
:104a0000d1048000f08f2f008080600000502000d3
:104a100001007000d00488008da0a9000071220060
:104a200001002000008fbe00040037000081eb0071
:104a30008081eb001e0f41005e9749001e00be0002
:104a4000e00f5000e08f5800f8ff3a0010c0b300ac
:104a50000080fa00000006000400fa006000b800c0
:104a6000008fbe0007e2a90085c0a90085a0a900ab
:104a70008da0a9000071220001002000008fbe005f
:104a8000040037000081eb008081eb001e0f410025
:104a90005e9749001e00be00e00f5000e08f5800f6
:104aa000f8ff3a00cfff07000f0007000071220057
:104ab00001002000008fbe00040037000081eb00e1
:104ac0008081eb001e0f41005e9749001e00be0072
:104ad000e00f5000e08f5800f8ff3a0010c0b3001c
:104ae0000080fa00000006000000fa0085c0a9005e
:104af0008dc0a80010c0b3000080fa0000000600be
:104b00000000fa0085c0a9008dc0a90010c0b30044
:104b10000080fa00000006000400fa0010c0b30094
:104b200018e9b70040108000700060000000e0004d
:104b3000140032000602a8000071220001002000cb
:104b4000008fbe000900370018c9bf000004e00054
:104b500002003a0010c0b3000b0037000081eb00e8
:104b60008081eb001e0f41005e9749001e00be00d1
:104b7000e00f5000e08f5800f3ff3a000040eb00d8
:104b8000010037000040eb000080fa000000060042
:104b90000400fa0060c0b30018e9b70040108000bc
:104ba000680060000000e000140032000622a80047
:104bb0000071220001002000008fbe0009003700b4
:104bc00018c9bf000004e00002003a0010c0b300a2
:104bd0000b0037000081eb008081eb001e0f4100cd
:104be0005e9749001e00be00e00f5000e08f5800a5
:104bf000f3ff3a000040eb00010037000040eb00fb
:104c00000080fa00000006000400fa0050c0b30063
:104c100018e9b7000642a800007122000100200038
:104c2000008fbe000900370018c9bf000004e00073
:104c300002003a0010c0b300090037000081eb0009
:104c40008081eb001e0f41005e9749001e00be00f0
:104c5000e00f5000e08f5800f3ff3a000040eb00f7
:104c60000080fa00000006000400fa0030c0b30023
:104c700018e9b70030108000610060000000e0001b
:104c800010003a0030108000640060000000e00076
:104c90000c003a0030108000680060000000e00066
:104ca00008003a0030108000700060000000e00052
:104cb00004003a0030108000620060000000e00054
:104cc000020032000040eb001400370006a2a900e9
:104cd0000682a8000071220001002000008fbe00a3
:104ce0000900370018c9bf000004e00002003a00c4
:104cf00010c0b300090037000081eb008081eb0099
:104d00001e0f41005e9749001e00be00e00f5000dc
:104d1000e08f5800f3ff3a000040eb000080fa00fb
:104d2000000006000400fa0030c0b30018e9b70024
:104d300030108000610060000000e00010003a00c8
:104d400030108000640060000000e0000c003a00b9
:104d500030108000680060000000e00008003a00a9
:104d600030108000700060000000e00004003a0095
:104d700030108000620060000000e000020032009d
:104d80000040eb001400370006a2a8000682a8002d
:104d90000071220001002000008fbe0009003700d2
:104da00018c9bf000004e00002003a0010c0b300c0
:104db000090037000081eb008081eb001e0f4100ed
:104dc0005e9749001e00be00e00f5000e08f5800c3
:104dd000f3ff3a000040eb000080fa0000000600fc
:104de0000800fa003007980000712200010020003e
:104df000008fbe000040eb004047980040c0b30069
:104e000018e9b7000071220001002000008fbe00e9
:104e10001c00370030108000610060000000e000de
:104e200014003a0030108000640060000000e000d0
:104e300010003a0030108000680060000000e000c0
:104e40000c003a0030108000700060000000e000ac
:104e500008003a004110800000002400008060003b
:104e60000000e00003003a0010c0b3004047980083
:104e7000080037000081eb008081eb001e0f41002d
:104e80005e9749001e00be00e00f5000e08f580002
:104e9000e0ff3a004e4090000004e00002003a00bb
:104ea0000040eb00170037000662a800006a2800e7
:104eb00011002000008fbe000d00370018c9bf0090
:104ec0000004e00006003a0000c2bf008040780005
:104ed0003e0090000148780010c0b3000900370080
:104ee0000081eb008081eb001e0f41005e974900be
:104ef0001e00be00e00f5000e08f5800efff3a00a8
:104f00000040eb000080fa00000006000600fa00f6
:104f10004047980020c0b30018e9b7004e40900009
:104f200002e2b7000071220001002000008fbe00e5
:104f30000900370018c9bf000004e00002003a0071
:104f400010c0b300090037000081eb008081eb0046
:104f50001e0f41005e9749001e00be00e00f50008a
:104f6000e08f5800f3ff3a000040eb000080fa00a9
:044f70000000060037
:020000040000fa
:0200000401f009
:04000000e6ff000017
:020000040000fa
:0200000401f009
:04000400ff7f00007a
:020000040000fa
:0200000401f009
:040008007fff000076
:020000040000fa
:0200000401f009
:04001400ffffff00eb
:020000040000fa
:100008004a2c00004a2c00004a2c00004a2c000010
:100018004a2c00004a2c00004a2c00004a2c000000
:100028004a2c00004a2c00004a2c00004a2c0000f0
:100038004a2c00004a2c0000842900004a2c0000a9
:100048004a2c00009c220000ca2200004a2c000012
:100058004a2c00004a2c0000342c00004a2c0000d6
:100068004a2c00004a2c00004a2c00004a2c0000b0
:100078004a2c0000b8280000ec2700004a2c000099
:100088004a2c00004a2c00004a2c00004a2c000090
:100098004a2c00004a2c00004a2c00004a2c000080
:1000a8004a2c00004a2c00004a2c00004a2c000070
:1000b8004a2c00004a2c00004a2c00004a2c000060
:1000c8004a2c00004a2c00004a2c00004a2c000050
:1000d8004a2c00004a2c00004a2c00004a2c000040
:1000e8004a2c00004a2c00004a2c00004a2c000030
:0800f8004a2c00004a2c000014
:020000040000fa
:100108004a2c00004a2c00004a2c00004a2c00000f
:100118004a2c00004a2c00004a2c00004a2c0000ff
:100128004a2c00004a2c00004a2c00004a2c0000ef
:100138004a2c00004a2c0000842900004a2c0000a8
:100148004a2c00009c220000ca2200004a2c000011
:100158004a2c00004a2c0000342c00004a2c0000d5
:100168004a2c00004a2c00004a2c00004a2c0000af
:100178004a2c0000b8280000ec2700004a2c000098
:100188004a2c00004a2c00004a2c00004a2c00008f
:100198004a2c00004a2c00004a2c00004a2c00007f
:1001a8004a2c00004a2c00004a2c00004a2c00006f
:1001b8004a2c00004a2c00004a2c00004a2c00005f
:1001c8004a2c00004a2c00004a2c00004a2c00004f
:1001d8004a2c00004a2c00004a2c00004a2c00003f
:1001e8004a2c00004a2c00004a2c00004a2c00002f
:0801f8004a2c00004a2c000013
:020000040000fa
:104f7400256400002c200000002000006361000074
:104f84006c6900006272000061740000696f0000c7
:104f94006e200000646f00006e6500000d0a0000c2
:104fa40000000000427200006169000074650000a6
:104fb4006e620000657200006720000073740000d8
:104fc40061720000746900006e6700000d0a000041
:044fd40000000000d9
:020000040000fa
:104fd80000a0fe003400f800881f780008002000b8
:104fe800a80188004f0478000000fa0086c0a900d4
:104ff800c04680000000e0000f003400e04680005a
:10500800f146800061004000e0804800e0468800ea
:10501800f1468800404880000000e90040488800c8
:10502800404880000000e00010003d0030002000f3
:10503800404888000d003700e0468000f1468000b7
:1050480061005000e0805800e0468800f146880082
:10505800404880000000e800404888004048800040
:10506800e30f5000010034000829ef0020478000ba
:105078000000e0001700320020478000e40f5000d5
:10508800140032005247800063478000e0468000e9
:10509800f1468000800f5100818f59000d003a00c1
:1050a80021e1a900d602a900d622a900d642a9006a
:1050b800d662a90020478000e30f500003003a00a1
:1050c8004000200020478800020037002000200010
:1050d8002047880040488000e10f50000f00320050
:1050e800e10f500003003c000000e0000600320021
:1050f80019003700e20f50000d003200e30f500096
:105108001000320014003700d602a900d622a800e9
:10511800d642a900d662a8000f003700d602a9001f
:10512800d622a800d642a800d662a9000a003700f5
:10513800d602a800d622a900d642a800d662a900a5
:1051480005003700d602a800d622a900d642a90039
:10515800d662a800000000000080fa003400f900c0
:105168000080fe000040060000a0fe003400f800a9
:10517800881f780008002000a80188004f047800e4
:105188000000fa0086a0a900d04680000000e000d8
:105198000f003d000047800011478000610050006b
:1051a800e080580000478800114788003048800098
:1051b8000000e90030488800304880000000e00026
:1051c80010003d0030002000304888000d003700f6
:1051d800004780001147800061004000e0804800df
:1051e8000047880011478800304880000000e80028
:1051f8003048880030488000e30f50000100340038
:105208000629ef00204780000000e0001700320068
:1052180020478000e40f50001400320072478000dd
:10522800834780000047800011478000800f5100ad
:10523800818f59000d003a001fe1a900d602a9008c
:10524800d622a900d642a900d662a900204780002c
:10525800e20f500003003a00400020002047880079
:1052680002003700300020002047880030488000c6
:10527800e10f50000f003200e10f500003003c0026
:105288000000e0000600320019003700e20f50006d
:105298000d003200e30f50001000320014003700f8
:1052a800d682a900d6a2a800d6c2a900d6e2a80034
:1052b8000f003700d682a900d6a2a800d6c2a8003f
:1052c800d6e2a9000a003700d682a800d6a2a90013
:1052d800d6c2a800d6e2a90005003700d682a800e9
:1052e800d6a2a900d6c2a900d6e2a80000000000f4
:1052f8000080fa003400f9000080fe00004006003b
:1053080000a0fe003600f800849fbe00869fbe0005
:105318003400f80004002000a40188000000fa000e
:1053280084c0a900a0488000e10f50002e00320080
:10533800e10f500003003c000000e00006003200ce
:1053480094003700e20f50004b003200e30f50008a
:105358006d0032008f003700b04880000000e00088
:105368000c003a00502820006008880080002000c7
:105378002af70700e0488800c000200027f7070048
:1053880020498800e2e2a80010002000b048880008
:1053980080003700e0f120006008880080002000cd
:1053a8001ef7070060498800c00020001bf70700af
:1053b800a0498800e14880006049800000805000d2
:1053c800e049880021498000a04980000080500001
:1053d800204a8800e2e2a9001629ef001000200008
:1053e800a04888006b003700b04880000000e0004b
:1053f8000c003a0050282000600888009000200027
:1054080006f70700f0488800d000200003f70700df
:1054180030498800e302a80010002000b048880046
:105428005c003700e0f12000600888009000200050
:10543800faf6070070498800d0002000f7f6070048
:10544800b0498800f1488000704980000080500011
:10545800f049880031498000b04980000080500040
:10546800304a8800e302a9001629ef002000200036
:10547800a048880047003700b04880000000e000de
:105488000c003a005028200060088800a000200086
:10549800e2f6070000498800e0002000dff6070078
:1054a80040498800e802a80010002000b0488800a1
:1054b80038003700e0f1200060088800a0002000d4
:1054c800d6f6070080498800e0002000d3f60700e0
:1054d800c049880001498000804980000080500050
:1054e800004a880041498000c0498000008050007f
:1054f800404a8800e802a9001629ef003000200081
:10550800a048880023003700b04880000000e00071
:105518000c003a005028200060088800b0002000e5
:10552800bef6070010498800f0002000bbf607000f
:1055380050498800e822a80010002000b0488800e0
:1055480014003700e0f1200060088800b000200057
:10555800b2f6070090498800f0002000aff6070077
:10556800d04988001149800090498000008050008f
:10557800104a880051498000d049800000805000be
:10558800504a8800e822a9001629ef001429ef00e4
:10559800000000000080fa003400f9004f03be004c
:1055a8004f02be003600f9000080fe0000400600f1
:020000040000fa
:1055b8004c0900002000000002000000fbfffb0077
:1055c800fffbff00000000000005000005000500cb
:1055d8000005000005000500000000000000fb00b9
:1055e800fffbff00fbff00008a090000100000001d
:1055f800000000001c09000030000000000000004e
:10560800140900000400000000000000d808000091
:105618003200000000000000a6090000040000009d
:105628000200000000000000000000009a090000cd
:10563800060000000200000000000000000000005a
:10564800a009000006000000000000001809000082
:1056580002000000000000001a090000020000001b
:10566800000000000a0900000a0000000200000013
:105678000000000000010000000000000000000021
:105688005008000088000000000000006c090000bd
:105698001e00000002000000286e69006c2900004e
:1056a80025006800076c09004c836a009074a0000c
:1056b8007ac000008068880000846c008200810045
:1056c800aa0900000200000000000000000000001d
:020000040000fa
:1056d8008a1f78008b1f780000000600910188005f
:1056e800800478000000eb001a003700e2844400d0
:1056f80032a0b4009905ba00e284440032a0b40094
:105708009906ba00e284440032a0b4000006eb0017
:10571800476fde00fd07b200636ce10003003a004a
:10572800ebff07000000eb000a003700606ce100a7
:1057380004003a00005deb008b05e900fdff3e0028
:10574800040037006168e100010032000086eb00c8
:105758000b00070019c7ba001905ba000e04e000cb
:1057680003003a000a00e000e0ff3a0000000600eb
:10577800fe07b2009e0188008a047800f5ff370012
:10578800395dba008b05e9000c003200295dba00ca
:105798008b05e900080032000c00e00003003a0025
:1057a800e284440032a0b400f5ff370019ddba00e6
:1057b8008b05e900faff3a008904e800e184440017
:0857c80032a0b400000006004d
:020000040000fa
:1057d000cf9a20000e7922000e0188000000000000
:1057e000000020000000e000020032000001200064
:1057f0002002880014000700f6ed07000000e0001a
:1058000003003a00c0ad2200010020000200370072
:105810000000200001002000810f70000100320014
:10582000b0ff0700000020000000e000020032008e
:105830000000020000000000e6140200000000006a
:105840000040da000000fe004440a90020032000d0
:105850000000e0000300320000002000a0018800ea
:085860004440a800000006000e
:020000040000fa
:105868003400f800881f780008002000a80188008c
:105878004f0478000000fa0085c0a9001869ef00fd
:0c5888000080fa003400f9000040060027
:020000040000fa
:085894000040da000000fe00f4
:00000001FF
