:020000040000FA
:10000000407F04000100000078F0000078F000005C
:1000100078F0000078F0000078F0000078F0000040
:1000200078F0000078F000009040000078F00000C8
:1000300078F0000078F0000078F0000078F0000020
:10004000CE37000078F0000078F000007642000023
:10005000A4420000AC2F000078F0000078F000000F
:10006000B048000078F0000078F0000078F0000060
:1000700078F0000078F0000078F00000684B000095
:10008000BA53000078F0000078F0000078F000002B
:1000900078F0000078F0000078F0000078F00000C0
:1000A00078F0000078F0000078F0000078F00000B0
:1000B00078F0000078F0000078F0000078F00000A0
:1000C00078F0000078F0000078F000008A3400003A
:1000D00078F0000078F0000078F0000078F0000080
:1000E00078F0000078F0000078F0000078F0000070
:1000F00078F0000078F0000078F0000078F0000060
:10010000FFFFFF00FFFFFF0078F0000078F0000025
:1001100078F0000078F0000078F0000078F000003F
:1001200078F0000078F000009040000078F00000C7
:1001300078F0000078F0000078F0000078F000001F
:10014000CE37000078F0000078F000007642000022
:10015000A4420000AC2F000078F0000078F000000E
:10016000B048000078F0000078F0000078F000005F
:1001700078F0000078F0000078F00000684B000094
:10018000BA53000078F0000078F0000078F000002A
:1001900078F0000078F0000078F0000078F00000BF
:1001A00078F0000078F0000078F0000078F00000AF
:1001B00078F0000078F0000078F0000078F000009F
:1001C00078F0000078F0000078F000008A34000039
:1001D00078F0000078F0000078F0000078F000007F
:1001E00078F0000078F0000078F0000078F000006F
:1001F00078F0000078F0000078F0000078F000005F
:10020000DE3A0400000000005A3D04000000000037
:10021000363E040000000000BE4004000000000064
:10022000A601040000000000E2010400000000003C
:100230000F1B2200807922000001880000000000CE
:10024000050007000C000700901E020000000000DF
:100250000040DA000000FE004440A90080A3200016
:100260000000E0000300320000002000A001880030
:100270004440A8000000060060EA2E0001002000B3
:100280001600370062004000E080480091018800BD
:100290009001BA0062004000E080480091018800AF
:1002A0009002BA0062004000E08048000002EB00CB
:1002B0006028E10005003A008301E90007003300EF
:1002C000038009000059EB00040037006128E100B9
:1002D000010032000082EB00050007009101880058
:1002E0001001BA000200E000E6FF3A00000005003D
:1002F000910188008002780062004000E0804800A0
:100300003559BA008301E900080032002559BA00C6
:100310008301E900050032000400E000F4FF320030
:1003200015D9BA008301E900F1FF3A000000060088
:10033000800078001106B100030035009101B10082
:1003400001003C000050A10000000600881F78005A
:1003500002047800E5000700080040004F04780020
:10036000000006000000FA00881F780000047800F2
:100370003FB99700EA81570080007800601A20009A
:10038000E1000700800078000000E0000200350076
:100390000040EB0000F47800010078004F04780082
:1003A0000080FA0000000600800078001004E000E1
:1003B000020032005104E000FEFF3A0000805000CD
:1003C0000000060080017800100078000200E000C4
:1003D00002003A008009E900060037001004E0003E
:1003E00002003A008080EB00020037008009E8003C
:1003F0009000FB0001007800000006000200FA00F7
:10040000F0BF9F003FB99700EA8157008F80E90055
:10041000201E2000710107000080FA000000060085
:10042000889FBE0080047800A1FB80000100780056
:100430000100E0000A003A0061F72100761FE200A7
:100440001C00320011007800908F54001400360018
:100450008080E8001100E000FAFF3A001500370044
:100460001100E0000600320011017800928F540064
:100470000B0036008280E8001100E000FAFF3A002D
:100480001001780061F72100B0FB8000820F50005E
:100490000800320011007800908F540002003E00E6
:1004A00001007800150037008080E800910F1100EE
:1004B000F8FF3A00C8FB8000890F540001003100AA
:1004C00009047800080078001B020700000178008A
:1004D0000000E00005003A000000EB00890F540026
:1004E000060032000804D100F3FF37000819780035
:1004F0000200780044000700CBFF37004F04BE0025
:1005000000000600881F7800630440000800A10076
:100510000001EB00800F540022003600E30F54006E
:1005200001003E004800200008007800BCFF0700E2
:10053000800078000001EB000000E00019003200AC
:10054000100178009201780064805100880F5000FB
:100550000300310012009000800878000700370087
:1005600008004100800878001202900014009800F2
:10057000110078000888510008097800910078007F
:100580000100E00004003200110090008180E800CA
:100590000000E00001003A008000EB00A1FB8800B1
:1005A0000281E800020078004F0478000000060095
:1005B000881F780000047800F2FB8000D0FB8000E8
:1005C000800F51000A0031008200D0000200E800D4
:1005D000F0FB8800E0FB8000610078000000010073
:1005E000F2FB8000D0FB8000800F5100F6FF390045
:1005F00080E92100E0FB880020022000D0FB880079
:1006000008007800280907000000E00036003200EA
:100610000081E90012027800E30F52003200360038
:100620000408A30030003A00B1FB80000100E000A4
:1006300002003200810F51000300310001087800F0
:10064000B2FB88001D003700810178001100900086
:100650000000E00008003200820F50000600310068
:1006600080017800100090000000E00002003200DD
:10067000820F5000FAFF390093007800018041009A
:10068000800F510018003900820F500003003A001B
:10069000848940000301780008003700930090002F
:1006A0000100E0000300320004004100808F500090
:1006B0000D003900110198009201980092009000FD
:1006C0000100E000080032009201780003004100C0
:1006D000810F500004003A00743FEF001089410080
:1006E00010009000100198000000060080017800C2
:1006F0000200E00003003200B15978000201E90075
:10070000FDFF3A00000006006200FA00889FBE006C
:100710008A9FBE000004BE000205780083007800B6
:100720006A8057008B010700F88F9F0089979F0010
:100730000000EB00909F9F001A80FB008005FB00EB
:100740000000EA00CF04DE00090478005002200017
:10075000808F550001003A000904E9000800E0001C
:100760000C0034000F909700080178008A00780090
:10077000FF8997000300010080979F008080EB00B5
:100780000000E000900032001F9897000800400031
:10079000909F9F000905450050022000808F550062
:1007A000040032000B00E000E3FF3A009F9897003E
:1007B000850037000000EB00F0979F00E0979F0056
:1007C000D0979F00C0979F00B0979F00A0979F0071
:1007D000B09F9F0009003700C0F321000080500047
:1007E0000000D00021F4210001004000BF989700D4
:1007F00090807000B19F9F000A05E8009A00FB00FE
:10080000C0F3210055010700800078000000E000DF
:10081000F1FF3A00A0C2B3009A4F10000E003A0058
:100820003FB897000080E900B0BF9F00100078003B
:10083000A09F9F000000E00005003D000000EA00CE
:10084000A09F9F003F9897000020A000B09F9F00AE
:100850000A05E80011003700A19F9F000B00370038
:10086000AF989700F0FF2700808F500006003200FD
:100870006A09B9001A00FB000200400001FD2F00C8
:1008800001004000A09F9F000A05E8001A00FB003D
:100890003A0107000000E000F1FF3A00E0C2B300B7
:1008A0009A4F1000030032000080EB00809F9F00F1
:1008B0001C003700A0C2B300DA4F100007003A0056
:1008C0003FB897000080E900B0BF9F00100078009B
:1008D000809F9F000A05E800120037000000EB002F
:1008E000809F9F000B0037008F989700F0FF270034
:1008F000808F5000060032006A09B9001A00FB0020
:100900000200400001FD2F0001004000809F9F0079
:100910000A05E8001A00FB00180107000000E000CB
:10092000F1FF3A009A00FB00E0F921000B010700FB
:100930008040EB000000E00001003200BA40780087
:10094000817F9F0080C6B30080CF500004003A0032
:100950009ACF100002003A006640500007003700AE
:100960008F789700C0C6B30080CF500005003A00D2
:100970009ACF100003003A0065404000807F9F003E
:100980000A05E800A0FB2F00008447003A01FB00A5
:1009900088017800EA80570060F92F000F004000BE
:1009A000FC0007000000E00006003A008800780024
:1009B00060F92F000F0040007C0207000000E000FB
:1009C0005DFF3D008080EB00010078004F05BE0018
:1009D0004F04BE000080FA00000006001200FA007A
:1009E000889FBE008A9FBE008C9FBE0002047800D4
:1009F0008006EB0090B79F00A1B79F0083007800AE
:100A00007A805700D3000700DDB79F00C8B79F006A
:100A10004FB097001080FB008005FB000000EA004B
:100A20004F06DE000B0078002E0307000000E000F8
:100A30001A0032005FB097000000E800D0B79F00B6
:100A40002FB09700120020008000EB009FB19700AC
:100A50000300010080047800220307000000E0008A
:100A6000F4FF3A005FB09700E18F440008003200C5
:100A70000000E900D0B79F002FB097000001EB0005
:100A8000890078009FB1970003000100290037001A
:100A90000000E900D0B79F00260037000C04780062
:100AA00050022000808F550001003A000C04E9003C
:100AB0004FB597000804E9001E0033005FB09700AF
:100AC0000000E800D0B79F002FB097001200200070
:100AD0008000EB009FB197000300010080047800C4
:100AE0001A00FB00808F54000F0032005FB09700A7
:100AF000E18F4400080032000000E900D0B79F00F9
:100B00002FB097000001EB00890078009FB197009B
:100B100003000100020037000000E900D0B79F0089
:100B20000D0078007F0037000A05E8000804E9009E
:100B3000E2FF3B004FB097008C004000C1B79F0020
:100B400050022000808F5500040032000D00780014
:100B50000B00E00073003200ADFF3700A0C2B3000D
:100B6000914F100005003A00F880570011007800FE
:100B70003041780080087800010037000041EB0028
:100B800082F79F000000EB00F0B79F000E003700D7
:100B9000FFB09700F0FF2700808F50000700320061
:100BA0006A09B9004FB097001000FB000200400036
:100BB00001FD2F0001004000F0B79F004FB09700EB
:100BC0000000E800C0B79F004FB097001000FB0086
:100BD0006A0007000000E000EDFF3A004FB0970008
:100BE0009000FB0020F921005C0007000041EB00B1
:100BF0000000E00004003200F88057001100780087
:100C0000304178008008780092F79F0080C6B300DA
:100C1000804F510007003A00CFB09700914F11006C
:100C200004003A006640500090F79F000100E80081
:100C30000A0037009FF09700C0C6B30080CF500075
:100C400007003A004FB1970092CF100004003A001D
:100C50006540400090F79F000200E800C0B79F0089
:100C60004FB097009000FB0090F921003B00070077
:100C70000000E00019003A005FB097000000E800B3
:100C8000D0B79F002FB09700120020008000EB002B
:100C90009FB19700030001008004780091020700D3
:100CA0000000E000F4FF3A005FB09700E18F4400DD
:100CB000080032000000E900D0B79F002FB0970075
:100CC0000001EB00890078009FB19700030001004C
:100CD000020037000000E900D0B79F007E80570077
:100CE00088020700800078000000E00005003C005A
:100CF0000D0078000D00E0000A003A0001007800C5
:100D0000080037002FF097000004E00001003200D7
:100D10008D06E8004FB097000000E800C0B79F00C4
:100D20003BFF37004F06BE004F05BE004F04BE001C
:100D30000080FA00000006000000E000030034001C
:100D400061070700E10F400001003A000000EB00DE
:100D500000000600010878000000060090CF100097
:100D6000050032001004E00001003A000000050018
:100D7000D0CF1000FBFF3A00000006000003B100D6
:100D8000030035009000B10001003C001000050098
:100D900000000500889FBE008A1F780000047800CC
:100DA0000102780002457800830478000200FB000D
:100DB000CF80DE005002B1000180B100320520007A
:100DC000820F5000E08F58006B013E000060010070
:100DD000630137006801370067013700660137009B
:100DE0006501370064013700630137006201370095
:100DF00061013700600137005F0137005E01370095
:100E00005D0137005C0137005B0137005A01370094
:100E10005901370058013700570137005601370094
:100E20005501370054013700530137005201370094
:100E300051013700500137004F0137004E01370094
:100E40004D0137004C0137004B0137004A01370094
:100E50004901370048013700470137004601370094
:100E60004501370044013700430137004201370094
:100E700041013700400137003F0137003E01370094
:100E80003D0137003C013700210137003A013700AE
:100E9000390137003801370037013700810037004A
:100EA0003501370034013700330137003201370094
:100EB00031013700300137002F0137002E01370094
:100EC0002D0137002C013700150037001C003700BA
:100ED0002901370028013700270137002601370094
:100EE00017003700240137002301370022013700A3
:100EF00021013700C20037006A003700F5003700D3
:100F00001D0137001C013700010137001A013700AD
:100F100064003700180137001701370061003700FF
:100F20006E01440012007800808141009480E90045
:100F3000010A78000009E80091497800170137009C
:100F400028619000C0C6B300804F51000A003A00EB
:100F50009400780064805000000A78001000BE0001
:100F60004F89DE00CF91DE000002BE000203780050
:100F7000820378001600370010C7B300804F51007D
:100F800003003A00140178006800510005003700A2
:100F900094007800A0C6B300804F510005003A00CD
:100FA00068805000000A78003002BE002003BE00B6
:100FB000070037000180E900000A7800100078007F
:100FC00000027800CFA2DE000503780086037800D7
:100FD000049CBE000694BE00A860900080C6B300CA
:100FE00080CF50000F00320020C6B30080CF5000E9
:100FF00006003A00184078000000FB00CF80DE00B9
:1010000001017800820178000A00370040C7B30070
:1010100080CF5000030032006640400080CF500077
:1010200006003A0018007800CF80DE000101780049
:1010300082017800009CBE000294BE003800BE0011
:101040002801BE00E00F5000E08F5800E00F59006B
:10105000E08F590004003D006E01440092007800CA
:10106000D0C2B3000C003700081090000018A30095
:10107000040032006E01440092007800B0C2B30058
:10108000050037000008A300580032006E0144003C
:101090009200780000C2B30080F478000109E800F3
:1010A0005200370028619000C0C6B300804F510045
:1010B00006003A009400780064805000000A78002E
:1010C0001002BE006033B8001600370010C7B3002E
:1010D000804F510003003A0014017800680051006D
:1010E0000500370094007800A0C6B300804F51007F
:1010F00005003A0068805000000A78003002BE0007
:101100002003BE00070037000180E900000A7800D4
:101110001000780000027800050020000600200082
:1011200007002000049CBE000694BE00A86090004A
:1011300080C6B30080CF50000F00320020C6B3003D
:1011400080CF500006003A00184078000080FB0075
:101150000100200002002000030020000A003700E8
:1011600040C7B30080CF500003003200664040000B
:1011700080CF500006003A001800780001002000DF
:101180000200200003002000009CBE000294BE006C
:10119000081090000038A300140032003800BE0090
:1011A0002801BE00E00F5000E08F5800E00F59000A
:1011B000E08F59000D00320080C7B300804F55000A
:1011C0000300320080C5B300804F550007003A008D
:1011D0006E0044009000780002C3B30082F47800EF
:1011E0008100E8008AF478000108E80078009000A7
:1011F00000804400600498008A4078004100370075
:10120000286090008000FB00C0062000808F500006
:10121000230032000A003C0064005000808F500020
:101220002600320004003C0066005000808F500011
:101230000B00320021003700A00620000500370017
:1012400040072000808F50001C0032001B003C0033
:1012500063005000808F50000700320017003700F5
:101260001480E900000A780010007800485C9000C3
:1012700008487800490037001480E900000A780027
:101280001002780068089000CF80DE00010178002D
:1012900082017800009ABE000292BE003F00370033
:1012A0001480E900000A78001001780068089000B6
:1012B000CF80DE000089BE00380037001480E900CE
:1012C000000A780010007800680C90000808780088
:1012D000320037001480E900000A7800100078001E
:1012E000CF80DE000101780082017800009CBE0002
:1012F0000294BE00780090000080440060049800D2
:1013000081C7B30008007800CD0107002300370033
:101310001480E900000A780010007800600498004A
:10132000580990000200E00002003D001EFC07008A
:10133000090037008000EB0073020700800078008E
:101340000000E000030032006800900000805000C0
:101350000100370058089000100C98000F0037006B
:101360006E0144009200780050C2B30080F1780012
:101370000109E80009003700EE0044001100780080
:10138000808144000A4278008008E8000A04E000F6
:1013900001003A0054C2B300844978000000EB0019
:1013A0004F0578004F04BE00000006000400FA005C
:1013B000889FBE008A9FBE008C1F780000047800C2
:1013C0000106780070089000F800900001005000BD
:1013D000880890000100500098089000010050001B
:1013E000A808900001005000B808900001005000CB
:1013F000C8089000810550000002220090BF9F00A5
:1014000000032300A0BF9F00081090000028A30045
:1014100018003A000B00E000160034000B057800BD
:101420008A047800E20F55000100360029002000F0
:101430000900E0000C00340058009000C801900042
:1014400009017800EE805700030001005004980065
:101450008080EB000000E0009C00320068089000F3
:1014600009004000600C9800090555004240A900A1
:10147000EBFF3C00780190000200E0000C0034001B
:1014800058009000C80190008C0078000300010013
:10149000500498008080EB000000E0008B003200D8
:1014A00068089000F800900001004000600C98006F
:1014B000080890000000E0001600340000057800E5
:1014C0008A047800E20F5500010036002900200050
:1014D0000900E0000C00340058009000C8019000A2
:1014E00009017800EC8057000300010050049800C7
:1014F0008080EB000000E00074003200680890007B
:1015000009004000600C9800090555004240A90000
:10151000EBFF3C00180990000200E0000C003400D2
:10152000E800900058009000C801900003000100FE
:10153000500498008080EB000000E000630032005F
:10154000680890009808900001004000600C980026
:10155000280890000000E000160034000005780024
:101560008A047800E20F55000100360029002000AF
:101570000900E0000C00340058009000C801900001
:1015800009017800EC805700030001005004980026
:101590008080EB000000E0004C0032006808900002
:1015A00009004000600C9800090555004240A90060
:1015B000EBFF3C00380990000200E0000E00340010
:1015C000E8009000180890008080400058009000CB
:1015D000C801900003000100500498008080EB00D7
:1015E0000000E0003900320068089000B808900060
:1015F00001004000600C9800480890000000E000E6
:1016000016003400000578008A047800E20F5500C7
:1016100001003600290020000900E0000C00340021
:1016200058009000C801900009017800EC80570034
:1016300003000100500498008080EB000000E000EF
:10164000220032006808900009004000600C9800F9
:10165000090555004240A900EBFF3C00081090002E
:101660000028A300180032000B00E0001600340030
:101670000B0578008A047800E20F5500010036005F
:10168000290020000900E0000C0034005800900000
:10169000C801900009017800EE80570003000100A6
:1016A000500498008080EB000000E000070032004A
:1016B0006808900009004000600C9800090555007A
:1016C0004240A900EBFF3C008000EB0001007800E5
:1016D0004F0678004F05BE004F04BE000080FA00A0
:1016E000000006006900E100040035006D00E10023
:1016F000030034000002B1000100320000000500C8
:1017000010000500889FBE00000478000040EB0038
:101710000054980038009000104078000000FB0052
:10172000CF80DE005002B1000180B1003205200000
:10173000820F5000E08F5800BD003E0000600100A5
:1017400097003700BA003700B9003700B8003700FB
:10175000B7003700B6003700B5003700B4003700D7
:10176000B3003700B2003700B1003700B0003700D7
:10177000AF003700AE003700AD003700AC003700D7
:10178000AB003700AA003700A9003700A8003700D7
:10179000A7003700A6003700A5003700A4003700D7
:1017A000A3003700A2003700A1003700A0003700D7
:1017B0009F0037009E0037009D0037009C003700D7
:1017C0009B0037009A0037009900370098003700D7
:1017D00097003700960037009500370094003700D7
:1017E00093003700920037009100370090003700D7
:1017F0008F0037008E003700670037008C003700FD
:101800008B0037008A00370089003700220037003C
:1018100087003700860037008000370084003700DB
:1018200083003700820037008100370080003700D6
:101830007F0037007E0037001500370016003700A4
:101840007B0037007A0037007900370078003700D6
:10185000110037007600370075003700740037003C
:10186000730037000F0037000B0037000A00370005
:101870006F0037006E003700470037006C003700FC
:10188000050037006A0037006900370002003700A2
:101890008000EB0062003700080078002301070099
:1018A00061003700684890000004E00038003A000A
:1018B000784890008000FB00C0062000808F500018
:1018C000250032000A003C0064005000808F500068
:1018D0002900320004003C0066005000808F500058
:1018E0000B00320024003700A0062000050037005E
:1018F00040072000808F50001F0032001E003C0077
:1019000063005000808F5000080032001A0037003A
:10191000280090000080E900200498001000780062
:10192000084C900008487800190037002800900003
:101930000080E90020049800100278004800900020
:10194000CF80DE000101780082017800009ABE009D
:101950000292BE000E003700280090000080E900CF
:10196000200498001001780048009000CF80DE002D
:101970000089BE0006003700280090000080E900C2
:1019800020049800100078004804900008087800AF
:101990001100200027003700110020002000370030
:1019A000480090000000E8004004980018009000F3
:1019B00098017800120020008000EB000300010075
:1019C000800478001100200050022000808F540015
:1019D0001800320048009000E18F440008003200F7
:1019E0000000E90040049800180090009801780079
:1019F0000001EB00890078000300010002003700BD
:101A00000000E9004004980009007800E18F4400DC
:101A1000050032000000EB00030037008080EB007F
:101A2000080078000F0207008000780001003700EE
:101A30008000EB00010078004F04BE0000000600AB
:101A40006F02B000889FBE008A9FBE008C9FBE00C0
:101A50008E1F78008006780030F12100B0B79F001B
:101A600080C5B30080CF50000200320022F0210078
:101A7000B2B79F0083002000C3B79F00F0C6B30039
:101A800080CF50000A0032006940400080CF5000F3
:101A900005003200A4002000C4B79F0080C5B30039
:101AA00080CF500002003A0000012000C0B79F0024
:101AB0008E0120003D04BE002D05BE0040C6B300CF
:101AC00080CF5000030032006540400080CF5000BE
:101AD0000A003A00E00F5400E08F5C00E00F5D0068
:101AE000E08F5D0005003D000800BE000A01BE0059
:101AF000840607000205BE000004BE00E00F54008B
:101B0000E08F5C00E00F5D00E08F5D0003003A00B5
:101B10005D0890000000E0000C0032007E01200013
:101B2000CFB0970001027800CFA2DE000503780055
:101B3000860378000800BE000A01BE000707070000
:101B40003FB2970064407800D0E79F004FB0970005
:101B5000CF80DE000101780082017800D0B79F00BD
:101B6000E1B79F00F2B79F0083BF9F000203BE0052
:101B70000002BE000800BE000A01BE00F006070019
:101B8000809EBE008296BE00E00F5000E08F58009D
:101B9000E00F5900E08F5900220034000E00E000F1
:101BA000200034003D00BE002D01BE005FB2970052
:101BB000EFB297007FB397008FBB9700EB0607004B
:101BC0000205BE000004BE000E07E900E1FC2F0084
:101BD0008F804000010647005FB29700EFB2970088
:101BE0007FB397008FBB97000800BE000A01BE00BC
:101BF000920707001D0010003FB19700624E780069
:101C0000889EBE008A96BE00E00F5400E08F5C0004
:101C1000E00F5D00E08F5D00020034000E00E00088
:101C2000E0FF3C00CFB19700E88F510010003A0070
:101C30000D1090000038A3000D003200F70F570080
:101C400006003E00E4FC2F000E024200E4C07F00CC
:101C500000C3B30080CF5000050032000E07E9003A
:101C600000C3B300E1FC2F008E80400080F07F00B5
:101C700078011700920E98006D009000E3FC2F0091
:101C80008F8141008E80410098FA07001D0E900060
:101C90005D089000800F560006003D000C005000CB
:101CA000800E98000D1090000040A1008016980052
:101CB0000F0037000000E0000D003D000D10900007
:101CC00074006000F00F500009003A007D08900099
:101CD000FD009000010050008D08900001005000B0
:101CE0000C0750004240A900010034008E0E9800FD
:101CF0004F0778004F06BE004F05BE004F04BE00E0
:101D00006F02B100000006000200E0000500320092
:101D100090CF1000040032000000E8000201E9004A
:101D2000FBFF3A000000EB00000006002000FA0074
:101D3000889FBE008A9FBE008C9FBE000004780072
:101D4000600090000000E00001003C00F0FF270070
:101D50004BFD2F008F8545000000E90050049800DE
:101D6000C8009000090033000100E800400498001A
:101D70001800900098017800120020008000EB000D
:101D80000300010080047800030037000100E80030
:101D9000400498008084EB00B0022000808F540043
:101DA000030032000080E800808F540012003A00E7
:101DB000895D7800580090000000E9005004980008
:101DC000C8009000090033000100E80040049800BA
:101DD0001800900098017800120020008000EB00AD
:101DE0000300010080047800030037000100E800D0
:101DF000400498008084EB000046EB00380090001F
:101E00009000FB0030EF2100D4FB070031EF2100F0
:101E100001005000B1EF210060C078000005FB0018
:101E200000032000808F540033003A001CC0B30030
:101E3000580090000000E90050049800C80090008D
:101E4000090033000100E8004004980018009000E9
:101E500098017800120020008000EB0003000100D0
:101E600080047800030037000100E8004004980077
:101E70008084EB0080072000808F54000300320034
:101E800080052000808F540018003A000A00E0000E
:101E900002003200F00F550014003A000A01200041
:101EA000580090000000E90050049800C80090001D
:101EB000090033000100E800400498001800900079
:101EC00098017800120020008000EB000300010060
:101ED00080047800030037000100E8004004980007
:101EE0008084EB000046EB00030037000A00E000AE
:101EF00001003A008A0020000A00E00007003200DA
:101F0000EA0F5500050032008A067800E80F5500F8
:101F1000030032006D01200001003700AD002000F9
:101F200000032000808F540015003A0058009000F4
:101F30000000E90050049800C80090000900330038
:101F40000100E80040049800180090009801780013
:101F5000120020008000EB000300010080047800E4
:101F6000030037000100E800400498008084EB0083
:101F70001CC0B30000032000808F5400EBFF320030
:101F80000C04E0001900320000C3B300805D78004B
:101F9000160037006D805700808F5500010031001A
:101FA000895D7800580090000000E9005004980016
:101FB000C8009000090033000100E80040049800C8
:101FC0001800900098017800120020008000EB00BB
:101FD0000300010080047800030037000100E800DE
:101FE000400498008084EB001CC0B300E18F4400E3
:101FF000060032000D01780089007800C0ED210054
:1020000041FF07000000E000E2FF3A00C800900036
:10201000E18F4400080032000100E900400498000C
:1020200018009000980178000001EB00890078000A
:1020300003000100020037000100E900400498009D
:102040000C04E00009003A0040FD2F000F004000A2
:10205000808F550003003A0009007800E18F4400AA
:10206000560032000000EB0054003700804DEB00BA
:10207000684890000004E0004F003A0038009000EB
:102080009040780040C6B30080CF5000030032007B
:102090006540400080CF50000A003A000A017800F5
:1020A0008000EB0040FD2F000F004000680107009A
:1020B0000203BE000002BE0010C0B300005498002E
:1020C0000D0037000A0178008000EB0040FD2F0072
:1020D0000F004000BA0107000203BE000002BE006C
:1020E00010C0B30000549800B800900000C7B300BF
:1020F000914F10002B003200784890008000FB00C8
:10210000C0062000808F5000200032000A003C00F2
:1021100064005000808F50002200320004003C0018
:1021200066005000808F50000B0032001D00370009
:10213000A00620000500370040072000808F5000D7
:102140001800320017003C0063005000808F5000E0
:102150000700320013003700280090000080E900DB
:10216000200498001000780004487800120037001E
:10217000280090000080E9002004980010007800FA
:102180000498BE000690BE000B00370028009000A7
:102190000080E90020049800100078000488BE0048
:1021A00005003700280090000080E9002004980016
:1021B0001000780004087800100020004F06BE00D0
:1021C0004F05BE004F04BE000080FA00000006006C
:1021D0008142780080017800E20F5100150036003E
:1021E0009340900013427800D0C2B30080CF5000DB
:1021F00009003A00854F520004003E002340900041
:102200001100200080CF520014003600E38141000D
:10221000630151000500370011002000854F520076
:102220000E0032008301E8000201E900E20F5100D4
:10223000EBFF3E000200E0000700320093CF1200E7
:1022400002003A0011002000040037008301E8007A
:102250000201E900F9FF3A008000EB00010078007C
:1022600000000600EC874700889FBE008A9FBE00E2
:102270008C9FBE008E1F78000004780081067800D5
:102280000040EB00A0EF9F000045EB008000EB005A
:10229000F1B79F00F8489000C0C6B30080CF50004F
:1022A00002003A0010002000F0B79F000D00E0008F
:1022B00025003D00380090008000E80031049800BF
:1022C000114178000040EB0090EF9F00E0C5B300A3
:1022D000804F510003003A0092EF9F000100E80098
:1022E0003004980038019000D0C5B300924F100020
:1022F00001003A000201E800D10520000200780048
:1023000096FA0700E0B79F000000EB00EFB09700DF
:102310000100E000C8003200380090000086500044
:10232000E20F5600080034000C81E9000000E800CC
:10233000D102200074FE07000000E000020032001D
:1023400010C0B300A0EF9F00680090000000E00004
:1023500004003C00F0FF27000D00E00001003A00FF
:102360001000200050049800684890000004E0002D
:1023700078003A0028009000FFB097000100E000CC
:10238000050032000080E900200498001000780069
:1023900080BF9F006F0037000080E9002004980094
:1023A000100778006B0037000D00E00004003400D7
:1023B00009007800CBFC07000000E00078003A003C
:1023C0000D00E0002A003D002FE897000004E00027
:1023D00012003A009FE897000104E00006003A006E
:1023E000380090000C0178008900780046FE070054
:1023F0000000E0006A0032001FE897000004E000DF
:1024000006003200380090000C0178008900780046
:102410003DFE07000000E00061003A00AFE89700D1
:102420000104E000120032001FE897000004E00001
:1024300006003A00380090000C017800890078000E
:1024400063FF07000000E000550032009FE897009E
:102450000104E00006003200380090000C01780012
:10246000890078005AFF07000000E0004C003A00A5
:102470007FB097000000E00008003A002AC0B300D7
:10248000684890000004E00032003A00095F7800DC
:1024900010C0B300005498002E00370089EF9F0051
:1024A0001B0020000905FB000A0078000100320033
:1024B0000B007800800478000000E00005003A007E
:1024C0000A00E00003003A0078805700B6F70700E2
:1024D0008004E8000900E00012003C008B05E900E0
:1024E000F880550061C07F008000FB00480190002B
:1024F000E18F4000070032000200E900400498002C
:1025000018009000980178000001EB000300010022
:10251000020037000200E900400498008B8F54004D
:10252000EEFF3500684890000004E00005003A0026
:102530000FB897000A18780080BF9F0010C0B30042
:1025400000549800680090000000E90060049800C2
:102550002AC0B300580090000000E9005004980021
:1025600048019000090033000200E8004004980090
:102570001800900098017800120020008000EB0005
:102580000300010080047800030037000200E80027
:10259000400498008084EB00E18F440082FF3A0001
:1025A00048019000E18F4400080032000200E90079
:1025B0004004980018009000980178000001EB009A
:1025C0008900780003000100020037000200E900E2
:1025D000400498000D00E000020032000A04E00010
:1025E00006003A000A00FB001100200001003A003A
:1025F0008080EB00010078000F00370068489000F1
:102600000004E00007003A00FFB097000100E0007E
:10261000030032000FB897000008EB0001003700FC
:10262000004FEB000D00E00002003D00EFB097000E
:1026300031049800100020004F0778004F06BE00BC
:102640004F05BE004F04BE00CF00B10000000600E1
:102650000200FA00889FBE008A9FBE008C1F78008F
:102660000005780081047800020678000100E0008F
:1026700001003A00EC8457000A047800010037009A
:102680000804E8001800FB0016FC07000000E0004A
:10269000FBFF3A0098407800D0C2B30080CF5000D2
:1026A00003003200BBC2B3008BCF500002003A00DF
:1026B000814578000804E8000C0178000800BE009D
:1026C0003F0007000203BE000002BE00990F540045
:1026D00001003A008A0C7800990F550005003A0075
:1026E000E00F5200E08F5A00E00F5B00E08F5B00CC
:1026F00017003A00B0C2B30080CF550009003A007D
:10270000F0FF2F00F1FF2F00F2FF2F00F3FF270053
:102710000020E10001A8E10002B0E10003B8E100FF
:102720000B003E00D0C2B30080CF550015003A0028
:102730006000B80002002000030028000020E10033
:1027400001A8E10002B0E10003B8E1000D0036008D
:102750002002200070FC88006022B80006002000E3
:10276000070028006B40400080CF55000D0032006C
:10277000F4FF2F00F5FF2F00F6FF2F00F7FF2700D3
:1027800008003700D0C2B30080CF550005003A00E2
:102790000400BE000601BE005A0307000203BE008B
:1027A0000002BE000400BE000601BE004F06780015
:1027B0004F05BE004F04BE000080FA000000060076
:1027C000F2874700889FBE008A9FBE008C9FBE0094
:1027D0008E1F780090B79F0001077800820678006E
:1027E00000067800010037000C06E8001C00FB0022
:1027F000BCFB07000000E000FBFF3A009C407800B3
:10280000D0C2B30080CF50000400320000C0E90005
:1028100090EF9F0080CF500002003A0091EF9F00A0
:102820000C06E8000D00E00051003500E18F560075
:102830004F00320040022000808F56004C003C00C8
:102840000D00E0000D003400F08F56001A003A0031
:1028500000C3B3009C4F100017003A009C4090004A
:1028600080C7B30080CF50001200320080C5B30093
:1028700080CF500010003A000E00370000C3B300B4
:102880009C4F100002003200AD0020000A0037000B
:102890009C40900080C7B30080CF500004003200FD
:1028A0008D00200080C5B30080CF500002003A00A8
:1028B0000D0120000C86E800ACB79F0000C3B300F8
:1028C0009C4F100002003A00DC4F1000FEFF320067
:1028D0006044B8006055B800BCB79F0018003700CE
:1028E000D8B79F00E9B79F00FAB79F008BBF9F0042
:1028F000E0E4210080C0500081EF9F000D027800CD
:10290000CFA2DE0005037800860378000800BE0031
:102910000A01BE00490407000FEC97000802FB0003
:10292000CFA2DE0005037800860378000004420091
:1029300081844A0002054B0083854B000C06E800A9
:102940001C00FB0051000700800078000D0178009A
:10295000E0E42100ECFC0700800078000000E000CB
:10296000DFFF3A002FB097008C0F500007003A00AD
:102970000E00E000020032009FB09700010F7800C7
:102980006000B8006011B8003A0037003FB297000D
:102990008400560030E721006D4078000000FB0005
:1029A00000805000250033004240A9001C003C007C
:1029B0008FEA97000500FB00CF80DE000101780060
:1029C000820178000000540081805C0002015D00FB
:1029D00083815D000040E10001C8E10002D0E10018
:1029E00003D8E1000E0039000D027800CFA2DE000E
:1029F0000503780086037800510307005FB2970053
:102A0000EFB297007FB397008FBB97000400E100FF
:102A10000588E1000690E1000798E1000700320018
:102A20002002200070FC8800F8FF2F00F9FF2F0023
:102A30000805BE00B5C2B30095EF9F00D0C2B30039
:102A40001FEB9700804F530005003A000800BE00BE
:102A50000A01BE00AB0207000205BE000004BE0072
:102A60000E00E000010032000C0F78000800BE00EC
:102A70000A01BE004F0778004F06BE004F05BE009A
:102A80004F04BE002F01B100000006008000780056
:102A90001104B100030035009101B10001003C00B8
:102AA0000050A000000006000C02E20004003D00FF
:102AB0000F42AB00020032000F02AB00FEFF3200FB
:102AC0000040DA00FEFF3700889FBE0080047800D7
:102AD000901FE20005003A000000EB001000070024
:102AE0008080EB000000E0000A00350088FC8000D8
:102AF000880078000900E000060032000900440068
:102B0000070007008080EB000000E00001003500B6
:102B100088007800010078004F04BE000000060025
:102B2000800078000001EB000000E00003003A00A4
:102B300000FB210080FC880006003700001B2200FB
:102B4000808F500002003E0081FC880001003700A9
:102B50000081EB000200780000000600889FBE00A4
:102B60008A9FBE00010578000100E00004003500E6
:102B700008003C000000E0002000320005003700A3
:102B800060001000E080180002003B0001F02C0003
:102B90001A0037000004BE006011B8006B09200065
:102BA0000982CF00020039000882CF000441B00042
:102BB000694252000E00320008003B008281710021
:102BC000610164008904D1000884D3008B05E8000A
:102BD0000442E800F9FF3A00050037000804440009
:102BE00089844C008B05E9000442E900FBFF3A00B0
:102BF000610107000AF0A70001F0A0004F05BE0028
:102C00004F04BE0000000600889FBE008A9FBE00E1
:102C10008C1F78007E0107008501330003866C005D
:102C20006450E1002E0032006420E10033003200E5
:102C30006150E1002F0032006120E10031003200DC
:102C400085855500EB07B00009002000080420002E
:102C5000050037000804440089844C000A00310054
:102C60000603430087834B000001530081815B0012
:102C7000F8FF33000203BE000800A000080444006F
:102C800089844C00F6FF3900C639DD0083017300EA
:102C900001003200130020008904D1000884D30011
:102CA0000998A300050032000800A7000300A00057
:102CB0008904D1000884D3008B05E8008904D10081
:102CC0000884D3000001EB000281D2002A01070032
:102CD00001F0A1000CF0A70001F0A0005D01370099
:102CE0006420E1005F0132000801BE000200BE0066
:102CF000F7FF37006120E1005A0132006000B800A0
:102D0000F3FF37000000200001F82700F0FF370034
:102D10000001BE00560107000470A70003F0A100E7
:102D20006509B100160032000D0035006828E10089
:102D300006003500F0FF2F00F1FF27000300E00040
:102D400013003B00010028000000050000004000C7
:102D5000818048008502E900FCFF3A000800370046
:102D6000F88F420002003C008000EB0000000500EC
:102D70008100D1000080D3008502E800FCFF3A000A
:102D80000300E00002003B0060001000E08018003B
:102D900000000600839F68000100E00002003D0083
:102DA00060001000E08018000300E00002003D0019
:102DB00060011100E0811900420107004F00E000AE
:102DC00002003B0060001000E080180000000600D8
:102DD000889FBE008A9FBE008C1F78000004BE0042
:102DE000230107000478A30026003A006120E100D7
:102DF0002500320009F8A30025003A006420E10014
:102E000021003200F507B1000508A30002003200DE
:102E100000004000818048006044B800031020009A
:102E200002002000000040008180480008054400A6
:102E300089854C000A0541008B8549000A05500030
:102E40008B855800030033000A00BE0002047400A2
:102E5000838474008301D1000281D300830F710049
:102E6000F0FF3A008904D1000884D30060014900D2
:102E700082017800C1ADDE00FB07B000BE00070094
:102E8000F40037000960A0000800BE00F100370020
:102E90001202200072FC8800F0FF2F00F1FF2700D3
:102EA000EC003700889FBE008A9FBE008C1F780010
:102EB000D70007001002200002003B0070FC8800D1
:102EC000DB0037008A0062006408E10002003A007B
:102ED00070FC8800E30037006108E100FCFF32006D
:102EE0000800BE000304780047FF070001F0A100BE
:102EF0000401070008F0A600040037000001BE002E
:102F000091042400B0FD20003700070009F0A7005D
:102F100001F0A200CF003700889FBE008A9FBE004C
:102F20008C1F7800BA000700C100330003866C00D4
:102F30006450E100240032006420E10027003200E8
:102F40006150E100220032006120E10021003200E6
:102F50008B854200EB07B1000134B800003AB8009D
:102F60000804420089844A00013AB8000030B800E1
:102F70008880400009014A0004003300000040003E
:102F800081804800020149008B05E900C909DD0084
:102F9000830170000100320013002000C814DE001D
:102FA0004814DD004709DE001200B200C808DE0048
:102FB000088470007000070001F0A1000CF0A70069
:102FC00001F0A000A30037006120E100A50032005D
:102FD0000801BE000200BE00F7FF37006150E100AB
:102FE000FCFF3A009F00370003F0A200889FBE005C
:102FF0008A9FBE008C1F7800850007008C0033007C
:103000006450E1004F0032006420E10052003200C1
:1030100003826C0007003B000905D0000306D000C6
:10302000820F54000C065D000200390002003200DD
:1030300089017800030678008582550004003D0070
:103040000003FD008103FD008502EA008B8542003C
:10305000840F720002003B0060001000E080180046
:103060006011B8000005EB007A28E1000A00390081
:1030700006007800C75DDD00F707B20087807500A5
:103080002D003700828171000A017800610560001F
:103090008180D1000080D3008502E900F9FF3B0068
:1030A000060440008784480002003B0060041400CE
:1030B000E0841C000988A300070032008A817100A7
:1030C00082817100610164008904D1000884D30009
:1030D0008B05E800170037000978A30013003A00B9
:1030E0000B00E000130034008B05E90008044400E5
:1030F00089844C000A4474000978A3000D003A004A
:103100000B00E000070034008B05E90008044400D0
:1031100089844C0001003A000B0020000978A300CC
:10312000F7FF32000001EB000200370082817100DE
:103130000A017800100007000CF0A70001F0A000C1
:10314000440037006420E10002003A00838F6C00E5
:10315000440033000801BE000200BE003D003700FD
:1031600014002000CC003700F4FF2F00CA00370005
:1031700004002000C8003700810020006180550055
:103180000B003D000B00200061FE2F000100E1005C
:103190001D00340082817100610164008904D10046
:1031A0000884D3000000E800FAFF3A007100200014
:1031B000610064000300700002006000090032003A
:1031C00061044400E0844C000988A5000500320039
:1031D0008B05E8006808E10002003A008904D1008C
:1031E0000884D300F20F20000258E10005003D00E2
:1031F000C75DDD00F907B20089807500080078001E
:10320000000006000BF827008B0078000000050086
:103210000004BE00160007000003BE000405BE0047
:103220000200BE0012000700844F75000000060077
:103230000200BE006450E100050036006420E10099
:10324000020036000968A30001003A000800BE0031
:103250000160A0004F0678004F05BE004F04BE007D
:1032600000000600F0FF2F00F1FF2700F9FF3700F4
:10327000C70ADE00F107B200F50FB2000800320005
:10328000E1CF4200020032000170A00024000500DE
:10329000810F7000010032000408050044000500A1
:1032A000810F700002003A00140005008502E90059
:1032B0000000400081C04800FCFF3B000170A000FE
:1032C000240005006022B800060220000000D000A3
:1032D0008180D2000482D2008582D2000000A0004A
:1032E0000202520083825A0003003B0002024200A5
:1032F00083824A000000A1000603E900F3FF3A00C0
:1033000000000600889FBE008A9FBE008C9FBE0002
:103310000004BE00D6FF07000800BE008906780042
:103320006420E10008003900040032000160A000C0
:103330001202200072FC88005300370091FC230029
:10334000B0FD20004E0037000006EB0009F0A100A0
:1033500003F82300020020000800BE0080FF0700E1
:103360000600340001F82300000020000801BE0020
:1033700025FE07000004BE002C0020000800BE004F
:1033800093E82300320A230075FF0700120034007F
:103390000801BE00D1FD2300703D2B0013FF070084
:1033A0000005BE00B3F32300F27A26000800BE0039
:1033B000D9FE070003F82300020020000AFF0700DF
:1033C0000801BE0009FF07000A01BE000EFE07004B
:1033D0000004BE000C06E8000800BE0001F0A100D9
:1033E00002002000039823005DFF07000800BE00D4
:1033F000160035000801BE00C7FE07000005BE002C
:1034000032CD2C0043FB2300F8FE0700809FBE0056
:103410001269280003D52B000A00BE00BEFE07007B
:10342000620F210013EF2B00F0FE07000A01BE001F
:10343000B9FE07004F01BE00F3FD07000801BE0002
:10344000B5FE07000801BE00E8FE07000C00E00022
:103450000B0032000C10A70001F0A200B2FD20000A
:1034600093FC23006260E1000400320022A92000E6
:1034700063F023000C10A70063F82300DBFE0700B5
:103480000DF0A70001F0A2004F06BE004F05BE00E0
:103490004F04BE0000000600889FBE008A9FBE0049
:1034A000841F78005AFF07004F0078001100330096
:1034B000F0FF2F00838F6C0006003B0004056500C1
:1034C0000A00A7000800370009F0A600100020003D
:1034D00008003700820F5400838F5C00030039001E
:1034E0001000200001003E000000200009F0A700AD
:1034F0000000EA004F05BE004F04BE000000E000DF
:103500000000060060001000E08018006001190053
:10351000E081190000000600881F78000004780090
:103520005001BE004000BE000000420081804A0001
:1035300002014B0083814B00009CBE000294BE0040
:10354000DC00070003003100480090000000E800A4
:10355000400498004F04780000000600889FBE00D9
:10356000000478008004EB005001BE004000BE0063
:10357000D0000700010031001900200004005000B5
:10358000858058000601590087815900009CBE00C3
:103590000294BE00480090000900500040049800CA
:1035A0004F04BE00000006001200FA00889FBE0013
:1035B0008A9FBE008C1F78000205BE000004BE007A
:1035C000F4B79F0085BF9F0096BF9F00A7BF9F00D5
:1035D0000000EB00E0B79F00D0B79F00C0B79F008E
:1035E000B0B79F00A0B79F000006EB005FB1970047
:1035F0006FB097008000D0000000E00015003D0093
:10360000E1B79F00010078000200E00001003D00EA
:103610000000A000AC00070001003D000000A00079
:10362000AF00070001003D000000A000B20007004D
:1036300001003D000000A0008100070001003D00E6
:103640000000A000B20007007C805700B2FF070016
:1036500014003700E1B79F00010078000200E0008D
:1036600001003D000000A0009700070001003D00A0
:103670000000A0009A00070001003D000000A0002B
:103680009D00070001003D000000A0006C00070045
:1036900001003D000000A0009D0007007C80570055
:1036A000AEFF07006FB097000000E0000700350094
:1036B00010002000010020006011B8000804700014
:1036C000898470000A0571008B8571000C06E80082
:1036D000F0032000800F5600C4FF34006FB0970045
:1036E0000000E00006003D007FB297008FBA97000F
:1036F0001FBB9700AFBB97007C80570086FF070079
:103700000802BE000A03BE006FA897000000E00098
:1037100004003A002FB29700BFB297004FB3970052
:10372000DFB397000400BE000601BE004F0678001C
:103730004F05BE004F04BE000080FA0000000600E6
:10374000881F780018002000881F780096FF070067
:103750008F87E9004F04780000000600801FEB000F
:1037600091FF07008F87E900000006000800FA00BB
:10377000889FBE008A9FBE008C1F78006E000700E5
:1037800005003D0043000700300007000C003D002D
:10379000330007000B003700E00F5200E08F5A00A3
:1037A000E00F5B00E08F5B0006003D000400BE0000
:1037B0000601BE0053FF07000205BE000004BE0064
:1037C0001C0020002C000700DDFF07000C00E000BB
:1037D000010032004BFF07004F0678004F05BE0086
:1037E0004F04BE000080FA00000006000800FA0046
:1037F000889FBE008A9FBE008C1F78004E00070085
:1038000002003D001C002000220007000F000700FE
:1038100001003D001200070017000700CFFF07005E
:103820000C00E0000100320036FF07004F06780070
:103830004F05BE004F04BE000080FA0000000600E5
:1038400090B79F000100D00080B79F00E00F5400A8
:10385000E08F5C00E00F5D00E08F5D00000006007F
:103860000800BE000A01BE0026FF07000205BE00D8
:103870000004BE00000006000802BE000A03BE00ED
:103880005FB09700EFB097007FB197008FB99700B6
:10389000000006001BFF07000100070000000600F3
:1038A000B0B79F00C1B79F00D2B79F00E3B79F009A
:1038B000000006000400E1000588E1000690E10038
:1038C0000798E10000000600C0B79F000200D0008A
:1038D000B0B79F00AFB097000100E0000000060005
:1038E000B0B79F000100D000A0B79F009FB0970025
:1038F0000100E00000000600A0B79F000100D0001A
:1039000090B79F008FB097000100E0000000060014
:1039100080B79F000804D0008984D2000A85D200B5
:103920008B85D2005FB29700EFB297007FB397000C
:103930008FBB970000000600D9FF07000605BE00F8
:103940000404BE000006EB00E00F5000E08F5800BA
:10395000E00F5900E08F5900000006000800FA004F
:10396000889FBE008A9FBE008C1F7800F0B79F0022
:1039700081BF9F0092BF9F00A3BF9F006044B8001B
:103980006055B8000006EB000408A30008003200F0
:103990007FB097008FB897001FB99700AFB9970015
:1039A00008044000898448000A0549008B854900C5
:1039B0008703D1000683D3008582D3000482D3001D
:1039C00010002000010020006011B8000800600015
:1039D000898060000A0161008B8161000000E000C5
:1039E000070032006000B800020020000300280039
:1039F00004027000858270000603710087837100E5
:103A00008B05D1000A85D3008984D3000884D300B4
:103A10000C06E800F0032000800F5600DAFF3400A7
:103A20000400BE000601BE004F0678004F05BE0030
:103A30004F04BE000080FA00000006000800FA00F3
:103A4000889FBE008A9FBE00170007000605BE00C3
:103A50000404BE00E00F5200E08F5A00E00F5B004C
:103A6000E08F5B0008003D000400BE000601BE00C0
:103A7000A4FE07000205BE000004BE000F00070000
:103A8000A0FE0700080007000802BE000A03BE00EF
:103A90000A000700B1FF07004F05BE004F04BE003B
:103AA0000080FA0000000600E0B79F00F1B79F0019
:103AB00082BF9F0093BF9F00000006006FB0970079
:103AC000FFB097000FB997009FB99700000006005C
:103AD0002A00FA00889FBE008A1F7800000F780035
:103AE0000000EB00100798000000EB002007980092
:103AF0001100200080002000560D07006000B80073
:103B000030079800410798003E019000CE019000D8
:103B1000F0472800E1012000800F5100818F5900FB
:103B200007003C003E009000CE0090006100400085
:103B3000E08048003007980041079800F2FF370006
:103B4000930E07006000B800300798004107980006
:103B50003E019000CE019000F0D320003100200003
:103B6000800F5100818F590007003C003E009000FB
:103B7000CE00900061004000E080480030079800CF
:103B800041079800F2FF3700000000001E0090007F
:103B9000E70F500010003C001E0090000000D00015
:103BA0009E0040000000EB00800878006A0147009A
:103BB0009E009000400020000008B8000001410075
:103BC0006000B8000089BE001E0090000000E80000
:103BD00010079800EDFF370000000000AE009000D5
:103BE00030062000808F50002D003C000000EB00CC
:103BF000100798001E009000E70F500024003C00C2
:103C00006A0147009E009000400020000008B800B4
:103C1000800441006A0147009E009000400020009F
:103C20000008B800000441001E009000D70A0700F9
:103C3000CF80DE00B81C4000A89448006000B800A7
:103C400030079800410798003E019000CE01900097
:103C5000703E200001002000800F5100818F59002C
:103C600007003C003E009000CE0090006100400044
:103C7000E08048003007980041079800F2FF3700C5
:103C80001E0090000000E80010079800D9FF3700E0
:103C90002E0090000000E80020079800CFFF3700BA
:103CA0000000EB00100798001E009000E70F500086
:103CB00017003C001E0090000000D0001E054000D0
:103CC0006A0147009E009000400020000008B800F4
:103CD000000041001000BE00A0FB07000004BE0071
:103CE0002E009000CF80DE009CFB07000001BE008C
:103CF0000800BE00C4FB070005FC0700000D7800AB
:103D00001E0090000000E80010079800E6FF370052
:103D10004F0578004F04BE000080FA000000060046
:103D20005E00FA00889FBE008A9FBE000040EB0044
:103D300030479800A00220000E0040007027980035
:103D40007E209000070009000018EB000040EB0007
:103D5000607F98000040EB00707F98000040EB000F
:103D600000C7980086110700B50B07002D1007004B
:103D7000C911070026080700E210070040C7BF006E
:103D80000080FB00610060000000E00002003200E3
:103D90004007A9000000FE00100020000017980056
:103DA0008002200010179800800220002017980041
:103DB00080002000301798009E1090002E10900078
:103DC0000088B9000000D0004017980024160700B2
:103DD000AE1090003E109000008DB9009E10900033
:103DE0003E109000008CB900AE1090003E10900084
:103DF0000088B900021E20000000510022002000AF
:103E0000110009000200D80080037800010078004A
:103E10009E1090003E1090000088B90002282000FB
:103E20000000510022002000110009000200D8000B
:103E30000E139000BE1290003E1290008A0178008E
:103E40000801780087007800CD14070011002000D9
:103E500010002000BC17070039160700EB0607000A
:103E600081052000204C2D00D9110700E411070026
:103E70000000E000FDFF3A00000000000E007800A6
:103E8000A41107000000E00068003A0037110700A5
:103E9000607F980030110700707F98007E78900056
:103EA0000004E000030032007E789000E84F5000EC
:103EB000F2FF3A00EE7890000EC0900080CF5000E4
:103EC000EEFF32006E7890000001FB00CF91DE0023
:103ED000022F9800132F980090002000010020006E
:103EE0000E2990009E299000800F5100818F59006B
:103EF00043003E000E2890009E28900000600100C4
:103F000036003700080037000C003700100037007B
:103F100014003700180037001C003700200037005D
:103F20002400370028003700802520005007980023
:103F3000C01220006007980035003700802520005F
:103F40005007980080252000600798003000370057
:103F5000C0122000500798008025200060079800BC
:103F60002B003700802520005007980080DA2F00B2
:103F700060079800260037000000EB00500798000B
:103F80000000EB00600798002100370080DA2F0066
:103F90005007980080252000600798001C0037001B
:103FA00080DA2F005007980040ED2F00600798003E
:103FB0001700370080DA2F005007980080DA2F00B2
:103FC000600798001200370040ED2F00500798005E
:103FD00080DA2F00600798000D0037005048E2009B
:103FE00003003A00FB0A070010C0B30050E8B70016
:103FF00001F5210040B12200030B07000400370047
:104000000000EB00600798000000EB0050079800EC
:10401000EE78900001C798006E0090008A0F0700AC
:104020005E009000C50F070094FF37001E04E000FB
:104030009F023D000000EB00200798001E00FB00DF
:104040000000EA006101B900F0FB2F00F1FF2F0032
:104050000201400083814800222F9800332F9800EE
:1040600040032000010020002E299000BE2990006E
:10407000800F5100818F590074023E002E2890005D
:10408000BE289000006001007C0037006F023700FE
:104090006E0237000F013700340137006B02370022
:1040A0006A0237006902370059013700670237009A
:1040B000660237007F0137008E0137009F0137000D
:1040C000BE01370061023700DC0137005F023700B4
:1040D0005E0237005D0237004B0237005B0237009B
:1040E0005A0237005902370058023700570237008A
:1040F000560237005502370054023700530237008A
:104100005202370051023700140037004F023700C7
:104110004E0237004D0237004C0237004B02370089
:104120004A02370049023700480237004702370089
:104130004602370045023700440237004302370089
:104140004202370041023700400237003F02370089
:104150003E0237003D023700E50137000000EB006A
:1041600070050700300F9800100020006D05070053
:10417000400F9800200020006A050700500F9800AB
:1041800076004700601F98006402470094007800A2
:1041900001007800128520008201400000C1EB0080
:1041A0006E509000824960008100E800010A7800AA
:1041B000E401470093007800010078001485200096
:1041C000040140003E0890004880DE00004978006D
:1041D0008100E800810978006402470094007800BB
:1041E00001007800128520008201400000C1EB0030
:1041F0000E589000824960008100E800010A7800B2
:10420000E401470093007800010078001485200045
:10421000040140004E0890004880DE00004978000C
:104220008100E8008109780064024700940078006A
:1042300001007800128520008201400000C1EB00DF
:104240002E589000824960008100E800010A780041
:10425000E4014700930078000100780014852000F5
:10426000040140005E0890004880DE0000497800AC
:104270008100E80081097800F40137002004200063
:104280000E004000EC050700200420000E00400056
:10429000601F9800E4014700930078000100780057
:1042A00014852000040140006E1890001049780029
:1042B0008100E800810978006E1890000000E80095
:1042C000601F9800E4014700930078000100780027
:1042D00014852000040140006E18900010497800F9
:1042E0008100E800810978006E1890000000E80065
:1042F000601F9800E40147009300780001007800F7
:1043000014852000040140006E18900010497800C8
:104310008100E800810978006E1890000000E80034
:10432000601F9800E40147009300780001007800C6
:1043300014852000040140006E1890001049780098
:104340008100E80081097800200420000E00400070
:1043500064004000601F9800E4014700930078006B
:104360000100780014852000040140006E189000C0
:10437000104978008100E800810978006E189000EB
:104380000000E800601F9800E401470093007800F7
:104390000100780014852000040140006E18900090
:1043A000104978008100E800810978006E189000BB
:1043B0000000E800601F9800E401470093007800C7
:1043C0000100780014852000040140006E18900060
:1043D000104978008100E800810978006E1890008B
:1043E0000000E800601F9800E40147009300780097
:1043F0000100780014852000040140006E18900030
:10440000104978008100E80081097800200420002C
:104410000E00400068004000601F9800E401470063
:10442000930078000100780014852000040140000A
:104430006E189000104978008100E800810978002A
:104440006E1890000000E800601F9800E40147002B
:1044500093007800010078001485200004014000DA
:104460006E189000104978008100E80081097800FA
:104470006E1890000000E800601F9800E4014700FB
:1044800093007800010078001485200004014000AA
:104490006E189000104978008100E80081097800CA
:1044A0006E1890000000E800601F9800E4014700CB
:1044B000930078000100780014852000040140007A
:1044C0006E189000104978008100E800810978009A
:1044D0005E013700000000000E00E8000D1007002C
:1044E0000000E000FCFF3200000000000E80E80049
:1044F000081007000000E000FCFF32001E409000A2
:104500008080FB002E4090000000FB004800DD0092
:1045100000804000600798000E00E800FD0F0700D3
:104520000000E000FCFF3200000000000E80E80008
:10453000F80F07000000E000FCFF32001E40900072
:104540008080FB002E4090000000FB004800DD0052
:1045500000804000500798006E0090003A0E07005F
:104560005E009000750E07003801370064024700B6
:10457000940078000100780012852000820140003C
:1045800000C1EB004E489000824960008100E800C5
:10459000010A7800E40147009300780001007800E8
:1045A00014852000040140006E0090004880DE0069
:1045B000004978008100E800810978006402470022
:1045C00094007800010078001285200082014000EC
:1045D00000C1EB002E489000824960008100E80095
:1045E000010A7800E4014700930078000100780098
:1045F00014852000040140005E0090004880DE0029
:10460000004978008100E800810978000F01370037
:104610002E00900041852000010040007418070022
:1046200010C0B3003047980064024700940078003F
:1046300001007800128520008201400000C1EB00DB
:104640000E609000824960008100E800010A780055
:104650006402470094007800010078001285200071
:104660008201400000C1EB002E6090008249600092
:104670008100E800010A7800640247009400780095
:1046800001007800128520008201400000C1EB008B
:104690004E609000824960008100E800010A7800C5
:1046A000AE0090004E10900000804000200798005F
:1046B000E6003700000000000E00E800950F07003C
:1046C0000000E000FCFF3200000000000E80E80067
:1046D000900F07000000E000FCFF32002E40900029
:1046E0008000FB001E4090000000FB00590A0700FC
:1046F000D60037000000EB00300798003E00900025
:10470000E50F5000D1003C00E40147009300780021
:104710000100780014852000040140000040EB00F7
:10472000004978008100E800810978003E0090008F
:104730000000E80030079800F0FF37000000EB00B1
:10474000300798003E009000E70F5000BF003C008B
:104750003E0090000D0807004007980064024700E3
:10476000940078000100780012852000820140004A
:1047700000C1EB000E489000824960008100E80013
:10478000010A7800E40147009300780001007800F6
:1047900014852000040140004E0090004880DE0097
:1047A000004978008100E800810978003E0090000F
:1047B0000000E80030079800E2FF37000000EB003F
:1047C000300798003E009000E70F50009F003C002B
:1047D0003E0090000308070040079800640247006D
:1047E00094007800010078001285200082014000CA
:1047F00000C1EB000E489000824960008100E80093
:10480000010A7800E4014700930078000100780075
:1048100014852000040140004E0090004880DE0016
:10482000004978008100E800810978003E0090008E
:104830000000E80030079800E2FF3700290E07006B
:104840004007980064024700940078000100780057
:10485000128520008201400000C1EB000E4890004C
:10486000824960008100E800010A7800E401470005
:1048700093007800010078001485200004014000B6
:104880004E0090004880DE00004978008100E8007A
:1048900081097800170E070040079800640247005E
:1048A0009400780001007800128520008201400009
:1048B00000C1EB000E489000824960008100E800D2
:1048C000010A7800E40147009300780001007800B5
:1048D00014852000040140004E0090004880DE0056
:1048E000004978008100E80081097800570037000E
:1048F0000000EB00380707004007980064024700FB
:1049000094007800010078001285200082014000A8
:1049100000C1EB000E489000824960008100E80071
:10492000010A7800E4014700930078000100780054
:1049300014852000040140004E0090004880DE00F5
:10494000004978008100E80081097800100020000B
:104950002107070040079800640247009400780090
:1049600001007800128520008201400000C1EB00A8
:104970000E489000824960008100E800010A78003A
:10498000E4014700930078000100780014852000BE
:10499000040140004E0090004880DE00004978008D
:1049A0008100E80081097800200020000A07070044
:1049B00040079800640247009400780001007800E6
:1049C000128520008201400000C1EB000E489000DB
:1049D000824960008100E800010A7800E401470094
:1049E0009300780001007800148520000401400045
:1049F0004E0090004880DE00004978008100E80009
:104A00008109780011003700E0872100501F9800CD
:104A1000812520005E189000ED0E070000FC80004C
:104A20004007980064024700940078000100780075
:104A3000128520008201400000C1EB000E4890006A
:104A4000824960008100E800010A7800000000004F
:104A50000E007800AF0E07000000E000FCFF3200FF
:104A60001E04E00075FD3A002E0090000000E000FA
:104A700002FD32003E4090000004E00005003200DC
:104A80000040EB0030479800BA1707000000E00034
:104A9000FDFF3200AE00900010852000CC0E070014
:104AA000D70E07000000E000FDFF3A00F3FC3700DE
:104AB0001E04E000F1FC3400A3C0B3009ECF11003F
:104AC00003003200D4C0B3009E4F120003003A002E
:104AD0000E0078008F0E0700F7FF37001E407800A9
:104AE00051E8B70010002000200798000E00780061
:104AF000880E07000000E000080032006401470053
:104B00001200780080007800138520008380400028
:104B10009E4878000000E80000097800A4C0B300B7
:104B20009E4F120003003200D0C0B3009E4F100011
:104B3000EEFF3A00E401470093007800010078009E
:104B400014852000040140000040EB00004978007B
:104B50008100E8008109780051C8BF000000FB0017
:104B6000F3ED070051E8B70051C8BF000001FB009A
:104B7000CF91DE00F0FB2F00F1FF2F00020140007B
:104B800083814800522F9800632F98005001200025
:104B9000010020005E299000EE299000800F510056
:104BA000818F5900D8023E005E289000EE289000C8
:104BB0000060010015003700310037004000370069
:104BC000670037007A0037008B0037009A00370003
:104BD000B0003700340137004B0137009301370034
:104BE000A2013700B4013700BA01370006023700CE
:104BF0002B0237003E0237004F02370056023700C3
:104C000063023700A2023700B80237000000EB0051
:104C1000C4020700300F980010002000C1020700F6
:104C2000400F980020002000BE020700500F98009F
:104C3000DE089000811F78004E099000821F7800E6
:104C4000BE099000831F7800B0512D00801F7800AE
:104C500010852000C3ED0700E8875700108520006D
:104C6000D1ED07008000780010852000580E070065
:104C7000630E07000000E000FDFF3A007FFC3700F4
:104C800074004700801F780080522D00801F78003C
:104C900010852000D9ED0700E48757002E0890000A
:104CA000460B070031002000E0522D00480E07009F
:104CB000530E07000000E000FDFF3A006FFC3700D4
:104CC000E7C2BF000080FB000000D1000080FB00B5
:104CD000610060008000D000E7C2BF000080FB00E0
:104CE00061006000008040008000D000E6C2BF008C
:104CF0000080FB004700DE000080FB0000804000D9
:104D00008000D000E6C2BF000080FB004600DE004D
:104D10000080FB006100600000804000600F980090
:104D20006E0A9000841F780020532D00801F7800A9
:104D3000108520008BED0700E487570010852000C8
:104D400099ED07008000780010852000200E0700F4
:104D50002B0E07000000E000FDFF3A0047FC370083
:104D60006A004700801F78006C004700801F7800B1
:104D700090532D00801F7800108520009FED0700C4
:104D8000E68757006E0090002F0C07005E00900031
:104D90006A0C07003100200020542D000C0E070083
:104DA000170E07000000E000FDFF3A0033FC37005B
:104DB0005E009000801F7800EE009000811F780058
:104DC00060542D00801F78001085200065ED0700DD
:104DD000E68757001085200073ED070080007800FB
:104DE00010852000FA0D0700050E07000000E00006
:104DF000FDFF3A0021FC370074004700801F780057
:104E000000552D00801F7800108520007BED0700E5
:104E1000E48757002E089000070B070031002000A0
:104E200060552D00EA0D0700F50D07000000E000B9
:104E3000FDFF3A0011FC37004C0D07000080FB001D
:104E4000801F7800440D07000080FB00801F780061
:104E50003C0D07000080FB00801F7800A0552D004E
:104E6000801F7800108520003EED0700E88757007E
:104E7000108520004CED0700800078001085200090
:104E8000D30D0700DE0D07000000E000FDFF3A0033
:104E9000FAFB370011002000B0582D00CC0D0700A0
:104EA000D70D07000000E000FDFF3A00B10120002F
:104EB000D0582D00C60D0700D10D07000000E000FE
:104EC000FDFF3A00B1022000905A2D00C00D0700EE
:104ED000CB0D07000000E000FDFF3A00F1012000CB
:104EE000505D2D00BA0D0700C50D07000000E00061
:104EF000FDFF3A0081022000505F2D00B40D070035
:104F0000BF0D07000000E000FDFF3A008102200015
:104F1000E0612D00AE0D0700B90D07000000E000B4
:104F2000FDFF3A00C102200070642D00A80D0700AB
:104F3000B30D07000000E000FDFF3A0091012000E2
:104F400040672D00A20D0700AD0D07000000E00036
:104F5000FDFF3A00F1002000E0682D009C0D0700E5
:104F6000A70D07000000E000FDFF3A00210220002D
:104F7000E0692D00960D0700A10D07000000E0007C
:104F8000FDFF3A0031042000106C2D00900D070049
:104F90009B0D07000000E000FDFF3A009102200099
:104FA00050702D008A0D0700950D07000000E000ED
:104FB000FDFF3A00D1022000F0722D00840D0700A1
:104FC0008F0D07000000E000FDFF3A007101200096
:104FD000D0752D007E0D0700890D07000000E00050
:104FE000FDFF3A00B101200050772D00780D070039
:104FF000830D07000000E000FDFF3A00B102200031
:1050000010792D00720D07007D0D07000000E000F3
:10501000FDFF3A00B1022000D07B2D006C0D07008F
:10502000770D07000000E000FDFF3A00A10120001D
:10503000907E2D00660D0700710D07000000E00056
:10504000FDFF3A00B102200040802D00600D0700F6
:105050006B0D07000000E000FDFF3A00C1022000D8
:1050600000832D005A0D0700650D07000000E000C9
:10507000FDFF3A0061022000D0852D00540D07008D
:105080005F0D07000000E000FDFF3A00F101200085
:1050900040882D004E0D0700590D07000000E0006C
:1050A000FDFF3A0075FB37004E119000821F78001B
:1050B000BE119000831F78002E129000841F78008C
:1050C0001E109000801F78008E109000811F7800C5
:1050D000408A2D00801F780010852000A1EC070079
:1050E000EC87570010852000AFEC070080007800A7
:1050F00010852000360D0700410D07000000E0007C
:10510000FDFF3A005DFB3700600220000E0040000A
:10511000801F7800400220000E004000801F7800B1
:10512000200220000E004000801F780000022000B6
:105130000E004000801F7800708B2D00801F7800CB
:1051400010852000ADEC0700EA8757000E10900094
:105150000000E00005003A009E1090002E10900024
:105160000088B90040179800050037009E10900095
:105170002E1090000088B9000000D0004017980061
:1051800037110700AE1090003E109000008DB9005E
:105190009E1090003E109000008CB900AE10900060
:1051A0003E1090000088B900021E2000000051004F
:1051B00022002000110009000200D80080037800BE
:1051C000010078009E1090003E1090000088B90009
:1051D00002282000000051002200200011000900D8
:1051E0000200D8000E139000BE1290003E129000F4
:1051F0008A0178000801780087007800E00F070036
:105200001100200010002000CF1207004C110700F1
:1052100031002000608C2D00ED0C0700F80C070019
:105220000000E000FDFF3A0014FB3700E10320001E
:10523000A08C2D00E60C0700F10C07000000E00038
:10524000FDFF3A00A00220000E00400020FA0700F7
:105250009101200090902D00DD0C0700E80C070064
:105260000000E000FDFF3A0004FB37007400470037
:10527000801F780072004700801F780030922D0058
:10528000801F7800108520005CEC0700E68757003F
:10529000AE0890001E0890006E0707003100200045
:1052A000C0922D00CA0C0700D50C07000000E000DA
:1052B000FDFF3A00F1FA37009100200000932D0025
:1052C000C30C0700CE0C07000000E000FDFF3A0011
:1052D000EAFA3700700020002C05070080007800F3
:1052E000A00220000E0040007000900000805000DE
:1052F000801F7800600020002405070080007800EF
:10530000A00220000E0040006000900000805000CD
:10531000801F7800500020001C05070080007800E6
:10532000A00220000E0040005000900000805000BD
:10533000801F7800400020001405070080007800DE
:10534000A00220000E0040004000900000805000AD
:10535000801F7800300020000C05070080007800D6
:10536000A00220000E00400030009000008050009D
:10537000801F7800200020000405070080007800CE
:10538000A00220000E00400020009000008050008D
:10539000801F780010002000FC04070080007800C7
:1053A000A00220000E00400010009000008050007D
:1053B000801F78000000EB00F404070080007800F4
:1053C000A00220000E00400010805000801F7800D6
:1053D000A0932D00801F780010852000E1EB0700CE
:1053E000F287570010852000EFEB0700800078005F
:1053F00010852000760C0700810C07000000E000FB
:10540000FDFF3A009DFA370070002000F504070008
:10541000801F780060002000F2040700801F7800E1
:1054200050002000EF040700801F7800400020009B
:10543000EC040700801F780030002000E90407001A
:10544000801F780020002000E6040700801F7800FD
:1054500010002000E3040700801F78000000EB002C
:10546000E0040700801F780060952D00801F780001
:1054700010852000BBEB0700F28757001085200045
:10548000C9EB07008000780010852000500C070051
:105490005B0C07000000E000FDFF3A0077FA3700E0
:1054A0006E004700801F780070004700801F780062
:1054B00020972D00801F780010852000CFEB07007B
:1054C000E68757000E089000FA0A07007E00900059
:1054D000FE0A070031002000B0972D003C0C0700A9
:1054E000470C07000000E000FDFF3A0063FA3700B8
:1054F000000B0700801F7800FA0A0700801F780061
:10550000F0972D00801F78001085200095EB070094
:10551000E687570010852000A3EB07008000780085
:10552000108520002A0C0700350C07000000E00061
:10553000FDFF3A0051FA37003100200090982D000D
:10554000230C07002E0C07000000E000FDFF3A00CE
:105550000000FE0049FA37000000EB003A0A07009D
:105560000000EB00750A07008000EB0080002000BF
:10557000B806070031002000D0982D00140C070059
:105580001F0C07000000E000FDFF3A003BFA370067
:105590007E004700801F780010992D00801F780042
:1055A0001085200095EB0700E48757005048E20083
:1055B00003003A008705070010C0B30050E8B700A9
:1055C0007E099000422F9800CE299000E38F510071
:1055D000190032004E2A9000E30F520007003C00F1
:1055E0004E289000E10F50000B003200CE289000B2
:1055F000E28F50000C0032001B0037004E29900053
:10560000E40F510010003200CE299000E58F5100C8
:105610001100320014003700018420000000EB006C
:105620007905070013003700016E20004084200038
:10563000750507000F00370041D5200060F22000FB
:10564000710507000B00370041E92000E0C7210089
:105650006D0507000700370001F5210040B1220069
:105660006905070003003700710507000040EB00E3
:1056700050E8B7003100200060992D00D40B0700DE
:10568000DF0B07000000E000FDFF3A00FBF93700E8
:1056900020002000D0030700801F780010002000A9
:1056A000CD030700801F78000000EB00CA0307004D
:1056B000801F7800A0992D00801F780010852000A1
:1056C00028EB0700E88757001085200036EB07001D
:1056D0008000780010852000BD0B0700C80B070074
:1056E0000000E000FDFF3A00E4F93700010220006D
:1056F000709A2D00B60B0700C10B07000000E000F8
:10570000FDFF3A00DDF9370051012000809C2D009B
:10571000AF0B0700BA0B07000000E000FDFF3A00E6
:10572000D6F937000400FA00000F780020002000AE
:105730009E0F10000B003E009E007800200320000A
:105740000008B80012FC8000020040000000D000F9
:1057500061AD2100010040001000780010079800A2
:1057600002003700A0292000100798001E009000BA
:105770000080FA00000006000C00FA00000F78001C
:10578000110798006000B8002007980031079800C2
:10579000200020009E0F100031003E001E009000EF
:1057A0000000E0002E0032009E0090002003200048
:1057B000808F50002A003E000000EB004007980058
:1057C00011FC80001E009000008050003003B000EB
:1057D00022032000110009000280D8008000FD0093
:1057E00050079800CE0090001E009000808F50005F
:1057F0001B0031009E007800200320000008B80044
:105800005E019000020040000000D00061AD210068
:1058100001004000100078006101B9002E009000E6
:10582000BE009000000041008180490020079800E0
:10583000310798004E0090000000E80040079800F3
:105840005E0090000000E800220320001100090023
:105850000200D8008000FD0050079800E1FF3700EB
:105860001E0090006101B8002E009000BE00900064
:1058700048F507000080FA00000006000000FA006A
:10588000510020000000EB00BBFF07008000780003
:1058900030F980000080500050F98800510020004D
:1058A00010002000B4FF07008000780040F980005D
:1058B0000080500060F98800510020002000200086
:1058C000ADFF07008000780040FC800000805000A1
:1058D00070F988000080FA00000006000000FA005D
:1058E000889FBE00E5FF070051F9800050F9800055
:1058F0000089B90061F9800060F980000088B90072
:10590000020140008381480071F9800070F9800035
:105910000088B90002004000838048008FF407002F
:105920002BF5070080F9880091F9880051F9800073
:1059300050F980000089B90061F9800060F98000A9
:105940000088B900020040008380480083F407000B
:105950001FF507000004BE0070F98000CF80DE0054
:105960007EF407000801BE004EF50700C2092300BF
:105970005326240068F507000001BE000000200047
:10598000412B240098F50700C0F98800D1F9880060
:1059900002002000030A2400C0F98000D1F9800031
:1059A000EFF507000000E00004003D006000B800D3
:1059B000A0F98800B1F988001100370060F9800073
:1059C000CF80DE0065F407000004BE0050F98000BF
:1059D000CF80DE0061F407000801BE0031F507004A
:1059E000C2092300532624004BF5070002002000C3
:1059F000433324007DF50700A0F98800B1F9880041
:105A00004F04BE000080FA00000006000000FA000B
:105A1000210320000000EB0057FF070030F9880049
:105A2000210320001000200053FF070040F98800E8
:105A30000080FA00000006000C00FA00881F7800C1
:105A400000047800A5FF070080F9800091F980002C
:105A5000008FBE00A2F98000B3F9800022079800F1
:105A600033079800C0F98000D1F980004007980002
:105A7000510798008E007800080078001101BE00E0
:105A80000288BE0064004000E48040001101BE00B6
:105A90000288BE0064004000E48040001101BE00A6
:105AA0000288BE00080078004F0478000080FA00E9
:105AB000000006000000FA0088FF0700C0F980001F
:105AC000D1F980000080FA00000006000000FA0012
:105AD00082FF0700A0F98000B1F980000080FA0081
