:020000040000fa
:080000000401040000000000ef
:020000040000fa
:100200009c010400000000008fd4200080792200af
:100210000001880000000000050007000c00070036
:10022000ee130200000000000040da000000fe00b3
:100230004440a900000320000000e0000300320059
:1002400000002000a00188004440a8000000060033
:10025000c0f72200010020001600370062004000b5
:10026000e0804800910188009001ba0062004000df
:10027000e0804800910188009002ba0062004000ce
:10028000e08048000002eb006028e10005003a0031
:100290008301e90007003300038009000059eb00e7
:1002a000040037006128e100010032000082eb0009
:1002b00005000700910188001001ba000200e0006b
:1002c000e6ff3a00000005009101880080027800f6
:1002d00062004000e08048003559ba008301e9001f
:1002e000080032002559ba008301e90005003200f8
:1002f0000400e000f4ff320015d9ba008301e900e0
:10030000f1ff3a0000000600000178001001e20051
:10031000030035001061a800000028001021b7007c
:1003200030088000410880000200e0000100320037
:100330000089be0000000600881f780002047800d3
:1003400082000700080040004f047800000006000b
:100350000000fa00881f7800000478003fb9970079
:10036000ea81570080007800c01920007e00070055
:10037000800078000000e000020035000040eb0043
:1003800000f47800010078004f0478000080fa0043
:1003900000000600800078001004e0000200320037
:1003a0005104e000feff3a0000805000000006000b
:1003b000889fbe008a1f7800f06880000000e0007f
:1003c0000100320000000100206980000000e00010
:1003d0000100320000000100d05f80000000e0005a
:1003e0000100320000000100e05f80000000e0003a
:1003f00001003200000001001c4de20028003a001c
:100400000005eb00d2602600930120000069800007
:10041000116980006b070700f2352f00e3c6230047
:10042000000041008180490000698800116988004e
:100430000a05e800e70f5500f2ff34000005eb0065
:100440006454b800e0bf200000044400d2602600dd
:10045000930120000069800011698000590707009e
:10046000f2352f00e3c623000000410081804900df
:100470000069880011698800008cbe000a05e80048
:10048000ff0f5500eeff3400d4638000e563800069
:10049000b45f8800c55f880010c0b3001cedb700d2
:1004a000d26026009301200000698000116980005d
:1004b00044070700f2352f00e3c623000000410087
:1004c000818049000069880011698800b25f80005e
:1004d0007f0561006451b800e5bf200005014100bf
:1004e0001202be00b45f8800c55f88000089be00ac
:1004f000b05f8000c15f80000100780000f0a100c3
:100500004f0578004f04be0000000600881f7800e9
:1005100000047800f06880000000e0000100320074
:10052000000001001c6def00206980000000e00069
:1005300001003200000001006140b800006988003d
:10054000116988004f0478000000060080017800df
:100550000200e00003003200b15978000201e90016
:10056000fdff3a00000006006200fa00889fbe000e
:100570008a9fbe000004be00020578008300780058
:100580006a805700ad000700f88f9f0089979f0091
:100590000000eb00909f9f001a80fb008005fb008d
:1005a0000000ea00cf04de000904780050022000b9
:1005b000808f550001003a000904e9000800e000be
:1005c0000c0034000f909700080178008a00780032
:1005d000ff8997000300010080979f008080eb0057
:1005e0000000e000900032001f98970008004000d3
:1005f000909f9f000905450050022000808f550004
:10060000040032000b00e000e3ff3a009f989700df
:10061000850037000000eb00f0979f00e0979f00f7
:10062000d0979f00c0979f00b0979f00a0979f0012
:10063000b09f9f0009003700e0cf200000805000ed
:100640000000d00041d0200001004000bf9897007a
:1006500090807000b19f9f000a05e8009a00fb009f
:10066000e0cf200077000700800078000000e00065
:10067000f1ff3a00a0c2b3009a4f10000e003a00fa
:100680003fb897000080e900b0bf9f0010007800dd
:10069000a09f9f000000e00005003d000000ea0070
:1006a000a09f9f003f9897000020a000b09f9f0050
:1006b0000a05e80011003700a19f9f000b003700da
:1006c000af989700f0ff2700808f5000060032009f
:1006d0006a09b9001a00fb000200400001fd2f006a
:1006e00001004000a09f9f000a05e8001a00fb00df
:1006f0005c0007000000e000f1ff3a00e0c2b30038
:100700009a4f1000030032000080eb00809f9f0092
:100710001c003700a0c2b300da4f100007003a00f7
:100720003fb897000080e900b0bf9f00100078003c
:10073000809f9f000a05e800120037000000eb00d0
:10074000809f9f000b0037008f989700f0ff2700d5
:10075000808f5000060032006a09b9001a00fb00c1
:100760000200400001fd2f0001004000809f9f001b
:100770000a05e8001a00fb003a0007000000e0004c
:10078000f1ff3a009a00fb0060d320002d00070023
:100790008040eb000000e00001003200ba40780029
:1007a000817f9f0080c6b30080cf500004003a00d4
:1007b0009acf100002003a00664050000700370050
:1007c0008f789700c0c6b30080cf500005003a0074
:1007d0009acf100003003a0065404000807f9f00e0
:1007e0000a05e800a0fb2f00008447003a01fb0047
:1007f00088017800ea80570060f92f000f00400060
:100800001e0007000000e00006003a0088007800a3
:1008100060f92f000f0040009e0107000000e0007b
:100820005dff3d008080eb00010078004f05be00b9
:100830004f04be000080fa000000060001087800a6
:100840000000060090cf1000050032001004e00008
:1008500001003a0000000500d0cf1000fbff3a0075
:10086000000006000003b100030035009000b10055
:1008700001003c001000050000000500889fbe003c
:100880008a1f780000047800010278000245780091
:10089000830478000200fb00cf80de005002b1002c
:1008a0000180b10032052000820f5000e08f580017
:1008b0006b013e00006001006301370068013700f2
:1008c00067013700660137006501370064013700b2
:1008d00063013700620137006101370060013700b2
:1008e0005f0137005e0137005d0137005c013700b2
:1008f0005b0137005a0137005901370058013700b2
:1009000057013700560137005501370054013700b1
:1009100053013700520137005101370050013700b1
:100920004f0137004e0137004d0137004c013700b1
:100930004b0137004a0137004901370048013700b1
:1009400047013700460137004501370044013700b1
:1009500043013700420137004101370040013700b1
:100960003f0137003e0137003d0137003c013700b1
:10097000210137003a0137003901370038013700cb
:100980003701370081003700350137003401370067
:1009900033013700320137003101370030013700b1
:1009a0002f0137002e0137002d0137002c013700b1
:1009b000150037001c0037002901370028013700d7
:1009c00027013700260137001700370024013700c0
:1009d000230137002201370021013700c200370010
:1009e0006a003700f50037001d0137001c01370091
:1009f000010137001a013700640037001801370081
:100a000017013700610037006e01440012007800c2
:100a1000808141009480e900010a78000009e80023
:100a2000914978001701370028619000c0c6b300d3
:100a3000804f51000a003a00940078006480500012
:100a4000000a78001000be004f89de00cf91de0062
:100a50000002be000203780082037800160037000f
:100a600010c7b300804f510003003a001401780012
:100a7000680051000500370094007800a0c6b3005c
:100a8000804f510005003a0068805000000a78004d
:100a90003002be002003be00070037000180e900dd
:100aa000000a78001000780000027800cfa2de0073
:100ab0000503780086037800049cbe000694be00ff
:100ac000a860900080c6b30080cf50000f003200b5
:100ad00020c6b30080cf500006003a0018407800ce
:100ae0000000fb00cf80de00010178008201780069
:100af0000a00370040c7b30080cf50000300320027
:100b00006640400080cf500006003a001800780090
:100b1000cf80de000101780082017800009cbe00d9
:100b20000294be003800be002801be00e00f500055
:100b3000e08f5800e00f5900e08f590004003d009d
:100b40006e01440092007800d0c2b3000c00370060
:100b5000081090000018a300040032006e01440049
:100b600092007800b0c2b300050037000008a3006f
:100b7000580032006e0144009200780000c2b300b9
:100b800080f478000109e8005200370028619000e5
:100b9000c0c6b300804f510006003a0094007800b0
:100ba00064805000000a78001002be006033b80074
:100bb0001600370010c7b300804f510003003a0001
:100bc0001401780068005100050037009400780097
:100bd000a0c6b300804f510005003a006880500065
:100be000000a78003002be002003be000700370074
:100bf0000180e900000a7800100078000002780007
:100c0000050020000600200007002000049cbe0014
:100c10000694be00a860900080c6b30080cf50004c
:100c20000f00320020c6b30080cf500006003a000b
:100c3000184078000080fb00010020000200200026
:100c4000030020000a00370040c7b30080cf5000e7
:100c5000030032006640400080cf500006003a009a
:100c6000180078000100200002002000030020008e
:100c7000009cbe000294be00081090000038a30043
:100c8000140032003800be002801be00e00f500002
:100c9000e08f5800e00f5900e08f59000d0032003e
:100ca00080c7b300804f55000300320080c5b300f9
:100cb000804f550007003a006e0044009000780015
:100cc00002c3b30082f478008100e8008af478005f
:100cd0000108e8007800900000804400600498005b
:100ce0008a40780041003700286090008000fb00b7
:100cf000c0062000808f5000230032000a003c0014
:100d000064005000808f50002600320004003c0038
:100d100066005000808f50000b0032002100370029
:100d2000a00620000500370040072000808f5000fb
:100d30001c0032001b003c0063005000808f5000fc
:100d400007003200170037001480e900000a78001d
:100d500010007800485c900008487800490037008f
:100d60001480e900000a78001002780068089000fa
:100d7000cf80de000101780082017800009abe0079
:100d80000292be003f0037001480e900000a78009c
:100d90001001780068089000cf80de000089be0056
:100da000380037001480e900000a7800100078004d
:100db000680c900008087800320037001480e900c1
:100dc000000a780010007800cf80de000101780072
:100dd00082017800009cbe000294be007800900062
:100de000008044006004980081c7b30008007800c8
:100df000f6000700230037001480e900000a78009d
:100e00001000780060049800580990000200e0008b
:100e100002003d005ffd0700090037008000eb0085
:100e20009c010700800078000000e0000300320011
:100e300068009000008050000100370058089000c2
:100e4000100c98000f0037006e01440092007800eb
:100e500050c2b30080f178000109e80009003700b2
:100e6000ee00440011007800808144000a427800be
:100e70008008e8000a04e00001003a0054c2b30010
:100e8000844978000000eb004f0578004f04be0055
:100e9000000006000400fa00889fbe008a9fbe0082
:100ea0008c1f78000004780001067800700890001c
:100eb000f8009000010050008808900001005000e8
:100ec0009808900001005000a80890000100500010
:100ed000b808900001005000c8089000810550003b
:100ee0000002220090bf9f0000032300a0bf9f00cc
:100ef000081090000028a30018003a000b00e00042
:100f0000160034000b0578008a047800e20f5500c3
:100f100001003600290020000900e0000c00340028
:100f200058009000c801900009017800ee80570039
:100f300003000100500498008080eb000000e000f6
:100f40009c0032006808900009004000600c980086
:100f5000090555004240a900ebff3c0078019000d4
:100f60000200e0000c00340058009000c80190001e
:100f70008c00780003000100500498008080eb0092
:100f80000000e0008b00320068089000f80090003c
:100f900001004000600c9800080890000000e0008c
:100fa00016003400000578008a047800e20f55002e
:100fb00001003600290020000900e0000c00340088
:100fc00058009000c801900009017800ec8057009b
:100fd00003000100500498008080eb000000e00056
:100fe000740032006808900009004000600c98000e
:100ff000090555004240a900ebff3c00180990008c
:101000000200e0000c003400e8009000580090005e
:10101000c801900003000100500498008080eb009c
:101020000000e0006300320068089000980890001b
:1010300001004000600c9800280890000000e000cb
:1010400016003400000578008a047800e20f55008d
:1010500001003600290020000900e0000c003400e7
:1010600058009000c801900009017800ec805700fa
:1010700003000100500498008080eb000000e000b5
:101080004c0032006808900009004000600c980095
:10109000090555004240a900ebff3c0038099000cb
:1010a0000200e0000e003400e800900018089000f4
:1010b0008080400058009000c801900003000100ab
:1010c000500498008080eb000000e00039003200fe
:1010d00068089000b808900001004000600c98007b
:1010e000480890000000e000160034000005780079
:1010f0008a047800e20f5500010036002900200024
:101100000900e0000c00340058009000c801900075
:1011100009017800ec80570003000100500498009a
:101120008080eb000000e0002200320068089000a0
:1011300009004000600c9800090555004240a900d4
:10114000ebff3c00081090000028a30018003200bc
:101150000b00e000160034000b0578008a047800cc
:10116000e20f550001003600290020000900e000d0
:101170000c00340058009000c8019000090178006c
:10118000ee80570003000100500498008080eb00bf
:101190000000e000070032006808900009004000ed
:1011a000600c9800090555004240a900ebff3c0087
:1011b0008000eb00010078004f0678004f05be006c
:1011c0004f04be000080fa00000006006f02b0006d
:1011d000889fbe008a9fbe008c9fbe008e1f780035
:1011e0008006780050cb2000b0b79f0080c5b300c8
:1011f00080cf50000200320042ca2000b2b79f00e8
:1012000083002000c3b79f00f0c6b30080cf50001a
:101210000a0032006940400080cf500005003200d3
:10122000a4002000c4b79f0080c5b30080cf500049
:1012300002003a0000012000c0b79f008e0120008c
:101240003d04be002d05be0040c6b30080cf500057
:10125000030032006540400080cf50000a003a0091
:10126000e00f5400e08f5c00e00f5d00e08f5d0058
:1012700005003d000800be000a01be00d7030700bc
:101280000205be000004be00e00f5400e08f5c00c9
:10129000e00f5d00e08f5d0003003a005d08900004
:1012a0000000e0000c0032007e012000cfb097006b
:1012b00001027800cfa2de000503780086037800e3
:1012c0000800be000a01be005a0407003fb29700a2
:1012d00064407800d0e79f004fb09700cf80de00d9
:1012e0000101780082017800d0b79f00e1b79f002c
:1012f000f2b79f0083bf9f000203be000002be0042
:101300000800be000a01be0043040700809ebe0024
:101310008296be00e00f5000e08f5800e00f5900a9
:10132000e08f5900220034000e00e000200034005d
:101330003d00be002d01be005fb29700efb29700e6
:101340007fb397008fbb97003e0407000205be00e5
:101350000004be000e07e900e1fc2f008f80400072
:10136000010647005fb29700efb297007fb3970086
:101370008fbb97000800be000a01be00e50407000d
:101380001d0010003fb19700624e7800889ebe009d
:101390008a96be00e00f5400e08f5c00e00f5d0015
:1013a000e08f5d00020034000e00e000e0ff3c0032
:1013b000cfb19700e88f510010003a000d10900057
:1013c0000038a3000d003200f70f570006003e0062
:1013d000e4fc2f000e024200e4c07f0000c3b30013
:1013e00080cf5000050032000e07e90000c3b300b3
:1013f000e1fc2f008e80400080f07f007801170014
:10140000920e98006d009000e3fc2f008f81410048
:101410008e8041004dfc07001d0e90005d0890007d
:10142000800f560006003d000c005000800e980012
:101430000d1090000040a100801698000f003700aa
:101440000000e0000d003d000d10900074006000f1
:10145000f00f500009003a007d089000fd00900058
:10146000010050008d089000010050000c07500052
:101470004240a900010034008e0e98004f0778000a
:101480004f06be004f05be004f04be006f02b10004
:10149000000006000200e0000500320090cf1000be
:1014a000040032000000e8000201e900fbff3a00fe
:1014b0000000eb0000000600839f68000100e000d0
:1014c00002003d0060001000e08018000300e00012
:1014d00002003d0060011100e08119009e0107003b
:1014e0004f00e00002003b0060001000e0801800a8
:1014f00000000600889fbe008a9fbe00010578009c
:101500000100e0000400350008003c000000e0009d
:10151000200032000500370060001000e080180055
:1015200002003b0001f02c001a0037000004be004e
:101530006011b8006b0920000982cf000200390059
:101540000882cf000441b000694252000e00320010
:1015500008003b0082817100610164008904d100b0
:101560000884d3008b05e8000442e800f9ff3a0044
:10157000050037000804440089844c008b05e9000d
:101580000442e900fbff3a00830107000af0a700cc
:1015900001f0a0004f05be004f04be000000060091
:1015a000889fbe008a9fbe008c1f78000004be008a
:1015b0009f0107000478a30026003a006120e100a3
:1015c0002500320009f8a30025003a006420e1005c
:1015d00021003200f507b1000508a3000200320027
:1015e00000004000818048006044b80003102000e3
:1015f00002002000000040008180480008054400ef
:1016000089854c000a0541008b8549000a05500078
:101610008b855800030033000a00be0002047400ea
:10162000838474008301d1000281d300830f710091
:10163000f0ff3a008904d1000884d300600149001a
:1016400082017800c1adde00fb07b0005201070047
:10165000950137000960a0000800be009201370024
:1016600012022000a2698800f0ff2f00f1ff27007e
:101670008d013700889fbe008a9fbe008c1f7800b6
:10168000900107001002200002003b00a0698800c2
:101690007c0137008a0062006408e10002003a0021
:1016a000a0698800840137006108e100fcff320076
:1016b0000800be0003047800c400070001f0a10088
:1016c0008801070008f0a600040037000001be00f2
:1016d00091042400b0fd20003700070009f0a700a6
:1016e00001f0a20070013700889fbe008a9fbe00f3
:1016f0008c1f7800730107006201330003866c00c1
:101700006450e100240032006420e1002700320030
:101710006150e100220032006120e100210032002e
:101720008b854200eb07b1000134b800003ab800e5
:101730000804420089844a00013ab8000030b80029
:101740008880400009014a00040033000000400086
:1017500081804800020149008b05e900c909dd00cc
:10176000830170000100320013002000c814de0065
:101770004814dd004709de001200b200c808de0090
:10178000088470000401070001f0a1000cf0a7001c
:1017900001f0a000440137006120e1004601320061
:1017a0000801be000200be00f7ff37006150e100f3
:1017b000fcff3a004001370003f0a200889fbe0002
:1017c0008a9fbe008c1f78003e0107002d01330068
:1017d0006450e1004f0032006420e100520032000a
:1017e00003826c0007003b000905d0000306d0000f
:1017f000820f54000c065d00020039000200320026
:1018000089017800030678008582550004003d00b8
:101810000003fd008103fd008502ea008b85420084
:10182000840f720002003b0060001000e08018008e
:101830006011b8000005eb007a28e1000a003900c9
:1018400006007800c75ddd00f707b20087807500ed
:101850002d003700828171000a0178006105600067
:101860008180d1000080d3008502e900f9ff3b00b0
:10187000060440008784480002003b006004140016
:10188000e0841c000988a300070032008a817100ef
:1018900082817100610164008904d1000884d30051
:1018a0008b05e800170037000978a30013003a0001
:1018b0000b00e000130034008b05e900080444002d
:1018c00089844c000a4474000978a3000d003a0092
:1018d0000b00e000070034008b05e9000804440019
:1018e00089844c0001003a000b0020000978a30015
:1018f000f7ff32000001eb00020037008281710027
:101900000a017800a40007000cf0a70001f0a00075
:10191000e50037006420e10002003a00838f6c008c
:10192000e50033000801be000200be00de00370003
:1019300014002000500137000001be00bc00070069
:101940000470a70003f0a1006509b1001600320081
:101950000d0035006828e10006003500f0ff2f007b
:10196000f1ff27000300e00013003b000100280006
:101970000000050000004000818048008502e90069
:10198000fcff3a0008003700f88f420002003c00dc
:101990008000eb00000005008100d1000080d30032
:1019a0008502e800fcff3a000300e00002003b0073
:1019b00060001000e080180000000600f4ff2f0017
:1019c0002d013700040020002b013700889fbe0046
:1019d0008a9fbe008c1f7800ba000700a900330060
:1019e00003866c006450e1002e0032006420e100a8
:1019f000330032006150e1002f0032006120e1002d
:101a00003100320085855500eb07b0000900200049
:101a100008042000050037000804440089844c00b5
:101a20000a0031000603430087834b000001530086
:101a300081815b00f8ff33000203be000800a000b4
:101a40000804440089844c00f6ff3900c639dd00e3
:101a50008301730001003200130020008904d100cb
:101a60000884d3000998a300050032000800a700ed
:101a70000300a0008904d1000884d3008b05e8008e
:101a80008904d1000884d3000001eb000281d20058
:101a90004100070001f0a1000cf0a70001f0a00038
:101aa000810037006420e100830032000801be009d
:101ab0000200be00f7ff37006120e1007e00320027
:101ac0006000b800f3ff37000000200001f8270095
:101ad000f0ff37000001be00550007000470a700aa
:101ae00003f0a10003f8a30013003a006509b10058
:101af00010003200090035006928e10002003500bd
:101b0000010028000000050000004000818048001e
:101b10008502e900fcff3a0000000600f88f420051
:101b2000050035008100d1000080d3008502e80067
:101b3000fcff3a00000006008000eb0000000500fa
:101b40000081eb00e70037000001eb00e500370003
:101b5000040020004c0137006022b800060220007b
:101b60000000d0008180d2000482d2008582d200a1
:101b70000000a0000202520083825a0003003b00d2
:101b80000202420083824a000000a1000603e9002d
:101b9000f3ff3a000000060081002000618055003c
:101ba0000b003d000b00200061fe2f000100e10052
:101bb0001d00340082817100610164008904d1003c
:101bc0000884d3000000e800faff3a00710020000a
:101bd0006100640003007000020060000900320030
:101be00061044400e0844c000988a500050032002f
:101bf0008b05e8006808e10002003a008904d10082
:101c00000884d300f20f20000258e10005003d00d7
:101c1000c75ddd00f907b200898075000800780013
:101c2000000006000bf827008b007800000005007c
:101c3000c70ade00f107b200f50fb200080032005b
:101c4000e1cf4200020032000170a0002400050034
:101c5000810f7000010032000408050044000500f7
:101c6000810f700002003a00140005008502e900af
:101c70000000400081c04800fcff3b000170a00054
:101c8000240005000200be006450e100050036009b
:101c90006420e100020036000968a30001003a0058
:101ca0000800be000160a0004f0678004f05be008e
:101cb0004f04be0000000600f0ff2f00f1ff2700d8
:101cc000f9ff37000004be00d9ff07000003be0083
:101cd0000405be000200be00d5ff0700844f75005a
:101ce00000000600889fbe008a9fbe008c9fbe0039
:101cf0000004be00ceff07000800be008906780081
:101d00006420e10008003900040032000160a000f6
:101d100012022000a26988005300370091fc2300c2
:101d2000b0fd20004e0037000006eb0009f0a100d6
:101d300003f82300020020000800be00fcfe07009c
:101d40000600340001f82300000020000801be0056
:101d50001eff07000004be002c0020000800be008b
:101d600093e82300320a2300f1fe0700120034003a
:101d70000801be00d1fd2300703d2b008ffe07003f
:101d80000005be00b3f32300f27a26000800be006f
:101d900055fe070003f823000200200086fe07001e
:101da0000801be0085fe07000a01be0007ff07000c
:101db0000004be000c06e8000800be0001f0a1000f
:101dc0000200200003982300d9fe07000800be008f
:101dd000160035000801be0043fe07000005be00e6
:101de00032cd2c0043fb230074fe0700809fbe0011
:101df0001269280003d52b000a00be003afe070036
:101e0000620f210013ef2b006cfe07000a01be00d9
:101e100035fe07004f01be00ecfe07000801be00c2
:101e200031fe07000801be0064fe07000c00e00060
:101e30000b0032000c10a70001f0a200b2fd200040
:101e400093fc23006260e1000400320022a920001c
:101e500063f023000c10a70063f8230057fe07006f
:101e60000df0a70001f0a2004f06be004f05be0016
:101e70004f04be0000000600889fbe008a9fbe007f
:101e8000841f78008fff07004f0078001100330097
:101e9000f0ff2f00838f6c0006003b0004056500f7
:101ea0000a00a7000800370009f0a6001000200073
:101eb00008003700820f5400838f5c000300390054
:101ec0001000200001003e000000200009f0a700e3
:101ed0000000ea004f05be004f04be000000e00015
:101ee00000000600889fbe008a9fbe008c9fbe0037
:101ef000820578000004be004dff07000800be0008
:101f00006420e1000700390002003a00f1ff2700d9
:101f1000f0ff2f000160a00012022000a2698800db
:101f2000550037006120e10003003a000b00a700d4
:101f300001f823005000370001f0a1000200210049
:101f4000936424007afe07000800be0004003500f8
:101f5000b2fd2000930c2400fdfe07000004be002b
:101f60000005eb000b00a6004f0dde0001f0a10004
:101f70000004be0032982f0023ea2300dafd070098
:101f80000001eb0003f023000b00a70003f823007f
:101f90000afe070068fe07000000a7000a00a20072
:101fa00054fd07000b00e000030032000200200097
:101fb00003f0230000fe070001f0a2000006be00af
:101fc0000200200093042400c7fd07000801be00a2
:101fd000fafd0700809fbe000c00be0022a22a006e
:101fe000d3a72300c0fd07004f01be00f3fd07008b
:101ff0000004be0001f0a1000200200003982300ad
:102000004bfe07000800be00190035000001be00ad
:10201000b5fd07000006be00b2c52900e36223003b
:10202000b1fd070022222b00f3942b00e3fd0700f3
:102030000c01be00acfd0700e273280083c0230042
:10204000defd07000c01be00a7fd070042aa2a0022
:10205000a3e22b00d9fd07000c01be00a2fd070082
:102060000801be00a0fd07000801be00d3fd070067
:102070000a00a70001f0a2004f06be004f05be00f7
:102080004f04be0000000600889fbe008a9fbe006d
:102090008c1f78004f26dd000aff0700f9fe330091
:1020a0006120e100430032006250e10041003e0047
:1020b0003e0039006420e1003c00320005825500fa
:1020c0000f003b000402e80038003a00800f530084
:1020d000818f5b00350034000800be0003f0a100d2
:1020e00001f0a60003f0a0000cf0a700b3fd07006c
:1020f000edfe37000603430087834b000c46460085
:102100000005530081855b00020033000a03be0016
:102110000c00a0000402e900f6ff3b0085057800f2
:102120000602430087824b0004003a006000b800ba
:1021300009f0a70001f0a000dbfe3700000252000a
:1021400081825a000704e0000400330006034300c4
:1021500087834b008b05e900faff370009057800fb
:102160000604be000203be006011b8008afe07002c
:10217000e00f5200e08f5a000700350002003c00db
:102180000c08a300040032000601be0003f0a0000a
:102190000cf0a70089fd07000a85680001f0a10086
:1021a0000af0a70001f0a000bffe37000800be0043
:1021b000bdfe3700100220000cf0a600a0698800c8
:1021c000bdfe3700020ab900001bb9000200b800ca
:1021d0008100420081004300000006006000100002
:1021e000e080180060011900e0811900000006007d
:1021f000881f7800000478005001be004000be0037
:102200000000420081804a0002014b0083814b00a4
:10221000009cbe000294be00dc00070003003100f9
:10222000480090000000e800400498004f04780047
:1022300000000600889fbe00000478008004eb00c8
:102240005001be004000be00d00007000100310078
:102250001900200004005000858058000601590034
:1022600087815900009cbe000294be004800900087
:1022700009005000400498004f04be000000060012
:102280001200fa00889fbe008a9fbe008c1f780053
:102290000205be000004be00f4b79f0085bf9f008a
:1022a00096bf9f00a7bf9f000000eb00e0b79f0014
:1022b000d0b79f00c0b79f00b0b79f00a0b79f00e6
:1022c0000006eb005fb197006fb097008000d00070
:1022d0000000e00015003d00e1b79f00010078001c
:1022e0000200e00001003d000000a000ac0007007b
:1022f00001003d000000a000af00070001003d000c
:102300000000a000b200070001003d000000a00096
:102310008100070001003d000000a000b20007009e
:102320007c805700b2ff070014003700e1b79f0020
:10233000010078000200e00001003d000000a00064
:102340009700070001003d000000a0009a00070070
:1023500001003d000000a0009d00070001003d00bd
:102360000000a0006c00070001003d000000a0007c
:102370009d0007007c805700aeff07006fb09700fc
:102380000000e000070035001000200001002000e0
:102390006011b80008047000898470000a0571009b
:1023a0008b8571000c06e800f0032000800f5600ba
:1023b000c4ff34006fb097000000e00006003d004d
:1023c0007fb297008fba97001fbb9700afbb9700f3
:1023d0007c80570086ff07000802be000a03be008b
:1023e0006fa897000000e00004003a002fb29700a9
:1023f000bfb297004fb39700dfb397000400be0051
:102400000601be004f0678004f05be004f04be0017
:102410000080fa0000000600881f780018002000e5
:10242000881f780096ff07008f87e9004f04780027
:1024300000000600801feb0091ff07008f87e90076
:10244000000006000800fa00889fbe008a9fbe00b8
:102450008c1f78006e00070005003d004300070058
:10246000300007000c003d00330007000b00370070
:10247000e00f5200e08f5a00e00f5b00e08f5b003e
:1024800006003d000400be000601be0053ff070029
:102490000205be000004be001c0020002c00070046
:1024a000ddff07000c00e000010032004bff0700d9
:1024b0004f0678004f05be004f04be000080fa00b2
:1024c000000006000800fa00889fbe008a9fbe0038
:1024d0008c1f78004e00070002003d001c00200009
:1024e000220007000f00070001003d001200070056
:1024f00017000700cfff07000c00e00001003200ca
:1025000036ff07004f0678004f05be004f04be009f
:102510000080fa000000060090b79f000100d00084
:1025200080b79f00e00f5400e08f5c00e00f5d007b
:10253000e08f5d00000006000800be000a01be003a
:1025400026ff07000205be000004be0000000600d2
:102550000802be000a03be005fb09700efb097000c
:102560007fb197008fb99700000006001bff07009e
:102570000100070000000600b0b79f00c1b79f0030
:10258000d2b79f00e3b79f00000006000400e100ff
:102590000588e1000690e1000798e10000000600d0
:1025a000c0b79f000200d000b0b79f00afb0970047
:1025b0000100e00000000600b0b79f000100d0005d
:1025c000a0b79f009fb097000100e0000000060048
:1025d000a0b79f000100d00090b79f008fb0970078
:1025e0000100e0000000060080b79f000804d00052
:1025f0008984d2000a85d2008b85d2005fb2970011
:10260000efb297007fb397008fbb970000000600e2
:10261000d9ff07000605be000404be000006eb005b
:10262000e00f5000e08f5800e00f5900e08f590094
:10263000000006000800fa00889fbe008a9fbe00c6
:102640008c1f7800f0b79f0081bf9f0092bf9f0052
:10265000a3bf9f006044b8006055b8000006eb00bf
:102660000408a300080032007fb097008fb89700dd
:102670001fb99700afb9970008044000898448004b
:102680000a0549008b8549008703d1000683d300e2
:102690008582d3000482d3001000200001002000b6
:1026a0006011b80008006000898060000a016100c4
:1026b0008b8161000000e000070032006000b8007c
:1026c00002002000030028000402700085827000d0
:1026d00006037100878371008b05d1000a85d30042
:1026e0008984d3000884d3000c06e800f00320009e
:1026f000800f5600daff34000400be000601be0061
:102700004f0678004f05be004f04be000080fa005f
:10271000000006000800fa00889fbe008a9fbe00e5
:10272000170007000605be000404be00e00f5200bb
:10273000e08f5a00e00f5b00e08f5b0008003d0077
:102740000400be000601be00a4fe07000205be0094
:102750000004be000f000700a0fe070008000700ed
:102760000802be000a03be000a000700b1ff07000e
:102770004f05be004f04be000080fa0000000600b6
:10278000e0b79f00f1b79f0082bf9f0093bf9f00fb
:10279000000006006fb09700ffb097000fb99700d8
:1027a0009fb99700000006000400fa00008fbe00e9
:1027b0001e00be00e00f5000e08f58000500320000
:1027c0000080eb008080eb001e0f40005e97480009
:1027d000f7ff37000080fa00000006006800fa00ea
:1027e000881f7800c0040700720a0700bb070700b3
:1027f0003702070040c7bf000080fb006100600097
:102800000000e000020032004007a9000000fe00c6
:1028100040f62a00801f78000e007800ccf60700f2
:102820008f87e9000e007800daf607008000780054
:102830000e007800ad0a0700800c2000002f9800e1
:10284000800c2000102f98000000eb00303798001b
:102850003e309000e70f50000c003c004105200086
:102860008e8040003e3090000000d0000104400007
:102870003e30900075040700000c78003e30900058
:102880000000e80030379800f1ff37000000eb004f
:10289000303798003e309000e70f500020003c0099
:1028a000410520008e8040003e3090000000d000a6
:1028b00001004000100078004480de0020379800be
:1028c0003e3090000000d00061cc200001004000ac
:1028d000900078002e3090000088b9000e299000fa
:1028e00000004100002f98003e3090000000d00012
:1028f00061cd200001004000900078002e30900053
:102900000088b9001e29900000004100102f980097
:102910003e3090000000e80030379800ddff3700bf
:102920008e289000803e2000808f500002003400ee
:10293000803e2000002f98009e289000803e2000be
:10294000808f500002003400803e2000102f98003d
:102950008e28900080c12f00808f500002003d0023
:1029600080c12f00002f98009e28900080c12f006a
:10297000808f500002003d0080c12f00102f980072
:102980000e289000590707001e28900083070700b3
:102990008e2890001e289000808f50000700340081
:1029a0001100200010002000ee0407008000eb0062
:1029b00070002000eb040700060037008000eb00e9
:1029c00010002000e7040700110020007000200024
:1029d000e4040700006a28001100200072ff0700cd
:1029e00095ff37000400fa00000f78002000200057
:1029f0009e0f10000b003e009e0078002003200078
:102a00000008b80082698000020040000000d00089
:102a1000a1aa2000010040001000780010079800d3
:102a200002003700a0292000100798001e00900027
:102a30000080fa00000006000c00fa00000f780089
:102a4000110798006000b80020079800310798002f
:102a5000200020009e0f100031003e001e0090005c
:102a60000000e0002e0032009e00900020032000b5
:102a7000808f50002a003e000000eb0040079800c5
:102a8000816980001e009000008050003003b0007b
:102a900022032000110009000280d8008000fd0000
:102aa00050079800ce0090001e009000808f5000cc
:102ab0001b0031009e007800200320000008b800b1
:102ac0005e019000020040000000d000a1aa20009a
:102ad00001004000100078006101b9002e00900054
:102ae000be0090000000410081804900200798004e
:102af000310798004e0090000000e8004007980061
:102b00005e0090000000e800220320001100090090
:102b10000200d8008000fd0050079800e1ff370058
:102b20001e0090006101b8002e009000be009000d1
:102b300061fa07000080fa00000006000000fa00b9
:102b4000510020000000eb00bbff07008000780070
:102b500040678000008050006067880051002000be
:102b600010002000b4ff070080007800506780004c
:102b70000080500070678800510020002000200075
:102b8000adff070080007800906980000080500051
:102b9000806788000080fa00000006000000fa004c
:102ba000889fbe00e5ff07006167800060678000c6
:102bb0000089b90071678000706780000088b900e3
:102bc00002014000838148008167800080678000a7
:102bd0000088b900020040008380480045fa0700e1
:102be0006ffa070090678800a1678800616780001e
:102bf000606780000089b90071678000706780009d
:102c00000088b900020040008380480039fa0700bc
:102c100063fa07000004be0080678000cf80de00fa
:102c200034fa07000801be0092fa0700c209230027
:102c300053262400acfa07000001be00000020006b
:102c4000412b2400dcfa0700d0678800e167880088
:102c500002002000030a2400d0678000e1678000a2
:102c600033fb07000000e00004003d006000b800f6
:102c7000b0678800c1678800110037007067800066
:102c8000cf80de001bfa07000004be0060678000f2
:102c9000cf80de0017fa07000801be0075fa0700b2
:102ca000c2092300532624008ffa070002002000e7
:102cb00043332400c1fa0700b0678800c167880069
:102cc0004f04be000080fa00000006000000fa0079
:102cd000210320000000eb0057ff07004067880039
:102ce000210320001000200053ff070050678800d8
:102cf0000080fa00000006000c00fa00881f78002f
:102d000000047800a5ff070090678000a16780009d
:102d1000008fbe00b2678000c36780002207980062
:102d200033079800d0678000e16780004007980073
:102d3000510798008e007800080078001101be004d
:102d40000288be0064004000e48040001101be0023
:102d50000288be0064004000e48040001101be0013
:102d60000288be00080078004f0478000080fa0056
:102d7000000006000000fa0088ff0700d06780000e
:102d8000e16780000080fa00000006000000fa0001
:102d900082ff0700b0678000c16780000080fa00f2
:102da000000006000000fa007cff0700906780002a
:102db000a16780000080fa00000006000600fa000b
:102dc000881f7800000478005cff070060678000bf
:102dd000000f7800716780001107980080678000fd
:102de000200798001e00be00008cbe00ae009000c0
:102df00021049800080078004f0478000080fa0051
:102e0000000006000000fa004cff07006067800029
:102e10000080fa00000006000000fa0047ff0700eb
:102e2000706780000080fa00000006000000fa00d1
:102e300042ff0700806780000080fa000000060063
:102e40000a00fa006000b800008fbe00cfff070044
:102e5000008fbe0030678000cf80de00a5f907003c
:102e60001e01be0054fa0700b3fa070020079800bd
:102e70002e0090000000e00003003d00ae00900036
:102e80008100ea00210798002e0190006110b9002e
:102e900098f9070002002000030a2400c7fa07007f
:102ea0000000e000880034003b0507000000eb0054
:102eb0003007980002002c00833a24001e00be0058
:102ec000befa07000000e0000200340011002000fc
:102ed000310798000001eb00420798000200200033
:102ee000431b24001e00be0091fa07000000e00012
:102ef00002003c001000200040079800be00900037
:102f00004e019000028070000000e00008003200d6
:102f100002002800634224001e00be00a9fa070038
:102f20000000e00002003200c4c2a80063003700c5
:102f300002002000431b24001e00be009ffa070071
:102f40000000e00008003400020020007328240084
:102f50001e00be0076fa07000000e00002003c0000
:102f6000c5e2a800550037000200200073282400a5
:102f70001e00be0091fa07000000e00008003400c7
:102f800002002000132e24001e00be0068fa070075
:102f90000000e00002003c00c5c2a8004700370066
:102fa00002002000132e24001e00be0083fa07003a
:102fb0000000e0000800340002002800d3312400a3
:102fc0001e00be005afa07000000e00002003c00ac
:102fd000c5a2a8003900370002002800d331240020
:102fe0001e00be0075fa07000000e0000800340073
:102ff00002002800a33424001e00be004cfa070083
:103000000000e00002003c00c542a8002b00370091
:1030100002002800a33424001e00be0067fa070047
:103020000000e0000800340002002800733724008c
:103030001e00be003efa07000000e00002003c0057
:10304000c582a8001d003700020028007337240045
:103050001e00be0059fa07000000e000080034001e
:1030600002002400233924001e00be0030fa0700ad
:103070000000e00002003c00c522a8000f0037005d
:1030800002002400233924001e00be004bfa070072
:103090000000e0000800340002002c00833a240005
:1030a0001e00be0022fa07000000e00002003c0003
:1030b000c4e2a80001003700b70407001e00be00ec
:1030c0001dfa0700306788000080fa000000060043
:1030d0000000fa000000eb00001588000000eb0083
:1030e000101588000000eb00201588000000eb00a0
:1030f00030158800a802a800a822a800a842a900ac
:10310000a862a900a882a900a8a2a900a8c2a90033
:10311000a8e2a900a902a900a922a900a942a90020
:10312000a962a900a982a900a9a2a900a9c2a9000f
:10313000a9e2a900aa02a900aa22a900aa42a800fd
:10314000aa62a800aa82a800aaa2a900aac2a900ed
:10315000aae2a900ab02a900ab22a900ab42a900d8
:10316000ab62a900ab82a900aba2a900abc2a900c7
:10317000abe2a900112a200091407800c0cfb30033
:1031800000c06000a1e2b700a042a800012a200010
:103190009140780000ceb30000c07000a0e2b700fc
:1031a000212a20009140780030ccb30000c060009c
:1031b0000034a000a2e2b700a342a800512a2000d8
:1031c0009140780000ceb30000c060000004a00071
:1031d000a5e2b700412a20009140780000ccb3005e
:1031e00000c0600071c2b30001407000a4e2b700eb
:1031f0008560a9008d60a800a1e2a8000000000081
:103200008169800000032000808f5000fbff3600a2
:103210000080fa0000000600809fbe00821f780038
:103220000a00fa008560a900c0012000501588003e
:10323000212a20009140780030ccb30000c060000b
:103240000034a000a2e2b700412a2000914078009b
:1032500000ccb30000c0600071c2b3000140700038
:10326000a4e2b700d0c3b3005048e3000f003a0017
:10327000c00f200050158800212a200091407800be
:1032800030ccb30000c060004041b300a2e2b70000
:10329000412a20009140780000ccb30000c06000bb
:1032a0003041b300a4e2b7005e003700e0c3b300d2
:1032b0005048e3002c003a00212a20009140780079
:1032c00030ccb30000c060000044a000a2e2b70010
:1032d000412a20009140780000ccb30000c060007b
:1032e0007041b300a4e2b70051c8bf000080fb00ea
:1032f000100798001e009000e10f500011003200ee
:103300009e009000e18f500004003c001e019000e0
:103310000200e00008003200420037001e0090006a
:10332000e20f50000a0032009e009000e38f500030
:103330000a0032003b003700c01121005015880000
:1033400038003700c02122005015880035003700b2
:10335000c04124005015880032003700c081280089
:10336000501588002f0037000085200022c0b300d0
:10337000904f11002b003a00212a20009140780044
:1033800030ccb30000c060000044a000a2e2b7004f
:10339000412a20009140780000ccb30000c06000ba
:1033a0007041b300a4e2b70051c8bf000080fb0029
:1033b000200798002e009000e10f5000110032000d
:1033c000ae009000e18f500004003c002e01900000
:1033d0000200e00008003200120037002e009000ca
:1033e000e20f50000a003200ae009000e38f500060
:1033f0000a0032000b003700c01121005015880070
:1034000008003700c0212200501588000500370051
:10341000c04124005015880002003700c0812800f8
:103420005015880000282000000f78007069800087
:103430000000d00022852000820040001e0078009d
:10344000900878001e8fe800706980000000d000ae
:10345000a2912000820040001e00780090087800b1
:103460001e8fe800706980000000d000229e2000be
:10347000820040001e007800900878001e8fe8004f
:10348000e1d2200011007800000178000000e8007f
:103490008008780020062000800f510002003600ce
:1034a0000000eb0070698800e0c3b3005048e300ff
:1034b0001f003a00806980000000d000a2aa20000e
:1034c000820040001e007800900878001e8fe800ff
:1034d000806980000000d000e2b02000820040003f
:1034e0001e007800900878001e8fe8008069800038
:1034f0000000d00022b72000820040001e007800ab
:103500009008780001d320001100780000017800b5
:103510000000e8008008780000032000800f5100c0
:10352000810036000000eb00806988007e003700d3
:10353000f0c3b3005048e30038003a0051c8bf0060
:103540000080fb00300798003e009000e10f500023
:1035500017003200be009000e18f500004003c00d4
:103560003e0190000200e000080032006e003700cb
:103570003e009000e20f500016003200be009000a6
:10358000e38f50001c003200670037001e007800f7
:1035900010007800b05e88001e8fe8001e007800e2
:1035a00010007800f05e8800e2e2a8005e003700bc
:1035b0001e00780010007800c05e88001e8fe800b2
:1035c0001e00780010007800005f8800e302a80069
:1035d000550037001e00780010007800d05e88008b
:1035e0001e8fe8001e00780010007800105f880031
:1035f000e802a8004c0037001e0078001000780098
:10360000e05e88001e8fe8001e0078001000780041
:10361000205f8800e822a8004300370000852000d2
:1036200032c0b300904f11003f003a0051c8bf00b4
:103630000080fb00400798004e009000e10f500012
:1036400019003200ce009000e18f500004003c00d1
:103650004e0190000200e000080032003200370006
:103660004e009000e20f50001a003200ce00900091
:10367000e38f5000220032002b0037001e0078003c
:1036800010007800305f88001e8fe8001e00780070
:1036900010007800705f8800e2e2a90010c0b3005b
:1036a00051e8b700200037001e00780010007800b5
:1036b000405f88001e8fe8001e0078001000780030
:1036c000805f8800e302a90020c0b30051e8b70082
:1036d000150037001e00780010007800505f880049
:1036e0001e8fe8001e00780010007800905f8800b0
:1036f000e802a90030c0b30051e8b7000a00370063
:103700001e00780010007800605f88001e8fe800bf
:103710001e00780010007800a05f8800e822a90051
:103720000040eb0051e8b70001852000114078000f
:10373000004178000040e80080487800f0c3b30002
:10374000804f5100020036000040eb0050e8b70007
:103750000080fa004f0178004f00be0000400600d4
:103760000200fa00000f78009e007800400620005a
:103770000008b80072698000020040000000d0001c
:103780002185200001004000100078000080fa0030
:10379000000006000c00fa00000f780011079800e6
:1037a0006000b80020079800310798002000200032
:1037b0009e0f100031003e001e0090000000e0004f
:1037c0002e0032009e00900040062000808f5000a6
:1037d0002a003e000000eb0040079800716980005d
:1037e0001e009000008050005006b00042062000ed
:1037f000110009000280d8008000fd0050079800e9
:10380000ce0090001e009000808f50001b00310001
:103810009e007800400620000008b8005e0190007d
:10382000020040000000d00021852000010040007f
:10383000100078006101b9002e009000be009000d9
:10384000000041008180490020079800310798005e
:103850004e0090000000e800400798005e009000d5
:103860000000e80042062000110009000200d80014
:103870008000fd0050079800e1ff37001e00900017
:103880006101b8002e009000be0090000af707000a
:103890000080fa00000006000800fa00000f78001f
:1038a0000000eb00200798007038210030079800d6
:1038b0000000eb00100798009e00900030062000ea
:1038c000808f50002f003c009e00780040062000b2
:1038d0000008b8001e019000020040000000d00067
:1038e00022852000820040002e009000910f1000e1
:1038f0000b0034009e007800400620000008b8004d
:103900001e019000020040000000d0002185200030
:1039100001004000100078002007980015003700d3
:103920009e007800400620000008b8001e019000ac
:10393000020040000000d0002285200082004000ec
:103940003e009000910f10000a003d009e0078009c
:10395000400620000008b8001e0190000200400050
:103960000000d000218520000100400010007800f8
:10397000300798001e0090000000e8001007980033
:10398000cdff3700ae0090003e0090000080500058
:103990000080fa00000006000800fa00000f78001e
:1039a00011079800220798002e0090000000e00008
:1039b00024003200ae00900040062000808f5000ae
:1039c00020003e000000eb0030079800be00900091
:1039d0002e009000808f50001a003100ae00900041
:1039e0003e009000008050008000d0001e0090003b
:1039f000008040000082e9009e017800716980002b
:103a00003e009000008040004206200011000900a6
:103a10000280d80001017800400620000018b8009c
:103a2000000041000000d00021852000010040007e
:103a3000100a78003e0090000000e800300798006f
:103a4000e2ff37000080fa00000006000400fa00e0
:103a5000000f7800700020009e0f10000300360059
:103a60000001eb00120798000b0037001e007800e1
:103a70000000d00062bd2000820040001e007800df
:103a80000000d00062be20000200400091007800db
:103a900010805000100798001e0090000080fa006f
:103aa000000006000400fa00000f780070002000fb
:103ab0009e0f1000030036008000eb0011079800f5
:103ac000060037001e0078000000d00061bd200015
:103ad0000100400010007800100798001e009000c0
:103ae0000080fa00000006000000fa00c4c2a9002d
:103af000c4e2a900c522a900c582a900c542a90047
:103b0000c5a2a900c5c2a900c5e2a900c0c2a900fa
:103b1000c0e2a900c122a900c182a900c142a90036
:103b2000c1a2a900c1c2a900c1e2a900d022a90076
:103b3000cc22a900d042a900cc42a900e2e2a9000f
:103b4000e302a900e802a900e822a900dee2a90038
:103b5000df02a900e402a900e422a900e202a90010
:103b6000de02a900d602a900d622a900d642a900e9
:103b7000d662a900d682a900d6a2a900d6c2a90001
:103b8000d6e2a900d202a900d222a900d242a900fd
:103b9000d262a900d282a900d2a2a900d2c2a900f1
:103ba000d2e2a900d1a2a900cda2a900e842a900b1
:103bb000e862a900e442a900e462a900de22a800ac
:103bc000dec2a800e4c2a800e4e2a800e502a80062
:103bd000e522a800de22a800d302a800d322a80074
:103be000d342a800d362a800d382a800d3a2a80021
:103bf000d3c2a800d3e2a8000080fa0000000600ab
:103c00000600fa00000f78001e00780020079800d8
:103c10002e009000e30f50002b0032002e00900089
:103c2000e30f500007003e002e009000e10f50000f
:103c3000180032002e009000e10f50001b003e00e3
:103c40000d0037002e009000e50f50002c003200d0
:103c50002e009000e40f5000220036002e0090004d
:103c6000e60f50002d0032002e009000e70f5000ac
:103c70003100320036003700c4c2bf000080fb00b4
:103c80004600de000080fb00610060001007980025
:103c900031003700c4c2bf000080fb004700de00d7
:103ca0000080fb00100798002b003700c5c2bf0042
:103cb0000080fb000000d1000080fb00610060007c
:103cc0001007980024003700c5c2bf000080fb0029
:103cd0004400de000080fb006100600010079800d7
:103ce0001d003700c5c2bf000080fb004200de009f
:103cf0000080fb006100600010079800160037008c
:103d0000c5c2bf000080fb004500de000080fb0054
:103d100061006000100798000f003700c5c2bf00a7
:103d20000080fb004600de000080fb0061006000b8
:103d30001007980008003700c5c2bf000080fb00d4
:103d40004700de000080fb001007980002003700eb
:103d50000000eb00100798001e0090000080fa00a1
:103d6000000006000600fa00000f78001107980016
:103d70001e007800200798002e009000e30f5000ee
:103d8000640032002e009000e30f500007003e0058
:103d90002e009000e10f50002d0032002e00900008
:103da000e10f50003f003e000d0037002e00900054
:103db000e50f50008f0032002e009000e40f5000fd
:103dc000700036002e009000e60f5000a500320073
:103dd0002e009000e70f5000be003200d2003700e6
:103de0001e009000e10f50000f003600c4c2bf005b
:103df0000080fb004600de000080fb0061006000e8
:103e00000000a200614060004601dd00412c20005e
:103e100091407800f0cbb30000c060000240700019
:103e2000c4e2b7001c0137002e40900061406000e2
:103e30004601dd00412c200091407800f0cbb3001a
:103e400000c0600002407000c4e2b70012013700f9
:103e50001e009000e10f50000b003600c4c2bf00ee
:103e60000080fb004700de000080fb000000a20095
:103e7000c700dd00c4c2bf000074a1000140700093
:103e8000c4e2b700040137002e409000c700dd00f7
:103e9000c4c2bf000074a10001407000c4e2b700ba
:103ea000fd0037001e009000e10f50000f003600ab
:103eb000c5c2bf000080fb000000d1000080fb00f5
:103ec000610060000000a200614060000041d0007d
:103ed000512c200091407800d0cfb30000c060008a
:103ee00002407000c5e2b700eb0037002e409000a2
:103ef000614060000041d000512c200091407800ca
:103f0000d0cfb30000c0600002407000c5e2b7002f
:103f1000e10037001e009000e10f50000f00360056
:103f2000c5c2bf000080fb004400de000080fb0033
:103f3000610060000000a200614060004401dd00fb
:103f4000512c200091407800f0ceb30000c06000fa
:103f500002407000c5e2b700cf0037002e4090004d
:103f6000614060004401dd00512c20009140780048
:103f7000f0ceb30000c0600002407000c5e2b700a0
:103f8000c50037001e009000e10f50000f00360002
:103f9000c5c2bf000080fb004200de000080fb00c5
:103fa000610060000000a200614060004201dd008d
:103fb000512c200091407800b0cfb30000c06000c9
:103fc00002407000c5e2b700b30037002e409000f9
:103fd000614060004201dd00512c200091407800da
:103fe000b0cfb30000c0600002407000c5e2b7006f
:103ff000a90037001e009000e10f50000f003600ae
:10400000c5c2bf000080fb004500de000080fb0051
:10401000610060000000a200614060004501dd0019
:10402000512c200091407800f0cdb30000c060001a
:1040300002407000c5e2b700970037002e409000a4
:10404000614060004501dd00512c20009140780066
:10405000f0cdb30000c0600002407000c5e2b700c0
:104060008d0037001e009000e10f50000f00360059
:10407000c5c2bf000080fb004600de000080fb00e0
:10408000610060000000a200614060004601dd00a8
:10409000512c200091407800f0cbb30000c06000ac
:1040a00002407000c5e2b7007b0037002e40900050
:1040b000614060004601dd00512c200091407800f5
:1040c000f0cbb30000c0600002407000c5e2b70052
:1040d000710037001e009000e10f50000b00360009
:1040e000c5c2bf000080fb004700de000080fb006f
:1040f0000000a200c700dd00c5c2bf000074a1001f
:1041000001407000c5e2b700630037002e40900008
:10411000c700dd00c5c2bf000074a10001407000ef
:10412000c5e2b7005c0037002e409000c700dd00fc
:10413000c5c2bf000074a10001407000c5e2b70015
:10414000c5c2bf000080fb004700de000080fb000e
:10415000614060004601dd00512c20009140780054
:10416000f0cbb30000c0600002407000c5e2b700b1
:10417000c5c2bf000080fb004600de000080fb00df
:1041800061006000614060004501dd00512c2000ad
:1041900091407800f0cdb30000c060000240700094
:1041a000c5e2b700c5c2bf000080fb004500de00cd
:1041b0000080fb0061006000614060004201dd00a2
:1041c000512c200091407800b0cfb30000c06000b7
:1041d00002407000c5e2b700c5c2bf000080fb000e
:1041e0004200de000080fb00610060006140600072
:1041f0004401dd00512c200091407800f0ceb30046
:1042000000c0600002407000c5e2b700c5c2bf0038
:104210000080fb004400de000080fb0061006000c5
:10422000614060000041d000512c20009140780096
:10423000d0cfb30000c0600002407000c5e2b700fc
:10424000c5c2bf000080fb000000d1000080fb0061
:1042500061006000c700dd00c4c2bf000074a1009f
:1042600001407000c4e2b700c4c2bf000080fb0080
:104270004700de000080fb00614060004601dd0079
:10428000412c200091407800f0cbb30000c06000ca
:1042900002407000c4e2b7000080fa00000006008f
:1042a0000200fa00000f7800100020009e0f10009e
:1042b0000f003600d0c2bf000080fb004200de00cd
:1042c0000080fb00610060000000a200614060000f
:1042d0004201dd00012d200091407800b0cfb300f5
:1042e00000c0600002407000d0e2b7000900370053
:1042f0009e40780061c060004201dd00012d200079
:1043000091407800b0cfb30000c060000240700060
:10431000d0e2b7000080fa00000006000200fa00b8
:10432000000f7800100020009e0f10000f003600d4
:10433000d0c2bf000080fb000000d1000080fb0065
:10434000610060000000a200614060000041d000f8
:10435000012d200091407800d0cfb30000c0600054
:1043600002407000d0e2b700090037009e4078009c
:1043700061c060000041d000012d20009140780014
:10438000d0cfb30000c0600002407000d0e2b700a0
:104390000080fa00000006000000fa00c4c2a90074
:1043a000c4e2a900c522a900c582a900c542a9008e
:1043b000c5a2a900c5c2a900c5e2a9000080fa00f3
:1043c0000000060000a0fe000200fa0086c0a9005e
:1043d0007e0ce2000e003400106480002164800036
:1043e00061004000e080480010648800216488007b
:1043f000006580000000e90000658800a00ce20074
:1044000011003d0030002000006588000e003700dc
:10441000106480002164800061005000e08058003a
:104420001064880021648800006580000000e800b6
:104430000065880000658000e30f50000200340032
:104440000000eb00006588008a0ce20017003200d3
:1044500050648000e40f5000140032008264800039
:10446000936480001064800021648000800f5100fc
:10447000818f59000d003a0021e1a900d602a90060
:10448000d622a900d642a900d662a90050648000b5
:10449000e30f500003003a00400020005064880001
:1044a0000200370020002000506488000165800071
:1044b000010f78001e007800e10f50001300320059
:1044c0009e007800e18f500004003c001e00780040
:1044d0000000e000080032001a0037009e0078005b
:1044e000e28f50000e0032001e007800e30f5000f3
:1044f0001000320013003700d602a900d622a8000f
:10450000d642a900d662a8000e003700d602a90044
:10451000d622a800d642a800d662a900090037001a
:10452000d602a800d622a900d642a800d662a900c9
:1045300004003700d602a800d622a900d642a9005e
:10454000d662a8000080fa000080fe00004006004d
:1045500000a0fe000200fa0086a0a900800ce20084
:104560000e003d0030648000416480006100500016
:10457000e080580030648800416488001065800045
:104580000000e90010658800a20ce20011003d0067
:1045900030002000106588000e0037003064800075
:1045a0004164800061004000e08048003064880081
:1045b00041648800106580000000e80010658800f4
:1045c00010658000e30f5000020034000000eb0093
:1045d000106588008a0ce2001700320050648000e9
:1045e000e40f500014003200a2648000b364800025
:1045f0003064800041648000800f5100818f590039
:104600000d003a001fe1a900d602a900d622a90098
:10461000d642a900d662a90050648000e20f500083
:1046200003003a0040002000506488000200370078
:10463000300020005064880011658000010f780070
:104640001e007800e10f5000130032009e00780039
:10465000e18f500004003c001e0078000000e000e4
:10466000080032001a0037009e007800e28f5000e8
:104670000e0032001e007800e30f500010003200e0
:1046800013003700d682a900d6a2a800d6c2a9007e
:10469000d6e2a8000e003700d682a900d6a2a80054
:1046a000d6c2a800d6e2a90009003700d682a80029
:1046b000d6a2a900d6c2a800d6e2a90004003700fd
:1046c000d682a800d6a2a900d6c2a900d6e2a80028
:1046d0000080fa000080fe00004006000000fa00a2
:1046e00001fd07000080fa00000006000400fa0047
:1046f000000f78001e00e00006003a0021e1a9004a
:10470000d602a900d622a900d642a900d662a900e5
:104710002000370021e1a9001e007800f063880026
:104720000000eb0000098800011220009140780091
:1047300000c3b30000c0700020e1b7000000eb0030
:10474000c00888001e017800120798001e00900023
:104750000000e00003003d001e0190000201ea009d
:10476000120798001e0190006110b90061f3070064
:104770000001be00000020001176240093f4070021
:10478000d4f40700e008880086c0a9008ec0a80005
:1047900021e1a8000080fa00000006000400fa00f1
:1047a000000f78001e00e00006003a001fe1a9009b
:1047b000d682a900d6a2a900d6c2a900d6e2a90035
:1047c000200037001fe1a9001e0078000064880067
:1047d0000000eb00f0088800e11120009140780013
:1047e00000c3b30000c070001ee1b7000000eb0082
:1047f000a00888001e017800120798001e00900093
:104800000000e00003003d001e0190000201ea00ec
:10481000120798001e0190006110b90035f30700df
:104820000001be00000020001176240067f407009c
:10483000a8f40700d008880086a0a9008ea0a800d0
:104840001fe1a8000080fa00000006000000fa0046
:1048500010648000216480000080fa0000000600df
:104860000400fa00008fbe001027fc001e00be00ee
:1048700010648800216488000200fc000080fa00b7
:10488000000006000000fa003064800041648000ef
:104890000080fa00000006000400fa00008fbe004d
:1048a0001027fc001e00be003064880041648800b0
:1048b0000200fc000080fa00000006000000fa0080
:1048c000506480000080fa00000006000a00fa0030
:1048d000008fbe00220798001027fc006000b8007f
:1048e00010648800216488006000b800306488008b
:1048f0004164880010002000506488001e00be0043
:10490000b21521000202b8000001eb000283b900d9
:104910000501780006014100b31521000388b900a4
:104920000001410082027800823e20000300200046
:104930000400be00e0f207008064880091648800f3
:104940001e00be00b21521000202b8000001eb00fb
:104950000283b9000501780006014100b31521006a
:104960000388b9000001410082027800823e2000e5
:10497000030020000400be00cff20700a0648800fe
:10498000b16488001e00be00e00f5000e08f5800a8
:104990000b003d002e00900030079800be009000f4
:1049a0000100e00003003d003e0090000000ea002e
:1049b00030079800be0090000100ea002007980030
:1049c0001e00be00e00f5000e08f58000a003400c7
:1049d0002e00900040079800ce0090000100e000fb
:1049e00003003d004e0090000000ea0040079800e0
:1049f000ce009000210798001e00be00e00f50007e
:104a0000e08f580004003a00400020005064880005
:104a10000000eb00200798002e00900033ff0700f5
:104a20002e0090005dff07000200fc000080fa00ed
:104a3000000006000c00fa00008fbe00220798005c
:104a40001027fc006000b800106488002164880012
:104a50006000b800306488004164880010002000c5
:104a6000506488001e00be0001f0a10052a32f0078
:104a7000e3c823001cf30700f2282c0053d72300bf
:104a800019f307000200200003002400cff3070001
:104a9000300798004107980002802d00a358240099
:104aa0003e009000ce0090000ff30700a2f3070035
:104ab00060648800716488002e00900050079800a0
:104ac000de0090000100e00003003d005e00900069
:104ad0000000ea0050079800de00900021079800cf
:104ae0006011b8001e00be0091f307000000e00056
:104af0000f003d0060648000716480008064880065
:104b0000916488006064800071648000600010001f
:104b1000e0801800a0648800b16488002e00900036
:104b2000f2fe07002e0090000000ea001bff0700c5
:104b30006011b8001e00be00a0f307000000e000f6
:104b40000f00340060648000716480006000100019
:104b5000e0801800806488009164880060648000b0
:104b600071648000a0648800b16488002e00900009
:104b70000000ea00ddfe07002e00900007ff07009e
:104b80006011b8001e00be0069f307000000e000dd
:104b900006003a0040002000506488000000eb004e
:104ba000d2fe07000000eb00fcfe07000200fc0044
:104bb0000080fa00000006001400fa00889fbe0082
:104bc0006000b800008fbe006000b80020079800a9
:104bd000310798006000b80040079800510798001e
:104be0006000b800600798007107980010648000aa
:104bf000216480003ff207000004be00c064800012
:104c0000d16480003bf207000001be000800be0036
:104c1000e9f207003299270063e62300b2f20700a9
:104c2000008fbe00306480004164800031f20700d4
:104c30000004be00e0648000f16480002df20700f3
:104c40000001be000800be00dbf207003299270019
:104c500063e62300a4f207002007980031079800bc
:104c60002e019000be0190001e00be00d3f207008e
:104c7000020020000300240054f3070040079800be
:104c8000510798001e01be002e009000be0090004b
:104c9000c9f2070002002000032724004bf307009d
:104ca0006007980071079800c1ed0700820c200092
:104cb000110009000200d8008000fd00cf80de0056
:104cc0000cf20700000f9800110f9800020020005e
:104cd000832c24000e0890009e089000b6f2070076
:104ce000000f9800110f98006011b8004e0090005e
:104cf000de0090007cf207000e0990009e099000f3
:104d000079f207000001be004e009000de00900026
:104d1000aaf2070040079800510798006011b800f8
:104d20004e009000de0090006ff207000001be0010
:104d30004e009000de009000a0f2070040079800af
:104d4000510798006011b8006e009000fe009000be
:104d500065f207000001be006e009000fe009000aa
:104d600096f2070060079800710798000200200083
:104d7000030024006e009000fe00900013f3070073
:104d8000c2688000d36880008cf207006cf30700d3
:104d90004e019000de01900053f207000001be00ba
:104da000806880009168800084f207008068880035
:104db0009168880002002000030024006e0090002b
:104dc000fe00900001f30700c2688000d3688000f5
:104dd0007af207005cf307004e019000de019000bc
:104de00041f207000001be00a0688000b1688000a9
:104df00072f20700a0688800b16888006e01900018
:104e0000fe019000c0688000d16880006bf207004e
:104e1000c0688800d1688800c0688000d1688000c0
:104e200001f0a100b2fd2000930c2400e3f2070082
:104e30000000e000180034006011b800c068800075
:104e4000d1688000ddf207000000e00009003400b6
:104e5000c0688000d168800001f0a100b2fd200090
:104e6000930c24003af30700c0688800d1688800da
:104e700009003700c0688000d168800001f0a100ff
:104e8000b2fd2000930c240031f3070001f0a200d2
:104e9000c0688800d1688800c0688000d168800040
:104ea00001f0a100b2fd200093042400c3f207002a
:104eb0000000e000150034006011b800c0688000f8
:104ec000d1688000bdf207000000e0000800340057
:104ed000b2fd2000930c2400c0688000d1688000df
:104ee00035f20700c0688800d168880007003700e5
:104ef000b2fd2000930c2400c0688000d1688000bf
:104f00002ef20700c0688800d16888001064800015
:104f100021648000c0648800d1648800306480000f
:104f200041648000e0648800f16488004f04be00a2
:104f30000080fa00000006000c00fa00008fbe009e
:104f400022079800330798004407980055079800f7
:104f50001e00be0080688800916888002e009000c6
:104f6000be009000a0688800b16888004e009000e4
:104f7000de00900022000700c0688800d168880029
:104f80001064800021648000c0648800d1648800bf
:104f90003064800041648000e0648800f16488002f
:104fa0000000eb00d8ec070058ed07000080fa0085
:104fb000000006000600fa00000f780011079800b4
:104fc000220798001e0078008268800093688000a5
:104fd0000288be001e009000a2688000b3688000b6
:104fe0000288be00c0688000d16880003d000700d4
:104ff0002e0190000089be000080fa00000006002b
:105000000800fa00008fbe00020020007338240060
:105010001e00be0069f207000000e00006003c0030
:1050200002002000432b24001e00be0040f20700b7
:105030000000e0001d003d0002002000432b240082
:105040001e00be003af207000000e0000a003d002a
:105050001e01be0000002000412b2400d6f10700f5
:1050600052a32f00e3c823009ff1070020079800f8
:1050700031079800170037001e01be000000200015
:10508000413b2400ccf1070052a32f00e3c82300ca
:1050900095f1070002002000432b2400c7f1070010
:1050a00020079800310798000a003700020020000e
:1050b000432b24001e00be00bff1070001f0a20038
:1050c00052a32f00e3c8230087f1070020079800b0
:1050d000310798002e009000be0090000080fa007a
:1050e000000006000800fa00008fbe006011b80042
:1050f0001e00be0031f207000000e0001f00340077
:10510000b2fd200093fc23001e00be0008f2070041
:105110000000e0000b003d0002ee220053262400b8
:105120001e00be0070f107000001be00000020005c
:10513000412b2400a0f107002007980031079800b8
:105140001800370002ee2200532624001e00be0085
:1051500065f1070002002000432b240096f10700b0
:105160000001be0000002000413b240092f1070036
:1051700020079800310798000a00370002ee22004d
:10518000532624001e00be0057f107000001be0098
:1051900000002000412b240087f107002007980021
:1051a000310798002e009000be0090000080fa00a9
:1051b000000006000c22ef000e22ef000ee2a90014
:1051c0000ec2a9008520a9008d20a8000de2a8002c
:1051d00070002000a01088008540a9008d40a80024
:1051e00081e0a900c0048000f1002f000080600071
:1051f0000155200000804000c00488000fe2a80094
:105200000f42a80000000600809fbe008520a90074
:105210000000eb0012c2bf0041d42000804878009b
:1052200010002000306a88004f00be0000400600d9
:10523000460de200090032008d20a9008000eb003d
:10524000316a880042d420009240780001487800fa
:10525000100020008d20a800000006000000eb00d8
:10526000000006008540a900809fbe00821f7800d4
:10527000420de200150032003e0de2001600320041
:10528000400de20014003200f1698000420020006d
:105290000f22af00feff3700006a80000000e00030
:1052a000070032000000e90040adb700314078004f
:1052b00010e2b7000201e900f5ff3a0002003700f2
:1052c0003e2def0001003700f16988004f017800a2
:1052d0004f00be000040060000002000106a880059
:1052e0004f0178004f00be0000400600420de20072
:1052f000feff3a008d40a9008100e900016a8800a4
:10530000b040780081108800f0698800110020000a
:10531000116a88008d40a80000000600106a800015
:10532000000006000000fa002e0107000080fa00cd
:10533000000006000000fa006b0107000080fa0080
:10534000000006000000fa006d0107000080fa006e
:10535000000006000400fa00004f78001147980092
:105360000040eb00204798002e4090000004e00031
:105370002b003a0010c0b3002047980066010700d8
:10538000804078002e409000014060002047980047
:105390001e407800a4020700804078002e40900054
:1053a00001406000204798001e4090009e020700c8
:1053b000804078002e409000014060002047980017
:1053c00079010700804078002e4090000140600085
:1053d000204798001e40e8009302070080407800b4
:1053e0002e40900001406000204798006300470075
:1053f00029020700804078002e40900001406000a4
:1054000020479800e50107008b0107002e4090001f
:105410000004e00002003a000f010700d2ff37004d
:105420003e4090000000fb000080fa0000000600f3
:105430000800fa00004f78001107980042479800d2
:10544000534798000040eb00604798000040eb0095
:10545000704798006e4090000004e00047003a005a
:1054600010c0b300604798002b010700804078000f
:105470006e40900001406000604798001e40780038
:1054800069020700804078006e4090000140600093
:10549000604798004e40900063020700804078000b
:1054a0006e40900001406000604798003e01070098
:1054b000804078006e409000014060006047980096
:1054c0001e40e80058020700804078006e409000bf
:1054d00001406000604798000040eb007047980072
:1054e000fe4090005e40900080cf50001d003d00c7
:1054f0007e4090008000fb001e0090000080400075
:10550000e5010700804078006e4090000140600097
:10551000604798007e4090008000fb005e40900055
:105520000000fb000000e900808f500005003a00f9
:105530009a010700ee40900000c0600060479800ac
:105540000400370056010700ee40900000c06000e4
:10555000604798007e4090000040e8007047980047
:10556000dfff3700340107006e409000e14f50002c
:1055700002003200b8000700b6ff37006e4090000e
:105580000000fb000080fa00000006000400fa00a2
:10559000004f780011479800224798000040eb0028
:1055a000304798003e4090000004e00023003a009d
:1055b00010c0b30030479800d70007008040780043
:1055c0003e40900001406000304798001e40780047
:1055d00015020700804078003e40900001406000c6
:1055e000304798001e4090000f020700804078006e
:1055f0003e40900001406000304798002e409000ef
:1056000009020700804078003e40900001406000a1
:105610003047980008010700804078003e40900025
:1056200001406000304798003e4090000004e000d8
:1056300002003a0088000700daff37003e40900081
:105640000000fb000080fa00000006000a00fa00db
:10565000004f780011079800424798005347980080
:105660000040eb00604798000000eb004007980006
:105670006e4090000004e00031003a0010c0b3001a
:1056800060479800a4000700804078006e409000ba
:1056900001406000604798001e407800e20107006a
:1056a000804078006e4090000140600060479800a4
:1056b0004e409000dc010700804078006e40900072
:1056c00001406000604798000000eb004007980030
:1056d0005e4090008000fb004e009000810f500063
:1056e0000d003d009e0090004e00900000804000a4
:1056f00010407800cc010700804078006e40900098
:1057000001406000604798004e0090000000e800f3
:1057100040079800eeff3700c70007008040780080
:105720006e40900001406000604798006e4090001d
:10573000e14f50000200320047000700ccff370065
:105740006e4090000000fb000080fa0000000600a0
:105750000000fa000000000006c2bf000080fb004d
:10576000610060000000e000fbff3a0006c2bf00dd
:105770000080fb004200de000080fb006100600052
:105780000000e000f4ff3a0006c2bf000080fb000a
:105790004300de000080fb00610060000000e000cc
:1057a000edff3a0006c2bf000080fb004400de00af
:1057b0000080fb00610060000000e000e6ff3a00ae
:1057c00009c2bf000080fb004600de000080fb0035
:1057d000610060000000e000dfff3a000080fa0096
:1057e000000006000400fa00600920002010880074
:1057f00007e2a90007e2a80085c0a90085a0a900ca
:10580000b10920009140780080cfb30000c0600053
:105810005040b3009be0b7008da0a90000712200aa
:1058200001002000008fbe001e00be00e00f5000ef
:10583000e08f5800050032000080eb008080eb0014
:105840001e0f40005e974800f7ff37001000200051
:105850000080fa00000006000400fa006000b800b2
:10586000008fbe0007e2a90085c0a90085a0a9009d
:105870008da0a9000071220001002000008fbe0051
:105880001e00be00e00f5000e08f580005003200ff
:105890000080eb008080eb001e0f40005e97480008
:1058a000f7ff3700cfff07000f000700007122004d
:1058b00001002000008fbe001e00be00e00f50005f
:1058c000e08f5800050032000080eb008080eb0084
:1058d0001e0f40005e974800f7ff370010002000c1
:1058e0000080fa00000006000000fa0085c0a90050
:1058f0008dc0a800100020000080fa000000060003
:105900000000fa0085c0a9008dc0a9001000200089
:105910000080fa00000006000600fa0010c0b30084
:1059200026edb70008c2bf000080fb004400de0087
:105930000080fb00610060000000e0001500320004
:105940000602a8000071220001002000008fbe00a6
:105950001e00be00e00f5000e08f58000a00320029
:10596000264de20003003a001000200020079800b6
:105970000a0037000080eb008080eb001e0f400023
:105980005e974800f2ff37008000eb002107980087
:10599000020037000000eb00200798002e00900066
:1059a0000080fa00000006000600fa0060c0b300a4
:1059b00026edb70008c2bf000080fb004300de00f8
:1059c0000080fb00610060000000e0001500320074
:1059d0000622a8000071220001002000008fbe00f6
:1059e0001e00be00e00f5000e08f58000a00320099
:1059f000264de20003003a00100020002007980026
:105a00000a0037000080eb008080eb001e0f400092
:105a10005e974800f2ff37008000eb0021079800f6
:105a2000020037000000eb00200798002e009000d5
:105a30000080fa00000006000600fa0050c0b30023
:105a400026edb7000642a8000071220001002000e8
:105a5000008fbe001e00be00e00f5000e08f580017
:105a60000a003200264de20003003a001000200038
:105a700020079800070037000080eb008080eb00d3
:105a80001e0f40005e974800f2ff37008000eb00d9
:105a9000210798002e0090000080fa000000060008
:105aa0000600fa0030c0b30026edb70006c2bf0002
:105ab0000080fb00610060000000e0001c003a0074
:105ac00006c2bf000080fb004200de000080fb0039
:105ad000610060000000e00015003a0006c2bf004f
:105ae0000080fb004300de000080fb0061006000de
:105af0000000e0000e003a0006c2bf000080fb007c
:105b00004400de000080fb00610060000000e00057
:105b100007003a0006c2bf000080fb000000d10071
:105b20000080fb00610060000000e0000300320024
:105b30000000eb00200798001500370006a2a9001e
:105b40000682a8000071220001002000008fbe0024
:105b50001e00be00e00f5000e08f58000a00320027
:105b6000264de20003003a001100200021079800b2
:105b7000070037000080eb008080eb001e0f400024
:105b80005e974800f2ff37008000eb002107980085
:105b90002e0090000080fa00000006000600fa00c7
:105ba00030c0b30026edb70006c2bf000080fb0086
:105bb000610060000000e0001c003a0006c2bf0067
:105bc0000080fb004200de000080fb0061006000fe
:105bd0000000e00015003a0006c2bf000080fb0094
:105be0004300de000080fb00610060000000e00078
:105bf0000e003a0006c2bf000080fb004400de0039
:105c00000080fb00610060000000e00007003a0037
:105c100006c2bf000080fb000000d1000080fb0036
:105c2000610060000000e000030032000000eb00b3
:105c3000200798001500370006a2a8000682a800d9
:105c40000071220001002000008fbe001e00be0077
:105c5000e00f5000e08f58000a003200264de200ad
:105c600003003a00110020002107980007003700c8
:105c70000080eb008080eb001e0f40005e97480024
:105c8000f2ff37008000eb00210798002e00900003
:105c90000080fa00000006000c00fa00000f7800f7
:105ca00000712200010020001007980021079800d1
:105cb0000040eb006047980040c0b30026edb700fd
:105cc00000712200010020001007980021079800b1
