:020000040000fa
:08000000903204000000000032
:020000040000fa
:10020000000178001001e200030035001061a80031
:10021000000028001021b70030088000410880004d
:100220000200e000010032000089be00000006006c
:10023000800178000200e00003003200b15978002c
:100240000201e900fdff3a0000000600889fbe00a1
:100250008a1f7800704980000000e0000100320031
:1002600000000100a04980000000e0000100320011
:1002700000000100a04280000000e0000100320008
:1002800000000100b04280000000e00001003200e8
:10029000000001002c49e20028003a000005eb00b4
:1002a000d26026009301200080498000914980009f
:1002b00097030700f2352f00e3c62300000041003a
:1002c0008180490080498800914988000a05e8003a
:1002d000e70f5500f2ff34000005eb006454b8004e
:1002e0008085200000044400d26026009301200095
:1002f000804980009149800085030700f2352f0076
:10030000e3c6230000004100818049008049880045
:1003100091498800008cbe000a05e800ff0f5500d7
:10032000eeff3400a4468000b54680008442880079
:100330009542880010c0b3002ce9b700d2602600b7
:1003400093012000804980009149800070030700dc
:10035000f2352f00e3c623000000410081804900f0
:100360008049880091498800824280007f056100b1
:100370006451b80085852000050141001202be00cd
:1003800084428800954288000089be008042800037
:10039000914280000100780000f0a1004f05780034
:1003a0004f04be0000000600881f7800000478009b
:1003b000704980000000e0000100320000000100f0
:1003c0002c69ef00a04980000000e000010032002d
:1003d000000001006140b800804988009149880010
:1003e0004f04780000000600800078001004e00050
:1003f000020032005104e000feff3a00008050008d
:100400000000060003f0a200889fbe008a9fbe0085
:100410008c1f78001a020700210233006450e100ab
:100420004f0032006420e1005200320003826c0071
:1004300007003b000905d0000306d000820f5400de
:100440000c065d00020039000200320089017800cc
:10045000030678008582550004003d000003fd007e
:100460008103fd008502ea008b854200840f720043
:1004700002003b0060001000e08018006011b8002e
:100480000005eb007a28e1000a0039000600780038
:10049000c75ddd00f707b200878075002d003700cb
:1004a000828171000a017800610560008180d100bd
:1004b0000080d3008502e900f9ff3b0006044000fc
:1004c0008784480002003b0060041400e0841c00a4
:1004d0000988a300070032008a81710082817100bf
:1004e000610164008904d1000884d3008b05e80011
:1004f000170037000978a30013003a000b00e00052
:10050000130034008b05e9000804440089844c0082
:100510000a4474000978a3000d003a000b00e000c3
:10052000070034008b05e9000804440089844c006e
:1005300001003a000b0020000978a300f7ff320009
:100540000001eb0002003700828171000a0178008f
:10055000900107000cf0a70001f0a000d9013700be
:100560006420e10002003a00838f6c00d90133005f
:100570000801be000200be00d2013700889fbe0005
:100580008a9fbe008c1f7800bd010700c4013300a4
:1005900003866c006450e100240032006420e10016
:1005a000270032006150e100220032006120e100aa
:1005b000210032008b854200eb07b1000134b80006
:1005c000003ab8000804420089844a00013ab800a1
:1005d0000030b8008880400009014a000400330060
:1005e0000000400081804800020149008b05e900bd
:1005f000c909dd00830170000100320013002000f2
:10060000c814de004814dd004709de001200b20005
:10061000c808de00088470005e01070001f0a10038
:100620000cf0a70001f0a000a60137006120e10056
:10063000a80132000801be000200be00f7ff37002b
:100640006150e100fcff3a00a2013700889fbe0024
:100650008a9fbe008c1f780089010700900133003b
:1006600003866c006450e1002e0032006420e1003b
:10067000330032006150e1002f0032006120e100c0
:100680003100320085855500eb07b00009002000dd
:1006900008042000050037000804440089844c0049
:1006a0000a0031000603430087834b00000153001a
:1006b00081815b00f8ff33000203be000800a00048
:1006c0000804440089844c00f6ff3900c639dd0077
:1006d0008301730001003200130020008904d1005f
:1006e0000884d3000998a300050032000800a70081
:1006f0000300a0008904d1000884d3008b05e80022
:100700008904d1000884d3000001eb000281d200eb
:100710002001070001f0a1000cf0a70001f0a000eb
:10072000680137006420e1006a0132000801be0060
:100730000200be00f7ff37006120e10065013200d2
:100740006000b800f3ff37000000200001f8270028
:10075000f0ff37000400200000003700889fbe0033
:100760008a9fbe008c1f78004f26dd0044010700e1
:100770004b0133006120e100430032006250e10090
:1007800041003e003e0039006420e1003c003200a0
:10079000058255000f003b000402e80038003a00d3
:1007a000800f5300818f5b00350034000800be00cd
:1007b00003f0a10001f0a60003f0a0000cf0a700d8
:1007c00011ff07003f0137000603430087834b00fa
:1007d0000c4646000005530081855b000200330093
:1007e0000a03be000c00a0000402e900f6ff3b0073
:1007f000850578000602430087824b0004003a001a
:100800006000b80009f0a70001f0a0002d0137003a
:100810000002520081825a000704e0000400330005
:100820000603430087834b008b05e900faff37007e
:10083000090578000604be000203be006011b8007e
:10084000d4000700e00f5200e08f5a000700350087
:1008500002003c000c08a300040032000601be00a8
:1008600003f0a0000cf0a700e7fe07000a8568006f
:1008700001f0a1000af0a70001f0a000110137006b
:100880000800be000f013700100220000cf0a60087
:10089000c04a88000f013700889fbe008a9fbe00b3
:1008a0008c1f78000004be00e00007000478a3005d
:1008b00026003a006120e1002500320009f8a3007b
:1008c00025003a006420e10021003200f507b10064
:1008d0000508a300020032000000400081804800ab
:1008e0006044b80003102000020020000000400017
:1008f000818048000805440089854c000a054100b4
:100900008b8549000a0550008b8558000300330091
:100910000a00be0002047400838474008301d100c5
:100920000281d300830f7100f0ff3a008904d100e7
:100930000884d3006001490082017800c1adde0067
:10094000fb07b00093000700de0037000960a0003d
:100950000800be00db00370012022000c24a8800f7
:10096000f0ff2f00f1ff2700d60037000001eb0059
:10097000020037000081eb0000003700889fbe00b6
:100980008a9fbe008c9fbe00820578000004be00d6
:10099000a60007000800be006420e100070039003f
:1009a00002003a00f1ff2700f0ff2f000160a000d5
:1009b00012022000c24a8800550037006120e10081
:1009c00003003a000b00a70001f823005000370095
:1009d00001f0a1000200210093642400c20007007e
:1009e0000800be0004003500b2fd2000930c240076
:1009f00058ff07000004be000005eb000b00a60036
:100a00004f0dde0001f0a1000004be0032982f005f
:100a100023ea2300d9fe07000001eb0003f02300c6
:100a20000b00a70003f8230077fe0700dd00070096
:100a30000000a7000a00a200af0007000b00e000c2
:100a4000030032000200200003f023006dfe0700c7
:100a500001f0a2000006be00020020009304240062
:100a6000c6fe07000801be0067fe0700809fbe00ab
:100a70000c00be0022a22a00d3a72300bffe07005d
:100a80004f01be0060fe07000004be0001f0a1009f
:100a90000200200003982300930007000800be0016
:100aa000190035000001be00b4fe07000006be00bc
:100ab000b2c52900e3622300b0fe070022222b000a
:100ac000f3942b0050fe07000c01be00abfe0700a4
:100ad000e273280083c023004bfe07000c01be0018
:100ae000a6fe070042aa2a00a3e22b0046fe07004a
:100af0000c01be00a1fe07000801be009ffe07001a
:100b00000801be0040fe07000a00a70001f0a20095
:100b10004f06be004f05be004f04be000000060099
:100b2000889fbe008a9fbe008c1f7800540007007b
:100b30001002200002003b00c04a88005800370025
:100b40008a0062006408e10002003a00c04a88009e
:100b5000600037006108e100fcff32000800be00c1
:100b600003047800b9fe070001f0a100e8000700c7
:100b700008f0a600040037000001be009104240024
:100b8000b0fd20001ffe070009f0a70001f0a20041
:100b90004c00370081002000618055000b003d00b3
:100ba0000b00200061fe2f000100e1001d00340059
:100bb00082817100610164008904d1000884d3003e
:100bc0000000e800faff3a007100200061006400b4
:100bd000030070000200600009003200610444005c
:100be000e0844c000988a500050032008b05e80070
:100bf0006808e10002003a008904d1000884d300ab
:100c0000f20f20000258e10005003d00c75ddd0045
:100c1000f907b2008980750008007800000006001e
:100c20000bf827008b00780000000500c70ade00e3
:100c3000f107b200f50fb20008003200e1cf420028
:100c4000020032000170a00024000500810f700036
:100c5000010032000408050044000500810f700007
:100c600002003a00140005008502e900000040007f
:100c700081c04800fcff3b000170a000240005007b
:100c80000004be00e9ff07000003be000405be002b
:100c90000200be00e5ff0700844f7500000006005b
:100ca0000200be006450e100050036006420e1004f
:100cb000020036000968a30001003a000800be00e7
:100cc0000160a0004f0678004f05be004f04be0033
:100cd00000000600f0ff2f00f1ff2700f9ff3700aa
:100ce00004002000ef00370014002000ed00370062
:100cf000f4ff2f00eb003700889fbe008a9fbe00e4
:100d0000010578000100e0000400350008003c0007
:100d10000000e000200032000500370060001000f5
:100d2000e080180002003b0001f02c001a003700a0
:100d30000004be006011b8006b0920000982cf00da
:100d4000020039000882cf000441b000694252001d
:100d50000e00320008003b008281710061016400d6
:100d60008904d1000884d3008b05e8000442e80020
:100d7000f9ff3a00050037000804440089844c005c
:100d80008b05e9000442e900fbff3a0081ff070000
:100d90000af0a70001f0a0004f05be004f04be00fe
:100da000000006000001be00a0ff07000470a700bd
:100db00003f0a1006509b100160032000d003500f6
:100dc0006828e10006003500f0ff2f00f1ff270042
:100dd0000300e00013003b000100280000000500b4
:100de00000004000818048008502e900fcff3a00d5
:100df00008003700f88f420002003c008000eb0042
:100e0000000005008100d1000080d3008502e800c9
:100e1000fcff3a000300e00002003b00600010000d
:100e2000e0801800000006000001be007fff070000
:100e30000470a70003f0a10003f8a30013003a0018
:100e40006509b10010003200090035006928e10091
:100e500002003500010028000000050000004000ed
:100e6000818048008502e900fcff3a00000006008e
:100e7000f88f4200050035008100d1000080d300ca
:100e80008502e800fcff3a00000006008000eb004d
:100e900000000500839f68000100e00002003d00a3
:100ea00060001000e08018000300e00002003d0038
:100eb00060011100e0811900050007004f00e0000b
:100ec00002003b0060001000e080180000000600f7
:100ed0006022b800060220000000d0008180d2000d
:100ee0000482d2008582d2000000a00002025200db
:100ef00083825a0003003b000202420083824a00c0
:100f00000000a1000603e900f3ff3a00000006001c
:100f1000889fbe008a9fbe008c9fbe000004be005a
:100f200042ff07000800be00890678006420e10047
:100f300008003900040032000160a0001202200005
:100f4000c24a88005300370091fc2300b0fd200006
:100f50004e0037000006eb0009f0a10003f8230063
:100f6000020020000800be005fff070006003400fa
:100f700001f82300000020000801be00b3fd0700b7
:100f80000004be002c0020000800be0093e82300ef
:100f9000320a230054ff0700120034000801be008b
:100fa000d1fd2300703d2b0017fd07000005be009a
:100fb000b3f32300f27a26000800be006ffd07009d
:100fc00003f82300020020000efd07000801be0008
:100fd0000dfd07000a01be009cfd07000004be00d5
:100fe0000c06e8000800be0001f0a100020020008d
:100ff000039823003cff07000800be0016003500e0
:101000000801be005dfd07000005be0032cd2c00ca
:1010100043fb2300fcfc0700809fbe0012692800f0
:1010200003d52b000a00be0054fd0700620f21000b
:1010300013ef2b00f4fc07000a01be004ffd070070
:101040004f01be0081fd07000801be004bfd0700f7
:101050000801be00ecfc07000c00e0000b003200b1
:101060000c10a70001f0a200b2fd200093fc2300a9
:101070006260e1000400320022a9200063f0230036
:101080000c10a70063f82300dffc07000df0a70099
:1010900001f0a2004f06be004f05be004f04be0087
:1010a00000000600889fbe008a9fbe00841f780053
:1010b000f3fe07004f00780011003300f0ff2f000f
:1010c000838f6c0006003b00040565000a00a70042
:1010d0000800370009f0a6001000200008003700c3
:1010e000820f5400838f5c00030039001000200041
:1010f00001003e000000200009f0a7000000ea0007
:101100004f05be004f04be000000e00000000600d6
:10111000020ab900001bb9000200b80081004200b9
:101120008100430000000600000005003200f800c6
:10113000910188000008bb00410424006210e10016
:1011400004003200000220000010e1000a003a0012
:1011500051042400013b88000500fc0051052000db
:10116000313b8800a10a2000313b880061e7a800dc
:1011700000000000000000003200f900000006003e
:101180003200f80060042400003b8800f2ff3700c2
:101190003200f8009101880041002400013b8800e2
:1011a0000208bb00ecff37003200f8009101880014
:1011b00051002400013b8800030120003218bb00cd
:1011c0008301e900fdff3a00e3ff37003200f80039
:1011d0009101880080027800620040003549ba0021
:1011e000e08048003204e0000410a7001000320044
:1011f0008301e9000e0032002549ba003204e00004
:101200000410a7000a0032008301e9000800320040
:101210000408a300eeff320015c9ba003204e00052
:101220000410a700020032008301e900e8ff3a0041
:101230003200f900000006000800fa00881f78005c
:1012400000047800010f7800120798002307980027
:10125000340798002e009000800078001e00900057
:101260008002eb003e0290009e01780001017800b0
:101270008000780008007800d4ff0700080078009c
:101280004f0478000080fa00000006000600fa0013
:10129000008fbe00220798001e009000800078009a
:1012a0001e0078002e019000a0ff07000080fa00c9
:1012b000000006000600fa00008fbe00220798001a
:1012c0001e009000800078001e0078002e01900023
:1012d000b5ff07000080fa00000006000400fa00d5
:1012e000008fbe00040037000081eb008081eb001e
:1012f0001e0f41005e9749001e00be00e00f500027
:10130000e08f5800f8ff3a000080fa000000060065
:101310000200fa00000f78000421ef00210880008d
:101320000003200001007000200888000021ef0069
:101330001e007800cf80de006ffe07006266260088
:10134000636624008dfc070002002000033824009f
:10135000befc0700b4fe07000000780010088800fb
:101360008460a9008c60a80005e1a8000080fa0054
:10137000000006000000fa008000eb008000200062
:101380006305070010498000e10f500004003a0097
:1013900011002000200020005d0507000600370036
:1013a000104980000000e00003003a001100200016
:1013b00060002000560507000080fa0000000600cb
:1013c0000600fa000040eb00004f78000040eb0000
:1013d000104798001049800000407800204798008e
:1013e0000040eb00304798005049800000407800f2
:1013f000404798000040eb005047980063002000f1
:101400000e0178008080eb000040eb00530d0700d8
:101410000080fa00000006000c00fa00e40047001b
:1014200066004700800d07000000e0001a0032004f
:101430002e4890000080fb00000f78006e40900066
:101440000080fb001007980051498000f00f200039
:10145000008060009e0f50000f0032000e48900088
:101460000004e00004003a00204980000000e80089
:1014700020498800060037000e489000e14f5000d8
:1014800003003a00304980000000e800304988003d
:10149000100020005b0607000080fa000000060034
:1014a0001a00fa00800c2000000f7800800c200049
:1014b000100798000000eb0030079800110037007b
:1014c0003e0090006a040700800078003e00900013
:1014d00000014000e0e12000000041001000780021
:1014e000808050003e009000000040000000470057
:1014f0006a004000010878003e0090000000e8000b
:10150000300798003e009000e70f5000ecff3400d9
:101510000000eb00200798000000eb003007980067
:10152000430037003e0090000000400000004700ec
:10153000500090004480de00400798001049800071
:10154000e10f500016003a003e009000800040007d
:10155000e0e0200000804000900078004e00900005
:101560000088b900000078001e0f40003e00900087
:1015700080004000e0e02000008040001000780083
:101580008000ea004e0090000088b900000078005a
:101590009e00900000804000100798001500370062
:1015a0003e00900080004000e0df2000008040000e
:1015b000900078004e0090000088b900000078008c
:1015c0001e0f40003e00900080004000e0df200041
:1015d00000804000100078008000ea004e0090007b
:1015e0000088b900000078009e0090000080400054
:1015f000100798003e0090000000400000004700e7
:10160000d00090002e009000808f50000500340024
:101610003e0090000000400000004700d000900015
:10162000210798003e0090000000e8003007980075
:101630003e009000e70f5000baff340010498000d0
:10164000e10f50000a003a00fe00900060092000ff
:10165000808f500006003400e11520001e8f4000ee
:101660001e009000e015b100100798002d00370013
:1016700010498000e10f500009003a00ae009000d0
:10168000c0122000808f50000500340080da2f0047
:10169000000f7800802520001007980021003700f7
:1016a000104980000000e0000a003a00ae089000f7
:1016b00060092000808f50000600340021ea2f00ce
:1016c0001e8f40001e009000e015b000100798002b
:1016d00014003700104980000000e00009003a00c3
:1016e000ae009000c0122000808f50000500340032
:1016f00080252000000f780080da2f001007980066
:1017000008003700ae009000c0122000808f50000b
:1017100004003c00800c2000000f7800800c2000aa
:1017200010079800803e20009e007800808f5000b7
:1017300002003400803e2000000f78009e009000e0
:10174000803e2000808f500002003400803e200048
:101750001007980080c12f009e007800808f5000f5
:1017600002003d0080c12f00000f78009e00900015
:1017700080c12f00808f500002003d0080c12f00eb
:10178000100798001e007800e90507001e00900071
:101790000c0607000080fa00000006005000fa0066
:1017a000881f7800d4030700b7080700dc0507008e
:1017b000a70207008e0f0700730020001200200010
:1017c0008000eb000000eb00670b07000040eb001f
:1017d000100c070060c0b3009c0b0700460c07000c
:1017e0005049880038000700003a8000610060001e
:1017f0000000e000020032004007a9000000fe00e7
:10180000f201200081b42a000e00780088fa070057
:101810000e007800f4fa0700800078000e007800cf
:10182000e70807000000eb009103070000047800c0
:10183000200020008e030700000444004000200028
:101840008b030700000444006000200088030700a9
:1018500000004400d4fa07007cfa07006100600031
:10186000004078000004e000020032000000eb00bd
:10187000010037001000200010498800bdfe07005d
:10188000803e2000a2fe07002829ef002429ef0057
:101890002629ef0002ff0700404980000000e00019
:1018a000020032002829ef00c5fe07000000eb000f
:1018b00054050700d8fe0700007122000100200037
:1018c00086fe0700f3ff37000a00fa0000002f0031
:1018d00010079800f007200020079800e1e12000a1
:1018e00066004700040220001e019000ae01900037
:1018f00051fe07007171800050552500808f500007
:1019000003003a00430f0700e40f500031003a0093
:101910000000eb00000f7800040037001e00780084
:1019200011002000fa0307001e0fe8001e007800d7
:10193000e70f5000f9ff340000242400f1002000dc
:1019400066fe07000000eb00000f7800090037007a
:101950001e00780046030700800078001e00780013
:1019600000014000e0e12000000041000108780093
:101970001e0fe8001e007800e70f5000f4ff34004f
:101980005055250070718800020220001e00900052
:10199000ae0090003dfe0700013b800000002800e3
:1019a000008060000000e000fbff3a00e2e1200060
:1019b0001e009000ae0090003efe0700013b80003c
:1019c00000002800008060000000e000fbff3a00fb
:1019d000480507000080fa00000006000200fa0037
:1019e000000f78001e007800e20f50000b003e0050
:1019f000424a80009e007800200320000088b90041
:101a000000007800020040008000400020bb200061
:101a1000008040001000780001003700a02920005d
:101a20000080fa00000006000c00fa004007980051
:101a3000510798006000b800008fbe004e00900073
:101a4000e20f500031003e005e0090000000e00018
:101a50002e003200de00900020032000808f500016
:101a60002a003e000000eb0020079800414a800059
:101a70005e00900000805000310320008080400014
:101a80002003200000017800110009008280d800a6
:101a90008000fd003007980018003700ce0090004d
:101aa000200320000088b900800078003e009000ec
:101ab000008040008000400020bb200000804000eb
:101ac00010007800cf80de001e0f40005e974800b7
:101ad0002e0090000000e800200798003e009000d3
:101ae0008000e800200320000001780011000900b8
:101af0008200d8008000fd0030079800ae00900002
:101b00005e009000808f5000e4ff39005e0090007e
:101b10008000eb000001be001e00be00ddfc0700df
:101b2000000078000080fa00000006000000fa00c3
:101b3000510020000000eb00bbff0700614880005f
:101b40000100500080488800510020001000200053
:101b5000b5ff0700714880000100500090488800e0
:101b60005100200020002000afff0700914a8000b4
:101b700001005000a04888000080fa000000060024
:101b80000000fa00889fbe00e8ff07008048800040
:101b90006101b90080488000cf80de00009ab90062
:101ba00004027800028bb900860278000502420028
:101bb0000011b800030242008401780090488000c0
:101bc0006102b90090488000cf80de0000abb90010
:101bd00006037800048cb9008803780007034300eb
:101be0000020b80001034300860078000203400093
:101bf00083834800a04880006101b900a0488000ac
:101c0000cf80de00009ab90004027800028cb9008f
:101c100088027800050242000010b800010242006c
:101c200084007800060040008780480032fc0700ee
:101c300019fb0700b0488800c14888008048800030
:101c40006101b90080488000cf80de00009ab900b1
:101c500004027800028bb900860278000502420077
:101c60000011b8000302420084017800904880000f
:101c70006102b90090488000cf80de0000abb9005f
:101c800006037800048cb90088037800070343003a
:101c90000020b800010343008600780002004000e5
:101ca0008380480014fc0700fbfa07000004be0014
:101cb000a0488000cf80de000ffc07000801be00b6
:101cc00097fb0700c2092300532624002bfa0700c4
:101cd0000001be0000002000412b2400c9f90700cc
:101ce000f048880001498800f048800001498000e0
:101cf00018c0b30002002000030a2400fafb07000a
:101d00000000e000010035000044eb000804e000a2
:101d1000040032006000b800d0488800e148880024
:101d20001100370090488000cf80de00f2fb0700f2
:101d30000004be0080488000cf80de00eefb07007c
:101d40000801be0076fb0700c209230053262400c9
:101d50000afa07000200200043332400aaf9070012
:101d6000d0488800e14888004f04be000080fa0097
:101d7000000006000000fa00210320000000eb0034
:101d800029ff070060488800210320001000200080
:101d900025ff0700704888000080fa000000060058
:101da0000c00fa00881f78000004780074ff070018
:101db000b0488000c1488000008fbe00d04880003d
:101dc000e14880002007980031079800f048800023
:101dd0000149800040079800510798000e007800e4
:101de00088007800b0187800a0107800e4804000e7
:101df00064004000b0187800a0107800e480400033
:101e000064004000b0187800a0107800e480400022
:101e100064004000080078004f0478000080fa0059
:101e2000000006000000fa0055ff0700f04880009f
:101e3000014980000080fa00000006000000fa005e
:101e40004fff0700d0488000e14880000080fa0082
:101e5000000006000000fa0049ff0700b0488000bb
:101e6000c14880000080fa00000006000600fa0069
:101e7000881f7800000478002cff0700804880004d
:101e8000000f78009048800010079800a04880005c
:101e9000200798003e1c78002e147800ae009000b9
:101ea00021049800080078004f0478000080fa00b0
:101eb000000006000000fa001cff070080488000b8
:101ec0000080fa00000006000000fa0017ff07007b
:101ed000904880000080fa00000006000000fa0030
:101ee00012ff0700a04880000080fa0000000600f2
:101ef0000400fa00889fbe006000b800008fbe009a
:101f0000ceff0700008fbe0050488000cf80de006b
:101f100079fb07001e01be003af90700a1fb07008c
:101f20000000780000f0a7000000ea00cf80de008b
:101f300071fb070018c0b30002002000030a240050
:101f40006bfb07000000e00001003c000044eb00d8
:101f50000804e000bb003200e603070019c0b3002c
:101f600002002c00833a24001e00be0060fb070024
:101f70000000e00001003c008044eb0018c0b3000a
:101f800002002000431b24001e00be0056fb070079
:101f90000000e000010034000044eb0008c07400c1
:101fa0000004e00008003200020028006342240020
:101fb0001e00be004afb07000000e00002003200e5
:101fc000c4c2a8009b00370018c0b3000200200064
:101fd000431b24001e00be0045fb07000000e0007c
:101fe00001003c000044eb000804e0000c0032005b
:101ff00018c0b30002002000732824001e00be0099
:1020000039fb07000000e000010034000044eb0051
:102010000804e00002003200c5e2a8008500370095
:1020200018c0b30002002000732824001e00be0068
:102030002ffb07000000e00001003c000044eb0023
:102040000804e0000c00320018c0b30002002000b9
:10205000132e24001e00be0023fb07000000e0003a
:10206000010034000044eb000804e00002003200ec
:10207000c5c2a8006f00370018c0b30002002000de
:10208000132e24001e00be0019fb07000000e00014
:1020900001003c000044eb000804e0000c003200aa
:1020a00018c0b30002002800d33124001e00be0077
:1020b0000dfb07000000e000010034000044eb00cd
:1020c0000804e00002003200c5a2a8005900370051
:1020d00018c0b30002002800d33124001e00be0047
:1020e00003fb07000000e00001003c000044eb009f
:1020f0000804e0000c00320018c0b3000200280001
:10210000a33424001e00be00f7fa07000000e00020
:10211000010034000044eb000804e000020032003b
:10212000c542a8004300370018c0b30002002800d1
:10213000a33424001e00be00edfa07000000e000fa
:1021400001003c000044eb000804e0000c003200f9
:1021500018c0b30002002800733724001e00be0020
:10216000e1fa07000000e000010034000044eb0049
:102170000804e00002003200c582a8002d003700ec
:1021800018c0b30002002800733724001e00be00f0
:10219000d7fa07000000e00001003c000044eb001b
:1021a0000804e0000c00320018c0b3000200240054
:1021b000233924001e00be00cbfa07000000e00017
:1021c000010034000044eb000804e000020032008b
:1021d000c522a8001700370018c0b3000200240071
:1021e000233924001e00be00c1fa07000000e000f1
:1021f00001003c000044eb000804e0000c00320049
:1022000018c0b30002002c00833a24001e00be0058
:10221000b5fa07000000e000010034000044eb00c4
:102220000804e00002003200c4e2a8000100370008
:10223000300307001e00be00dafa07000000780035
:10224000504888004f04be000080fa0000000600dd
:102250000000fa00a022ef00a222ef00a422ef006b
:10226000a622ef00a802a800a822a800a842a90060
:10227000a862a900a882a900a8a2a900a8c2a900d2
:10228000a8e2a900a902a900a922a900a942a900bf
:10229000a962a900a982a900a9a2a900a9c2a900ae
:1022a000a9e2a900aa02a900aa22a900aa42a8009c
:1022b000aa62a800aa82a800aaa2a900aac2a9008c
:1022c000aae2a900ab02a900ab22a900ab42a90077
:1022d000ab62a900ab82a900aba2a900abc2a90066
:1022e000abe2a90001158000f0cf2f000080600054
:1022f00000158800a042a80001158000000e2000f3
:1023000001007000001588001115800030fc2f00be
:10231000008060000030a00010158800a342a800d3
:1023200021158000f00f2e00008060000080a000ca
:10233000201588002115800000fc2f00808060009f
:102340007002200001007000201588008560a9003f
:102350008d60a800a1e2a80000000000414a8000b2
:1023600000032000808f5000fbff36000080fa0041
:10237000000006000200fa00000f7800324a8000d8
:102380009e007800400620000088b9000000780018
:102390000200400080004000a09520000080400026
:1023a000100078000080fa00000006000c00fa001f
:1023b00040079800510798006000b800008fbe00e9
:1023c0004e009000e20f500031003e005e00900091
:1023d0000000e0002e003200de00900040062000e9
:1023e000808f50002a003e000000eb00200798007c
:1023f000314a80005e0090000080500051062000ad
:102400008080400040062000000178001100090093
:102410008280d8008000fd00300798001800370047
:10242000ce009000400620000088b90080007800af
:102430003e0090000080400080004000a0952000f9
:102440000080400010007800cf80de001e0f4000aa
:102450005e9748002e0090000000e80020079800da
:102460003e0090008000e800400620000001780057
:10247000110009008200d8008000fd00300798009c
:10248000ae0090005e009000808f5000e4ff3900a5
:102490005e0090008000eb000001be001e00be0048
:1024a0007cfa0700000078000080fa0000000600b7
:1024b0000800fa00300798000000eb0010079800b1
:1024c00070382100200798000000eb00000f780012
:1024d0002e003700be009000400620000088b900a2
:1024e000000078001e00400080004000a095200001
:1024f00000804000900078001e009000808f500007
:102500000b003400be009000400620000088b90097
:10251000000078001e00400080004000a0952000d0
:1025200000804000900078001107980016003700e6
:10253000be009000400620000088b900000078002e
:102540001e00400080004000a09520000080400058
:10255000900078002e009000808f50000a003d000f
:10256000be009000400620000088b90000007800fe
:102570001e00400080004000a09520000080400028
:1025800090007800210798001e0fe8003006200018
:102590009e007800808f5000ceff34009e00900097
:1025a0002e009000008050000080fa00000006001d
:1025b0000800fa00100798002107980032079800d9
:1025c0003e0090000000e00027003200be009000b6
:1025d00040062000808f500023003e000000eb00ea
:1025e000000f78001c0037001e007800be0090002d
:1025f00080805000f0ff2700008040000000400075
:10260000ae00900000814000314a80001e0078003a
:102610008080400040062000800178001100090001
:102620008380d8008000fd00800178009e0090002b
:10263000400620000088b900000078000300400038
:1026400080004000a095200000804000100078002d
:10265000000978001e0fe8009e0078003e00900000
:10266000808f5000e0ff39000080fa000000060073
:102670000200fa00000f78001e007800e70f5000fb
:10268000020036000000eb000b0037001e0078004f
:1026900080004000e0cd20000080400090007800e5
:1026a0001e00780000014000e0ce20000000410044
:1026b00010007800008050000080fa000000060042
:1026c0000200fa00000f78001e007800e70f5000ab
:1026d000020036000000eb00050037001e00780005
:1026e00080004000e0cd2000008040001000780015
:1026f0000080fa00000006000000fa00c4c2a90031
:10270000c4e2a900c522a900c582a900c542a9004a
:10271000c5a2a900c5c2a900c5e2a900c0c2a900fe
:10272000c0e2a900c122a900c182a900c142a9003a
:10273000c1a2a900c1c2a900c1e2a900d022a9007a
:10274000cc22a900d042a900cc42a900e2e2a90013
:10275000e302a900e802a900e822a900dee2a9003c
:10276000df02a900e402a900e422a900e202a90014
:10277000de02a900d602a900d622a900d642a900ed
:10278000d662a900d682a900d6a2a900d6c2a90005
:10279000d6e2a900d202a900d222a900d242a90001
:1027a000d262a900d282a900d2a2a900d2c2a900f5
:1027b000d2e2a900d1a2a900cda2a900e842a900b5
:1027c000e862a900e442a900e462a900de22a800b0
:1027d000dec2a800e4c2a800e4e2a800e502a80066
:1027e000e522a800de22a800d302a800d322a80078
:1027f000d342a800d362a800d382a800d3a2a80025
:10280000d3c2a800d3e2a8000080fa0000000600ae
:102810000200fa00000f78001e007800e30f50005d
:102820001f003200e30f500005003e00e10f500092
:1028300011003200e10f500014003e000900370083
:10284000e50f500020003200e50f5000190039005c
:10285000e60f500021003200e70f50002400320044
:1028600028003700201680004600de00614060002e
:102870000080fb0024003700201680004700de00a7
:10288000614060000080fb001f00370020168000c0
:102890004900de00614060000080fb001a00370044
:1028a000201680004c00de00614060000080fb00cc
:1028b00015003700201680004a00de0061406000ed
:1028c0000080fb0010003700201680004d00de0065
:1028d000614060000080fb000b0037002016800084
:1028e0004e00de00614060000080fb000600370003
:1028f000201680004f00de00004078000080fb00c2
:10290000010037000000eb000080fa000000060024
:102910000400fa00000f7800110798001e007800ec
:10292000e30f500061003200e30f500005003e004d
:10293000e10f500027003200e10f500040003e0040
:1029400009003700e50f50008e003200e50f5000ff
:1029500071003900e60f5000a5003200e70f50006b
:10296000be003200d60037001e009000e10f50007c
:102970000d003600201680004600de006140600039
:102980000004a200614060000080fb006100600064
:102990004600dd00211680000160a10001007000ea
:1029a00020168800150137001e00900000407800b6
:1029b000614060000080fb00610060004600dd00b7
:1029c000211680000160a10001007000201688001f
:1029d0000a0137001e009000e10f50000d00360084
:1029e000201680004700de00614060000004a20065
:1029f000614060000080fb00610060004700dd0076
:102a0000211680000170a1000100700020168800ce
:102a1000fa0037001e00900000407800614060001e
:102a20000080fb00610060004700dd00211680008f
:102a30000170a1000100700020168800ef0037002f
:102a40001e009000e10f50000d003600201680009f
:102a50004900de00614060000004a20061406000a7
:102a60000080fb00610060004900dd00211680004d
:102a70000190a1000100700020168800df003700df
:102a80001e00900000407800614060000080fb0064
:102a9000610060004900dd00211680000190a10066
:102aa0000100700020168800d40037001e0090003e
:102ab000e10f50000d003600201680004c00de00b3
:102ac000614060000004a200614060000080fb00e3
:102ad000610060004c00dd002116800001c0a100f3
:102ae0000100700020168800c40037001e0090000e
:102af00000407800614060000080fb0061006000e1
:102b00004c00dd002116800001c0a1000100700012
:102b100020168800b90037001e009000e10f500019
:102b20000d003600201680004a00de006140600083
:102b30000004a200614060000080fb0061006000b2
:102b40004a00dd002116800001a0a10001007000f4
:102b500020168800a90037001e0090000040780071
:102b6000614060000080fb00610060004a00dd0001
:102b70002116800001a0a10001007000201688002d
:102b80009e0037001e009000e10f50000d0036003f
:102b9000201680004d00de00614060000004a200ad
:102ba000614060000080fb00610060004d00dd00be
:102bb0002116800001d0a1000100700020168800bd
:102bc0008e0037001e0090000040780061406000d9
:102bd0000080fb00610060004d00dd0021168000d8
:102be00001d0a1000100700020168800830037008a
:102bf0001e009000e10f50000d00360020168000ee
:102c00004e00de00614060000004a20061406000f0
:102c10000080fb00610060004e00dd002116800096
:102c200001e0a10001007000201688007300370049
:102c30001e00900000407800614060000080fb00b2
:102c4000610060004e00dd002116800001e0a1005f
:102c50000100700020168800680037001e009000f8
:102c6000e10f50000c003600201680004f00de00ff
:102c7000004078000004a200614060000080fb007a
:102c80004f00dd002116800001f0a100010070005e
:102c900020168800590037001e0090000040780080
:102ca000614060000080fb004f00dd0021168000c5
:102cb00001f0a10001007000201688004f003700cd
:102cc0001e00900000407800614060000080fb0022
:102cd0004f00dd002116800001f0a100010070000e
:102ce00020168800201680004f00de00004078008b
:102cf0000080fb00610060004e00dd0021168000b6
:102d000001e0a1000100700020168800201680005c
:102d10004e00de00614060000080fb00610060004a
:102d20004d00dd002116800001d0a10001007000df
:102d300020168800201680004d00de0061406000f3
:102d40000080fb00610060004a00dd002116800069
:102d500001a0a1000100700020168800201680004c
:102d60004a00de00614060000080fb0061006000fe
:102d70004c00dd002116800001c0a10001007000a0
:102d800020168800201680004c00de0061406000a4
:102d90000080fb00610060004900dd00211680001a
:102da0000190a1000100700020168800201680000c
:102db0004900de00614060000080fb0061006000af
:102dc0004700dd00211680000170a10001007000a5
:102dd00020168800201680004700de006140600059
:102de0000080fb00610060004600dd0021168000cd
:102df0000160a10001007000201688000080fa0028
:102e0000000006000200fa00000f78001e007800a3
:102e1000e10f50000d003600801680004200de00f9
:102e2000614060000004a200614060000080fb007f
:102e3000610060004200dd00811680000120a100d9
:102e400001007000801688000a0037001e0078001c
:102e500000407800614060000080fb00610060007d
:102e60004200dd00811680000120a10001007000f9
:102e7000801688000080fa00000006000200fa00b8
:102e8000000f78001e007800e10f50000d003600a2
:102e9000801680000000d100614060000004a200a4
:102ea000614060000080fb006100600000004000a5
:102eb000811680000110a1000100700080168800ba
:102ec0000a0037001e007800004078006140600072
:102ed0000080fb006100600000004000811680005f
:102ee0000110a10001007000801688000080fa0027
:102ef000000006000000fa00c4c2a900c4e2a90054
:102f0000c522a900c582a900c542a900c5a2a90081
:102f1000c5c2a900c5e2a9000080fa0000000600b1
:102f20000000fa00f4fd07000080fa00000006002f
:102f30000200fa00000f78001e0078000000e00098
:102f400006003a0021e1a900d602a900d622a90074
:102f5000d642a900d662a9001800370021e1a900d5
:102f60009e007800c14688002021ef000109800002
:102f70000003200001007000000988001821ef0004
:102f80001e00780000f0a7000000ea00cf80de00fd
:102f900059f707000001be00000020001176240050
:102fa000aaf50700a0f7070000007800e0088800f5
:102fb00086c0a9008ec0a80021e1a8000080fa0008
:102fc000000006000200fa00000f78001e007800e2
:102fd0000000e00006003a001fe1a900d682a90027
:102fe000d6a2a900d6c2a900d6e2a90018003700cf
:102ff0001fe1a9009e007800d14688001e21ef0045
:10300000f10880000003200001007000f008880033
:103010001421ef001e00780000f0a7000000ea0075
:10302000cf80de0034f707000001be000000200062
:103030001176240085f507007bf707000000780073
:10304000d008880086a0a9008ea0a8001fe1a800d3
:103050000080fa00000006000000fa00e046800050
:10306000f14680000080fa00000006000400fa002b
:10307000008fbe001027fc001e01be00e246880043
:10308000f34688000200fc000080fa000000060001
:103090000000fa0000478000114780000080fa001d
:1030a000000006000400fa00008fbe001027fc009c
:1030b0001e01be0002478800134788000200fc0082
:1030c0000080fa00000006000000fa00204780009f
:1030d0000080fa00000006000600fa00008fbe0023
:1030e000220798001027fc00dc28ef00de28ef0004
:1030f000e028ef00e228ef001000200020478800c1
:103100009e009000b01521000088b90000017800f1
:103110001e0078006000b900000078000001410046
:103120009e007800b01521000008b80001014100a0
:1031300082007800823e20000300200055f707003f
:1031400050478800614788009e009000b01521001c
:103150000088b900000178001e0078006000b90006
:1031600000007800000141009e007800b0152100a9
:103170000008b8000101410082007800823e200072
:103180000300200043f7070070478800814788004c
:103190001e00be00e00f5000e08f580005003d000b
:1031a0002e00900000f0a7000000ea000000ea00f6
:1031b000200798001e00be00e00f5000e08f58006e
:1031c000040034002e00900000f0a7000000ea0088
:1031d000200798001e00be00e00f5000e08f58004e
:1031e00004003a0040002000204788000000eb0067
:1031f000200798002e0090004dff07002e00900041
:1032000070ff07000200fc000080fa0000000600ca
:103210000a00fa00881f78002007980031079800fc
:10322000420798001027fc00dc28ef00de28ef00a2
:10323000e028ef00e228ef0010002000204788007f
:103240002e009000be00900001f0a10052a32f00bc
:10325000e3c82300c9f40700f2282c0053d7230049
:10326000c6f407000200200003002400f7f4070062
:10327000008fbe0002802d00a35824001e00be0057
:10328000bef40700c7f607003047880041478800b2
:103290004e00900000f0a7000000ea0040079800f0
:1032a00018c0b3006011b8002e009000be0090005e
:1032b0008df607000000e000010035000044eb003f
:1032c0000804e0000f0032003047800041478000d2
:1032d00050478800614788003047800041478000a0
:1032e00060001000e0801800704788008147880067
:1032f0004e0090000eff07004e0090000000ea0014
:1033000030ff070018c0b3006011b8002e00900015
:10331000be00900076f607000000e00001003c00cf
:103320000044eb000804e0000f003200304780004a
:103330004147800060001000e0801800504788007e
:10334000614788003047800041478000704788000f
:10335000814788004e0090000000ea00f4fe07005c
:103360004e00900017ff07006011b8002e0090007b
:10337000be0090005cf607000000e00006003a0086
:1033800040002000204788000000eb00e8fe070016
:103390000000eb000bff07000200fc004f04780068
:1033a0000080fa00000006001400fa00889fbe00aa
:1033b0006000b800008fbe006000b80020079800d1
:1033c000310798006000b800400798005107980046
:1033d0006000b8006007980071079800e046800020
:1033e000f146800044f607000004be00f04780006c
:1033f0000148800040f607000001be000800be0042
:1034000000f407003299270063e623005bf407000d
:10341000008fbe00004780001147800036f607008d
:103420000004be00104880002148800032f60700ea
:103430000001be000800be00f2f307003299270029
:1034400063e623004df40700200798003107980039
:103450002e019000be0190001e00be00eaf307009e
:10346000020020000300240078f4070040079800c1
:10347000510798001e01be002e009000be00900073
:10348000e0f3070002002000032724006ff4070088
:1034900060079800710798006cf30700810c20000a
:1034a00001017800110009000200d8008000fd0031
:1034b000cf80de0010f60700000f9800110f980073
:1034c00002002000832c24000e0890009e0890002b
:1034d000ccf30700000f9800110f98006011b8009e
:1034e0004e009000de00900024f407000e099000ca
:1034f0009e09900021f407000001be004e009000dc
:10350000de009000c0f307004007980051079800c4
:103510006011b8004e009000de00900017f4070024
:103520000001be004e009000de009000b6f30700e0
:1035300040079800510798006011b8006e00900095
:10354000fe0090000df407000001be006e00900028
:10355000fe009000acf30700600798007107980028
:1035600002002000030024006e009000fe00900086
:1035700036f407000002be00d0478000e14780001b
:103580000001be000400be009ff30700f9f407002d
:103590004e019000de019000f8f307000002be002b
:1035a00090478000a14780000001be000400be00db
:1035b00095f3070090478800a1478800020020008b
:1035c000030024006e009000fe0090001ff407002e
:1035d0000002be00d0478000e14780000001be002d
:1035e0000400be0088f30700e0f407004e019000dd
:1035f000de019000e1f307000002be00b04780004a
:10360000c14780000001be000400be007ef3070039
:10361000b0478800c1478800d0478000e14780005c
:103620006e019000fe01900077f30700d0478800fc
:10363000e1478800d0478000e147800001f0a10009
:1036400018c0b300b2fd2000930c2400a8f50700b9
:103650000000e00001003c000044eb000804e00032
:103660001c003200d0478000e147800018c0b30042
:103670006011b8009ef507000000e00001003c006a
:103680000044eb000804e00009003200d04780004d
:10369000e147800001f0a100b2fd2000930c24005e
:1036a0002cf40700d0478800e14788000900370064
:1036b000d0478000e147800001f0a100b2fd20006a
:1036c000930c240023f4070001f0a200d0478800e7
:1036d000e1478800d0478000e147800001f0a10069
:1036e00018c0b300b2fd20009304240080f5070049
:1036f0000000e00001003c000044eb000804e00092
:1037000019003200d0478000e147800018c0b300a4
:103710006011b80076f507000000e00001003c00f1
:103720000044eb000804e00008003200d0478000ad
:10373000e1478000b2fd2000930c240031f3070024
:10374000d0478800e147880007003700d047800055
:10375000e1478000b2fd2000930c24002af307000b
:10376000d0478800e1478800e0468000f1468000ad
:10377000f04788000148880000478000114780001a
:1037800010488800214888004f04be000080fa00dd
:10379000000006000c00fa00008fbe00220798000f
:1037a0003307980044079800550798001e01be0093
:1037b00092478800a34788002e019000be01900028
:1037c000b2478800c34788004e009000de0090009a
:1037d00023000700d0478800e1478800e0468000ca
:1037e000f1468000f04788000148880000478000cb
:1037f0001147800010488800214888000000eb0035
:103800007ff2070000007800e7f207000080fa006e
:10381000000006000600fa00000f7800110798006b
:103820002207980090478000a14780001e01780081
:103830000089be00b0478000c14780001e01900093
:103840000089be00d0478000e14780004e0007009d
:103850002e0190000089be000080fa0000000600e2
:103860000800fa00881f78002007980031079800a8
:1038700018c0b30002002000733824002e0090000e
:10388000be0090001af507000000e00001003c00b7
:103890000044eb000804e0000b003a0018c0b3003d
:1038a00002002000432b24002e009000be00900058
:1038b0000df507000000e000010035000044eb00ba
:1038c0000804e0002200320018c0b300020020000b
:1038d000432b24002e009000be00900002f507004c
:1038e0000000e000010035000044eb000804e000a7
:1038f0000a0032002e019000be019000000020005e
:10390000412b2400bff2070052a32f00e3c823007d
:103910001af30700008fbe00170037002e01900039
:10392000be01900000002000413b2400b5f20700da
:1039300052a32f00e3c8230010f307000200200069
:10394000432b2400b0f20700008fbe000a003700ae
:1039500002002000432b24002e009000be009000a7
:10396000a8f2070001f0a20052a32f00e3c8230031
:1039700002f30700008fbe001e00be004f04780057
:103980000080fa00000006000800fa00881f780096
:10399000200798003107980018c0b3006011b800e4
:1039a0002e009000be009000d1f407000000e0005f
:1039b00001003c000044eb000804e0002400320059
:1039c00018c0b300b2fd200093fc23002e0090002d
:1039d000be009000c4f407000000e00001003500c4
:1039e0000044eb000804e0000b00320002ee22006d
:1039f000532624002e009000be009000dff2070046
:103a00000001be0000002000412b24007df20700d1
:103a1000008fbe001800370002ee2200532624005b
:103a20002e009000be009000d4f20700020020009b
:103a3000432b240073f207000001be0000002000a9
:103a4000413b24006ff20700008fbe000a003700e0
:103a500002ee2200532624002e009000be009000ab
:103a6000c6f207000001be0000002000412b240028
:103a700064f20700008fbe001e00be004f047800f5
:103a80000080fa00000006000c22ef000e22ef007a
:103a90000ee2a9000ec2a9008520a9008d20a80071
:103aa0000de2a80070002000a01088008540a90049
:103ab0008d40a80081e0a900c0048000f1002f0023
:103ac000008060000155200000804000c004880094
:103ad0000fe2a8000f42a80000000600809fbe0071
:103ae0008520a9000000eb0012c2bf00a1e5200064
:103af0008048780010002000e07288004f00be006f
:103b0000004006005c0ee200090032008d20a90092
:103b10008000eb00e1728800a2e52000924078006e
:103b200001487800100020008d20a8000000060049
:103b30000000eb00000006008540a900809fbe0049
:103b4000821f7800520ee200150032004e0ee20095
:103b500016003200500ee200140032007172800034
:103b6000420020000f22af00feff3700807280006d
:103b70000000e000070032000000e90050aeb7008e
:103b80003140780010e2b7000201e900f5ff3a0089
:103b9000020037004e2eef000100370071728800de
:103ba0004f0178004f00be000040060000002000da
:103bb000907288004f0178004f00be000040060060
:103bc000520ee200feff3a008d40a9008100e9009c
:103bd00081728800b040780081108800707288007f
:103be00011002000917288008d40a800000006009e
:103bf00090728000000006000000fa00e20007005a
:103c00000080fa00000006000000fa001f01070013
:103c10000080fa00000006000000fa002101070001
:103c20000080fa00000006000400fa002047980017
:103c3000314798000040eb00004f78001900370032
:103c400010c0b300004f78001c0107001e4f600039
:103c50002e409000160207001e4f60003e4090006c
:103c6000130207001e4f6000320107001e4f600064
:103c70002e4090000040e8000d0207001e4f60003b
:103c80000e00e800bf0107001e4f60008e01070014
:103c9000460107001e4078000004e00005003a00dd
:103ca000d60007001e4078000004e000e4ff320068
:103cb00001003700000000001e4090000080fa0064
:103cc000000006000800fa0020479800210798002d
:103cd00062479800734798000040eb00004f78005f
:103ce0000040eb00104798003100370010c0b300cf
:103cf000004f7800f10007001e4f60002e4090003a
:103d0000eb0107001e4f60006e409000e8010700c5
:103d10001e4f6000070107001e4f60002e409000fc
:103d20000040e800e20107001e4f60000040eb0089
:103d300010479800150037001e4090000000fb005f
:103d4000ae009000008040008e0107001e4f600012
:103d50001e4090008000fb007e4090000000fb00b1
:103d60000000e900808f500003003a005601070070
:103d70001e4f600002003700240107001e4f600044
:103d80001e4090000040e800104798009e409000c0
:103d90007e40900080cf5000e7ff35000301070010
:103da0001e407800e14f50000500320093000700ec
:103db0001e4078000004e000ccff32000100370014
:103dc000000000001e4078000080fa00000006009d
:103dd0000600fa00204798003147980042479800b3
:103de0000040eb00004f78001300370010c0b30014
:103df000004f7800b10007001e4f60002e40900079
:103e0000ab0107001e4f60003e409000a801070074
:103e10001e4f60004e409000a50107001e4f60003d
:103e2000e20007001e4f60001e4078000004e00022
:103e300005003a00710007001e4078000004e00011
:103e4000eaff320001003700000000001e40780049
:103e50000080fa00000006000a00fa0040479800bf
:103e600031079800024f9800134f98000040eb0074
:103e7000004f78000000eb00100798002100370089
:103e800010c0b300004f78008c0007001e4f600088
:103e90004e409000860107001e4f60000e489000c3
:103ea000830107001e4f60000000eb001007980020
:103eb000090037001e009000be0090000080400006
:103ec000104078007a0107001e4f60001e0090002d
:103ed0000000e800100798001e4890008000fb00da
:103ee0001e009000808f5000f2ff3c00af000700e2
:103ef0001e4f60001e407800e14f50000500320068
:103f00003e0007001e4078000004e000dcff3200a5
:103f100001003700000000001e4078000080fa0019
:103f2000000006000000fa000000000030108000d1
:103f3000610060000000e000fcff3a0030108000eb
:103f4000640060000000e000f8ff3a0030108000dc
:103f5000680060000000e000f4ff3a0030108000cc
:103f6000700060000000e000f0ff3a0041108000a7
:103f700000002400008060000000e000ebff3a0039
:103f80000080fa00000006000400fa00600920002a
:103f90002010880007e2a90007e2a80085c0a90058
:103fa00085a0a900d1048000f08f2f0080806000e0
:103fb0000050200001007000d00488008da0a900ee
:103fc0000071220001002000008fbe0004003700b5
:103fd0000081eb008081eb001e0f41005e974900dd
:103fe0001e00be00e00f5000e08f5800f8ff3a00be
:103ff00010c0b3000080fa00000006000400fa00c0
:104000006000b800008fbe0007e2a90085c0a900cb
:1040100085a0a9008da0a900007122000100200048
:10402000008fbe00040037000081eb008081eb00b0
:104030001e0f41005e9749001e00be00e00f5000b9
:10404000e08f5800f8ff3a00cfff07000f0007008d
:104050000071220001002000008fbe000400370024
:104060000081eb008081eb001e0f41005e9749004c
:104070001e00be00e00f5000e08f5800f8ff3a002d
:1040800010c0b3000080fa00000006000000fa0033
:1040900085c0a9008dc0a80010c0b3000080fa0040
:1040a000000006000000fa0085c0a9008dc0a9002c
:1040b00010c0b3000080fa00000006000400fa00ff
:1040c00010c0b30054e9b7004010800070006000d9
:1040d0000000e000140032000602a8000071220077
:1040e00001002000008fbe000900370054c9bf0046
:1040f0000004e00002003a0010c0b3000b003700db
:104100000081eb008081eb001e0f41005e974900ab
:104110001e00be00e00f5000e08f5800f3ff3a0091
:104120000040eb00010037000040eb000080fa0087
:10413000000006000400fa0060c0b30054e9b700b4
:1041400040108000680060000000e00014003200b1
:104150000622a8000071220001002000008fbe008e
:104160000900370054c9bf000004e00002003a0013
:1041700010c0b3000b0037000081eb008081eb0022
:104180001e0f41005e9749001e00be00e00f500068
:10419000e08f5800f3ff3a000040eb0001003700c9
:1041a0000040eb000080fa00000006000400fa0066
:1041b00050c0b30054e9b7000642a80000712200c5
:1041c00001002000008fbe000900370054c9bf0065
:1041d0000004e00002003a0010c0b30009003700fc
:1041e0000081eb008081eb001e0f41005e974900cb
:1041f0001e00be00e00f5000e08f5800f3ff3a00b1
:104200000040eb000080fa00000006000400fa0005
:1042100030c0b30054e9b700301080006100600086
:104220000000e00010003a003010800064006000e0
:104230000000e0000c003a003010800068006000d0
:104240000000e00008003a003010800070006000bc
:104250000000e00004003a003010800062006000be
:104260000000e000020032000040eb0014003700c4
:1042700006a2a9000682a800007122000100200009
:10428000008fbe000900370054c9bf000004e000e1
:1042900002003a0010c0b300090037000081eb00b3
:1042a0008081eb001e0f41005e9749001e00be009a
:1042b000e00f5000e08f5800f3ff3a000040eb00a1
:1042c0000080fa00000006000400fa0030c0b300cd
:1042d00054e9b70030108000610060000000e00089
:1042e00010003a0030108000640060000000e00020
:1042f0000c003a0030108000680060000000e00010
:1043000008003a0030108000700060000000e000fb
:1043100004003a0030108000620060000000e000fd
:10432000020032000040eb001400370006a2a80093
:104330000682a8000071220001002000008fbe004c
:104340000900370054c9bf000004e00002003a0031
:1043500010c0b300090037000081eb008081eb0042
:104360001e0f41005e9749001e00be00e00f500086
:10437000e08f5800f3ff3a000040eb000080fa00a5
:10438000000006000800fa003007980000712200c3
:1043900001002000008fbe000040eb004047980065
:1043a00040c0b30054e9b7000071220001002000b2
:1043b000008fbe001c0037003010800061006000dc
:1043c0000000e00014003a0030108000640060003b
:1043d0000000e00010003a0030108000680060002b
:1043e0000000e0000c003a00301080007000600017
:1043f0000000e00008003a004110800000002400a6
:10440000008060000000e00003003a0010c0b3002c
:1044100040479800080037000081eb008081eb00e6
:104420001e0f41005e9749001e00be00e00f5000c5
:10443000e08f5800e0ff3a004e4090000004e0009a
:1044400002003a000040eb00170037000662a800a7
:10445000006a280011002000008fbe000d00370008
:1044600054c9bf000004e00006003a0000c2bf00cb
:10447000804078003e0090000148780010c0b300f2
:10448000090037000081eb008081eb001e0f410026
:104490005e9749001e00be00e00f5000e08f5800fc
:1044a000efff3a000040eb000080fa000000060039
:1044b0000600fa004047980020c0b30054e9b70056
:1044c0004e40900002e2b70000712200010020007f
:1044d000008fbe000900370054c9bf000004e0008f
:1044e00002003a0010c0b300090037000081eb0061
:1044f0008081eb001e0f41005e9749001e00be0048
:10450000e00f5000e08f5800f3ff3a000040eb004e
:104510000080fa00000006000e00fa001007980064
:1045200021079800624798004307980054079800b5
:1045300065079800ee0190005e019000ae009000cb
:104540001e00900008000700004f78006e409000a9
:10455000b00007004e009000b60007001e40780033
:104560000080fa00000006000800fa00000f780042
:104570001107980022079800330798009e007800e2
:10458000b14988001e0078000000e00003003a00f6
:104590000000eb00ea0107000a0037001e00780067
:1045a000e10f500006003a001e009000e4010700f1
:1045b0009e00900000c1b3007f010700010037009a
:1045c00000000000160007000000e000fdff3200c0
:1045d0006b0107007101070012c0b300a193200016
:1045e00060c0b3004a010700c093200022c0b3009e
:1045f0008000780070c0b300450107001e007800fd
:104600005c0007002e009000400007003e00900074
:1046100072000700c10007000080fa0000000600d9
:104620000200fa00c5000700004f78001e40780025
:10463000e14f400002003a000000eb0001003700ab
:10464000100020000080fa00000006000200fa00be
:10465000004f78009e40780039c9bf0080cf5000dd
:104660000200360039c9bf00004f780012c0b30005
:104670008e007800a0c0b3003301070000000000e6
:10468000ae0007000080fb00700060000000e0004a
:10469000fbff3a001e40780038e9b7000080fa00be
:1046a000000006000400fa002047980012c0b30082
:1046b0008e00780010c0b300150107002e40900056
:1046c0000004e000080032001e4078000074a000e2
:1046d000004f780012c0b3008e00780010c0b30005
:1046e00019010700070037001e4078000074a10080
:1046f000004f780012c0b3008e00780010c0b300e5
:10470000110107000080fa00000006000400fa0012
:104710001007980012c0b3008e00780010c0b300dc
:10472000fb0007001e0090000000e00008003200bf
:104730001e4078000004a000004f780012c0b300b3
:104740008e00780010c0b300ff000700070037009c
:104750001e4078000004a100004f780012c0b30092
:104760008e00780010c0b300f70007000080fa0048
:10477000000006000400fa001007980012c0b30001
:104780008e00780010c0b300e10007001e0090000a
:10479000e10f500008003a001e4078000014a0000d
:1047a000004f780012c0b3008e00780010c0b30034
:1047b000e5000700070037001e4078000014a10044
:1047c000004f780012c0b3008e00780010c0b30014
:1047d000dd0007000080fa00000006000200fa0079
:1047e000000f78001e007800ff0f50000200360016
:1047f000f0012000000f78000e00780012c0b30016
:104800008000780030c0b300cf0007000080fa00bd
:10481000000006000200fa00004f780012c0b3004a
:104820008e00780040c0b300c70007000080fa0087
:10483000000006000200fa00000f78000e00780069
:1048400022c0b3008000780050c0b300be00070053
:104850000080fa00000006000000fa0038c9bf001e
:104860000080fa00000006000000fa0039c9bf000d
:104870000080fa00000006000200fa0012c0b30037
:104880008e00780010c0b300a100070010c0b30074
:104890000080fa00000006000200fa0012c0b30017
:1048a0008e00780010c0b3009900070010c0b3005c
:1048b0000080fa00000006000200fa0012c0b300f7
:1048c0008e00780030c0b300910007001e407800d1
:1048d0000080fa00000006000200fa0012c0b300d7
:1048e0008e00780040c0b300890007001e407800a9
:1048f0000080fa00000006000200fa000e007800b6
:1049000022c0b3008000780050c0b30080000700d0
:104910001e0078000080fa00000006000200fa0085
:1049200012c0b3008e007800c0c0b300780007004a
:104930001e4078000080fa00000006000200fa0025
:1049400012c0b3008e0078000040eb00700007003a
:104950001e4078000080fa00000006000a00fa00fd
:1049600020479800210798003207980043079800d5
:1049700010c0b300004f780038c9bf008080fb0032
:104980004e009000808f500002003d000000eb00c0
:104990002300370000000000e8ff07000080fb0054
:1049a000620060000000e000fbff3200ae009000fb
:1049b000e0498000808f500007003200640047000b
:1049c00022c0b3008000780070c0b3005e00070012
:1049d0002e009000e04988004e00900000407800d2
:1049e00000417800be00900080c0b3005600070070
:1049f00012c0b3008e00780020c0b3005200070040
:104a0000ceff07000080fb00680060000000e000af
:104a1000020032000000eb0001003700100020000f
:104a20000080fa00000006000600fa001007980057
:104a3000210798001e0090000000e00003003200f3
:104a40002e0090000000e00002003a000000eb00a1
:104a500026003700b0498000e10f50000f003a00f7
:104a6000980007000004e0000c0032000000000085
:104a70008e0007000004e000fdff3a0011c0b30003
:104a80000e007800970007009e40780050c5b300e4
:104a900080cf50000100320014003700a7ff07004c
:104aa0000080fb0061006000004078000004e0002e
:104ab0000d00320038c9bf008080fb002e0090003e
:104ac000010878002e009000100078000040780067
:104ad000004178009e00900090c0b3000c000700d9
:104ae00010002000010037000000eb000080fa00f9
:104af000000006000000fa00b0498000e10f5000fd
:104b000001003a005a0007000080fa000000060089
:104b10000600fa00004f78001107980042479800fd
:104b20004e4190009e0090001e4078008241780027
:104b3000010178008040780000c2b300ba0007008d
:104b40000080fa00000006000600fa00004f78001e
:104b500011079800424798004e4190009e00900037
:104b60001e40780082417800010178008040780082
:104b700000c2b300840007000080fa0000000600b5
:104b80000000fa0012c0b30081932000a0c0b3005f
:104b9000dfff07000080fa00000006000000fa00b6
:104ba00012c0b30091932000b0c0b300d8ff07003b
:104bb0000080fa00000006000400fa00004f7800b0
:104bc000110798009e009000114a880007e2a90092
:104bd0001e00fb00501088001e40780044e9b7001a
:104be0000782a8000762a9000742a9000722a800bf
:104bf00006c2a80006a2a90085a0a90008c2a900b3
:104c00008da0a80007e2a8000080fa0000000600be
:104c10000000fa000a22ef000080fa0000000600ff
:104c20000000fa0044c9bf000080fb00501088005b
:104c30000080fa00000006000200fa00004f780031
:104c40001e80fb00501088001e4178004194200017
:104c5000824878000080fa00000006000000fa0098
:104c600050108000004078000080fa00000006002c
:104c70000000fa00130007000004e0000900320001
:104c800000000000090007000004e000fdff3a00fa
:104c9000104a80000000e00002003200104a80004c
:104ca000000001000080fa00000006000000fa0089
:104cb000401080004300de00614060000080fa0088
:104cc000000006000000fa0041c9bf000080fa00a1
:104cd000000006000000fa0040c9bf000080fa0092
:104ce000000006000600fa001007980041479800ef
:104cf000ff3ffc0040c9bf00ce409000814f5000f4
:104d00000100360001407800004f78001e40780016
:104d10000004e000060032001e80fb000001780065
:104d2000e1e320001e00900041ed07004169ef0023
:104d30000000fc001e4078000080fa000000060021
:104d40000200fa00000f78009e007800814a880077
:104d500007e2a900600920002010880085c0a90092
:104d60008dc0a80007e2a8000862a9000080fa0030
:104d7000000006000000fa0085c0a9008dc0a9004f
:104d80000080fa00000006000800fa0020479800a2
:104d900031479800220798006347980010c0b3007d
:104da000004f78000040eb00104798002e40900024
:104db0000000fb0000004000204798000f00370073
:104dc000ee4190003e419000ae0090002e409000d9
:104dd000a70007006e419000ae0090002e409000aa
:104de0005b000700004f78001e407800e14f500044
:104df00002003a0010c0b300104798001e4078002f
:104e00000004e000eeff3a001e409000e14f500029
:104e100003003a00604a80000000e800604a880011
:104e20000080fa00000006000800fa002047980001
:104e300031479800220798006347980010c0b300dc
:104e4000004f78000040eb00104798002e40900083
:104e50000000fb0000004000204798000f003700d2
:104e6000ee4190003e419000ae0090002e40900038
:104e7000510007006e419000ae0090002e4090005f
:104e800033000700004f78001e407800e14f5000cb
:104e900002003a0010c0b300104798001e4078008e
:104ea0000004e000eeff3a001e409000e14f500089
:104eb00003003a00604a80000000e800604a880071
:104ec0000080fa00000006000000fa00604a80003e
:104ed0000080fa00000006000000fa004c29ef00f4
:104ee0000080fa00000006000000fa00704a80000e
:104ef0000080fa00000006000000fa004e29ef00d2
:104f00000080fa00000006000000fa004010800057
:104f10004300de00614060000080fa0000000600ef
:104f20000000fa0041108000004020000080600076
:104f30000000e000030032000942a90010c0b300e5
:104f4000010037000040eb000080fa00000006007e
:104f50000800fa002047980021079800624798004f
:104f60002e40900070000700004f7800ee40900047
:104f70002e00900086010700104798001e40900008
:104f80009e40780080cf500003003200704a8000bd
:104f90000000e800704a88001e4090001e40680033
:104fa0000080fb000000ea004f00de0000407800b7
:104fb0000080fa00000006000800fa002047980070
:104fc00021079800624798007347980010c0b3000b
:104fd000104798000040eb00004f780000000000f0
:104fe0000100370000000000c7ff07000004e000d8
:104ff000fdff3a0006ff0700fe4190006e41900061
:10500000ae0090002e4090007400070010479800fa
:1050100003ff07001e409000e24f500004003a00da
:1050200007e2a90007e2a80010c0b300004f780013
:105030001e409000e24f5000eaff32009e00fb004d
:10504000804a800000f0a7000000ea000000ea00ab
:105050004f00de00008060000000e000020032002f
:10506000804a8000000001000080fa000000060075
:105070000800fa002047980021079800624798002e
:105080007347980010c0b300104798000040eb0031
:10509000004f780000000000010037000000000011
:1050a00099ff07000004e000fdff3a00d8fe07006a
:1050b000fe4190006e419000ae0090002e409000a6
:1050c000a800070010479800d5fe07001e4090007a
:1050d000e24f500004003a0007e2a90007e2a800ee
:1050e00010c0b300004f78001e409000e24f500007
:1050f000eaff32009e00fb00804a800000f0a7001b
:105100000000ea000000ea004f00de0000806000be
:105110000000e00002003200804a80000000010030
:105120000080fa00000006000600fa0040479800e0
:1051300010c0b300104798000040eb0020479800d3
:105140000040eb00004f7800000000000100370035
:10515000000000006cff07000004e000fdff3a00c3
:10516000abfe07000e80e800800078004e40900003
:10517000c400070010479800a9fe07001e409000d9
:10518000e24f500004003a0007e2a90007e2a8003d
:1051900010c0b300004f78001e409000e24f500056
:1051a000ebff32009e00fb00804a800000f0a70069
:1051b0000000ea000000ea004f00de00008060000e
:1051c0000000e00002003200804a80000000010080
:1051d0002e4090000080fa00000006000800fa004f
:1051e000204798002107980062479800734798006d
:1051f0000040eb00004f78000040eb0010479800a3
:105200005000370010c0b300004f7800abfb070020
:105210001e4f600042ff07000004e0000200320061
:1052200020c0b3004d0037002e409000a0fc0700c6
:105230001e4f60003aff07000004e0000200320049
:1052400020c0b300450037006e40900098fc070076
:105250001e4f600032ff07000004e0000200320031
:1052600020c0b3003d003700b2fb07001e4f6000b6
:105270002bff07000004e0000200320020c0b30052
:10528000360037002e4090000040e80088fc070000
:105290001e4f600022ff07000004e0000200320001
:1052a00020c0b3002d0037000040eb0010479800ed
:1052b0001a0037001e4090000000fb00ae00900076
:1052c000008040002ffc07001e4f600014ff070005
:1052d0000004e0000200320020c0b3001f003700cd
:1052e0001e4090008000fb007e4090000000fb000c
:1052f0000000e900808f500003003a00f2fb070035
:105300001e4f600002003700c0fb07001e4f600008
:105310001e4090000040e800104798009e4090001a
:105320007e40900080cf5000e2ff35009ffb0700d9
:105330001e407800e14f500006003200804a800095
:105340007ffe07001e4078000004e000adff320041
:10535000010037000000000010c0b3000080fa0018
:10536000000006000a00fa00404798003107980044
:10537000024f9800134f98000040eb00004f780058
:105380000000eb00100798003600370010c0b30093
:10539000004f780049fb07001e4f6000e0fe070049
:1053a0000004e0000200320020c0b30033003700e8
:1053b0004e4090003efc07001e4f6000d8fe0700e4
:1053c0000004e0000200320020c0b3002b003700d0
:1053d0000e48900036fc07001e4f6000d0fe07000c
:1053e0000004e0000200320020c0b30023003700b8
:1053f0000000eb00100798000e0037001e00900020
:10540000be009000008040001040780028fc07009b
:105410001e4f6000c2fe07000004e00002003200e0
:1054200020c0b300150037001e0090000000e80007
:10543000100798001e4890008000fb001e0090009e
:10544000808f5000edff3c0058fb07001e4f6000ae
:105450001e407800e14f500006003200804a800074
:1054600037fe07001e4078000004e000c7ff32004e
:10547000010037000000000010c0b3000080fa00f7
:10548000000006000600fa00204798002107980057
:105490000040eb00004f78002800370010c0b30038
:1054a000004f7800704a8000e10f50000200360083
:1054b00010c0b300004f780000fb07001e4f6000d3
:1054c00097fe07000004e0000200320020c0b30095
:1054d000230037002e4090000040e800f4fb070056
:1054e0001e4f60008efe07000004e0000200320044
:1054f00020c0b3001a0037000e00e800a1fb07002f
:105500001e4f600086fe07000004e000020032002b
:1055100020c0b300120037006bfb07001e4f600075
:1055200022fb07001e4f60001e407800e14f500034
:1055300006003200804a800001fe07001e4078000d
:105540000004e000d5ff3200010037000000000039
:105550009e4090002e0090000148780010c0b300db
:105560000080fa00000006000200fa00004f7800f8
:10557000114798001e4090001e4068000080fb000c
:10558000e1cf2000614078000080fa0000000600b2
:105590000600fa00100798004147980000c0eb0091
:1055a000104798000040eb00004f780009003700da
:1055b0001e80fb009e00900000804000104078009c
:1055c000804078001e409000e7ff070010479800d9
:1055d0001e4fe8004e4090009e40780080cf500063
:1055e000f3ff39001e4090000080fa000000060022
:1055f0000000fa0021000700b04a88000080fa008d
:10560000000006000000fa00b04a80000080fa00a6
:10561000000006000000fa00301780004600de009f
:10562000614060008080fb00301780004800de0091
:10563000614060000081fb00301780004900de00ff
:10564000614060000080fb0000004000000041005d
:105650000000400000017800301780004700de00a5
:10566000614060000080fb0000004100000040003d
:10567000008040000080fa000000060001002000c9
:1056800091018800010020001100ba00000006000e
:020000040000fa
:0200000401f009
:04000000e6ff000017
:020000040000fa
:0200000401f009
:04000400ff7f00007a
:020000040000fa
:0200000401f009
:040008007fff000076
:020000040000fa
:0200000401f009
:04001400ffffff00eb
:020000040000fa
:10000800f2320000f2320000f2320000f232000058
:10001800f2320000f2320000f2320000f232000048
:10002800f2320000f2320000f2320000f430000038
:10003800f2320000f2320000f2320000f232000028
:10004800f23200006e1d00009c1d0000682b0000ad
:10005800f232000092310000dc320000f23200007f
:10006800f2320000f2320000f2320000f2320000f8
:10007800f2320000d42e0000082e0000f2320000f8
:10008800f2320000f2320000f2320000f2320000d8
:10009800f2320000f2320000f2320000f2320000c8
:1000a800f2320000f2320000f2320000f2320000b8
:1000b800f2320000f2320000f2320000f2320000a8
:1000c800f2320000f2320000f2320000f232000098
:1000d800f2320000f2320000f2320000f232000088
:1000e800f2320000f2320000f2320000f232000078
:0800f800f2320000f2320000b8
:020000040000fa
:10010800f2320000f2320000f2320000f232000057
:10011800f2320000f2320000f2320000f232000047
:10012800f2320000f2320000f2320000f430000037
:10013800f2320000f2320000f2320000f232000027
:10014800f23200006e1d00009c1d0000682b0000ac
:10015800f232000092310000dc320000f23200007e
:10016800f2320000f2320000f2320000f2320000f7
:10017800f2320000d42e0000082e0000f2320000f7
:10018800f2320000f2320000f2320000f2320000d7
:10019800f2320000f2320000f2320000f2320000c7
:1001a800f2320000f2320000f2320000f2320000b7
:1001b800f2320000f2320000f2320000f2320000a7
:1001c800f2320000f2320000f2320000f232000097
:1001d800f2320000f2320000f2320000f232000087
:1001e800f2320000f2320000f2320000f232000077
:0801f800f2320000f2320000b7
:020000040000fa
:10569000436f00006c6c00006563000074690000db
:1056a00076650000206400006563000069730000f7
:1056b000696f00006e2000007374000061720000ca
:1056c000746900006e6700000d0a00000000000011
:020000040000fa
:1056d000809fbe00829fbe003400f80000002000c2
:1056e000a00188000200fa008560a900c001200026
:1056f000501588001115800030fc2f0000806000dc
:105700000030a000101588002115800000fc2f003b
:105710008080600070022000010070002015880069
:10572000a194200091407800d0c3b30080cf5000f6
:105730000d003a00c00f20005015880011158000a0
:1057400030fc2f00008060004001b300101588007d
:105750002115800000fc2f00008060003001b300a4
:105760002015880051003700a19420009140780056
:10577000e0c3b30080cf500025003a00111580002f
:1057800030fc2f00008060000040a0001015880051
:105790002115800000fc2f00008060007001b30024
:1057a000201588004bc9bf000080fb00e10f5000ae
:1057b0000d003200e10f500003003c000000e0004b
:1057c0000600320039003700e20f500009003200b5
:1057d000e30f50000b00320034003700c0112100ed
:1057e0005015880031003700c02122005015880074
:1057f0002e003700c0412400501588000000000032
:105800002a003700c0812800501588002700370083
:105810004ac9bf00e24f500024003a001115800031
:1058200030fc2f00008060000040a00010158800b0
:105830002115800000fc2f00008060007001b30083
:10584000201588004bc9bf000080fb00e10f50000d
:105850000d003200e10f500003003c000000e000aa
:105860000600320011003700e20f5000090032003c
:10587000e30f50000a0032000c003700c011210075
:105880005015880009003700c021220050158800fb
:1058900006003700c041240050158800030037007f
:1058a000c08128005015880000000000002820005a
:1058b000000f7800304a80009e0078009100780048
:1058c00000014000a0952000000041000108780080
:1058d0001e8fe800304a80009e007800910078001a
:1058e0004006b00000014000a095200000004100eb
:1058f000010878001e8fe800304a80009e00780082
:1059000091007800800cb00000014000a0952000bc
:1059100000004100010878001e8fe800314a800035
:1059200010c0b30022062000828f500001003e000c
:105930000040eb008100e800314a88000004e000ec
:10594000010032004629ef00a19420009140780028
:10595000e0c3b30080cf500025003a00404a8000e9
:105960009e007800910078000001400020bb2000dc
:1059700000004100010878001e8fe800404a8000c6
:105980009e007800910078002003b00000014000e4
:1059900020bb200000004100010878001e8fe800b5
:1059a000404a80009e007800910078004006b000d8
:1059b0000001400020bb20000000410001087800e9
:1059c000414a800010c0b30002032000828f5000c3
:1059d00001003e000040eb008100e800414a8800e1
:1059e0000004e000760032004829ef007400370020
:1059f000a194200091407800f0c3b30080cf500004
:105a000033003a004bc9bf000080fb00e10f50009b
:105a100013003200e10f500003003c000000e000e2
:105a20000600320066003700e20f50001500320019
:105a3000e30f50001d003200610037001e007800a7
:105a400010007800f06688001e8fe8001e007800c5
:105a50001000780030678800e2e2a80058003700a4
:105a60001e00780010007800006788001e8fe80094
